{
	"contracts/DegenToken.sol": {
		"DegenToken": {
			"abi": [
				{
					"inputs": [],
					"stateMutability": "nonpayable",
					"type": "constructor"
				},
				{
					"anonymous": false,
					"inputs": [
						{
							"indexed": true,
							"internalType": "address",
							"name": "owner",
							"type": "address"
						},
						{
							"indexed": true,
							"internalType": "address",
							"name": "spender",
							"type": "address"
						},
						{
							"indexed": false,
							"internalType": "uint256",
							"name": "value",
							"type": "uint256"
						}
					],
					"name": "Approval",
					"type": "event"
				},
				{
					"anonymous": false,
					"inputs": [
						{
							"indexed": true,
							"internalType": "address",
							"name": "from",
							"type": "address"
						},
						{
							"indexed": true,
							"internalType": "address",
							"name": "to",
							"type": "address"
						},
						{
							"indexed": false,
							"internalType": "uint256",
							"name": "value",
							"type": "uint256"
						}
					],
					"name": "Transfer",
					"type": "event"
				},
				{
					"inputs": [
						{
							"internalType": "address",
							"name": "owner",
							"type": "address"
						},
						{
							"internalType": "address",
							"name": "spender",
							"type": "address"
						}
					],
					"name": "allowance",
					"outputs": [
						{
							"internalType": "uint256",
							"name": "",
							"type": "uint256"
						}
					],
					"stateMutability": "view",
					"type": "function"
				},
				{
					"inputs": [
						{
							"internalType": "address",
							"name": "spender",
							"type": "address"
						},
						{
							"internalType": "uint256",
							"name": "amount",
							"type": "uint256"
						}
					],
					"name": "approve",
					"outputs": [
						{
							"internalType": "bool",
							"name": "",
							"type": "bool"
						}
					],
					"stateMutability": "nonpayable",
					"type": "function"
				},
				{
					"inputs": [
						{
							"internalType": "address",
							"name": "account",
							"type": "address"
						}
					],
					"name": "balanceOf",
					"outputs": [
						{
							"internalType": "uint256",
							"name": "",
							"type": "uint256"
						}
					],
					"stateMutability": "view",
					"type": "function"
				},
				{
					"inputs": [
						{
							"internalType": "uint256",
							"name": "_tokens",
							"type": "uint256"
						}
					],
					"name": "burnTokens",
					"outputs": [],
					"stateMutability": "nonpayable",
					"type": "function"
				},
				{
					"inputs": [],
					"name": "checkTokenBalance",
					"outputs": [
						{
							"internalType": "uint256",
							"name": "",
							"type": "uint256"
						}
					],
					"stateMutability": "view",
					"type": "function"
				},
				{
					"inputs": [],
					"name": "decimals",
					"outputs": [
						{
							"internalType": "uint8",
							"name": "",
							"type": "uint8"
						}
					],
					"stateMutability": "view",
					"type": "function"
				},
				{
					"inputs": [
						{
							"internalType": "address",
							"name": "spender",
							"type": "address"
						},
						{
							"internalType": "uint256",
							"name": "subtractedValue",
							"type": "uint256"
						}
					],
					"name": "decreaseAllowance",
					"outputs": [
						{
							"internalType": "bool",
							"name": "",
							"type": "bool"
						}
					],
					"stateMutability": "nonpayable",
					"type": "function"
				},
				{
					"inputs": [
						{
							"internalType": "address",
							"name": "spender",
							"type": "address"
						},
						{
							"internalType": "uint256",
							"name": "addedValue",
							"type": "uint256"
						}
					],
					"name": "increaseAllowance",
					"outputs": [
						{
							"internalType": "bool",
							"name": "",
							"type": "bool"
						}
					],
					"stateMutability": "nonpayable",
					"type": "function"
				},
				{
					"inputs": [
						{
							"internalType": "address",
							"name": "_receiver",
							"type": "address"
						},
						{
							"internalType": "uint256",
							"name": "_tokens",
							"type": "uint256"
						}
					],
					"name": "mintTokens",
					"outputs": [],
					"stateMutability": "nonpayable",
					"type": "function"
				},
				{
					"inputs": [],
					"name": "myPurchases",
					"outputs": [
						{
							"internalType": "string[]",
							"name": "",
							"type": "string[]"
						},
						{
							"internalType": "uint256",
							"name": "",
							"type": "uint256"
						}
					],
					"stateMutability": "view",
					"type": "function"
				},
				{
					"inputs": [],
					"name": "name",
					"outputs": [
						{
							"internalType": "string",
							"name": "",
							"type": "string"
						}
					],
					"stateMutability": "view",
					"type": "function"
				},
				{
					"inputs": [],
					"name": "owner",
					"outputs": [
						{
							"internalType": "address",
							"name": "",
							"type": "address"
						}
					],
					"stateMutability": "view",
					"type": "function"
				},
				{
					"inputs": [
						{
							"internalType": "uint256",
							"name": "_ch",
							"type": "uint256"
						}
					],
					"name": "redeemTokens",
					"outputs": [],
					"stateMutability": "nonpayable",
					"type": "function"
				},
				{
					"inputs": [],
					"name": "shopItems",
					"outputs": [
						{
							"internalType": "string",
							"name": "",
							"type": "string"
						}
					],
					"stateMutability": "pure",
					"type": "function"
				},
				{
					"inputs": [],
					"name": "symbol",
					"outputs": [
						{
							"internalType": "string",
							"name": "",
							"type": "string"
						}
					],
					"stateMutability": "view",
					"type": "function"
				},
				{
					"inputs": [],
					"name": "tokenName",
					"outputs": [
						{
							"internalType": "string",
							"name": "",
							"type": "string"
						}
					],
					"stateMutability": "view",
					"type": "function"
				},
				{
					"inputs": [],
					"name": "tokenSymbol",
					"outputs": [
						{
							"internalType": "string",
							"name": "",
							"type": "string"
						}
					],
					"stateMutability": "view",
					"type": "function"
				},
				{
					"inputs": [],
					"name": "totalSupply",
					"outputs": [
						{
							"internalType": "uint256",
							"name": "",
							"type": "uint256"
						}
					],
					"stateMutability": "view",
					"type": "function"
				},
				{
					"inputs": [
						{
							"internalType": "address",
							"name": "to",
							"type": "address"
						},
						{
							"internalType": "uint256",
							"name": "amount",
							"type": "uint256"
						}
					],
					"name": "transfer",
					"outputs": [
						{
							"internalType": "bool",
							"name": "",
							"type": "bool"
						}
					],
					"stateMutability": "nonpayable",
					"type": "function"
				},
				{
					"inputs": [
						{
							"internalType": "address",
							"name": "from",
							"type": "address"
						},
						{
							"internalType": "address",
							"name": "to",
							"type": "address"
						},
						{
							"internalType": "uint256",
							"name": "amount",
							"type": "uint256"
						}
					],
					"name": "transferFrom",
					"outputs": [
						{
							"internalType": "bool",
							"name": "",
							"type": "bool"
						}
					],
					"stateMutability": "nonpayable",
					"type": "function"
				},
				{
					"inputs": [
						{
							"internalType": "address",
							"name": "_reciever",
							"type": "address"
						},
						{
							"internalType": "uint256",
							"name": "_tokens",
							"type": "uint256"
						}
					],
					"name": "transferTokens",
					"outputs": [],
					"stateMutability": "nonpayable",
					"type": "function"
				}
			],
			"devdoc": {
				"events": {
					"Approval(address,address,uint256)": {
						"details": "Emitted when the allowance of a `spender` for an `owner` is set by a call to {approve}. `value` is the new allowance."
					},
					"Transfer(address,address,uint256)": {
						"details": "Emitted when `value` tokens are moved from one account (`from`) to another (`to`). Note that `value` may be zero."
					}
				},
				"kind": "dev",
				"methods": {
					"allowance(address,address)": {
						"details": "See {IERC20-allowance}."
					},
					"approve(address,uint256)": {
						"details": "See {IERC20-approve}. NOTE: If `amount` is the maximum `uint256`, the allowance is not updated on `transferFrom`. This is semantically equivalent to an infinite approval. Requirements: - `spender` cannot be the zero address."
					},
					"balanceOf(address)": {
						"details": "See {IERC20-balanceOf}."
					},
					"decimals()": {
						"details": "Returns the number of decimals used to get its user representation. For example, if `decimals` equals `2`, a balance of `505` tokens should be displayed to a user as `5.05` (`505 / 10 ** 2`). Tokens usually opt for a value of 18, imitating the relationship between Ether and Wei. This is the value {ERC20} uses, unless this function is overridden; NOTE: This information is only used for _display_ purposes: it in no way affects any of the arithmetic of the contract, including {IERC20-balanceOf} and {IERC20-transfer}."
					},
					"decreaseAllowance(address,uint256)": {
						"details": "Atomically decreases the allowance granted to `spender` by the caller. This is an alternative to {approve} that can be used as a mitigation for problems described in {IERC20-approve}. Emits an {Approval} event indicating the updated allowance. Requirements: - `spender` cannot be the zero address. - `spender` must have allowance for the caller of at least `subtractedValue`."
					},
					"increaseAllowance(address,uint256)": {
						"details": "Atomically increases the allowance granted to `spender` by the caller. This is an alternative to {approve} that can be used as a mitigation for problems described in {IERC20-approve}. Emits an {Approval} event indicating the updated allowance. Requirements: - `spender` cannot be the zero address."
					},
					"name()": {
						"details": "Returns the name of the token."
					},
					"symbol()": {
						"details": "Returns the symbol of the token, usually a shorter version of the name."
					},
					"totalSupply()": {
						"details": "See {IERC20-totalSupply}."
					},
					"transfer(address,uint256)": {
						"details": "See {IERC20-transfer}. Requirements: - `to` cannot be the zero address. - the caller must have a balance of at least `amount`."
					},
					"transferFrom(address,address,uint256)": {
						"details": "See {IERC20-transferFrom}. Emits an {Approval} event indicating the updated allowance. This is not required by the EIP. See the note at the beginning of {ERC20}. NOTE: Does not update the allowance if the current allowance is the maximum `uint256`. Requirements: - `from` and `to` cannot be the zero address. - `from` must have a balance of at least `amount`. - the caller must have allowance for ``from``'s tokens of at least `amount`."
					}
				},
				"version": 1
			},
			"evm": {
				"assembly": "    /* \"contracts/DegenToken.sol\":226:3019  contract DegenToken is ERC20 {... */\n  mstore(0x40, 0x80)\n    /* \"contracts/DegenToken.sol\":264:303  string public tokenName = \"DEGEN TOKEN\" */\n  mload(0x40)\n  dup1\n  0x40\n  add\n  0x40\n  mstore\n  dup1\n  0x0b\n  dup2\n  mstore\n  0x20\n  add\n  0x444547454e20544f4b454e000000000000000000000000000000000000000000\n  dup2\n  mstore\n  pop\n  0x05\n  swap1\n  dup2\n  tag_1\n  swap2\n  swap1\n  tag_2\n  jump\t// in\ntag_1:\n  pop\n    /* \"contracts/DegenToken.sol\":310:343  string public tokenSymbol = \"DGN\" */\n  mload(0x40)\n  dup1\n  0x40\n  add\n  0x40\n  mstore\n  dup1\n  0x03\n  dup2\n  mstore\n  0x20\n  add\n  0x44474e0000000000000000000000000000000000000000000000000000000000\n  dup2\n  mstore\n  pop\n  0x06\n  swap1\n  dup2\n  tag_3\n  swap2\n  swap1\n  tag_2\n  jump\t// in\ntag_3:\n  pop\n    /* \"contracts/DegenToken.sol\":427:542  constructor() ERC20(tokenName, tokenSymbol){... */\n  callvalue\n  dup1\n  iszero\n  tag_4\n  jumpi\n  0x00\n  dup1\n  revert\ntag_4:\n  pop\n    /* \"contracts/DegenToken.sol\":447:456  tokenName */\n  0x05\n    /* \"@openzeppelin/contracts/token/ERC20/ERC20.sol\":1976:2089  constructor(string memory name_, string memory symbol_) {... */\n  dup1\n  sload\n  tag_6\n  swap1\n  tag_7\n  jump\t// in\ntag_6:\n  dup1\n  0x1f\n  add\n  0x20\n  dup1\n  swap2\n  div\n  mul\n  0x20\n  add\n  mload(0x40)\n  swap1\n  dup2\n  add\n  0x40\n  mstore\n  dup1\n  swap3\n  swap2\n  swap1\n  dup2\n  dup2\n  mstore\n  0x20\n  add\n  dup3\n  dup1\n  sload\n  tag_8\n  swap1\n  tag_7\n  jump\t// in\ntag_8:\n  dup1\n  iszero\n  tag_9\n  jumpi\n  dup1\n  0x1f\n  lt\n  tag_10\n  jumpi\n  0x0100\n  dup1\n  dup4\n  sload\n  div\n  mul\n  dup4\n  mstore\n  swap2\n  0x20\n  add\n  swap2\n  jump(tag_9)\ntag_10:\n  dup3\n  add\n  swap2\n  swap1\n  0x00\n  mstore\n  keccak256(0x00, 0x20)\n  swap1\ntag_11:\n  dup2\n  sload\n  dup2\n  mstore\n  swap1\n  0x01\n  add\n  swap1\n  0x20\n  add\n  dup1\n  dup4\n  gt\n  tag_11\n  jumpi\n  dup3\n  swap1\n  sub\n  0x1f\n  and\n  dup3\n  add\n  swap2\ntag_9:\n  pop\n  pop\n  pop\n  pop\n  pop\n    /* \"contracts/DegenToken.sol\":458:469  tokenSymbol */\n  0x06\n    /* \"@openzeppelin/contracts/token/ERC20/ERC20.sol\":1976:2089  constructor(string memory name_, string memory symbol_) {... */\n  dup1\n  sload\n  tag_12\n  swap1\n  tag_7\n  jump\t// in\ntag_12:\n  dup1\n  0x1f\n  add\n  0x20\n  dup1\n  swap2\n  div\n  mul\n  0x20\n  add\n  mload(0x40)\n  swap1\n  dup2\n  add\n  0x40\n  mstore\n  dup1\n  swap3\n  swap2\n  swap1\n  dup2\n  dup2\n  mstore\n  0x20\n  add\n  dup3\n  dup1\n  sload\n  tag_13\n  swap1\n  tag_7\n  jump\t// in\ntag_13:\n  dup1\n  iszero\n  tag_14\n  jumpi\n  dup1\n  0x1f\n  lt\n  tag_15\n  jumpi\n  0x0100\n  dup1\n  dup4\n  sload\n  div\n  mul\n  dup4\n  mstore\n  swap2\n  0x20\n  add\n  swap2\n  jump(tag_14)\ntag_15:\n  dup3\n  add\n  swap2\n  swap1\n  0x00\n  mstore\n  keccak256(0x00, 0x20)\n  swap1\ntag_16:\n  dup2\n  sload\n  dup2\n  mstore\n  swap1\n  0x01\n  add\n  swap1\n  0x20\n  add\n  dup1\n  dup4\n  gt\n  tag_16\n  jumpi\n  dup3\n  swap1\n  sub\n  0x1f\n  and\n  dup3\n  add\n  swap2\ntag_14:\n  pop\n  pop\n  pop\n  pop\n  pop\n    /* \"@openzeppelin/contracts/token/ERC20/ERC20.sol\":2050:2055  name_ */\n  dup2\n    /* \"@openzeppelin/contracts/token/ERC20/ERC20.sol\":2042:2047  _name */\n  0x03\n    /* \"@openzeppelin/contracts/token/ERC20/ERC20.sol\":2042:2055  _name = name_ */\n  swap1\n  dup2\n  tag_19\n  swap2\n  swap1\n  tag_2\n  jump\t// in\ntag_19:\n  pop\n    /* \"@openzeppelin/contracts/token/ERC20/ERC20.sol\":2075:2082  symbol_ */\n  dup1\n    /* \"@openzeppelin/contracts/token/ERC20/ERC20.sol\":2065:2072  _symbol */\n  0x04\n    /* \"@openzeppelin/contracts/token/ERC20/ERC20.sol\":2065:2082  _symbol = symbol_ */\n  swap1\n  dup2\n  tag_20\n  swap2\n  swap1\n  tag_2\n  jump\t// in\ntag_20:\n  pop\n    /* \"@openzeppelin/contracts/token/ERC20/ERC20.sol\":1976:2089  constructor(string memory name_, string memory symbol_) {... */\n  pop\n  pop\n    /* \"contracts/DegenToken.sol\":481:505  _mint(msg.sender, 10000) */\n  tag_22\n    /* \"contracts/DegenToken.sol\":487:497  msg.sender */\n  caller\n    /* \"contracts/DegenToken.sol\":499:504  10000 */\n  0x2710\n    /* \"contracts/DegenToken.sol\":481:486  _mint */\n  shl(0x20, tag_23)\n    /* \"contracts/DegenToken.sol\":481:505  _mint(msg.sender, 10000) */\n  0x20\n  shr\n  jump\t// in\ntag_22:\n    /* \"contracts/DegenToken.sol\":524:534  msg.sender */\n  caller\n    /* \"contracts/DegenToken.sol\":516:521  owner */\n  0x08\n  0x00\n    /* \"contracts/DegenToken.sol\":516:534  owner = msg.sender */\n  0x0100\n  exp\n  dup2\n  sload\n  dup2\n  0xffffffffffffffffffffffffffffffffffffffff\n  mul\n  not\n  and\n  swap1\n  dup4\n  0xffffffffffffffffffffffffffffffffffffffff\n  and\n  mul\n  or\n  swap1\n  sstore\n  pop\n    /* \"contracts/DegenToken.sol\":226:3019  contract DegenToken is ERC20 {... */\n  jump(tag_24)\n    /* \"@openzeppelin/contracts/token/ERC20/ERC20.sol\":8567:9102  function _mint(address account, uint256 amount) internal virtual {... */\ntag_23:\n    /* \"@openzeppelin/contracts/token/ERC20/ERC20.sol\":8669:8670  0 */\n  0x00\n    /* \"@openzeppelin/contracts/token/ERC20/ERC20.sol\":8650:8671  account != address(0) */\n  0xffffffffffffffffffffffffffffffffffffffff\n  and\n    /* \"@openzeppelin/contracts/token/ERC20/ERC20.sol\":8650:8657  account */\n  dup3\n    /* \"@openzeppelin/contracts/token/ERC20/ERC20.sol\":8650:8671  account != address(0) */\n  0xffffffffffffffffffffffffffffffffffffffff\n  and\n  sub\n    /* \"@openzeppelin/contracts/token/ERC20/ERC20.sol\":8642:8707  require(account != address(0), \"ERC20: mint to the zero address\") */\n  tag_26\n  jumpi\n  mload(0x40)\n  0x08c379a000000000000000000000000000000000000000000000000000000000\n  dup2\n  mstore\n  0x04\n  add\n  tag_27\n  swap1\n  tag_28\n  jump\t// in\ntag_27:\n  mload(0x40)\n  dup1\n  swap2\n  sub\n  swap1\n  revert\ntag_26:\n    /* \"@openzeppelin/contracts/token/ERC20/ERC20.sol\":8718:8767  _beforeTokenTransfer(address(0), account, amount) */\n  tag_29\n    /* \"@openzeppelin/contracts/token/ERC20/ERC20.sol\":8747:8748  0 */\n  0x00\n    /* \"@openzeppelin/contracts/token/ERC20/ERC20.sol\":8751:8758  account */\n  dup4\n    /* \"@openzeppelin/contracts/token/ERC20/ERC20.sol\":8760:8766  amount */\n  dup4\n    /* \"@openzeppelin/contracts/token/ERC20/ERC20.sol\":8718:8738  _beforeTokenTransfer */\n  shl(0x20, tag_30)\n    /* \"@openzeppelin/contracts/token/ERC20/ERC20.sol\":8718:8767  _beforeTokenTransfer(address(0), account, amount) */\n  0x20\n  shr\n  jump\t// in\ntag_29:\n    /* \"@openzeppelin/contracts/token/ERC20/ERC20.sol\":8794:8800  amount */\n  dup1\n    /* \"@openzeppelin/contracts/token/ERC20/ERC20.sol\":8778:8790  _totalSupply */\n  0x02\n  0x00\n    /* \"@openzeppelin/contracts/token/ERC20/ERC20.sol\":8778:8800  _totalSupply += amount */\n  dup3\n  dup3\n  sload\n  tag_31\n  swap2\n  swap1\n  tag_32\n  jump\t// in\ntag_31:\n  swap3\n  pop\n  pop\n  dup2\n  swap1\n  sstore\n  pop\n    /* \"@openzeppelin/contracts/token/ERC20/ERC20.sol\":8968:8974  amount */\n  dup1\n    /* \"@openzeppelin/contracts/token/ERC20/ERC20.sol\":8946:8955  _balances */\n  0x00\n    /* \"@openzeppelin/contracts/token/ERC20/ERC20.sol\":8946:8964  _balances[account] */\n  dup1\n    /* \"@openzeppelin/contracts/token/ERC20/ERC20.sol\":8956:8963  account */\n  dup5\n    /* \"@openzeppelin/contracts/token/ERC20/ERC20.sol\":8946:8964  _balances[account] */\n  0xffffffffffffffffffffffffffffffffffffffff\n  and\n  0xffffffffffffffffffffffffffffffffffffffff\n  and\n  dup2\n  mstore\n  0x20\n  add\n  swap1\n  dup2\n  mstore\n  0x20\n  add\n  0x00\n  keccak256\n  0x00\n    /* \"@openzeppelin/contracts/token/ERC20/ERC20.sol\":8946:8974  _balances[account] += amount */\n  dup3\n  dup3\n  sload\n  add\n  swap3\n  pop\n  pop\n  dup2\n  swap1\n  sstore\n  pop\n    /* \"@openzeppelin/contracts/token/ERC20/ERC20.sol\":9020:9027  account */\n  dup2\n    /* \"@openzeppelin/contracts/token/ERC20/ERC20.sol\":8999:9036  Transfer(address(0), account, amount) */\n  0xffffffffffffffffffffffffffffffffffffffff\n  and\n    /* \"@openzeppelin/contracts/token/ERC20/ERC20.sol\":9016:9017  0 */\n  0x00\n    /* \"@openzeppelin/contracts/token/ERC20/ERC20.sol\":8999:9036  Transfer(address(0), account, amount) */\n  0xffffffffffffffffffffffffffffffffffffffff\n  and\n  0xddf252ad1be2c89b69c2b068fc378daa952ba7f163c4a11628f55a4df523b3ef\n    /* \"@openzeppelin/contracts/token/ERC20/ERC20.sol\":9029:9035  amount */\n  dup4\n    /* \"@openzeppelin/contracts/token/ERC20/ERC20.sol\":8999:9036  Transfer(address(0), account, amount) */\n  mload(0x40)\n  tag_33\n  swap2\n  swap1\n  tag_34\n  jump\t// in\ntag_33:\n  mload(0x40)\n  dup1\n  swap2\n  sub\n  swap1\n  log3\n    /* \"@openzeppelin/contracts/token/ERC20/ERC20.sol\":9047:9095  _afterTokenTransfer(address(0), account, amount) */\n  tag_35\n    /* \"@openzeppelin/contracts/token/ERC20/ERC20.sol\":9075:9076  0 */\n  0x00\n    /* \"@openzeppelin/contracts/token/ERC20/ERC20.sol\":9079:9086  account */\n  dup4\n    /* \"@openzeppelin/contracts/token/ERC20/ERC20.sol\":9088:9094  amount */\n  dup4\n    /* \"@openzeppelin/contracts/token/ERC20/ERC20.sol\":9047:9066  _afterTokenTransfer */\n  shl(0x20, tag_36)\n    /* \"@openzeppelin/contracts/token/ERC20/ERC20.sol\":9047:9095  _afterTokenTransfer(address(0), account, amount) */\n  0x20\n  shr\n  jump\t// in\ntag_35:\n    /* \"@openzeppelin/contracts/token/ERC20/ERC20.sol\":8567:9102  function _mint(address account, uint256 amount) internal virtual {... */\n  pop\n  pop\n  jump\t// out\n    /* \"@openzeppelin/contracts/token/ERC20/ERC20.sol\":12180:12301  function _beforeTokenTransfer(... */\ntag_30:\n  pop\n  pop\n  pop\n  jump\t// out\n    /* \"@openzeppelin/contracts/token/ERC20/ERC20.sol\":12889:13009  function _afterTokenTransfer(... */\ntag_36:\n  pop\n  pop\n  pop\n  jump\t// out\n    /* \"#utility.yul\":7:106   */\ntag_39:\n    /* \"#utility.yul\":59:65   */\n  0x00\n    /* \"#utility.yul\":93:98   */\n  dup2\n    /* \"#utility.yul\":87:99   */\n  mload\n    /* \"#utility.yul\":77:99   */\n  swap1\n  pop\n    /* \"#utility.yul\":7:106   */\n  swap2\n  swap1\n  pop\n  jump\t// out\n    /* \"#utility.yul\":112:292   */\ntag_40:\n    /* \"#utility.yul\":160:237   */\n  0x4e487b7100000000000000000000000000000000000000000000000000000000\n    /* \"#utility.yul\":157:158   */\n  0x00\n    /* \"#utility.yul\":150:238   */\n  mstore\n    /* \"#utility.yul\":257:261   */\n  0x41\n    /* \"#utility.yul\":254:255   */\n  0x04\n    /* \"#utility.yul\":247:262   */\n  mstore\n    /* \"#utility.yul\":281:285   */\n  0x24\n    /* \"#utility.yul\":278:279   */\n  0x00\n    /* \"#utility.yul\":271:286   */\n  revert\n    /* \"#utility.yul\":298:478   */\ntag_41:\n    /* \"#utility.yul\":346:423   */\n  0x4e487b7100000000000000000000000000000000000000000000000000000000\n    /* \"#utility.yul\":343:344   */\n  0x00\n    /* \"#utility.yul\":336:424   */\n  mstore\n    /* \"#utility.yul\":443:447   */\n  0x22\n    /* \"#utility.yul\":440:441   */\n  0x04\n    /* \"#utility.yul\":433:448   */\n  mstore\n    /* \"#utility.yul\":467:471   */\n  0x24\n    /* \"#utility.yul\":464:465   */\n  0x00\n    /* \"#utility.yul\":457:472   */\n  revert\n    /* \"#utility.yul\":484:804   */\ntag_7:\n    /* \"#utility.yul\":528:534   */\n  0x00\n    /* \"#utility.yul\":565:566   */\n  0x02\n    /* \"#utility.yul\":559:563   */\n  dup3\n    /* \"#utility.yul\":555:567   */\n  div\n    /* \"#utility.yul\":545:567   */\n  swap1\n  pop\n    /* \"#utility.yul\":612:613   */\n  0x01\n    /* \"#utility.yul\":606:610   */\n  dup3\n    /* \"#utility.yul\":602:614   */\n  and\n    /* \"#utility.yul\":633:651   */\n  dup1\n    /* \"#utility.yul\":623:704   */\n  tag_68\n  jumpi\n    /* \"#utility.yul\":689:693   */\n  0x7f\n    /* \"#utility.yul\":681:687   */\n  dup3\n    /* \"#utility.yul\":677:694   */\n  and\n    /* \"#utility.yul\":667:694   */\n  swap2\n  pop\n    /* \"#utility.yul\":623:704   */\ntag_68:\n    /* \"#utility.yul\":751:753   */\n  0x20\n    /* \"#utility.yul\":743:749   */\n  dup3\n    /* \"#utility.yul\":740:754   */\n  lt\n    /* \"#utility.yul\":720:738   */\n  dup2\n    /* \"#utility.yul\":717:755   */\n  sub\n    /* \"#utility.yul\":714:798   */\n  tag_69\n  jumpi\n    /* \"#utility.yul\":770:788   */\n  tag_70\n  tag_41\n  jump\t// in\ntag_70:\n    /* \"#utility.yul\":714:798   */\ntag_69:\n    /* \"#utility.yul\":535:804   */\n  pop\n    /* \"#utility.yul\":484:804   */\n  swap2\n  swap1\n  pop\n  jump\t// out\n    /* \"#utility.yul\":810:951   */\ntag_42:\n    /* \"#utility.yul\":859:863   */\n  0x00\n    /* \"#utility.yul\":882:885   */\n  dup2\n    /* \"#utility.yul\":874:885   */\n  swap1\n  pop\n    /* \"#utility.yul\":905:908   */\n  dup2\n    /* \"#utility.yul\":902:903   */\n  0x00\n    /* \"#utility.yul\":895:909   */\n  mstore\n    /* \"#utility.yul\":939:943   */\n  0x20\n    /* \"#utility.yul\":936:937   */\n  0x00\n    /* \"#utility.yul\":926:944   */\n  keccak256\n    /* \"#utility.yul\":918:944   */\n  swap1\n  pop\n    /* \"#utility.yul\":810:951   */\n  swap2\n  swap1\n  pop\n  jump\t// out\n    /* \"#utility.yul\":957:1050   */\ntag_43:\n    /* \"#utility.yul\":994:1000   */\n  0x00\n    /* \"#utility.yul\":1041:1043   */\n  0x20\n    /* \"#utility.yul\":1036:1038   */\n  0x1f\n    /* \"#utility.yul\":1029:1034   */\n  dup4\n    /* \"#utility.yul\":1025:1039   */\n  add\n    /* \"#utility.yul\":1021:1044   */\n  div\n    /* \"#utility.yul\":1011:1044   */\n  swap1\n  pop\n    /* \"#utility.yul\":957:1050   */\n  swap2\n  swap1\n  pop\n  jump\t// out\n    /* \"#utility.yul\":1056:1163   */\ntag_44:\n    /* \"#utility.yul\":1100:1108   */\n  0x00\n    /* \"#utility.yul\":1150:1155   */\n  dup3\n    /* \"#utility.yul\":1144:1148   */\n  dup3\n    /* \"#utility.yul\":1140:1156   */\n  shl\n    /* \"#utility.yul\":1119:1156   */\n  swap1\n  pop\n    /* \"#utility.yul\":1056:1163   */\n  swap3\n  swap2\n  pop\n  pop\n  jump\t// out\n    /* \"#utility.yul\":1169:1562   */\ntag_45:\n    /* \"#utility.yul\":1238:1244   */\n  0x00\n    /* \"#utility.yul\":1288:1289   */\n  0x08\n    /* \"#utility.yul\":1276:1286   */\n  dup4\n    /* \"#utility.yul\":1272:1290   */\n  mul\n    /* \"#utility.yul\":1311:1408   */\n  tag_75\n    /* \"#utility.yul\":1341:1407   */\n  0xffffffffffffffffffffffffffffffffffffffffffffffffffffffffffffffff\n    /* \"#utility.yul\":1330:1339   */\n  dup3\n    /* \"#utility.yul\":1311:1408   */\n  tag_44\n  jump\t// in\ntag_75:\n    /* \"#utility.yul\":1429:1468   */\n  tag_76\n    /* \"#utility.yul\":1459:1467   */\n  dup7\n    /* \"#utility.yul\":1448:1457   */\n  dup4\n    /* \"#utility.yul\":1429:1468   */\n  tag_44\n  jump\t// in\ntag_76:\n    /* \"#utility.yul\":1417:1468   */\n  swap6\n  pop\n    /* \"#utility.yul\":1501:1505   */\n  dup1\n    /* \"#utility.yul\":1497:1506   */\n  not\n    /* \"#utility.yul\":1490:1495   */\n  dup5\n    /* \"#utility.yul\":1486:1507   */\n  and\n    /* \"#utility.yul\":1477:1507   */\n  swap4\n  pop\n    /* \"#utility.yul\":1550:1554   */\n  dup1\n    /* \"#utility.yul\":1540:1548   */\n  dup7\n    /* \"#utility.yul\":1536:1555   */\n  and\n    /* \"#utility.yul\":1529:1534   */\n  dup5\n    /* \"#utility.yul\":1526:1556   */\n  or\n    /* \"#utility.yul\":1516:1556   */\n  swap3\n  pop\n    /* \"#utility.yul\":1245:1562   */\n  pop\n  pop\n    /* \"#utility.yul\":1169:1562   */\n  swap4\n  swap3\n  pop\n  pop\n  pop\n  jump\t// out\n    /* \"#utility.yul\":1568:1645   */\ntag_46:\n    /* \"#utility.yul\":1605:1612   */\n  0x00\n    /* \"#utility.yul\":1634:1639   */\n  dup2\n    /* \"#utility.yul\":1623:1639   */\n  swap1\n  pop\n    /* \"#utility.yul\":1568:1645   */\n  swap2\n  swap1\n  pop\n  jump\t// out\n    /* \"#utility.yul\":1651:1711   */\ntag_47:\n    /* \"#utility.yul\":1679:1682   */\n  0x00\n    /* \"#utility.yul\":1700:1705   */\n  dup2\n    /* \"#utility.yul\":1693:1705   */\n  swap1\n  pop\n    /* \"#utility.yul\":1651:1711   */\n  swap2\n  swap1\n  pop\n  jump\t// out\n    /* \"#utility.yul\":1717:1859   */\ntag_48:\n    /* \"#utility.yul\":1767:1776   */\n  0x00\n    /* \"#utility.yul\":1800:1853   */\n  tag_80\n    /* \"#utility.yul\":1818:1852   */\n  tag_81\n    /* \"#utility.yul\":1827:1851   */\n  tag_82\n    /* \"#utility.yul\":1845:1850   */\n  dup5\n    /* \"#utility.yul\":1827:1851   */\n  tag_46\n  jump\t// in\ntag_82:\n    /* \"#utility.yul\":1818:1852   */\n  tag_47\n  jump\t// in\ntag_81:\n    /* \"#utility.yul\":1800:1853   */\n  tag_46\n  jump\t// in\ntag_80:\n    /* \"#utility.yul\":1787:1853   */\n  swap1\n  pop\n    /* \"#utility.yul\":1717:1859   */\n  swap2\n  swap1\n  pop\n  jump\t// out\n    /* \"#utility.yul\":1865:1940   */\ntag_49:\n    /* \"#utility.yul\":1908:1911   */\n  0x00\n    /* \"#utility.yul\":1929:1934   */\n  dup2\n    /* \"#utility.yul\":1922:1934   */\n  swap1\n  pop\n    /* \"#utility.yul\":1865:1940   */\n  swap2\n  swap1\n  pop\n  jump\t// out\n    /* \"#utility.yul\":1946:2215   */\ntag_50:\n    /* \"#utility.yul\":2056:2095   */\n  tag_85\n    /* \"#utility.yul\":2087:2094   */\n  dup4\n    /* \"#utility.yul\":2056:2095   */\n  tag_48\n  jump\t// in\ntag_85:\n    /* \"#utility.yul\":2117:2208   */\n  tag_86\n    /* \"#utility.yul\":2166:2207   */\n  tag_87\n    /* \"#utility.yul\":2190:2206   */\n  dup3\n    /* \"#utility.yul\":2166:2207   */\n  tag_49\n  jump\t// in\ntag_87:\n    /* \"#utility.yul\":2158:2164   */\n  dup5\n    /* \"#utility.yul\":2151:2155   */\n  dup5\n    /* \"#utility.yul\":2145:2156   */\n  sload\n    /* \"#utility.yul\":2117:2208   */\n  tag_45\n  jump\t// in\ntag_86:\n    /* \"#utility.yul\":2111:2115   */\n  dup3\n    /* \"#utility.yul\":2104:2209   */\n  sstore\n    /* \"#utility.yul\":2022:2215   */\n  pop\n    /* \"#utility.yul\":1946:2215   */\n  pop\n  pop\n  pop\n  jump\t// out\n    /* \"#utility.yul\":2221:2294   */\ntag_51:\n    /* \"#utility.yul\":2266:2269   */\n  0x00\n    /* \"#utility.yul\":2221:2294   */\n  swap1\n  jump\t// out\n    /* \"#utility.yul\":2300:2489   */\ntag_52:\n    /* \"#utility.yul\":2377:2409   */\n  tag_90\n  tag_51\n  jump\t// in\ntag_90:\n    /* \"#utility.yul\":2418:2483   */\n  tag_91\n    /* \"#utility.yul\":2476:2482   */\n  dup2\n    /* \"#utility.yul\":2468:2474   */\n  dup5\n    /* \"#utility.yul\":2462:2466   */\n  dup5\n    /* \"#utility.yul\":2418:2483   */\n  tag_50\n  jump\t// in\ntag_91:\n    /* \"#utility.yul\":2353:2489   */\n  pop\n    /* \"#utility.yul\":2300:2489   */\n  pop\n  pop\n  jump\t// out\n    /* \"#utility.yul\":2495:2681   */\ntag_53:\n    /* \"#utility.yul\":2555:2675   */\ntag_93:\n    /* \"#utility.yul\":2572:2575   */\n  dup2\n    /* \"#utility.yul\":2565:2570   */\n  dup2\n    /* \"#utility.yul\":2562:2576   */\n  lt\n    /* \"#utility.yul\":2555:2675   */\n  iszero\n  tag_95\n  jumpi\n    /* \"#utility.yul\":2626:2665   */\n  tag_96\n    /* \"#utility.yul\":2663:2664   */\n  0x00\n    /* \"#utility.yul\":2656:2661   */\n  dup3\n    /* \"#utility.yul\":2626:2665   */\n  tag_52\n  jump\t// in\ntag_96:\n    /* \"#utility.yul\":2599:2600   */\n  0x01\n    /* \"#utility.yul\":2592:2597   */\n  dup2\n    /* \"#utility.yul\":2588:2601   */\n  add\n    /* \"#utility.yul\":2579:2601   */\n  swap1\n  pop\n    /* \"#utility.yul\":2555:2675   */\n  jump(tag_93)\ntag_95:\n    /* \"#utility.yul\":2495:2681   */\n  pop\n  pop\n  jump\t// out\n    /* \"#utility.yul\":2687:3230   */\ntag_54:\n    /* \"#utility.yul\":2788:2790   */\n  0x1f\n    /* \"#utility.yul\":2783:2786   */\n  dup3\n    /* \"#utility.yul\":2780:2791   */\n  gt\n    /* \"#utility.yul\":2777:3223   */\n  iszero\n  tag_98\n  jumpi\n    /* \"#utility.yul\":2822:2860   */\n  tag_99\n    /* \"#utility.yul\":2854:2859   */\n  dup2\n    /* \"#utility.yul\":2822:2860   */\n  tag_42\n  jump\t// in\ntag_99:\n    /* \"#utility.yul\":2906:2935   */\n  tag_100\n    /* \"#utility.yul\":2924:2934   */\n  dup5\n    /* \"#utility.yul\":2906:2935   */\n  tag_43\n  jump\t// in\ntag_100:\n    /* \"#utility.yul\":2896:2904   */\n  dup2\n    /* \"#utility.yul\":2892:2936   */\n  add\n    /* \"#utility.yul\":3089:3091   */\n  0x20\n    /* \"#utility.yul\":3077:3087   */\n  dup6\n    /* \"#utility.yul\":3074:3092   */\n  lt\n    /* \"#utility.yul\":3071:3120   */\n  iszero\n  tag_101\n  jumpi\n    /* \"#utility.yul\":3110:3118   */\n  dup2\n    /* \"#utility.yul\":3095:3118   */\n  swap1\n  pop\n    /* \"#utility.yul\":3071:3120   */\ntag_101:\n    /* \"#utility.yul\":3133:3213   */\n  tag_102\n    /* \"#utility.yul\":3189:3211   */\n  tag_103\n    /* \"#utility.yul\":3207:3210   */\n  dup6\n    /* \"#utility.yul\":3189:3211   */\n  tag_43\n  jump\t// in\ntag_103:\n    /* \"#utility.yul\":3179:3187   */\n  dup4\n    /* \"#utility.yul\":3175:3212   */\n  add\n    /* \"#utility.yul\":3162:3173   */\n  dup3\n    /* \"#utility.yul\":3133:3213   */\n  tag_53\n  jump\t// in\ntag_102:\n    /* \"#utility.yul\":2792:3223   */\n  pop\n  pop\n    /* \"#utility.yul\":2777:3223   */\ntag_98:\n    /* \"#utility.yul\":2687:3230   */\n  pop\n  pop\n  pop\n  jump\t// out\n    /* \"#utility.yul\":3236:3353   */\ntag_55:\n    /* \"#utility.yul\":3290:3298   */\n  0x00\n    /* \"#utility.yul\":3340:3345   */\n  dup3\n    /* \"#utility.yul\":3334:3338   */\n  dup3\n    /* \"#utility.yul\":3330:3346   */\n  shr\n    /* \"#utility.yul\":3309:3346   */\n  swap1\n  pop\n    /* \"#utility.yul\":3236:3353   */\n  swap3\n  swap2\n  pop\n  pop\n  jump\t// out\n    /* \"#utility.yul\":3359:3528   */\ntag_56:\n    /* \"#utility.yul\":3403:3409   */\n  0x00\n    /* \"#utility.yul\":3436:3487   */\n  tag_106\n    /* \"#utility.yul\":3484:3485   */\n  0x00\n    /* \"#utility.yul\":3480:3486   */\n  not\n    /* \"#utility.yul\":3472:3477   */\n  dup5\n    /* \"#utility.yul\":3469:3470   */\n  0x08\n    /* \"#utility.yul\":3465:3478   */\n  mul\n    /* \"#utility.yul\":3436:3487   */\n  tag_55\n  jump\t// in\ntag_106:\n    /* \"#utility.yul\":3432:3488   */\n  not\n    /* \"#utility.yul\":3517:3521   */\n  dup1\n    /* \"#utility.yul\":3511:3515   */\n  dup4\n    /* \"#utility.yul\":3507:3522   */\n  and\n    /* \"#utility.yul\":3497:3522   */\n  swap2\n  pop\n    /* \"#utility.yul\":3410:3528   */\n  pop\n    /* \"#utility.yul\":3359:3528   */\n  swap3\n  swap2\n  pop\n  pop\n  jump\t// out\n    /* \"#utility.yul\":3533:3828   */\ntag_57:\n    /* \"#utility.yul\":3609:3613   */\n  0x00\n    /* \"#utility.yul\":3755:3784   */\n  tag_108\n    /* \"#utility.yul\":3780:3783   */\n  dup4\n    /* \"#utility.yul\":3774:3778   */\n  dup4\n    /* \"#utility.yul\":3755:3784   */\n  tag_56\n  jump\t// in\ntag_108:\n    /* \"#utility.yul\":3747:3784   */\n  swap2\n  pop\n    /* \"#utility.yul\":3817:3820   */\n  dup3\n    /* \"#utility.yul\":3814:3815   */\n  0x02\n    /* \"#utility.yul\":3810:3821   */\n  mul\n    /* \"#utility.yul\":3804:3808   */\n  dup3\n    /* \"#utility.yul\":3801:3822   */\n  or\n    /* \"#utility.yul\":3793:3822   */\n  swap1\n  pop\n    /* \"#utility.yul\":3533:3828   */\n  swap3\n  swap2\n  pop\n  pop\n  jump\t// out\n    /* \"#utility.yul\":3833:5228   */\ntag_2:\n    /* \"#utility.yul\":3950:3987   */\n  tag_110\n    /* \"#utility.yul\":3983:3986   */\n  dup3\n    /* \"#utility.yul\":3950:3987   */\n  tag_39\n  jump\t// in\ntag_110:\n    /* \"#utility.yul\":4052:4070   */\n  0xffffffffffffffff\n    /* \"#utility.yul\":4044:4050   */\n  dup2\n    /* \"#utility.yul\":4041:4071   */\n  gt\n    /* \"#utility.yul\":4038:4094   */\n  iszero\n  tag_111\n  jumpi\n    /* \"#utility.yul\":4074:4092   */\n  tag_112\n  tag_40\n  jump\t// in\ntag_112:\n    /* \"#utility.yul\":4038:4094   */\ntag_111:\n    /* \"#utility.yul\":4118:4156   */\n  tag_113\n    /* \"#utility.yul\":4150:4154   */\n  dup3\n    /* \"#utility.yul\":4144:4155   */\n  sload\n    /* \"#utility.yul\":4118:4156   */\n  tag_7\n  jump\t// in\ntag_113:\n    /* \"#utility.yul\":4203:4270   */\n  tag_114\n    /* \"#utility.yul\":4263:4269   */\n  dup3\n    /* \"#utility.yul\":4255:4261   */\n  dup3\n    /* \"#utility.yul\":4249:4253   */\n  dup6\n    /* \"#utility.yul\":4203:4270   */\n  tag_54\n  jump\t// in\ntag_114:\n    /* \"#utility.yul\":4297:4298   */\n  0x00\n    /* \"#utility.yul\":4321:4325   */\n  0x20\n    /* \"#utility.yul\":4308:4325   */\n  swap1\n  pop\n    /* \"#utility.yul\":4353:4355   */\n  0x1f\n    /* \"#utility.yul\":4345:4351   */\n  dup4\n    /* \"#utility.yul\":4342:4356   */\n  gt\n    /* \"#utility.yul\":4370:4371   */\n  0x01\n    /* \"#utility.yul\":4365:4983   */\n  dup2\n  eq\n  tag_116\n  jumpi\n    /* \"#utility.yul\":5027:5028   */\n  0x00\n    /* \"#utility.yul\":5044:5050   */\n  dup5\n    /* \"#utility.yul\":5041:5118   */\n  iszero\n  tag_117\n  jumpi\n    /* \"#utility.yul\":5093:5102   */\n  dup3\n    /* \"#utility.yul\":5088:5091   */\n  dup8\n    /* \"#utility.yul\":5084:5103   */\n  add\n    /* \"#utility.yul\":5078:5104   */\n  mload\n    /* \"#utility.yul\":5069:5104   */\n  swap1\n  pop\n    /* \"#utility.yul\":5041:5118   */\ntag_117:\n    /* \"#utility.yul\":5144:5211   */\n  tag_118\n    /* \"#utility.yul\":5204:5210   */\n  dup6\n    /* \"#utility.yul\":5197:5202   */\n  dup3\n    /* \"#utility.yul\":5144:5211   */\n  tag_57\n  jump\t// in\ntag_118:\n    /* \"#utility.yul\":5138:5142   */\n  dup7\n    /* \"#utility.yul\":5131:5212   */\n  sstore\n    /* \"#utility.yul\":5000:5222   */\n  pop\n    /* \"#utility.yul\":4335:5222   */\n  jump(tag_115)\n    /* \"#utility.yul\":4365:4983   */\ntag_116:\n    /* \"#utility.yul\":4417:4421   */\n  0x1f\n    /* \"#utility.yul\":4413:4422   */\n  not\n    /* \"#utility.yul\":4405:4411   */\n  dup5\n    /* \"#utility.yul\":4401:4423   */\n  and\n    /* \"#utility.yul\":4451:4488   */\n  tag_119\n    /* \"#utility.yul\":4483:4487   */\n  dup7\n    /* \"#utility.yul\":4451:4488   */\n  tag_42\n  jump\t// in\ntag_119:\n    /* \"#utility.yul\":4510:4511   */\n  0x00\n    /* \"#utility.yul\":4524:4732   */\ntag_120:\n    /* \"#utility.yul\":4538:4545   */\n  dup3\n    /* \"#utility.yul\":4535:4536   */\n  dup2\n    /* \"#utility.yul\":4532:4546   */\n  lt\n    /* \"#utility.yul\":4524:4732   */\n  iszero\n  tag_122\n  jumpi\n    /* \"#utility.yul\":4617:4626   */\n  dup5\n    /* \"#utility.yul\":4612:4615   */\n  dup10\n    /* \"#utility.yul\":4608:4627   */\n  add\n    /* \"#utility.yul\":4602:4628   */\n  mload\n    /* \"#utility.yul\":4594:4600   */\n  dup3\n    /* \"#utility.yul\":4587:4629   */\n  sstore\n    /* \"#utility.yul\":4668:4669   */\n  0x01\n    /* \"#utility.yul\":4660:4666   */\n  dup3\n    /* \"#utility.yul\":4656:4670   */\n  add\n    /* \"#utility.yul\":4646:4670   */\n  swap2\n  pop\n    /* \"#utility.yul\":4715:4717   */\n  0x20\n    /* \"#utility.yul\":4704:4713   */\n  dup6\n    /* \"#utility.yul\":4700:4718   */\n  add\n    /* \"#utility.yul\":4687:4718   */\n  swap5\n  pop\n    /* \"#utility.yul\":4561:4565   */\n  0x20\n    /* \"#utility.yul\":4558:4559   */\n  dup2\n    /* \"#utility.yul\":4554:4566   */\n  add\n    /* \"#utility.yul\":4549:4566   */\n  swap1\n  pop\n    /* \"#utility.yul\":4524:4732   */\n  jump(tag_120)\ntag_122:\n    /* \"#utility.yul\":4760:4766   */\n  dup7\n    /* \"#utility.yul\":4751:4758   */\n  dup4\n    /* \"#utility.yul\":4748:4767   */\n  lt\n    /* \"#utility.yul\":4745:4924   */\n  iszero\n  tag_123\n  jumpi\n    /* \"#utility.yul\":4818:4827   */\n  dup5\n    /* \"#utility.yul\":4813:4816   */\n  dup10\n    /* \"#utility.yul\":4809:4828   */\n  add\n    /* \"#utility.yul\":4803:4829   */\n  mload\n    /* \"#utility.yul\":4861:4909   */\n  tag_124\n    /* \"#utility.yul\":4903:4907   */\n  0x1f\n    /* \"#utility.yul\":4895:4901   */\n  dup10\n    /* \"#utility.yul\":4891:4908   */\n  and\n    /* \"#utility.yul\":4880:4889   */\n  dup3\n    /* \"#utility.yul\":4861:4909   */\n  tag_56\n  jump\t// in\ntag_124:\n    /* \"#utility.yul\":4853:4859   */\n  dup4\n    /* \"#utility.yul\":4846:4910   */\n  sstore\n    /* \"#utility.yul\":4768:4924   */\n  pop\n    /* \"#utility.yul\":4745:4924   */\ntag_123:\n    /* \"#utility.yul\":4970:4971   */\n  0x01\n    /* \"#utility.yul\":4966:4967   */\n  0x02\n    /* \"#utility.yul\":4958:4964   */\n  dup9\n    /* \"#utility.yul\":4954:4968   */\n  mul\n    /* \"#utility.yul\":4950:4972   */\n  add\n    /* \"#utility.yul\":4944:4948   */\n  dup9\n    /* \"#utility.yul\":4937:4973   */\n  sstore\n    /* \"#utility.yul\":4372:4983   */\n  pop\n  pop\n  pop\n    /* \"#utility.yul\":4335:5222   */\ntag_115:\n  pop\n    /* \"#utility.yul\":3925:5228   */\n  pop\n  pop\n  pop\n    /* \"#utility.yul\":3833:5228   */\n  pop\n  pop\n  jump\t// out\n    /* \"#utility.yul\":5234:5403   */\ntag_58:\n    /* \"#utility.yul\":5318:5329   */\n  0x00\n    /* \"#utility.yul\":5352:5358   */\n  dup3\n    /* \"#utility.yul\":5347:5350   */\n  dup3\n    /* \"#utility.yul\":5340:5359   */\n  mstore\n    /* \"#utility.yul\":5392:5396   */\n  0x20\n    /* \"#utility.yul\":5387:5390   */\n  dup3\n    /* \"#utility.yul\":5383:5397   */\n  add\n    /* \"#utility.yul\":5368:5397   */\n  swap1\n  pop\n    /* \"#utility.yul\":5234:5403   */\n  swap3\n  swap2\n  pop\n  pop\n  jump\t// out\n    /* \"#utility.yul\":5409:5590   */\ntag_59:\n    /* \"#utility.yul\":5549:5582   */\n  0x45524332303a206d696e7420746f20746865207a65726f206164647265737300\n    /* \"#utility.yul\":5545:5546   */\n  0x00\n    /* \"#utility.yul\":5537:5543   */\n  dup3\n    /* \"#utility.yul\":5533:5547   */\n  add\n    /* \"#utility.yul\":5526:5583   */\n  mstore\n    /* \"#utility.yul\":5409:5590   */\n  pop\n  jump\t// out\n    /* \"#utility.yul\":5596:5962   */\ntag_60:\n    /* \"#utility.yul\":5738:5741   */\n  0x00\n    /* \"#utility.yul\":5759:5826   */\n  tag_128\n    /* \"#utility.yul\":5823:5825   */\n  0x1f\n    /* \"#utility.yul\":5818:5821   */\n  dup4\n    /* \"#utility.yul\":5759:5826   */\n  tag_58\n  jump\t// in\ntag_128:\n    /* \"#utility.yul\":5752:5826   */\n  swap2\n  pop\n    /* \"#utility.yul\":5835:5928   */\n  tag_129\n    /* \"#utility.yul\":5924:5927   */\n  dup3\n    /* \"#utility.yul\":5835:5928   */\n  tag_59\n  jump\t// in\ntag_129:\n    /* \"#utility.yul\":5953:5955   */\n  0x20\n    /* \"#utility.yul\":5948:5951   */\n  dup3\n    /* \"#utility.yul\":5944:5956   */\n  add\n    /* \"#utility.yul\":5937:5956   */\n  swap1\n  pop\n    /* \"#utility.yul\":5596:5962   */\n  swap2\n  swap1\n  pop\n  jump\t// out\n    /* \"#utility.yul\":5968:6387   */\ntag_28:\n    /* \"#utility.yul\":6134:6138   */\n  0x00\n    /* \"#utility.yul\":6172:6174   */\n  0x20\n    /* \"#utility.yul\":6161:6170   */\n  dup3\n    /* \"#utility.yul\":6157:6175   */\n  add\n    /* \"#utility.yul\":6149:6175   */\n  swap1\n  pop\n    /* \"#utility.yul\":6221:6230   */\n  dup2\n    /* \"#utility.yul\":6215:6219   */\n  dup2\n    /* \"#utility.yul\":6211:6231   */\n  sub\n    /* \"#utility.yul\":6207:6208   */\n  0x00\n    /* \"#utility.yul\":6196:6205   */\n  dup4\n    /* \"#utility.yul\":6192:6209   */\n  add\n    /* \"#utility.yul\":6185:6232   */\n  mstore\n    /* \"#utility.yul\":6249:6380   */\n  tag_131\n    /* \"#utility.yul\":6375:6379   */\n  dup2\n    /* \"#utility.yul\":6249:6380   */\n  tag_60\n  jump\t// in\ntag_131:\n    /* \"#utility.yul\":6241:6380   */\n  swap1\n  pop\n    /* \"#utility.yul\":5968:6387   */\n  swap2\n  swap1\n  pop\n  jump\t// out\n    /* \"#utility.yul\":6393:6573   */\ntag_61:\n    /* \"#utility.yul\":6441:6518   */\n  0x4e487b7100000000000000000000000000000000000000000000000000000000\n    /* \"#utility.yul\":6438:6439   */\n  0x00\n    /* \"#utility.yul\":6431:6519   */\n  mstore\n    /* \"#utility.yul\":6538:6542   */\n  0x11\n    /* \"#utility.yul\":6535:6536   */\n  0x04\n    /* \"#utility.yul\":6528:6543   */\n  mstore\n    /* \"#utility.yul\":6562:6566   */\n  0x24\n    /* \"#utility.yul\":6559:6560   */\n  0x00\n    /* \"#utility.yul\":6552:6567   */\n  revert\n    /* \"#utility.yul\":6579:6770   */\ntag_32:\n    /* \"#utility.yul\":6619:6622   */\n  0x00\n    /* \"#utility.yul\":6638:6658   */\n  tag_134\n    /* \"#utility.yul\":6656:6657   */\n  dup3\n    /* \"#utility.yul\":6638:6658   */\n  tag_46\n  jump\t// in\ntag_134:\n    /* \"#utility.yul\":6633:6658   */\n  swap2\n  pop\n    /* \"#utility.yul\":6672:6692   */\n  tag_135\n    /* \"#utility.yul\":6690:6691   */\n  dup4\n    /* \"#utility.yul\":6672:6692   */\n  tag_46\n  jump\t// in\ntag_135:\n    /* \"#utility.yul\":6667:6692   */\n  swap3\n  pop\n    /* \"#utility.yul\":6715:6716   */\n  dup3\n    /* \"#utility.yul\":6712:6713   */\n  dup3\n    /* \"#utility.yul\":6708:6717   */\n  add\n    /* \"#utility.yul\":6701:6717   */\n  swap1\n  pop\n    /* \"#utility.yul\":6736:6739   */\n  dup1\n    /* \"#utility.yul\":6733:6734   */\n  dup3\n    /* \"#utility.yul\":6730:6740   */\n  gt\n    /* \"#utility.yul\":6727:6763   */\n  iszero\n  tag_136\n  jumpi\n    /* \"#utility.yul\":6743:6761   */\n  tag_137\n  tag_61\n  jump\t// in\ntag_137:\n    /* \"#utility.yul\":6727:6763   */\ntag_136:\n    /* \"#utility.yul\":6579:6770   */\n  swap3\n  swap2\n  pop\n  pop\n  jump\t// out\n    /* \"#utility.yul\":6776:6894   */\ntag_62:\n    /* \"#utility.yul\":6863:6887   */\n  tag_139\n    /* \"#utility.yul\":6881:6886   */\n  dup2\n    /* \"#utility.yul\":6863:6887   */\n  tag_46\n  jump\t// in\ntag_139:\n    /* \"#utility.yul\":6858:6861   */\n  dup3\n    /* \"#utility.yul\":6851:6888   */\n  mstore\n    /* \"#utility.yul\":6776:6894   */\n  pop\n  pop\n  jump\t// out\n    /* \"#utility.yul\":6900:7122   */\ntag_34:\n    /* \"#utility.yul\":6993:6997   */\n  0x00\n    /* \"#utility.yul\":7031:7033   */\n  0x20\n    /* \"#utility.yul\":7020:7029   */\n  dup3\n    /* \"#utility.yul\":7016:7034   */\n  add\n    /* \"#utility.yul\":7008:7034   */\n  swap1\n  pop\n    /* \"#utility.yul\":7044:7115   */\n  tag_141\n    /* \"#utility.yul\":7112:7113   */\n  0x00\n    /* \"#utility.yul\":7101:7110   */\n  dup4\n    /* \"#utility.yul\":7097:7114   */\n  add\n    /* \"#utility.yul\":7088:7094   */\n  dup5\n    /* \"#utility.yul\":7044:7115   */\n  tag_62\n  jump\t// in\ntag_141:\n    /* \"#utility.yul\":6900:7122   */\n  swap3\n  swap2\n  pop\n  pop\n  jump\t// out\n    /* \"contracts/DegenToken.sol\":226:3019  contract DegenToken is ERC20 {... */\ntag_24:\n  dataSize(sub_0)\n  dup1\n  dataOffset(sub_0)\n  0x00\n  codecopy\n  0x00\n  return\nstop\n\nsub_0: assembly {\n        /* \"contracts/DegenToken.sol\":226:3019  contract DegenToken is ERC20 {... */\n      mstore(0x40, 0x80)\n      callvalue\n      dup1\n      iszero\n      tag_1\n      jumpi\n      0x00\n      dup1\n      revert\n    tag_1:\n      pop\n      jumpi(tag_2, lt(calldatasize, 0x04))\n      shr(0xe0, calldataload(0x00))\n      dup1\n      0x70a08231\n      gt\n      tag_24\n      jumpi\n      dup1\n      0xa457c2d7\n      gt\n      tag_25\n      jumpi\n      dup1\n      0xa457c2d7\n      eq\n      tag_18\n      jumpi\n      dup1\n      0xa6e158f8\n      eq\n      tag_19\n      jumpi\n      dup1\n      0xa9059cbb\n      eq\n      tag_20\n      jumpi\n      dup1\n      0xbec3fa17\n      eq\n      tag_21\n      jumpi\n      dup1\n      0xdd62ed3e\n      eq\n      tag_22\n      jumpi\n      dup1\n      0xf0dda65c\n      eq\n      tag_23\n      jumpi\n      jump(tag_2)\n    tag_25:\n      dup1\n      0x70a08231\n      eq\n      tag_13\n      jumpi\n      dup1\n      0x7b61c320\n      eq\n      tag_14\n      jumpi\n      dup1\n      0x8af8a986\n      eq\n      tag_15\n      jumpi\n      dup1\n      0x8da5cb5b\n      eq\n      tag_16\n      jumpi\n      dup1\n      0x95d89b41\n      eq\n      tag_17\n      jumpi\n      jump(tag_2)\n    tag_24:\n      dup1\n      0x313ce567\n      gt\n      tag_26\n      jumpi\n      dup1\n      0x313ce567\n      eq\n      tag_8\n      jumpi\n      dup1\n      0x39509351\n      eq\n      tag_9\n      jumpi\n      dup1\n      0x4f731087\n      eq\n      tag_10\n      jumpi\n      dup1\n      0x6c02a931\n      eq\n      tag_11\n      jumpi\n      dup1\n      0x6d1b229d\n      eq\n      tag_12\n      jumpi\n      jump(tag_2)\n    tag_26:\n      dup1\n      0x06fdde03\n      eq\n      tag_3\n      jumpi\n      dup1\n      0x08514a41\n      eq\n      tag_4\n      jumpi\n      dup1\n      0x095ea7b3\n      eq\n      tag_5\n      jumpi\n      dup1\n      0x18160ddd\n      eq\n      tag_6\n      jumpi\n      dup1\n      0x23b872dd\n      eq\n      tag_7\n      jumpi\n    tag_2:\n      0x00\n      dup1\n      revert\n        /* \"@openzeppelin/contracts/token/ERC20/ERC20.sol\":2154:2252  function name() public view virtual override returns (string memory) {... */\n    tag_3:\n      tag_27\n      tag_28\n      jump\t// in\n    tag_27:\n      mload(0x40)\n      tag_29\n      swap2\n      swap1\n      tag_30\n      jump\t// in\n    tag_29:\n      mload(0x40)\n      dup1\n      swap2\n      sub\n      swap1\n      return\n        /* \"contracts/DegenToken.sol\":985:1164  function shopItems() public pure returns(string memory) {... */\n    tag_4:\n      tag_31\n      tag_32\n      jump\t// in\n    tag_31:\n      mload(0x40)\n      tag_33\n      swap2\n      swap1\n      tag_30\n      jump\t// in\n    tag_33:\n      mload(0x40)\n      dup1\n      swap2\n      sub\n      swap1\n      return\n        /* \"@openzeppelin/contracts/token/ERC20/ERC20.sol\":4431:4628  function approve(address spender, uint256 amount) public virtual override returns (bool) {... */\n    tag_5:\n      tag_34\n      0x04\n      dup1\n      calldatasize\n      sub\n      dup2\n      add\n      swap1\n      tag_35\n      swap2\n      swap1\n      tag_36\n      jump\t// in\n    tag_35:\n      tag_37\n      jump\t// in\n    tag_34:\n      mload(0x40)\n      tag_38\n      swap2\n      swap1\n      tag_39\n      jump\t// in\n    tag_38:\n      mload(0x40)\n      dup1\n      swap2\n      sub\n      swap1\n      return\n        /* \"@openzeppelin/contracts/token/ERC20/ERC20.sol\":3242:3348  function totalSupply() public view virtual override returns (uint256) {... */\n    tag_6:\n      tag_40\n      tag_41\n      jump\t// in\n    tag_40:\n      mload(0x40)\n      tag_42\n      swap2\n      swap1\n      tag_43\n      jump\t// in\n    tag_42:\n      mload(0x40)\n      dup1\n      swap2\n      sub\n      swap1\n      return\n        /* \"@openzeppelin/contracts/token/ERC20/ERC20.sol\":5190:5476  function transferFrom(... */\n    tag_7:\n      tag_44\n      0x04\n      dup1\n      calldatasize\n      sub\n      dup2\n      add\n      swap1\n      tag_45\n      swap2\n      swap1\n      tag_46\n      jump\t// in\n    tag_45:\n      tag_47\n      jump\t// in\n    tag_44:\n      mload(0x40)\n      tag_48\n      swap2\n      swap1\n      tag_39\n      jump\t// in\n    tag_48:\n      mload(0x40)\n      dup1\n      swap2\n      sub\n      swap1\n      return\n        /* \"@openzeppelin/contracts/token/ERC20/ERC20.sol\":3091:3182  function decimals() public view virtual override returns (uint8) {... */\n    tag_8:\n      tag_49\n      tag_50\n      jump\t// in\n    tag_49:\n      mload(0x40)\n      tag_51\n      swap2\n      swap1\n      tag_52\n      jump\t// in\n    tag_51:\n      mload(0x40)\n      dup1\n      swap2\n      sub\n      swap1\n      return\n        /* \"@openzeppelin/contracts/token/ERC20/ERC20.sol\":5871:6105  function increaseAllowance(address spender, uint256 addedValue) public virtual returns (bool) {... */\n    tag_9:\n      tag_53\n      0x04\n      dup1\n      calldatasize\n      sub\n      dup2\n      add\n      swap1\n      tag_54\n      swap2\n      swap1\n      tag_36\n      jump\t// in\n    tag_54:\n      tag_55\n      jump\t// in\n    tag_53:\n      mload(0x40)\n      tag_56\n      swap2\n      swap1\n      tag_39\n      jump\t// in\n    tag_56:\n      mload(0x40)\n      dup1\n      swap2\n      sub\n      swap1\n      return\n        /* \"contracts/DegenToken.sol\":2700:2803  function checkTokenBalance() external view returns(uint){... */\n    tag_10:\n      tag_57\n      tag_58\n      jump\t// in\n    tag_57:\n      mload(0x40)\n      tag_59\n      swap2\n      swap1\n      tag_43\n      jump\t// in\n    tag_59:\n      mload(0x40)\n      dup1\n      swap2\n      sub\n      swap1\n      return\n        /* \"contracts/DegenToken.sol\":264:303  string public tokenName = \"DEGEN TOKEN\" */\n    tag_11:\n      tag_60\n      tag_61\n      jump\t// in\n    tag_60:\n      mload(0x40)\n      tag_62\n      swap2\n      swap1\n      tag_30\n      jump\t// in\n    tag_62:\n      mload(0x40)\n      dup1\n      swap2\n      sub\n      swap1\n      return\n        /* \"contracts/DegenToken.sol\":2843:3014  function burnTokens(uint _tokens) external{... */\n    tag_12:\n      tag_63\n      0x04\n      dup1\n      calldatasize\n      sub\n      dup2\n      add\n      swap1\n      tag_64\n      swap2\n      swap1\n      tag_65\n      jump\t// in\n    tag_64:\n      tag_66\n      jump\t// in\n    tag_63:\n      stop\n        /* \"@openzeppelin/contracts/token/ERC20/ERC20.sol\":3406:3531  function balanceOf(address account) public view virtual override returns (uint256) {... */\n    tag_13:\n      tag_67\n      0x04\n      dup1\n      calldatasize\n      sub\n      dup2\n      add\n      swap1\n      tag_68\n      swap2\n      swap1\n      tag_69\n      jump\t// in\n    tag_68:\n      tag_70\n      jump\t// in\n    tag_67:\n      mload(0x40)\n      tag_71\n      swap2\n      swap1\n      tag_43\n      jump\t// in\n    tag_71:\n      mload(0x40)\n      dup1\n      swap2\n      sub\n      swap1\n      return\n        /* \"contracts/DegenToken.sol\":310:343  string public tokenSymbol = \"DGN\" */\n    tag_14:\n      tag_72\n      tag_73\n      jump\t// in\n    tag_72:\n      mload(0x40)\n      tag_74\n      swap2\n      swap1\n      tag_30\n      jump\t// in\n    tag_74:\n      mload(0x40)\n      dup1\n      swap2\n      sub\n      swap1\n      return\n        /* \"contracts/DegenToken.sol\":2152:2403  function myPurchases() public view returns (string[] memory, uint256){... */\n    tag_15:\n      tag_75\n      tag_76\n      jump\t// in\n    tag_75:\n      mload(0x40)\n      tag_77\n      swap3\n      swap2\n      swap1\n      tag_78\n      jump\t// in\n    tag_77:\n      mload(0x40)\n      dup1\n      swap2\n      sub\n      swap1\n      return\n        /* \"contracts/DegenToken.sol\":396:416  address public owner */\n    tag_16:\n      tag_79\n      tag_80\n      jump\t// in\n    tag_79:\n      mload(0x40)\n      tag_81\n      swap2\n      swap1\n      tag_82\n      jump\t// in\n    tag_81:\n      mload(0x40)\n      dup1\n      swap2\n      sub\n      swap1\n      return\n        /* \"@openzeppelin/contracts/token/ERC20/ERC20.sol\":2365:2467  function symbol() public view virtual override returns (string memory) {... */\n    tag_17:\n      tag_83\n      tag_84\n      jump\t// in\n    tag_83:\n      mload(0x40)\n      tag_85\n      swap2\n      swap1\n      tag_30\n      jump\t// in\n    tag_85:\n      mload(0x40)\n      dup1\n      swap2\n      sub\n      swap1\n      return\n        /* \"@openzeppelin/contracts/token/ERC20/ERC20.sol\":6592:7019  function decreaseAllowance(address spender, uint256 subtractedValue) public virtual returns (bool) {... */\n    tag_18:\n      tag_86\n      0x04\n      dup1\n      calldatasize\n      sub\n      dup2\n      add\n      swap1\n      tag_87\n      swap2\n      swap1\n      tag_36\n      jump\t// in\n    tag_87:\n      tag_88\n      jump\t// in\n    tag_86:\n      mload(0x40)\n      tag_89\n      swap2\n      swap1\n      tag_39\n      jump\t// in\n    tag_89:\n      mload(0x40)\n      dup1\n      swap2\n      sub\n      swap1\n      return\n        /* \"contracts/DegenToken.sol\":1206:2144  function redeemTokens(uint _ch) external{... */\n    tag_19:\n      tag_90\n      0x04\n      dup1\n      calldatasize\n      sub\n      dup2\n      add\n      swap1\n      tag_91\n      swap2\n      swap1\n      tag_65\n      jump\t// in\n    tag_91:\n      tag_92\n      jump\t// in\n    tag_90:\n      stop\n        /* \"@openzeppelin/contracts/token/ERC20/ERC20.sol\":3727:3916  function transfer(address to, uint256 amount) public virtual override returns (bool) {... */\n    tag_20:\n      tag_93\n      0x04\n      dup1\n      calldatasize\n      sub\n      dup2\n      add\n      swap1\n      tag_94\n      swap2\n      swap1\n      tag_36\n      jump\t// in\n    tag_94:\n      tag_95\n      jump\t// in\n    tag_93:\n      mload(0x40)\n      tag_96\n      swap2\n      swap1\n      tag_39\n      jump\t// in\n    tag_96:\n      mload(0x40)\n      dup1\n      swap2\n      sub\n      swap1\n      return\n        /* \"contracts/DegenToken.sol\":2448:2652  function transferTokens(address _reciever, uint _tokens) external{... */\n    tag_21:\n      tag_97\n      0x04\n      dup1\n      calldatasize\n      sub\n      dup2\n      add\n      swap1\n      tag_98\n      swap2\n      swap1\n      tag_36\n      jump\t// in\n    tag_98:\n      tag_99\n      jump\t// in\n    tag_97:\n      stop\n        /* \"@openzeppelin/contracts/token/ERC20/ERC20.sol\":3974:4123  function allowance(address owner, address spender) public view virtual override returns (uint256) {... */\n    tag_22:\n      tag_100\n      0x04\n      dup1\n      calldatasize\n      sub\n      dup2\n      add\n      swap1\n      tag_101\n      swap2\n      swap1\n      tag_102\n      jump\t// in\n    tag_101:\n      tag_103\n      jump\t// in\n    tag_100:\n      mload(0x40)\n      tag_104\n      swap2\n      swap1\n      tag_43\n      jump\t// in\n    tag_104:\n      mload(0x40)\n      dup1\n      swap2\n      sub\n      swap1\n      return\n        /* \"contracts/DegenToken.sol\":695:959  function mintTokens(address _receiver, uint256 _tokens) public onlyOwner{... */\n    tag_23:\n      tag_105\n      0x04\n      dup1\n      calldatasize\n      sub\n      dup2\n      add\n      swap1\n      tag_106\n      swap2\n      swap1\n      tag_36\n      jump\t// in\n    tag_106:\n      tag_107\n      jump\t// in\n    tag_105:\n      stop\n        /* \"@openzeppelin/contracts/token/ERC20/ERC20.sol\":2154:2252  function name() public view virtual override returns (string memory) {... */\n    tag_28:\n        /* \"@openzeppelin/contracts/token/ERC20/ERC20.sol\":2208:2221  string memory */\n      0x60\n        /* \"@openzeppelin/contracts/token/ERC20/ERC20.sol\":2240:2245  _name */\n      0x03\n        /* \"@openzeppelin/contracts/token/ERC20/ERC20.sol\":2233:2245  return _name */\n      dup1\n      sload\n      tag_109\n      swap1\n      tag_110\n      jump\t// in\n    tag_109:\n      dup1\n      0x1f\n      add\n      0x20\n      dup1\n      swap2\n      div\n      mul\n      0x20\n      add\n      mload(0x40)\n      swap1\n      dup2\n      add\n      0x40\n      mstore\n      dup1\n      swap3\n      swap2\n      swap1\n      dup2\n      dup2\n      mstore\n      0x20\n      add\n      dup3\n      dup1\n      sload\n      tag_111\n      swap1\n      tag_110\n      jump\t// in\n    tag_111:\n      dup1\n      iszero\n      tag_112\n      jumpi\n      dup1\n      0x1f\n      lt\n      tag_113\n      jumpi\n      0x0100\n      dup1\n      dup4\n      sload\n      div\n      mul\n      dup4\n      mstore\n      swap2\n      0x20\n      add\n      swap2\n      jump(tag_112)\n    tag_113:\n      dup3\n      add\n      swap2\n      swap1\n      0x00\n      mstore\n      keccak256(0x00, 0x20)\n      swap1\n    tag_114:\n      dup2\n      sload\n      dup2\n      mstore\n      swap1\n      0x01\n      add\n      swap1\n      0x20\n      add\n      dup1\n      dup4\n      gt\n      tag_114\n      jumpi\n      dup3\n      swap1\n      sub\n      0x1f\n      and\n      dup3\n      add\n      swap2\n    tag_112:\n      pop\n      pop\n      pop\n      pop\n      pop\n      swap1\n      pop\n        /* \"@openzeppelin/contracts/token/ERC20/ERC20.sol\":2154:2252  function name() public view virtual override returns (string memory) {... */\n      swap1\n      jump\t// out\n        /* \"contracts/DegenToken.sol\":985:1164  function shopItems() public pure returns(string memory) {... */\n    tag_32:\n        /* \"contracts/DegenToken.sol\":1026:1039  string memory */\n      0x60\n        /* \"contracts/DegenToken.sol\":1052:1156  return \"1. M416 SKIN [800 DGN] 2. AKM SKIN [600 DGN] 3. UMP45 SKIN [250 DGN] 4. MYTHIC OUTFIT [175 DGN]\" */\n      mload(0x40)\n      dup1\n      0x80\n      add\n      0x40\n      mstore\n      dup1\n      0x5f\n      dup2\n      mstore\n      0x20\n      add\n      data_4fd0f4c97c5218dcc7f6f631580ddefe5aafb5215de24b3b1e04e49d62d85075\n      0x5f\n      swap2\n      codecopy\n      swap1\n      pop\n        /* \"contracts/DegenToken.sol\":985:1164  function shopItems() public pure returns(string memory) {... */\n      swap1\n      jump\t// out\n        /* \"@openzeppelin/contracts/token/ERC20/ERC20.sol\":4431:4628  function approve(address spender, uint256 amount) public virtual override returns (bool) {... */\n    tag_37:\n        /* \"@openzeppelin/contracts/token/ERC20/ERC20.sol\":4514:4518  bool */\n      0x00\n        /* \"@openzeppelin/contracts/token/ERC20/ERC20.sol\":4530:4543  address owner */\n      dup1\n        /* \"@openzeppelin/contracts/token/ERC20/ERC20.sol\":4546:4558  _msgSender() */\n      tag_117\n        /* \"@openzeppelin/contracts/token/ERC20/ERC20.sol\":4546:4556  _msgSender */\n      tag_118\n        /* \"@openzeppelin/contracts/token/ERC20/ERC20.sol\":4546:4558  _msgSender() */\n      jump\t// in\n    tag_117:\n        /* \"@openzeppelin/contracts/token/ERC20/ERC20.sol\":4530:4558  address owner = _msgSender() */\n      swap1\n      pop\n        /* \"@openzeppelin/contracts/token/ERC20/ERC20.sol\":4568:4600  _approve(owner, spender, amount) */\n      tag_119\n        /* \"@openzeppelin/contracts/token/ERC20/ERC20.sol\":4577:4582  owner */\n      dup2\n        /* \"@openzeppelin/contracts/token/ERC20/ERC20.sol\":4584:4591  spender */\n      dup6\n        /* \"@openzeppelin/contracts/token/ERC20/ERC20.sol\":4593:4599  amount */\n      dup6\n        /* \"@openzeppelin/contracts/token/ERC20/ERC20.sol\":4568:4576  _approve */\n      tag_120\n        /* \"@openzeppelin/contracts/token/ERC20/ERC20.sol\":4568:4600  _approve(owner, spender, amount) */\n      jump\t// in\n    tag_119:\n        /* \"@openzeppelin/contracts/token/ERC20/ERC20.sol\":4617:4621  true */\n      0x01\n        /* \"@openzeppelin/contracts/token/ERC20/ERC20.sol\":4610:4621  return true */\n      swap2\n      pop\n      pop\n        /* \"@openzeppelin/contracts/token/ERC20/ERC20.sol\":4431:4628  function approve(address spender, uint256 amount) public virtual override returns (bool) {... */\n      swap3\n      swap2\n      pop\n      pop\n      jump\t// out\n        /* \"@openzeppelin/contracts/token/ERC20/ERC20.sol\":3242:3348  function totalSupply() public view virtual override returns (uint256) {... */\n    tag_41:\n        /* \"@openzeppelin/contracts/token/ERC20/ERC20.sol\":3303:3310  uint256 */\n      0x00\n        /* \"@openzeppelin/contracts/token/ERC20/ERC20.sol\":3329:3341  _totalSupply */\n      sload(0x02)\n        /* \"@openzeppelin/contracts/token/ERC20/ERC20.sol\":3322:3341  return _totalSupply */\n      swap1\n      pop\n        /* \"@openzeppelin/contracts/token/ERC20/ERC20.sol\":3242:3348  function totalSupply() public view virtual override returns (uint256) {... */\n      swap1\n      jump\t// out\n        /* \"@openzeppelin/contracts/token/ERC20/ERC20.sol\":5190:5476  function transferFrom(... */\n    tag_47:\n        /* \"@openzeppelin/contracts/token/ERC20/ERC20.sol\":5317:5321  bool */\n      0x00\n        /* \"@openzeppelin/contracts/token/ERC20/ERC20.sol\":5333:5348  address spender */\n      dup1\n        /* \"@openzeppelin/contracts/token/ERC20/ERC20.sol\":5351:5363  _msgSender() */\n      tag_123\n        /* \"@openzeppelin/contracts/token/ERC20/ERC20.sol\":5351:5361  _msgSender */\n      tag_118\n        /* \"@openzeppelin/contracts/token/ERC20/ERC20.sol\":5351:5363  _msgSender() */\n      jump\t// in\n    tag_123:\n        /* \"@openzeppelin/contracts/token/ERC20/ERC20.sol\":5333:5363  address spender = _msgSender() */\n      swap1\n      pop\n        /* \"@openzeppelin/contracts/token/ERC20/ERC20.sol\":5373:5411  _spendAllowance(from, spender, amount) */\n      tag_124\n        /* \"@openzeppelin/contracts/token/ERC20/ERC20.sol\":5389:5393  from */\n      dup6\n        /* \"@openzeppelin/contracts/token/ERC20/ERC20.sol\":5395:5402  spender */\n      dup3\n        /* \"@openzeppelin/contracts/token/ERC20/ERC20.sol\":5404:5410  amount */\n      dup6\n        /* \"@openzeppelin/contracts/token/ERC20/ERC20.sol\":5373:5388  _spendAllowance */\n      tag_125\n        /* \"@openzeppelin/contracts/token/ERC20/ERC20.sol\":5373:5411  _spendAllowance(from, spender, amount) */\n      jump\t// in\n    tag_124:\n        /* \"@openzeppelin/contracts/token/ERC20/ERC20.sol\":5421:5448  _transfer(from, to, amount) */\n      tag_126\n        /* \"@openzeppelin/contracts/token/ERC20/ERC20.sol\":5431:5435  from */\n      dup6\n        /* \"@openzeppelin/contracts/token/ERC20/ERC20.sol\":5437:5439  to */\n      dup6\n        /* \"@openzeppelin/contracts/token/ERC20/ERC20.sol\":5441:5447  amount */\n      dup6\n        /* \"@openzeppelin/contracts/token/ERC20/ERC20.sol\":5421:5430  _transfer */\n      tag_127\n        /* \"@openzeppelin/contracts/token/ERC20/ERC20.sol\":5421:5448  _transfer(from, to, amount) */\n      jump\t// in\n    tag_126:\n        /* \"@openzeppelin/contracts/token/ERC20/ERC20.sol\":5465:5469  true */\n      0x01\n        /* \"@openzeppelin/contracts/token/ERC20/ERC20.sol\":5458:5469  return true */\n      swap2\n      pop\n      pop\n        /* \"@openzeppelin/contracts/token/ERC20/ERC20.sol\":5190:5476  function transferFrom(... */\n      swap4\n      swap3\n      pop\n      pop\n      pop\n      jump\t// out\n        /* \"@openzeppelin/contracts/token/ERC20/ERC20.sol\":3091:3182  function decimals() public view virtual override returns (uint8) {... */\n    tag_50:\n        /* \"@openzeppelin/contracts/token/ERC20/ERC20.sol\":3149:3154  uint8 */\n      0x00\n        /* \"@openzeppelin/contracts/token/ERC20/ERC20.sol\":3173:3175  18 */\n      0x12\n        /* \"@openzeppelin/contracts/token/ERC20/ERC20.sol\":3166:3175  return 18 */\n      swap1\n      pop\n        /* \"@openzeppelin/contracts/token/ERC20/ERC20.sol\":3091:3182  function decimals() public view virtual override returns (uint8) {... */\n      swap1\n      jump\t// out\n        /* \"@openzeppelin/contracts/token/ERC20/ERC20.sol\":5871:6105  function increaseAllowance(address spender, uint256 addedValue) public virtual returns (bool) {... */\n    tag_55:\n        /* \"@openzeppelin/contracts/token/ERC20/ERC20.sol\":5959:5963  bool */\n      0x00\n        /* \"@openzeppelin/contracts/token/ERC20/ERC20.sol\":5975:5988  address owner */\n      dup1\n        /* \"@openzeppelin/contracts/token/ERC20/ERC20.sol\":5991:6003  _msgSender() */\n      tag_130\n        /* \"@openzeppelin/contracts/token/ERC20/ERC20.sol\":5991:6001  _msgSender */\n      tag_118\n        /* \"@openzeppelin/contracts/token/ERC20/ERC20.sol\":5991:6003  _msgSender() */\n      jump\t// in\n    tag_130:\n        /* \"@openzeppelin/contracts/token/ERC20/ERC20.sol\":5975:6003  address owner = _msgSender() */\n      swap1\n      pop\n        /* \"@openzeppelin/contracts/token/ERC20/ERC20.sol\":6013:6077  _approve(owner, spender, allowance(owner, spender) + addedValue) */\n      tag_131\n        /* \"@openzeppelin/contracts/token/ERC20/ERC20.sol\":6022:6027  owner */\n      dup2\n        /* \"@openzeppelin/contracts/token/ERC20/ERC20.sol\":6029:6036  spender */\n      dup6\n        /* \"@openzeppelin/contracts/token/ERC20/ERC20.sol\":6066:6076  addedValue */\n      dup6\n        /* \"@openzeppelin/contracts/token/ERC20/ERC20.sol\":6038:6063  allowance(owner, spender) */\n      tag_132\n        /* \"@openzeppelin/contracts/token/ERC20/ERC20.sol\":6048:6053  owner */\n      dup6\n        /* \"@openzeppelin/contracts/token/ERC20/ERC20.sol\":6055:6062  spender */\n      dup10\n        /* \"@openzeppelin/contracts/token/ERC20/ERC20.sol\":6038:6047  allowance */\n      tag_103\n        /* \"@openzeppelin/contracts/token/ERC20/ERC20.sol\":6038:6063  allowance(owner, spender) */\n      jump\t// in\n    tag_132:\n        /* \"@openzeppelin/contracts/token/ERC20/ERC20.sol\":6038:6076  allowance(owner, spender) + addedValue */\n      tag_133\n      swap2\n      swap1\n      tag_134\n      jump\t// in\n    tag_133:\n        /* \"@openzeppelin/contracts/token/ERC20/ERC20.sol\":6013:6021  _approve */\n      tag_120\n        /* \"@openzeppelin/contracts/token/ERC20/ERC20.sol\":6013:6077  _approve(owner, spender, allowance(owner, spender) + addedValue) */\n      jump\t// in\n    tag_131:\n        /* \"@openzeppelin/contracts/token/ERC20/ERC20.sol\":6094:6098  true */\n      0x01\n        /* \"@openzeppelin/contracts/token/ERC20/ERC20.sol\":6087:6098  return true */\n      swap2\n      pop\n      pop\n        /* \"@openzeppelin/contracts/token/ERC20/ERC20.sol\":5871:6105  function increaseAllowance(address spender, uint256 addedValue) public virtual returns (bool) {... */\n      swap3\n      swap2\n      pop\n      pop\n      jump\t// out\n        /* \"contracts/DegenToken.sol\":2700:2803  function checkTokenBalance() external view returns(uint){... */\n    tag_58:\n        /* \"contracts/DegenToken.sol\":2751:2755  uint */\n      0x00\n        /* \"contracts/DegenToken.sol\":2774:2795  balanceOf(msg.sender) */\n      tag_136\n        /* \"contracts/DegenToken.sol\":2784:2794  msg.sender */\n      caller\n        /* \"contracts/DegenToken.sol\":2774:2783  balanceOf */\n      tag_70\n        /* \"contracts/DegenToken.sol\":2774:2795  balanceOf(msg.sender) */\n      jump\t// in\n    tag_136:\n        /* \"contracts/DegenToken.sol\":2767:2795  return balanceOf(msg.sender) */\n      swap1\n      pop\n        /* \"contracts/DegenToken.sol\":2700:2803  function checkTokenBalance() external view returns(uint){... */\n      swap1\n      jump\t// out\n        /* \"contracts/DegenToken.sol\":264:303  string public tokenName = \"DEGEN TOKEN\" */\n    tag_61:\n      0x05\n      dup1\n      sload\n      tag_137\n      swap1\n      tag_110\n      jump\t// in\n    tag_137:\n      dup1\n      0x1f\n      add\n      0x20\n      dup1\n      swap2\n      div\n      mul\n      0x20\n      add\n      mload(0x40)\n      swap1\n      dup2\n      add\n      0x40\n      mstore\n      dup1\n      swap3\n      swap2\n      swap1\n      dup2\n      dup2\n      mstore\n      0x20\n      add\n      dup3\n      dup1\n      sload\n      tag_138\n      swap1\n      tag_110\n      jump\t// in\n    tag_138:\n      dup1\n      iszero\n      tag_139\n      jumpi\n      dup1\n      0x1f\n      lt\n      tag_140\n      jumpi\n      0x0100\n      dup1\n      dup4\n      sload\n      div\n      mul\n      dup4\n      mstore\n      swap2\n      0x20\n      add\n      swap2\n      jump(tag_139)\n    tag_140:\n      dup3\n      add\n      swap2\n      swap1\n      0x00\n      mstore\n      keccak256(0x00, 0x20)\n      swap1\n    tag_141:\n      dup2\n      sload\n      dup2\n      mstore\n      swap1\n      0x01\n      add\n      swap1\n      0x20\n      add\n      dup1\n      dup4\n      gt\n      tag_141\n      jumpi\n      dup3\n      swap1\n      sub\n      0x1f\n      and\n      dup3\n      add\n      swap2\n    tag_139:\n      pop\n      pop\n      pop\n      pop\n      pop\n      dup2\n      jump\t// out\n        /* \"contracts/DegenToken.sol\":2843:3014  function burnTokens(uint _tokens) external{... */\n    tag_66:\n        /* \"contracts/DegenToken.sol\":2928:2935  _tokens */\n      dup1\n        /* \"contracts/DegenToken.sol\":2904:2925  balanceOf(msg.sender) */\n      tag_143\n        /* \"contracts/DegenToken.sol\":2914:2924  msg.sender */\n      caller\n        /* \"contracts/DegenToken.sol\":2904:2913  balanceOf */\n      tag_70\n        /* \"contracts/DegenToken.sol\":2904:2925  balanceOf(msg.sender) */\n      jump\t// in\n    tag_143:\n        /* \"contracts/DegenToken.sol\":2904:2935  balanceOf(msg.sender)>= _tokens */\n      lt\n      iszero\n        /* \"contracts/DegenToken.sol\":2896:2969  require(balanceOf(msg.sender)>= _tokens, \"You don't have enough tokens!\") */\n      tag_144\n      jumpi\n      mload(0x40)\n      0x08c379a000000000000000000000000000000000000000000000000000000000\n      dup2\n      mstore\n      0x04\n      add\n      tag_145\n      swap1\n      tag_146\n      jump\t// in\n    tag_145:\n      mload(0x40)\n      dup1\n      swap2\n      sub\n      swap1\n      revert\n    tag_144:\n        /* \"contracts/DegenToken.sol\":2980:3006  _burn(msg.sender, _tokens) */\n      tag_147\n        /* \"contracts/DegenToken.sol\":2986:2996  msg.sender */\n      caller\n        /* \"contracts/DegenToken.sol\":2998:3005  _tokens */\n      dup3\n        /* \"contracts/DegenToken.sol\":2980:2985  _burn */\n      tag_148\n        /* \"contracts/DegenToken.sol\":2980:3006  _burn(msg.sender, _tokens) */\n      jump\t// in\n    tag_147:\n        /* \"contracts/DegenToken.sol\":2843:3014  function burnTokens(uint _tokens) external{... */\n      pop\n      jump\t// out\n        /* \"@openzeppelin/contracts/token/ERC20/ERC20.sol\":3406:3531  function balanceOf(address account) public view virtual override returns (uint256) {... */\n    tag_70:\n        /* \"@openzeppelin/contracts/token/ERC20/ERC20.sol\":3480:3487  uint256 */\n      0x00\n        /* \"@openzeppelin/contracts/token/ERC20/ERC20.sol\":3506:3515  _balances */\n      dup1\n        /* \"@openzeppelin/contracts/token/ERC20/ERC20.sol\":3506:3524  _balances[account] */\n      0x00\n        /* \"@openzeppelin/contracts/token/ERC20/ERC20.sol\":3516:3523  account */\n      dup4\n        /* \"@openzeppelin/contracts/token/ERC20/ERC20.sol\":3506:3524  _balances[account] */\n      0xffffffffffffffffffffffffffffffffffffffff\n      and\n      0xffffffffffffffffffffffffffffffffffffffff\n      and\n      dup2\n      mstore\n      0x20\n      add\n      swap1\n      dup2\n      mstore\n      0x20\n      add\n      0x00\n      keccak256\n      sload\n        /* \"@openzeppelin/contracts/token/ERC20/ERC20.sol\":3499:3524  return _balances[account] */\n      swap1\n      pop\n        /* \"@openzeppelin/contracts/token/ERC20/ERC20.sol\":3406:3531  function balanceOf(address account) public view virtual override returns (uint256) {... */\n      swap2\n      swap1\n      pop\n      jump\t// out\n        /* \"contracts/DegenToken.sol\":310:343  string public tokenSymbol = \"DGN\" */\n    tag_73:\n      0x06\n      dup1\n      sload\n      tag_150\n      swap1\n      tag_110\n      jump\t// in\n    tag_150:\n      dup1\n      0x1f\n      add\n      0x20\n      dup1\n      swap2\n      div\n      mul\n      0x20\n      add\n      mload(0x40)\n      swap1\n      dup2\n      add\n      0x40\n      mstore\n      dup1\n      swap3\n      swap2\n      swap1\n      dup2\n      dup2\n      mstore\n      0x20\n      add\n      dup3\n      dup1\n      sload\n      tag_151\n      swap1\n      tag_110\n      jump\t// in\n    tag_151:\n      dup1\n      iszero\n      tag_152\n      jumpi\n      dup1\n      0x1f\n      lt\n      tag_153\n      jumpi\n      0x0100\n      dup1\n      dup4\n      sload\n      div\n      mul\n      dup4\n      mstore\n      swap2\n      0x20\n      add\n      swap2\n      jump(tag_152)\n    tag_153:\n      dup3\n      add\n      swap2\n      swap1\n      0x00\n      mstore\n      keccak256(0x00, 0x20)\n      swap1\n    tag_154:\n      dup2\n      sload\n      dup2\n      mstore\n      swap1\n      0x01\n      add\n      swap1\n      0x20\n      add\n      dup1\n      dup4\n      gt\n      tag_154\n      jumpi\n      dup3\n      swap1\n      sub\n      0x1f\n      and\n      dup3\n      add\n      swap2\n    tag_152:\n      pop\n      pop\n      pop\n      pop\n      pop\n      dup2\n      jump\t// out\n        /* \"contracts/DegenToken.sol\":2152:2403  function myPurchases() public view returns (string[] memory, uint256){... */\n    tag_76:\n        /* \"contracts/DegenToken.sol\":2196:2211  string[] memory */\n      0x60\n        /* \"contracts/DegenToken.sol\":2213:2220  uint256 */\n      0x00\n        /* \"contracts/DegenToken.sol\":2232:2246  uint256 length */\n      dup1\n        /* \"contracts/DegenToken.sol\":2249:2258  purchases */\n      0x07\n        /* \"contracts/DegenToken.sol\":2249:2270  purchases[msg.sender] */\n      0x00\n        /* \"contracts/DegenToken.sol\":2259:2269  msg.sender */\n      caller\n        /* \"contracts/DegenToken.sol\":2249:2270  purchases[msg.sender] */\n      0xffffffffffffffffffffffffffffffffffffffff\n      and\n      0xffffffffffffffffffffffffffffffffffffffff\n      and\n      dup2\n      mstore\n      0x20\n      add\n      swap1\n      dup2\n      mstore\n      0x20\n      add\n      0x00\n      keccak256\n        /* \"contracts/DegenToken.sol\":2249:2277  purchases[msg.sender].length */\n      dup1\n      sload\n      swap1\n      pop\n        /* \"contracts/DegenToken.sol\":2232:2277  uint256 length = purchases[msg.sender].length */\n      swap1\n      pop\n        /* \"contracts/DegenToken.sol\":2305:2306  0 */\n      0x00\n        /* \"contracts/DegenToken.sol\":2296:2302  length */\n      dup2\n        /* \"contracts/DegenToken.sol\":2296:2306  length > 0 */\n      gt\n        /* \"contracts/DegenToken.sol\":2288:2346  require(length > 0, \"No purchases found for this address\") */\n      tag_156\n      jumpi\n      mload(0x40)\n      0x08c379a000000000000000000000000000000000000000000000000000000000\n      dup2\n      mstore\n      0x04\n      add\n      tag_157\n      swap1\n      tag_158\n      jump\t// in\n    tag_157:\n      mload(0x40)\n      dup1\n      swap2\n      sub\n      swap1\n      revert\n    tag_156:\n        /* \"contracts/DegenToken.sol\":2365:2374  purchases */\n      0x07\n        /* \"contracts/DegenToken.sol\":2365:2386  purchases[msg.sender] */\n      0x00\n        /* \"contracts/DegenToken.sol\":2375:2385  msg.sender */\n      caller\n        /* \"contracts/DegenToken.sol\":2365:2386  purchases[msg.sender] */\n      0xffffffffffffffffffffffffffffffffffffffff\n      and\n      0xffffffffffffffffffffffffffffffffffffffff\n      and\n      dup2\n      mstore\n      0x20\n      add\n      swap1\n      dup2\n      mstore\n      0x20\n      add\n      0x00\n      keccak256\n        /* \"contracts/DegenToken.sol\":2388:2394  length */\n      dup2\n        /* \"contracts/DegenToken.sol\":2357:2395  return (purchases[msg.sender], length) */\n      dup2\n      dup1\n      sload\n      dup1\n      0x20\n      mul\n      0x20\n      add\n      mload(0x40)\n      swap1\n      dup2\n      add\n      0x40\n      mstore\n      dup1\n      swap3\n      swap2\n      swap1\n      dup2\n      dup2\n      mstore\n      0x20\n      add\n      0x00\n      swap1\n    tag_159:\n      dup3\n      dup3\n      lt\n      iszero\n      tag_160\n      jumpi\n      dup4\n      dup3\n      swap1\n      0x00\n      mstore\n      keccak256(0x00, 0x20)\n      add\n      dup1\n      sload\n      tag_162\n      swap1\n      tag_110\n      jump\t// in\n    tag_162:\n      dup1\n      0x1f\n      add\n      0x20\n      dup1\n      swap2\n      div\n      mul\n      0x20\n      add\n      mload(0x40)\n      swap1\n      dup2\n      add\n      0x40\n      mstore\n      dup1\n      swap3\n      swap2\n      swap1\n      dup2\n      dup2\n      mstore\n      0x20\n      add\n      dup3\n      dup1\n      sload\n      tag_163\n      swap1\n      tag_110\n      jump\t// in\n    tag_163:\n      dup1\n      iszero\n      tag_164\n      jumpi\n      dup1\n      0x1f\n      lt\n      tag_165\n      jumpi\n      0x0100\n      dup1\n      dup4\n      sload\n      div\n      mul\n      dup4\n      mstore\n      swap2\n      0x20\n      add\n      swap2\n      jump(tag_164)\n    tag_165:\n      dup3\n      add\n      swap2\n      swap1\n      0x00\n      mstore\n      keccak256(0x00, 0x20)\n      swap1\n    tag_166:\n      dup2\n      sload\n      dup2\n      mstore\n      swap1\n      0x01\n      add\n      swap1\n      0x20\n      add\n      dup1\n      dup4\n      gt\n      tag_166\n      jumpi\n      dup3\n      swap1\n      sub\n      0x1f\n      and\n      dup3\n      add\n      swap2\n    tag_164:\n      pop\n      pop\n      pop\n      pop\n      pop\n      dup2\n      mstore\n      0x20\n      add\n      swap1\n      0x01\n      add\n      swap1\n      jump(tag_159)\n    tag_160:\n      pop\n      pop\n      pop\n      pop\n      swap2\n      pop\n      swap3\n      pop\n      swap3\n      pop\n      pop\n        /* \"contracts/DegenToken.sol\":2152:2403  function myPurchases() public view returns (string[] memory, uint256){... */\n      swap1\n      swap2\n      jump\t// out\n        /* \"contracts/DegenToken.sol\":396:416  address public owner */\n    tag_80:\n      0x08\n      0x00\n      swap1\n      sload\n      swap1\n      0x0100\n      exp\n      swap1\n      div\n      0xffffffffffffffffffffffffffffffffffffffff\n      and\n      dup2\n      jump\t// out\n        /* \"@openzeppelin/contracts/token/ERC20/ERC20.sol\":2365:2467  function symbol() public view virtual override returns (string memory) {... */\n    tag_84:\n        /* \"@openzeppelin/contracts/token/ERC20/ERC20.sol\":2421:2434  string memory */\n      0x60\n        /* \"@openzeppelin/contracts/token/ERC20/ERC20.sol\":2453:2460  _symbol */\n      0x04\n        /* \"@openzeppelin/contracts/token/ERC20/ERC20.sol\":2446:2460  return _symbol */\n      dup1\n      sload\n      tag_168\n      swap1\n      tag_110\n      jump\t// in\n    tag_168:\n      dup1\n      0x1f\n      add\n      0x20\n      dup1\n      swap2\n      div\n      mul\n      0x20\n      add\n      mload(0x40)\n      swap1\n      dup2\n      add\n      0x40\n      mstore\n      dup1\n      swap3\n      swap2\n      swap1\n      dup2\n      dup2\n      mstore\n      0x20\n      add\n      dup3\n      dup1\n      sload\n      tag_169\n      swap1\n      tag_110\n      jump\t// in\n    tag_169:\n      dup1\n      iszero\n      tag_170\n      jumpi\n      dup1\n      0x1f\n      lt\n      tag_171\n      jumpi\n      0x0100\n      dup1\n      dup4\n      sload\n      div\n      mul\n      dup4\n      mstore\n      swap2\n      0x20\n      add\n      swap2\n      jump(tag_170)\n    tag_171:\n      dup3\n      add\n      swap2\n      swap1\n      0x00\n      mstore\n      keccak256(0x00, 0x20)\n      swap1\n    tag_172:\n      dup2\n      sload\n      dup2\n      mstore\n      swap1\n      0x01\n      add\n      swap1\n      0x20\n      add\n      dup1\n      dup4\n      gt\n      tag_172\n      jumpi\n      dup3\n      swap1\n      sub\n      0x1f\n      and\n      dup3\n      add\n      swap2\n    tag_170:\n      pop\n      pop\n      pop\n      pop\n      pop\n      swap1\n      pop\n        /* \"@openzeppelin/contracts/token/ERC20/ERC20.sol\":2365:2467  function symbol() public view virtual override returns (string memory) {... */\n      swap1\n      jump\t// out\n        /* \"@openzeppelin/contracts/token/ERC20/ERC20.sol\":6592:7019  function decreaseAllowance(address spender, uint256 subtractedValue) public virtual returns (bool) {... */\n    tag_88:\n        /* \"@openzeppelin/contracts/token/ERC20/ERC20.sol\":6685:6689  bool */\n      0x00\n        /* \"@openzeppelin/contracts/token/ERC20/ERC20.sol\":6701:6714  address owner */\n      dup1\n        /* \"@openzeppelin/contracts/token/ERC20/ERC20.sol\":6717:6729  _msgSender() */\n      tag_174\n        /* \"@openzeppelin/contracts/token/ERC20/ERC20.sol\":6717:6727  _msgSender */\n      tag_118\n        /* \"@openzeppelin/contracts/token/ERC20/ERC20.sol\":6717:6729  _msgSender() */\n      jump\t// in\n    tag_174:\n        /* \"@openzeppelin/contracts/token/ERC20/ERC20.sol\":6701:6729  address owner = _msgSender() */\n      swap1\n      pop\n        /* \"@openzeppelin/contracts/token/ERC20/ERC20.sol\":6739:6763  uint256 currentAllowance */\n      0x00\n        /* \"@openzeppelin/contracts/token/ERC20/ERC20.sol\":6766:6791  allowance(owner, spender) */\n      tag_175\n        /* \"@openzeppelin/contracts/token/ERC20/ERC20.sol\":6776:6781  owner */\n      dup3\n        /* \"@openzeppelin/contracts/token/ERC20/ERC20.sol\":6783:6790  spender */\n      dup7\n        /* \"@openzeppelin/contracts/token/ERC20/ERC20.sol\":6766:6775  allowance */\n      tag_103\n        /* \"@openzeppelin/contracts/token/ERC20/ERC20.sol\":6766:6791  allowance(owner, spender) */\n      jump\t// in\n    tag_175:\n        /* \"@openzeppelin/contracts/token/ERC20/ERC20.sol\":6739:6791  uint256 currentAllowance = allowance(owner, spender) */\n      swap1\n      pop\n        /* \"@openzeppelin/contracts/token/ERC20/ERC20.sol\":6829:6844  subtractedValue */\n      dup4\n        /* \"@openzeppelin/contracts/token/ERC20/ERC20.sol\":6809:6825  currentAllowance */\n      dup2\n        /* \"@openzeppelin/contracts/token/ERC20/ERC20.sol\":6809:6844  currentAllowance >= subtractedValue */\n      lt\n      iszero\n        /* \"@openzeppelin/contracts/token/ERC20/ERC20.sol\":6801:6886  require(currentAllowance >= subtractedValue, \"ERC20: decreased allowance below zero\") */\n      tag_176\n      jumpi\n      mload(0x40)\n      0x08c379a000000000000000000000000000000000000000000000000000000000\n      dup2\n      mstore\n      0x04\n      add\n      tag_177\n      swap1\n      tag_178\n      jump\t// in\n    tag_177:\n      mload(0x40)\n      dup1\n      swap2\n      sub\n      swap1\n      revert\n    tag_176:\n        /* \"@openzeppelin/contracts/token/ERC20/ERC20.sol\":6920:6980  _approve(owner, spender, currentAllowance - subtractedValue) */\n      tag_179\n        /* \"@openzeppelin/contracts/token/ERC20/ERC20.sol\":6929:6934  owner */\n      dup3\n        /* \"@openzeppelin/contracts/token/ERC20/ERC20.sol\":6936:6943  spender */\n      dup7\n        /* \"@openzeppelin/contracts/token/ERC20/ERC20.sol\":6964:6979  subtractedValue */\n      dup7\n        /* \"@openzeppelin/contracts/token/ERC20/ERC20.sol\":6945:6961  currentAllowance */\n      dup5\n        /* \"@openzeppelin/contracts/token/ERC20/ERC20.sol\":6945:6979  currentAllowance - subtractedValue */\n      sub\n        /* \"@openzeppelin/contracts/token/ERC20/ERC20.sol\":6920:6928  _approve */\n      tag_120\n        /* \"@openzeppelin/contracts/token/ERC20/ERC20.sol\":6920:6980  _approve(owner, spender, currentAllowance - subtractedValue) */\n      jump\t// in\n    tag_179:\n        /* \"@openzeppelin/contracts/token/ERC20/ERC20.sol\":7008:7012  true */\n      0x01\n        /* \"@openzeppelin/contracts/token/ERC20/ERC20.sol\":7001:7012  return true */\n      swap3\n      pop\n      pop\n      pop\n        /* \"@openzeppelin/contracts/token/ERC20/ERC20.sol\":6592:7019  function decreaseAllowance(address spender, uint256 subtractedValue) public virtual returns (bool) {... */\n      swap3\n      swap2\n      pop\n      pop\n      jump\t// out\n        /* \"contracts/DegenToken.sol\":1206:2144  function redeemTokens(uint _ch) external{... */\n    tag_92:\n        /* \"contracts/DegenToken.sol\":1272:1273  4 */\n      0x04\n        /* \"contracts/DegenToken.sol\":1265:1268  _ch */\n      dup2\n        /* \"contracts/DegenToken.sol\":1265:1273  _ch <= 4 */\n      gt\n      iszero\n        /* \"contracts/DegenToken.sol\":1257:1299  require(_ch <= 4,\"Wrong option selected!\") */\n      tag_181\n      jumpi\n      mload(0x40)\n      0x08c379a000000000000000000000000000000000000000000000000000000000\n      dup2\n      mstore\n      0x04\n      add\n      tag_182\n      swap1\n      tag_183\n      jump\t// in\n    tag_182:\n      mload(0x40)\n      dup1\n      swap2\n      sub\n      swap1\n      revert\n    tag_181:\n        /* \"contracts/DegenToken.sol\":1322:1323  1 */\n      0x01\n        /* \"contracts/DegenToken.sol\":1315:1318  _ch */\n      dup2\n        /* \"contracts/DegenToken.sol\":1315:1323  _ch == 1 */\n      sub\n        /* \"contracts/DegenToken.sol\":1312:2135  if(_ch == 1){... */\n      tag_184\n      jumpi\n        /* \"contracts/DegenToken.sol\":1370:1373  800 */\n      0x0320\n        /* \"contracts/DegenToken.sol\":1347:1368  balanceOf(msg.sender) */\n      tag_185\n        /* \"contracts/DegenToken.sol\":1357:1367  msg.sender */\n      caller\n        /* \"contracts/DegenToken.sol\":1347:1356  balanceOf */\n      tag_70\n        /* \"contracts/DegenToken.sol\":1347:1368  balanceOf(msg.sender) */\n      jump\t// in\n    tag_185:\n        /* \"contracts/DegenToken.sol\":1347:1373  balanceOf(msg.sender)>=800 */\n      lt\n      iszero\n        /* \"contracts/DegenToken.sol\":1339:1403  require(balanceOf(msg.sender)>=800, \"Oops! Insufficient Tokens\") */\n      tag_186\n      jumpi\n      mload(0x40)\n      0x08c379a000000000000000000000000000000000000000000000000000000000\n      dup2\n      mstore\n      0x04\n      add\n      tag_187\n      swap1\n      tag_188\n      jump\t// in\n    tag_187:\n      mload(0x40)\n      dup1\n      swap2\n      sub\n      swap1\n      revert\n    tag_186:\n        /* \"contracts/DegenToken.sol\":1418:1440  _burn(msg.sender, 800) */\n      tag_189\n        /* \"contracts/DegenToken.sol\":1424:1434  msg.sender */\n      caller\n        /* \"contracts/DegenToken.sol\":1436:1439  800 */\n      0x0320\n        /* \"contracts/DegenToken.sol\":1418:1423  _burn */\n      tag_148\n        /* \"contracts/DegenToken.sol\":1418:1440  _burn(msg.sender, 800) */\n      jump\t// in\n    tag_189:\n        /* \"contracts/DegenToken.sol\":1455:1464  purchases */\n      0x07\n        /* \"contracts/DegenToken.sol\":1455:1476  purchases[msg.sender] */\n      0x00\n        /* \"contracts/DegenToken.sol\":1465:1475  msg.sender */\n      caller\n        /* \"contracts/DegenToken.sol\":1455:1476  purchases[msg.sender] */\n      0xffffffffffffffffffffffffffffffffffffffff\n      and\n      0xffffffffffffffffffffffffffffffffffffffff\n      and\n      dup2\n      mstore\n      0x20\n      add\n      swap1\n      dup2\n      mstore\n      0x20\n      add\n      0x00\n      keccak256\n        /* \"contracts/DegenToken.sol\":1455:1494  purchases[msg.sender].push(\"M416 SKIN\") */\n      dup1\n      0x01\n      dup2\n      sload\n      add\n      dup1\n      dup3\n      sstore\n      dup1\n      swap2\n      pop\n      pop\n      0x01\n      swap1\n      sub\n      swap1\n      0x00\n      mstore\n      keccak256(0x00, 0x20)\n      add\n      0x00\n      mload(0x40)\n      dup1\n      0x40\n      add\n      0x40\n      mstore\n      dup1\n      0x09\n      dup2\n      mstore\n      0x20\n      add\n      0x4d34313620534b494e0000000000000000000000000000000000000000000000\n      dup2\n      mstore\n      pop\n      swap1\n      swap2\n      swap1\n      swap2\n      pop\n      swap1\n      dup2\n      tag_191\n      swap2\n      swap1\n      tag_192\n      jump\t// in\n    tag_191:\n      pop\n        /* \"contracts/DegenToken.sol\":1312:2135  if(_ch == 1){... */\n      jump(tag_193)\n    tag_184:\n        /* \"contracts/DegenToken.sol\":1532:1533  2 */\n      0x02\n        /* \"contracts/DegenToken.sol\":1526:1529  _ch */\n      dup2\n        /* \"contracts/DegenToken.sol\":1526:1533  _ch ==2 */\n      sub\n        /* \"contracts/DegenToken.sol\":1523:2135  if(_ch ==2){... */\n      tag_194\n      jumpi\n        /* \"contracts/DegenToken.sol\":1582:1585  600 */\n      0x0258\n        /* \"contracts/DegenToken.sol\":1557:1578  balanceOf(msg.sender) */\n      tag_195\n        /* \"contracts/DegenToken.sol\":1567:1577  msg.sender */\n      caller\n        /* \"contracts/DegenToken.sol\":1557:1566  balanceOf */\n      tag_70\n        /* \"contracts/DegenToken.sol\":1557:1578  balanceOf(msg.sender) */\n      jump\t// in\n    tag_195:\n        /* \"contracts/DegenToken.sol\":1557:1585  balanceOf(msg.sender) >= 600 */\n      lt\n      iszero\n        /* \"contracts/DegenToken.sol\":1549:1615  require(balanceOf(msg.sender) >= 600, \"Oops! Insufficient Tokens\") */\n      tag_196\n      jumpi\n      mload(0x40)\n      0x08c379a000000000000000000000000000000000000000000000000000000000\n      dup2\n      mstore\n      0x04\n      add\n      tag_197\n      swap1\n      tag_188\n      jump\t// in\n    tag_197:\n      mload(0x40)\n      dup1\n      swap2\n      sub\n      swap1\n      revert\n    tag_196:\n        /* \"contracts/DegenToken.sol\":1630:1652  _burn(msg.sender, 600) */\n      tag_198\n        /* \"contracts/DegenToken.sol\":1636:1646  msg.sender */\n      caller\n        /* \"contracts/DegenToken.sol\":1648:1651  600 */\n      0x0258\n        /* \"contracts/DegenToken.sol\":1630:1635  _burn */\n      tag_148\n        /* \"contracts/DegenToken.sol\":1630:1652  _burn(msg.sender, 600) */\n      jump\t// in\n    tag_198:\n        /* \"contracts/DegenToken.sol\":1667:1676  purchases */\n      0x07\n        /* \"contracts/DegenToken.sol\":1667:1688  purchases[msg.sender] */\n      0x00\n        /* \"contracts/DegenToken.sol\":1677:1687  msg.sender */\n      caller\n        /* \"contracts/DegenToken.sol\":1667:1688  purchases[msg.sender] */\n      0xffffffffffffffffffffffffffffffffffffffff\n      and\n      0xffffffffffffffffffffffffffffffffffffffff\n      and\n      dup2\n      mstore\n      0x20\n      add\n      swap1\n      dup2\n      mstore\n      0x20\n      add\n      0x00\n      keccak256\n        /* \"contracts/DegenToken.sol\":1667:1705  purchases[msg.sender].push(\"AKM SKIN\") */\n      dup1\n      0x01\n      dup2\n      sload\n      add\n      dup1\n      dup3\n      sstore\n      dup1\n      swap2\n      pop\n      pop\n      0x01\n      swap1\n      sub\n      swap1\n      0x00\n      mstore\n      keccak256(0x00, 0x20)\n      add\n      0x00\n      mload(0x40)\n      dup1\n      0x40\n      add\n      0x40\n      mstore\n      dup1\n      0x08\n      dup2\n      mstore\n      0x20\n      add\n      0x414b4d20534b494e000000000000000000000000000000000000000000000000\n      dup2\n      mstore\n      pop\n      swap1\n      swap2\n      swap1\n      swap2\n      pop\n      swap1\n      dup2\n      tag_200\n      swap2\n      swap1\n      tag_192\n      jump\t// in\n    tag_200:\n      pop\n        /* \"contracts/DegenToken.sol\":1523:2135  if(_ch ==2){... */\n      jump(tag_201)\n    tag_194:\n        /* \"contracts/DegenToken.sol\":1744:1745  3 */\n      0x03\n        /* \"contracts/DegenToken.sol\":1737:1740  _ch */\n      dup2\n        /* \"contracts/DegenToken.sol\":1737:1745  _ch == 3 */\n      sub\n        /* \"contracts/DegenToken.sol\":1734:2135  if(_ch == 3){... */\n      tag_202\n      jumpi\n        /* \"contracts/DegenToken.sol\":1794:1797  250 */\n      0xfa\n        /* \"contracts/DegenToken.sol\":1769:1790  balanceOf(msg.sender) */\n      tag_203\n        /* \"contracts/DegenToken.sol\":1779:1789  msg.sender */\n      caller\n        /* \"contracts/DegenToken.sol\":1769:1778  balanceOf */\n      tag_70\n        /* \"contracts/DegenToken.sol\":1769:1790  balanceOf(msg.sender) */\n      jump\t// in\n    tag_203:\n        /* \"contracts/DegenToken.sol\":1769:1797  balanceOf(msg.sender) >= 250 */\n      lt\n      iszero\n        /* \"contracts/DegenToken.sol\":1761:1827  require(balanceOf(msg.sender) >= 250, \"Oops! Insufficient Tokens\") */\n      tag_204\n      jumpi\n      mload(0x40)\n      0x08c379a000000000000000000000000000000000000000000000000000000000\n      dup2\n      mstore\n      0x04\n      add\n      tag_205\n      swap1\n      tag_188\n      jump\t// in\n    tag_205:\n      mload(0x40)\n      dup1\n      swap2\n      sub\n      swap1\n      revert\n    tag_204:\n        /* \"contracts/DegenToken.sol\":1842:1864  _burn(msg.sender, 250) */\n      tag_206\n        /* \"contracts/DegenToken.sol\":1848:1858  msg.sender */\n      caller\n        /* \"contracts/DegenToken.sol\":1860:1863  250 */\n      0xfa\n        /* \"contracts/DegenToken.sol\":1842:1847  _burn */\n      tag_148\n        /* \"contracts/DegenToken.sol\":1842:1864  _burn(msg.sender, 250) */\n      jump\t// in\n    tag_206:\n        /* \"contracts/DegenToken.sol\":1879:1888  purchases */\n      0x07\n        /* \"contracts/DegenToken.sol\":1879:1900  purchases[msg.sender] */\n      0x00\n        /* \"contracts/DegenToken.sol\":1889:1899  msg.sender */\n      caller\n        /* \"contracts/DegenToken.sol\":1879:1900  purchases[msg.sender] */\n      0xffffffffffffffffffffffffffffffffffffffff\n      and\n      0xffffffffffffffffffffffffffffffffffffffff\n      and\n      dup2\n      mstore\n      0x20\n      add\n      swap1\n      dup2\n      mstore\n      0x20\n      add\n      0x00\n      keccak256\n        /* \"contracts/DegenToken.sol\":1879:1919  purchases[msg.sender].push(\"UMP45 SKIN\") */\n      dup1\n      0x01\n      dup2\n      sload\n      add\n      dup1\n      dup3\n      sstore\n      dup1\n      swap2\n      pop\n      pop\n      0x01\n      swap1\n      sub\n      swap1\n      0x00\n      mstore\n      keccak256(0x00, 0x20)\n      add\n      0x00\n      mload(0x40)\n      dup1\n      0x40\n      add\n      0x40\n      mstore\n      dup1\n      0x0a\n      dup2\n      mstore\n      0x20\n      add\n      0x554d50343520534b494e00000000000000000000000000000000000000000000\n      dup2\n      mstore\n      pop\n      swap1\n      swap2\n      swap1\n      swap2\n      pop\n      swap1\n      dup2\n      tag_208\n      swap2\n      swap1\n      tag_192\n      jump\t// in\n    tag_208:\n      pop\n        /* \"contracts/DegenToken.sol\":1734:2135  if(_ch == 3){... */\n      jump(tag_209)\n    tag_202:\n        /* \"contracts/DegenToken.sol\":1995:1998  175 */\n      0xaf\n        /* \"contracts/DegenToken.sol\":1970:1991  balanceOf(msg.sender) */\n      tag_210\n        /* \"contracts/DegenToken.sol\":1980:1990  msg.sender */\n      caller\n        /* \"contracts/DegenToken.sol\":1970:1979  balanceOf */\n      tag_70\n        /* \"contracts/DegenToken.sol\":1970:1991  balanceOf(msg.sender) */\n      jump\t// in\n    tag_210:\n        /* \"contracts/DegenToken.sol\":1970:1998  balanceOf(msg.sender) >= 175 */\n      lt\n      iszero\n        /* \"contracts/DegenToken.sol\":1962:2028  require(balanceOf(msg.sender) >= 175, \"Oops! Insufficient Tokens\") */\n      tag_211\n      jumpi\n      mload(0x40)\n      0x08c379a000000000000000000000000000000000000000000000000000000000\n      dup2\n      mstore\n      0x04\n      add\n      tag_212\n      swap1\n      tag_188\n      jump\t// in\n    tag_212:\n      mload(0x40)\n      dup1\n      swap2\n      sub\n      swap1\n      revert\n    tag_211:\n        /* \"contracts/DegenToken.sol\":2043:2065  _burn(msg.sender, 175) */\n      tag_213\n        /* \"contracts/DegenToken.sol\":2049:2059  msg.sender */\n      caller\n        /* \"contracts/DegenToken.sol\":2061:2064  175 */\n      0xaf\n        /* \"contracts/DegenToken.sol\":2043:2048  _burn */\n      tag_148\n        /* \"contracts/DegenToken.sol\":2043:2065  _burn(msg.sender, 175) */\n      jump\t// in\n    tag_213:\n        /* \"contracts/DegenToken.sol\":2080:2089  purchases */\n      0x07\n        /* \"contracts/DegenToken.sol\":2080:2101  purchases[msg.sender] */\n      0x00\n        /* \"contracts/DegenToken.sol\":2090:2100  msg.sender */\n      caller\n        /* \"contracts/DegenToken.sol\":2080:2101  purchases[msg.sender] */\n      0xffffffffffffffffffffffffffffffffffffffff\n      and\n      0xffffffffffffffffffffffffffffffffffffffff\n      and\n      dup2\n      mstore\n      0x20\n      add\n      swap1\n      dup2\n      mstore\n      0x20\n      add\n      0x00\n      keccak256\n        /* \"contracts/DegenToken.sol\":2080:2123  purchases[msg.sender].push(\"MYTHIC OUTFIT\") */\n      dup1\n      0x01\n      dup2\n      sload\n      add\n      dup1\n      dup3\n      sstore\n      dup1\n      swap2\n      pop\n      pop\n      0x01\n      swap1\n      sub\n      swap1\n      0x00\n      mstore\n      keccak256(0x00, 0x20)\n      add\n      0x00\n      mload(0x40)\n      dup1\n      0x40\n      add\n      0x40\n      mstore\n      dup1\n      0x0d\n      dup2\n      mstore\n      0x20\n      add\n      0x4d5954484943204f555446495400000000000000000000000000000000000000\n      dup2\n      mstore\n      pop\n      swap1\n      swap2\n      swap1\n      swap2\n      pop\n      swap1\n      dup2\n      tag_215\n      swap2\n      swap1\n      tag_192\n      jump\t// in\n    tag_215:\n      pop\n        /* \"contracts/DegenToken.sol\":1734:2135  if(_ch == 3){... */\n    tag_209:\n        /* \"contracts/DegenToken.sol\":1523:2135  if(_ch ==2){... */\n    tag_201:\n        /* \"contracts/DegenToken.sol\":1312:2135  if(_ch == 1){... */\n    tag_193:\n        /* \"contracts/DegenToken.sol\":1206:2144  function redeemTokens(uint _ch) external{... */\n      pop\n      jump\t// out\n        /* \"@openzeppelin/contracts/token/ERC20/ERC20.sol\":3727:3916  function transfer(address to, uint256 amount) public virtual override returns (bool) {... */\n    tag_95:\n        /* \"@openzeppelin/contracts/token/ERC20/ERC20.sol\":3806:3810  bool */\n      0x00\n        /* \"@openzeppelin/contracts/token/ERC20/ERC20.sol\":3822:3835  address owner */\n      dup1\n        /* \"@openzeppelin/contracts/token/ERC20/ERC20.sol\":3838:3850  _msgSender() */\n      tag_217\n        /* \"@openzeppelin/contracts/token/ERC20/ERC20.sol\":3838:3848  _msgSender */\n      tag_118\n        /* \"@openzeppelin/contracts/token/ERC20/ERC20.sol\":3838:3850  _msgSender() */\n      jump\t// in\n    tag_217:\n        /* \"@openzeppelin/contracts/token/ERC20/ERC20.sol\":3822:3850  address owner = _msgSender() */\n      swap1\n      pop\n        /* \"@openzeppelin/contracts/token/ERC20/ERC20.sol\":3860:3888  _transfer(owner, to, amount) */\n      tag_218\n        /* \"@openzeppelin/contracts/token/ERC20/ERC20.sol\":3870:3875  owner */\n      dup2\n        /* \"@openzeppelin/contracts/token/ERC20/ERC20.sol\":3877:3879  to */\n      dup6\n        /* \"@openzeppelin/contracts/token/ERC20/ERC20.sol\":3881:3887  amount */\n      dup6\n        /* \"@openzeppelin/contracts/token/ERC20/ERC20.sol\":3860:3869  _transfer */\n      tag_127\n        /* \"@openzeppelin/contracts/token/ERC20/ERC20.sol\":3860:3888  _transfer(owner, to, amount) */\n      jump\t// in\n    tag_218:\n        /* \"@openzeppelin/contracts/token/ERC20/ERC20.sol\":3905:3909  true */\n      0x01\n        /* \"@openzeppelin/contracts/token/ERC20/ERC20.sol\":3898:3909  return true */\n      swap2\n      pop\n      pop\n        /* \"@openzeppelin/contracts/token/ERC20/ERC20.sol\":3727:3916  function transfer(address to, uint256 amount) public virtual override returns (bool) {... */\n      swap3\n      swap2\n      pop\n      pop\n      jump\t// out\n        /* \"contracts/DegenToken.sol\":2448:2652  function transferTokens(address _reciever, uint _tokens) external{... */\n    tag_99:\n        /* \"contracts/DegenToken.sol\":2557:2564  _tokens */\n      dup1\n        /* \"contracts/DegenToken.sol\":2532:2553  balanceOf(msg.sender) */\n      tag_220\n        /* \"contracts/DegenToken.sol\":2542:2552  msg.sender */\n      caller\n        /* \"contracts/DegenToken.sol\":2532:2541  balanceOf */\n      tag_70\n        /* \"contracts/DegenToken.sol\":2532:2553  balanceOf(msg.sender) */\n      jump\t// in\n    tag_220:\n        /* \"contracts/DegenToken.sol\":2532:2564  balanceOf(msg.sender) >= _tokens */\n      lt\n      iszero\n        /* \"contracts/DegenToken.sol\":2524:2605  require(balanceOf(msg.sender) >= _tokens, \"Sorry, not enough balance in wallet.\") */\n      tag_221\n      jumpi\n      mload(0x40)\n      0x08c379a000000000000000000000000000000000000000000000000000000000\n      dup2\n      mstore\n      0x04\n      add\n      tag_222\n      swap1\n      tag_223\n      jump\t// in\n    tag_222:\n      mload(0x40)\n      dup1\n      swap2\n      sub\n      swap1\n      revert\n    tag_221:\n        /* \"contracts/DegenToken.sol\":2616:2644  transfer(_reciever, _tokens) */\n      tag_224\n        /* \"contracts/DegenToken.sol\":2625:2634  _reciever */\n      dup3\n        /* \"contracts/DegenToken.sol\":2636:2643  _tokens */\n      dup3\n        /* \"contracts/DegenToken.sol\":2616:2624  transfer */\n      tag_95\n        /* \"contracts/DegenToken.sol\":2616:2644  transfer(_reciever, _tokens) */\n      jump\t// in\n    tag_224:\n      pop\n        /* \"contracts/DegenToken.sol\":2448:2652  function transferTokens(address _reciever, uint _tokens) external{... */\n      pop\n      pop\n      jump\t// out\n        /* \"@openzeppelin/contracts/token/ERC20/ERC20.sol\":3974:4123  function allowance(address owner, address spender) public view virtual override returns (uint256) {... */\n    tag_103:\n        /* \"@openzeppelin/contracts/token/ERC20/ERC20.sol\":4063:4070  uint256 */\n      0x00\n        /* \"@openzeppelin/contracts/token/ERC20/ERC20.sol\":4089:4100  _allowances */\n      0x01\n        /* \"@openzeppelin/contracts/token/ERC20/ERC20.sol\":4089:4107  _allowances[owner] */\n      0x00\n        /* \"@openzeppelin/contracts/token/ERC20/ERC20.sol\":4101:4106  owner */\n      dup5\n        /* \"@openzeppelin/contracts/token/ERC20/ERC20.sol\":4089:4107  _allowances[owner] */\n      0xffffffffffffffffffffffffffffffffffffffff\n      and\n      0xffffffffffffffffffffffffffffffffffffffff\n      and\n      dup2\n      mstore\n      0x20\n      add\n      swap1\n      dup2\n      mstore\n      0x20\n      add\n      0x00\n      keccak256\n        /* \"@openzeppelin/contracts/token/ERC20/ERC20.sol\":4089:4116  _allowances[owner][spender] */\n      0x00\n        /* \"@openzeppelin/contracts/token/ERC20/ERC20.sol\":4108:4115  spender */\n      dup4\n        /* \"@openzeppelin/contracts/token/ERC20/ERC20.sol\":4089:4116  _allowances[owner][spender] */\n      0xffffffffffffffffffffffffffffffffffffffff\n      and\n      0xffffffffffffffffffffffffffffffffffffffff\n      and\n      dup2\n      mstore\n      0x20\n      add\n      swap1\n      dup2\n      mstore\n      0x20\n      add\n      0x00\n      keccak256\n      sload\n        /* \"@openzeppelin/contracts/token/ERC20/ERC20.sol\":4082:4116  return _allowances[owner][spender] */\n      swap1\n      pop\n        /* \"@openzeppelin/contracts/token/ERC20/ERC20.sol\":3974:4123  function allowance(address owner, address spender) public view virtual override returns (uint256) {... */\n      swap3\n      swap2\n      pop\n      pop\n      jump\t// out\n        /* \"contracts/DegenToken.sol\":695:959  function mintTokens(address _receiver, uint256 _tokens) public onlyOwner{... */\n    tag_107:\n        /* \"contracts/DegenToken.sol\":601:606  owner */\n      0x08\n      0x00\n      swap1\n      sload\n      swap1\n      0x0100\n      exp\n      swap1\n      div\n      0xffffffffffffffffffffffffffffffffffffffff\n      and\n        /* \"contracts/DegenToken.sol\":587:606  msg.sender == owner */\n      0xffffffffffffffffffffffffffffffffffffffff\n      and\n        /* \"contracts/DegenToken.sol\":587:597  msg.sender */\n      caller\n        /* \"contracts/DegenToken.sol\":587:606  msg.sender == owner */\n      0xffffffffffffffffffffffffffffffffffffffff\n      and\n      eq\n        /* \"contracts/DegenToken.sol\":579:645  require(msg.sender == owner, \"Sorry! only owner can mint tokens!\") */\n      tag_227\n      jumpi\n      mload(0x40)\n      0x08c379a000000000000000000000000000000000000000000000000000000000\n      dup2\n      mstore\n      0x04\n      add\n      tag_228\n      swap1\n      tag_229\n      jump\t// in\n    tag_228:\n      mload(0x40)\n      dup1\n      swap2\n      sub\n      swap1\n      revert\n    tag_227:\n        /* \"contracts/DegenToken.sol\":807:808  0 */\n      0x00\n        /* \"contracts/DegenToken.sol\":786:809  _receiver != address(0) */\n      0xffffffffffffffffffffffffffffffffffffffff\n      and\n        /* \"contracts/DegenToken.sol\":786:795  _receiver */\n      dup3\n        /* \"contracts/DegenToken.sol\":786:809  _receiver != address(0) */\n      0xffffffffffffffffffffffffffffffffffffffff\n      and\n      sub\n        /* \"contracts/DegenToken.sol\":778:840  require(_receiver != address(0), \"This address doesn't exist\") */\n      tag_231\n      jumpi\n      mload(0x40)\n      0x08c379a000000000000000000000000000000000000000000000000000000000\n      dup2\n      mstore\n      0x04\n      add\n      tag_232\n      swap1\n      tag_233\n      jump\t// in\n    tag_232:\n      mload(0x40)\n      dup1\n      swap2\n      sub\n      swap1\n      revert\n    tag_231:\n        /* \"contracts/DegenToken.sol\":869:870  0 */\n      0x00\n        /* \"contracts/DegenToken.sol\":859:866  _tokens */\n      dup2\n        /* \"contracts/DegenToken.sol\":859:870  _tokens > 0 */\n      gt\n        /* \"contracts/DegenToken.sol\":851:915  require(_tokens > 0, \"You can't mint negative number of tokens\") */\n      tag_234\n      jumpi\n      mload(0x40)\n      0x08c379a000000000000000000000000000000000000000000000000000000000\n      dup2\n      mstore\n      0x04\n      add\n      tag_235\n      swap1\n      tag_236\n      jump\t// in\n    tag_235:\n      mload(0x40)\n      dup1\n      swap2\n      sub\n      swap1\n      revert\n    tag_234:\n        /* \"contracts/DegenToken.sol\":926:951  _mint(_receiver, _tokens) */\n      tag_237\n        /* \"contracts/DegenToken.sol\":932:941  _receiver */\n      dup3\n        /* \"contracts/DegenToken.sol\":943:950  _tokens */\n      dup3\n        /* \"contracts/DegenToken.sol\":926:931  _mint */\n      tag_238\n        /* \"contracts/DegenToken.sol\":926:951  _mint(_receiver, _tokens) */\n      jump\t// in\n    tag_237:\n        /* \"contracts/DegenToken.sol\":695:959  function mintTokens(address _receiver, uint256 _tokens) public onlyOwner{... */\n      pop\n      pop\n      jump\t// out\n        /* \"@openzeppelin/contracts/utils/Context.sol\":640:736  function _msgSender() internal view virtual returns (address) {... */\n    tag_118:\n        /* \"@openzeppelin/contracts/utils/Context.sol\":693:700  address */\n      0x00\n        /* \"@openzeppelin/contracts/utils/Context.sol\":719:729  msg.sender */\n      caller\n        /* \"@openzeppelin/contracts/utils/Context.sol\":712:729  return msg.sender */\n      swap1\n      pop\n        /* \"@openzeppelin/contracts/utils/Context.sol\":640:736  function _msgSender() internal view virtual returns (address) {... */\n      swap1\n      jump\t// out\n        /* \"@openzeppelin/contracts/token/ERC20/ERC20.sol\":10504:10874  function _approve(... */\n    tag_120:\n        /* \"@openzeppelin/contracts/token/ERC20/ERC20.sol\":10652:10653  0 */\n      0x00\n        /* \"@openzeppelin/contracts/token/ERC20/ERC20.sol\":10635:10654  owner != address(0) */\n      0xffffffffffffffffffffffffffffffffffffffff\n      and\n        /* \"@openzeppelin/contracts/token/ERC20/ERC20.sol\":10635:10640  owner */\n      dup4\n        /* \"@openzeppelin/contracts/token/ERC20/ERC20.sol\":10635:10654  owner != address(0) */\n      0xffffffffffffffffffffffffffffffffffffffff\n      and\n      sub\n        /* \"@openzeppelin/contracts/token/ERC20/ERC20.sol\":10627:10695  require(owner != address(0), \"ERC20: approve from the zero address\") */\n      tag_241\n      jumpi\n      mload(0x40)\n      0x08c379a000000000000000000000000000000000000000000000000000000000\n      dup2\n      mstore\n      0x04\n      add\n      tag_242\n      swap1\n      tag_243\n      jump\t// in\n    tag_242:\n      mload(0x40)\n      dup1\n      swap2\n      sub\n      swap1\n      revert\n    tag_241:\n        /* \"@openzeppelin/contracts/token/ERC20/ERC20.sol\":10732:10733  0 */\n      0x00\n        /* \"@openzeppelin/contracts/token/ERC20/ERC20.sol\":10713:10734  spender != address(0) */\n      0xffffffffffffffffffffffffffffffffffffffff\n      and\n        /* \"@openzeppelin/contracts/token/ERC20/ERC20.sol\":10713:10720  spender */\n      dup3\n        /* \"@openzeppelin/contracts/token/ERC20/ERC20.sol\":10713:10734  spender != address(0) */\n      0xffffffffffffffffffffffffffffffffffffffff\n      and\n      sub\n        /* \"@openzeppelin/contracts/token/ERC20/ERC20.sol\":10705:10773  require(spender != address(0), \"ERC20: approve to the zero address\") */\n      tag_244\n      jumpi\n      mload(0x40)\n      0x08c379a000000000000000000000000000000000000000000000000000000000\n      dup2\n      mstore\n      0x04\n      add\n      tag_245\n      swap1\n      tag_246\n      jump\t// in\n    tag_245:\n      mload(0x40)\n      dup1\n      swap2\n      sub\n      swap1\n      revert\n    tag_244:\n        /* \"@openzeppelin/contracts/token/ERC20/ERC20.sol\":10814:10820  amount */\n      dup1\n        /* \"@openzeppelin/contracts/token/ERC20/ERC20.sol\":10784:10795  _allowances */\n      0x01\n        /* \"@openzeppelin/contracts/token/ERC20/ERC20.sol\":10784:10802  _allowances[owner] */\n      0x00\n        /* \"@openzeppelin/contracts/token/ERC20/ERC20.sol\":10796:10801  owner */\n      dup6\n        /* \"@openzeppelin/contracts/token/ERC20/ERC20.sol\":10784:10802  _allowances[owner] */\n      0xffffffffffffffffffffffffffffffffffffffff\n      and\n      0xffffffffffffffffffffffffffffffffffffffff\n      and\n      dup2\n      mstore\n      0x20\n      add\n      swap1\n      dup2\n      mstore\n      0x20\n      add\n      0x00\n      keccak256\n        /* \"@openzeppelin/contracts/token/ERC20/ERC20.sol\":10784:10811  _allowances[owner][spender] */\n      0x00\n        /* \"@openzeppelin/contracts/token/ERC20/ERC20.sol\":10803:10810  spender */\n      dup5\n        /* \"@openzeppelin/contracts/token/ERC20/ERC20.sol\":10784:10811  _allowances[owner][spender] */\n      0xffffffffffffffffffffffffffffffffffffffff\n      and\n      0xffffffffffffffffffffffffffffffffffffffff\n      and\n      dup2\n      mstore\n      0x20\n      add\n      swap1\n      dup2\n      mstore\n      0x20\n      add\n      0x00\n      keccak256\n        /* \"@openzeppelin/contracts/token/ERC20/ERC20.sol\":10784:10820  _allowances[owner][spender] = amount */\n      dup2\n      swap1\n      sstore\n      pop\n        /* \"@openzeppelin/contracts/token/ERC20/ERC20.sol\":10851:10858  spender */\n      dup2\n        /* \"@openzeppelin/contracts/token/ERC20/ERC20.sol\":10835:10867  Approval(owner, spender, amount) */\n      0xffffffffffffffffffffffffffffffffffffffff\n      and\n        /* \"@openzeppelin/contracts/token/ERC20/ERC20.sol\":10844:10849  owner */\n      dup4\n        /* \"@openzeppelin/contracts/token/ERC20/ERC20.sol\":10835:10867  Approval(owner, spender, amount) */\n      0xffffffffffffffffffffffffffffffffffffffff\n      and\n      0x8c5be1e5ebec7d5bd14f71427d1e84f3dd0314c0f7b2291e5b200ac8c7c3b925\n        /* \"@openzeppelin/contracts/token/ERC20/ERC20.sol\":10860:10866  amount */\n      dup4\n        /* \"@openzeppelin/contracts/token/ERC20/ERC20.sol\":10835:10867  Approval(owner, spender, amount) */\n      mload(0x40)\n      tag_247\n      swap2\n      swap1\n      tag_43\n      jump\t// in\n    tag_247:\n      mload(0x40)\n      dup1\n      swap2\n      sub\n      swap1\n      log3\n        /* \"@openzeppelin/contracts/token/ERC20/ERC20.sol\":10504:10874  function _approve(... */\n      pop\n      pop\n      pop\n      jump\t// out\n        /* \"@openzeppelin/contracts/token/ERC20/ERC20.sol\":11155:11596  function _spendAllowance(... */\n    tag_125:\n        /* \"@openzeppelin/contracts/token/ERC20/ERC20.sol\":11285:11309  uint256 currentAllowance */\n      0x00\n        /* \"@openzeppelin/contracts/token/ERC20/ERC20.sol\":11312:11337  allowance(owner, spender) */\n      tag_249\n        /* \"@openzeppelin/contracts/token/ERC20/ERC20.sol\":11322:11327  owner */\n      dup5\n        /* \"@openzeppelin/contracts/token/ERC20/ERC20.sol\":11329:11336  spender */\n      dup5\n        /* \"@openzeppelin/contracts/token/ERC20/ERC20.sol\":11312:11321  allowance */\n      tag_103\n        /* \"@openzeppelin/contracts/token/ERC20/ERC20.sol\":11312:11337  allowance(owner, spender) */\n      jump\t// in\n    tag_249:\n        /* \"@openzeppelin/contracts/token/ERC20/ERC20.sol\":11285:11337  uint256 currentAllowance = allowance(owner, spender) */\n      swap1\n      pop\n        /* \"@openzeppelin/contracts/token/ERC20/ERC20.sol\":11371:11388  type(uint256).max */\n      0xffffffffffffffffffffffffffffffffffffffffffffffffffffffffffffffff\n        /* \"@openzeppelin/contracts/token/ERC20/ERC20.sol\":11351:11367  currentAllowance */\n      dup2\n        /* \"@openzeppelin/contracts/token/ERC20/ERC20.sol\":11351:11388  currentAllowance != type(uint256).max */\n      eq\n        /* \"@openzeppelin/contracts/token/ERC20/ERC20.sol\":11347:11590  if (currentAllowance != type(uint256).max) {... */\n      tag_250\n      jumpi\n        /* \"@openzeppelin/contracts/token/ERC20/ERC20.sol\":11432:11438  amount */\n      dup2\n        /* \"@openzeppelin/contracts/token/ERC20/ERC20.sol\":11412:11428  currentAllowance */\n      dup2\n        /* \"@openzeppelin/contracts/token/ERC20/ERC20.sol\":11412:11438  currentAllowance >= amount */\n      lt\n      iszero\n        /* \"@openzeppelin/contracts/token/ERC20/ERC20.sol\":11404:11472  require(currentAllowance >= amount, \"ERC20: insufficient allowance\") */\n      tag_251\n      jumpi\n      mload(0x40)\n      0x08c379a000000000000000000000000000000000000000000000000000000000\n      dup2\n      mstore\n      0x04\n      add\n      tag_252\n      swap1\n      tag_253\n      jump\t// in\n    tag_252:\n      mload(0x40)\n      dup1\n      swap2\n      sub\n      swap1\n      revert\n    tag_251:\n        /* \"@openzeppelin/contracts/token/ERC20/ERC20.sol\":11514:11565  _approve(owner, spender, currentAllowance - amount) */\n      tag_254\n        /* \"@openzeppelin/contracts/token/ERC20/ERC20.sol\":11523:11528  owner */\n      dup5\n        /* \"@openzeppelin/contracts/token/ERC20/ERC20.sol\":11530:11537  spender */\n      dup5\n        /* \"@openzeppelin/contracts/token/ERC20/ERC20.sol\":11558:11564  amount */\n      dup5\n        /* \"@openzeppelin/contracts/token/ERC20/ERC20.sol\":11539:11555  currentAllowance */\n      dup5\n        /* \"@openzeppelin/contracts/token/ERC20/ERC20.sol\":11539:11564  currentAllowance - amount */\n      sub\n        /* \"@openzeppelin/contracts/token/ERC20/ERC20.sol\":11514:11522  _approve */\n      tag_120\n        /* \"@openzeppelin/contracts/token/ERC20/ERC20.sol\":11514:11565  _approve(owner, spender, currentAllowance - amount) */\n      jump\t// in\n    tag_254:\n        /* \"@openzeppelin/contracts/token/ERC20/ERC20.sol\":11347:11590  if (currentAllowance != type(uint256).max) {... */\n    tag_250:\n        /* \"@openzeppelin/contracts/token/ERC20/ERC20.sol\":11275:11596  {... */\n      pop\n        /* \"@openzeppelin/contracts/token/ERC20/ERC20.sol\":11155:11596  function _spendAllowance(... */\n      pop\n      pop\n      pop\n      jump\t// out\n        /* \"@openzeppelin/contracts/token/ERC20/ERC20.sol\":7473:8291  function _transfer(... */\n    tag_127:\n        /* \"@openzeppelin/contracts/token/ERC20/ERC20.sol\":7615:7616  0 */\n      0x00\n        /* \"@openzeppelin/contracts/token/ERC20/ERC20.sol\":7599:7617  from != address(0) */\n      0xffffffffffffffffffffffffffffffffffffffff\n      and\n        /* \"@openzeppelin/contracts/token/ERC20/ERC20.sol\":7599:7603  from */\n      dup4\n        /* \"@openzeppelin/contracts/token/ERC20/ERC20.sol\":7599:7617  from != address(0) */\n      0xffffffffffffffffffffffffffffffffffffffff\n      and\n      sub\n        /* \"@openzeppelin/contracts/token/ERC20/ERC20.sol\":7591:7659  require(from != address(0), \"ERC20: transfer from the zero address\") */\n      tag_256\n      jumpi\n      mload(0x40)\n      0x08c379a000000000000000000000000000000000000000000000000000000000\n      dup2\n      mstore\n      0x04\n      add\n      tag_257\n      swap1\n      tag_258\n      jump\t// in\n    tag_257:\n      mload(0x40)\n      dup1\n      swap2\n      sub\n      swap1\n      revert\n    tag_256:\n        /* \"@openzeppelin/contracts/token/ERC20/ERC20.sol\":7691:7692  0 */\n      0x00\n        /* \"@openzeppelin/contracts/token/ERC20/ERC20.sol\":7677:7693  to != address(0) */\n      0xffffffffffffffffffffffffffffffffffffffff\n      and\n        /* \"@openzeppelin/contracts/token/ERC20/ERC20.sol\":7677:7679  to */\n      dup3\n        /* \"@openzeppelin/contracts/token/ERC20/ERC20.sol\":7677:7693  to != address(0) */\n      0xffffffffffffffffffffffffffffffffffffffff\n      and\n      sub\n        /* \"@openzeppelin/contracts/token/ERC20/ERC20.sol\":7669:7733  require(to != address(0), \"ERC20: transfer to the zero address\") */\n      tag_259\n      jumpi\n      mload(0x40)\n      0x08c379a000000000000000000000000000000000000000000000000000000000\n      dup2\n      mstore\n      0x04\n      add\n      tag_260\n      swap1\n      tag_261\n      jump\t// in\n    tag_260:\n      mload(0x40)\n      dup1\n      swap2\n      sub\n      swap1\n      revert\n    tag_259:\n        /* \"@openzeppelin/contracts/token/ERC20/ERC20.sol\":7744:7782  _beforeTokenTransfer(from, to, amount) */\n      tag_262\n        /* \"@openzeppelin/contracts/token/ERC20/ERC20.sol\":7765:7769  from */\n      dup4\n        /* \"@openzeppelin/contracts/token/ERC20/ERC20.sol\":7771:7773  to */\n      dup4\n        /* \"@openzeppelin/contracts/token/ERC20/ERC20.sol\":7775:7781  amount */\n      dup4\n        /* \"@openzeppelin/contracts/token/ERC20/ERC20.sol\":7744:7764  _beforeTokenTransfer */\n      tag_263\n        /* \"@openzeppelin/contracts/token/ERC20/ERC20.sol\":7744:7782  _beforeTokenTransfer(from, to, amount) */\n      jump\t// in\n    tag_262:\n        /* \"@openzeppelin/contracts/token/ERC20/ERC20.sol\":7793:7812  uint256 fromBalance */\n      0x00\n        /* \"@openzeppelin/contracts/token/ERC20/ERC20.sol\":7815:7824  _balances */\n      dup1\n        /* \"@openzeppelin/contracts/token/ERC20/ERC20.sol\":7815:7830  _balances[from] */\n      0x00\n        /* \"@openzeppelin/contracts/token/ERC20/ERC20.sol\":7825:7829  from */\n      dup6\n        /* \"@openzeppelin/contracts/token/ERC20/ERC20.sol\":7815:7830  _balances[from] */\n      0xffffffffffffffffffffffffffffffffffffffff\n      and\n      0xffffffffffffffffffffffffffffffffffffffff\n      and\n      dup2\n      mstore\n      0x20\n      add\n      swap1\n      dup2\n      mstore\n      0x20\n      add\n      0x00\n      keccak256\n      sload\n        /* \"@openzeppelin/contracts/token/ERC20/ERC20.sol\":7793:7830  uint256 fromBalance = _balances[from] */\n      swap1\n      pop\n        /* \"@openzeppelin/contracts/token/ERC20/ERC20.sol\":7863:7869  amount */\n      dup2\n        /* \"@openzeppelin/contracts/token/ERC20/ERC20.sol\":7848:7859  fromBalance */\n      dup2\n        /* \"@openzeppelin/contracts/token/ERC20/ERC20.sol\":7848:7869  fromBalance >= amount */\n      lt\n      iszero\n        /* \"@openzeppelin/contracts/token/ERC20/ERC20.sol\":7840:7912  require(fromBalance >= amount, \"ERC20: transfer amount exceeds balance\") */\n      tag_264\n      jumpi\n      mload(0x40)\n      0x08c379a000000000000000000000000000000000000000000000000000000000\n      dup2\n      mstore\n      0x04\n      add\n      tag_265\n      swap1\n      tag_266\n      jump\t// in\n    tag_265:\n      mload(0x40)\n      dup1\n      swap2\n      sub\n      swap1\n      revert\n    tag_264:\n        /* \"@openzeppelin/contracts/token/ERC20/ERC20.sol\":7978:7984  amount */\n      dup2\n        /* \"@openzeppelin/contracts/token/ERC20/ERC20.sol\":7964:7975  fromBalance */\n      dup2\n        /* \"@openzeppelin/contracts/token/ERC20/ERC20.sol\":7964:7984  fromBalance - amount */\n      sub\n        /* \"@openzeppelin/contracts/token/ERC20/ERC20.sol\":7946:7955  _balances */\n      0x00\n        /* \"@openzeppelin/contracts/token/ERC20/ERC20.sol\":7946:7961  _balances[from] */\n      dup1\n        /* \"@openzeppelin/contracts/token/ERC20/ERC20.sol\":7956:7960  from */\n      dup7\n        /* \"@openzeppelin/contracts/token/ERC20/ERC20.sol\":7946:7961  _balances[from] */\n      0xffffffffffffffffffffffffffffffffffffffff\n      and\n      0xffffffffffffffffffffffffffffffffffffffff\n      and\n      dup2\n      mstore\n      0x20\n      add\n      swap1\n      dup2\n      mstore\n      0x20\n      add\n      0x00\n      keccak256\n        /* \"@openzeppelin/contracts/token/ERC20/ERC20.sol\":7946:7984  _balances[from] = fromBalance - amount */\n      dup2\n      swap1\n      sstore\n      pop\n        /* \"@openzeppelin/contracts/token/ERC20/ERC20.sol\":8178:8184  amount */\n      dup2\n        /* \"@openzeppelin/contracts/token/ERC20/ERC20.sol\":8161:8170  _balances */\n      0x00\n        /* \"@openzeppelin/contracts/token/ERC20/ERC20.sol\":8161:8174  _balances[to] */\n      dup1\n        /* \"@openzeppelin/contracts/token/ERC20/ERC20.sol\":8171:8173  to */\n      dup6\n        /* \"@openzeppelin/contracts/token/ERC20/ERC20.sol\":8161:8174  _balances[to] */\n      0xffffffffffffffffffffffffffffffffffffffff\n      and\n      0xffffffffffffffffffffffffffffffffffffffff\n      and\n      dup2\n      mstore\n      0x20\n      add\n      swap1\n      dup2\n      mstore\n      0x20\n      add\n      0x00\n      keccak256\n      0x00\n        /* \"@openzeppelin/contracts/token/ERC20/ERC20.sol\":8161:8184  _balances[to] += amount */\n      dup3\n      dup3\n      sload\n      add\n      swap3\n      pop\n      pop\n      dup2\n      swap1\n      sstore\n      pop\n        /* \"@openzeppelin/contracts/token/ERC20/ERC20.sol\":8225:8227  to */\n      dup3\n        /* \"@openzeppelin/contracts/token/ERC20/ERC20.sol\":8210:8236  Transfer(from, to, amount) */\n      0xffffffffffffffffffffffffffffffffffffffff\n      and\n        /* \"@openzeppelin/contracts/token/ERC20/ERC20.sol\":8219:8223  from */\n      dup5\n        /* \"@openzeppelin/contracts/token/ERC20/ERC20.sol\":8210:8236  Transfer(from, to, amount) */\n      0xffffffffffffffffffffffffffffffffffffffff\n      and\n      0xddf252ad1be2c89b69c2b068fc378daa952ba7f163c4a11628f55a4df523b3ef\n        /* \"@openzeppelin/contracts/token/ERC20/ERC20.sol\":8229:8235  amount */\n      dup5\n        /* \"@openzeppelin/contracts/token/ERC20/ERC20.sol\":8210:8236  Transfer(from, to, amount) */\n      mload(0x40)\n      tag_267\n      swap2\n      swap1\n      tag_43\n      jump\t// in\n    tag_267:\n      mload(0x40)\n      dup1\n      swap2\n      sub\n      swap1\n      log3\n        /* \"@openzeppelin/contracts/token/ERC20/ERC20.sol\":8247:8284  _afterTokenTransfer(from, to, amount) */\n      tag_268\n        /* \"@openzeppelin/contracts/token/ERC20/ERC20.sol\":8267:8271  from */\n      dup5\n        /* \"@openzeppelin/contracts/token/ERC20/ERC20.sol\":8273:8275  to */\n      dup5\n        /* \"@openzeppelin/contracts/token/ERC20/ERC20.sol\":8277:8283  amount */\n      dup5\n        /* \"@openzeppelin/contracts/token/ERC20/ERC20.sol\":8247:8266  _afterTokenTransfer */\n      tag_269\n        /* \"@openzeppelin/contracts/token/ERC20/ERC20.sol\":8247:8284  _afterTokenTransfer(from, to, amount) */\n      jump\t// in\n    tag_268:\n        /* \"@openzeppelin/contracts/token/ERC20/ERC20.sol\":7581:8291  {... */\n      pop\n        /* \"@openzeppelin/contracts/token/ERC20/ERC20.sol\":7473:8291  function _transfer(... */\n      pop\n      pop\n      pop\n      jump\t// out\n        /* \"@openzeppelin/contracts/token/ERC20/ERC20.sol\":9422:10081  function _burn(address account, uint256 amount) internal virtual {... */\n    tag_148:\n        /* \"@openzeppelin/contracts/token/ERC20/ERC20.sol\":9524:9525  0 */\n      0x00\n        /* \"@openzeppelin/contracts/token/ERC20/ERC20.sol\":9505:9526  account != address(0) */\n      0xffffffffffffffffffffffffffffffffffffffff\n      and\n        /* \"@openzeppelin/contracts/token/ERC20/ERC20.sol\":9505:9512  account */\n      dup3\n        /* \"@openzeppelin/contracts/token/ERC20/ERC20.sol\":9505:9526  account != address(0) */\n      0xffffffffffffffffffffffffffffffffffffffff\n      and\n      sub\n        /* \"@openzeppelin/contracts/token/ERC20/ERC20.sol\":9497:9564  require(account != address(0), \"ERC20: burn from the zero address\") */\n      tag_271\n      jumpi\n      mload(0x40)\n      0x08c379a000000000000000000000000000000000000000000000000000000000\n      dup2\n      mstore\n      0x04\n      add\n      tag_272\n      swap1\n      tag_273\n      jump\t// in\n    tag_272:\n      mload(0x40)\n      dup1\n      swap2\n      sub\n      swap1\n      revert\n    tag_271:\n        /* \"@openzeppelin/contracts/token/ERC20/ERC20.sol\":9575:9624  _beforeTokenTransfer(account, address(0), amount) */\n      tag_274\n        /* \"@openzeppelin/contracts/token/ERC20/ERC20.sol\":9596:9603  account */\n      dup3\n        /* \"@openzeppelin/contracts/token/ERC20/ERC20.sol\":9613:9614  0 */\n      0x00\n        /* \"@openzeppelin/contracts/token/ERC20/ERC20.sol\":9617:9623  amount */\n      dup4\n        /* \"@openzeppelin/contracts/token/ERC20/ERC20.sol\":9575:9595  _beforeTokenTransfer */\n      tag_263\n        /* \"@openzeppelin/contracts/token/ERC20/ERC20.sol\":9575:9624  _beforeTokenTransfer(account, address(0), amount) */\n      jump\t// in\n    tag_274:\n        /* \"@openzeppelin/contracts/token/ERC20/ERC20.sol\":9635:9657  uint256 accountBalance */\n      0x00\n        /* \"@openzeppelin/contracts/token/ERC20/ERC20.sol\":9660:9669  _balances */\n      dup1\n        /* \"@openzeppelin/contracts/token/ERC20/ERC20.sol\":9660:9678  _balances[account] */\n      0x00\n        /* \"@openzeppelin/contracts/token/ERC20/ERC20.sol\":9670:9677  account */\n      dup5\n        /* \"@openzeppelin/contracts/token/ERC20/ERC20.sol\":9660:9678  _balances[account] */\n      0xffffffffffffffffffffffffffffffffffffffff\n      and\n      0xffffffffffffffffffffffffffffffffffffffff\n      and\n      dup2\n      mstore\n      0x20\n      add\n      swap1\n      dup2\n      mstore\n      0x20\n      add\n      0x00\n      keccak256\n      sload\n        /* \"@openzeppelin/contracts/token/ERC20/ERC20.sol\":9635:9678  uint256 accountBalance = _balances[account] */\n      swap1\n      pop\n        /* \"@openzeppelin/contracts/token/ERC20/ERC20.sol\":9714:9720  amount */\n      dup2\n        /* \"@openzeppelin/contracts/token/ERC20/ERC20.sol\":9696:9710  accountBalance */\n      dup2\n        /* \"@openzeppelin/contracts/token/ERC20/ERC20.sol\":9696:9720  accountBalance >= amount */\n      lt\n      iszero\n        /* \"@openzeppelin/contracts/token/ERC20/ERC20.sol\":9688:9759  require(accountBalance >= amount, \"ERC20: burn amount exceeds balance\") */\n      tag_275\n      jumpi\n      mload(0x40)\n      0x08c379a000000000000000000000000000000000000000000000000000000000\n      dup2\n      mstore\n      0x04\n      add\n      tag_276\n      swap1\n      tag_277\n      jump\t// in\n    tag_276:\n      mload(0x40)\n      dup1\n      swap2\n      sub\n      swap1\n      revert\n    tag_275:\n        /* \"@openzeppelin/contracts/token/ERC20/ERC20.sol\":9831:9837  amount */\n      dup2\n        /* \"@openzeppelin/contracts/token/ERC20/ERC20.sol\":9814:9828  accountBalance */\n      dup2\n        /* \"@openzeppelin/contracts/token/ERC20/ERC20.sol\":9814:9837  accountBalance - amount */\n      sub\n        /* \"@openzeppelin/contracts/token/ERC20/ERC20.sol\":9793:9802  _balances */\n      0x00\n        /* \"@openzeppelin/contracts/token/ERC20/ERC20.sol\":9793:9811  _balances[account] */\n      dup1\n        /* \"@openzeppelin/contracts/token/ERC20/ERC20.sol\":9803:9810  account */\n      dup6\n        /* \"@openzeppelin/contracts/token/ERC20/ERC20.sol\":9793:9811  _balances[account] */\n      0xffffffffffffffffffffffffffffffffffffffff\n      and\n      0xffffffffffffffffffffffffffffffffffffffff\n      and\n      dup2\n      mstore\n      0x20\n      add\n      swap1\n      dup2\n      mstore\n      0x20\n      add\n      0x00\n      keccak256\n        /* \"@openzeppelin/contracts/token/ERC20/ERC20.sol\":9793:9837  _balances[account] = accountBalance - amount */\n      dup2\n      swap1\n      sstore\n      pop\n        /* \"@openzeppelin/contracts/token/ERC20/ERC20.sol\":9946:9952  amount */\n      dup2\n        /* \"@openzeppelin/contracts/token/ERC20/ERC20.sol\":9930:9942  _totalSupply */\n      0x02\n      0x00\n        /* \"@openzeppelin/contracts/token/ERC20/ERC20.sol\":9930:9952  _totalSupply -= amount */\n      dup3\n      dup3\n      sload\n      sub\n      swap3\n      pop\n      pop\n      dup2\n      swap1\n      sstore\n      pop\n        /* \"@openzeppelin/contracts/token/ERC20/ERC20.sol\":10004:10005  0 */\n      0x00\n        /* \"@openzeppelin/contracts/token/ERC20/ERC20.sol\":9978:10015  Transfer(account, address(0), amount) */\n      0xffffffffffffffffffffffffffffffffffffffff\n      and\n        /* \"@openzeppelin/contracts/token/ERC20/ERC20.sol\":9987:9994  account */\n      dup4\n        /* \"@openzeppelin/contracts/token/ERC20/ERC20.sol\":9978:10015  Transfer(account, address(0), amount) */\n      0xffffffffffffffffffffffffffffffffffffffff\n      and\n      0xddf252ad1be2c89b69c2b068fc378daa952ba7f163c4a11628f55a4df523b3ef\n        /* \"@openzeppelin/contracts/token/ERC20/ERC20.sol\":10008:10014  amount */\n      dup5\n        /* \"@openzeppelin/contracts/token/ERC20/ERC20.sol\":9978:10015  Transfer(account, address(0), amount) */\n      mload(0x40)\n      tag_278\n      swap2\n      swap1\n      tag_43\n      jump\t// in\n    tag_278:\n      mload(0x40)\n      dup1\n      swap2\n      sub\n      swap1\n      log3\n        /* \"@openzeppelin/contracts/token/ERC20/ERC20.sol\":10026:10074  _afterTokenTransfer(account, address(0), amount) */\n      tag_279\n        /* \"@openzeppelin/contracts/token/ERC20/ERC20.sol\":10046:10053  account */\n      dup4\n        /* \"@openzeppelin/contracts/token/ERC20/ERC20.sol\":10063:10064  0 */\n      0x00\n        /* \"@openzeppelin/contracts/token/ERC20/ERC20.sol\":10067:10073  amount */\n      dup5\n        /* \"@openzeppelin/contracts/token/ERC20/ERC20.sol\":10026:10045  _afterTokenTransfer */\n      tag_269\n        /* \"@openzeppelin/contracts/token/ERC20/ERC20.sol\":10026:10074  _afterTokenTransfer(account, address(0), amount) */\n      jump\t// in\n    tag_279:\n        /* \"@openzeppelin/contracts/token/ERC20/ERC20.sol\":9487:10081  {... */\n      pop\n        /* \"@openzeppelin/contracts/token/ERC20/ERC20.sol\":9422:10081  function _burn(address account, uint256 amount) internal virtual {... */\n      pop\n      pop\n      jump\t// out\n        /* \"@openzeppelin/contracts/token/ERC20/ERC20.sol\":8567:9102  function _mint(address account, uint256 amount) internal virtual {... */\n    tag_238:\n        /* \"@openzeppelin/contracts/token/ERC20/ERC20.sol\":8669:8670  0 */\n      0x00\n        /* \"@openzeppelin/contracts/token/ERC20/ERC20.sol\":8650:8671  account != address(0) */\n      0xffffffffffffffffffffffffffffffffffffffff\n      and\n        /* \"@openzeppelin/contracts/token/ERC20/ERC20.sol\":8650:8657  account */\n      dup3\n        /* \"@openzeppelin/contracts/token/ERC20/ERC20.sol\":8650:8671  account != address(0) */\n      0xffffffffffffffffffffffffffffffffffffffff\n      and\n      sub\n        /* \"@openzeppelin/contracts/token/ERC20/ERC20.sol\":8642:8707  require(account != address(0), \"ERC20: mint to the zero address\") */\n      tag_281\n      jumpi\n      mload(0x40)\n      0x08c379a000000000000000000000000000000000000000000000000000000000\n      dup2\n      mstore\n      0x04\n      add\n      tag_282\n      swap1\n      tag_283\n      jump\t// in\n    tag_282:\n      mload(0x40)\n      dup1\n      swap2\n      sub\n      swap1\n      revert\n    tag_281:\n        /* \"@openzeppelin/contracts/token/ERC20/ERC20.sol\":8718:8767  _beforeTokenTransfer(address(0), account, amount) */\n      tag_284\n        /* \"@openzeppelin/contracts/token/ERC20/ERC20.sol\":8747:8748  0 */\n      0x00\n        /* \"@openzeppelin/contracts/token/ERC20/ERC20.sol\":8751:8758  account */\n      dup4\n        /* \"@openzeppelin/contracts/token/ERC20/ERC20.sol\":8760:8766  amount */\n      dup4\n        /* \"@openzeppelin/contracts/token/ERC20/ERC20.sol\":8718:8738  _beforeTokenTransfer */\n      tag_263\n        /* \"@openzeppelin/contracts/token/ERC20/ERC20.sol\":8718:8767  _beforeTokenTransfer(address(0), account, amount) */\n      jump\t// in\n    tag_284:\n        /* \"@openzeppelin/contracts/token/ERC20/ERC20.sol\":8794:8800  amount */\n      dup1\n        /* \"@openzeppelin/contracts/token/ERC20/ERC20.sol\":8778:8790  _totalSupply */\n      0x02\n      0x00\n        /* \"@openzeppelin/contracts/token/ERC20/ERC20.sol\":8778:8800  _totalSupply += amount */\n      dup3\n      dup3\n      sload\n      tag_285\n      swap2\n      swap1\n      tag_134\n      jump\t// in\n    tag_285:\n      swap3\n      pop\n      pop\n      dup2\n      swap1\n      sstore\n      pop\n        /* \"@openzeppelin/contracts/token/ERC20/ERC20.sol\":8968:8974  amount */\n      dup1\n        /* \"@openzeppelin/contracts/token/ERC20/ERC20.sol\":8946:8955  _balances */\n      0x00\n        /* \"@openzeppelin/contracts/token/ERC20/ERC20.sol\":8946:8964  _balances[account] */\n      dup1\n        /* \"@openzeppelin/contracts/token/ERC20/ERC20.sol\":8956:8963  account */\n      dup5\n        /* \"@openzeppelin/contracts/token/ERC20/ERC20.sol\":8946:8964  _balances[account] */\n      0xffffffffffffffffffffffffffffffffffffffff\n      and\n      0xffffffffffffffffffffffffffffffffffffffff\n      and\n      dup2\n      mstore\n      0x20\n      add\n      swap1\n      dup2\n      mstore\n      0x20\n      add\n      0x00\n      keccak256\n      0x00\n        /* \"@openzeppelin/contracts/token/ERC20/ERC20.sol\":8946:8974  _balances[account] += amount */\n      dup3\n      dup3\n      sload\n      add\n      swap3\n      pop\n      pop\n      dup2\n      swap1\n      sstore\n      pop\n        /* \"@openzeppelin/contracts/token/ERC20/ERC20.sol\":9020:9027  account */\n      dup2\n        /* \"@openzeppelin/contracts/token/ERC20/ERC20.sol\":8999:9036  Transfer(address(0), account, amount) */\n      0xffffffffffffffffffffffffffffffffffffffff\n      and\n        /* \"@openzeppelin/contracts/token/ERC20/ERC20.sol\":9016:9017  0 */\n      0x00\n        /* \"@openzeppelin/contracts/token/ERC20/ERC20.sol\":8999:9036  Transfer(address(0), account, amount) */\n      0xffffffffffffffffffffffffffffffffffffffff\n      and\n      0xddf252ad1be2c89b69c2b068fc378daa952ba7f163c4a11628f55a4df523b3ef\n        /* \"@openzeppelin/contracts/token/ERC20/ERC20.sol\":9029:9035  amount */\n      dup4\n        /* \"@openzeppelin/contracts/token/ERC20/ERC20.sol\":8999:9036  Transfer(address(0), account, amount) */\n      mload(0x40)\n      tag_286\n      swap2\n      swap1\n      tag_43\n      jump\t// in\n    tag_286:\n      mload(0x40)\n      dup1\n      swap2\n      sub\n      swap1\n      log3\n        /* \"@openzeppelin/contracts/token/ERC20/ERC20.sol\":9047:9095  _afterTokenTransfer(address(0), account, amount) */\n      tag_287\n        /* \"@openzeppelin/contracts/token/ERC20/ERC20.sol\":9075:9076  0 */\n      0x00\n        /* \"@openzeppelin/contracts/token/ERC20/ERC20.sol\":9079:9086  account */\n      dup4\n        /* \"@openzeppelin/contracts/token/ERC20/ERC20.sol\":9088:9094  amount */\n      dup4\n        /* \"@openzeppelin/contracts/token/ERC20/ERC20.sol\":9047:9066  _afterTokenTransfer */\n      tag_269\n        /* \"@openzeppelin/contracts/token/ERC20/ERC20.sol\":9047:9095  _afterTokenTransfer(address(0), account, amount) */\n      jump\t// in\n    tag_287:\n        /* \"@openzeppelin/contracts/token/ERC20/ERC20.sol\":8567:9102  function _mint(address account, uint256 amount) internal virtual {... */\n      pop\n      pop\n      jump\t// out\n        /* \"@openzeppelin/contracts/token/ERC20/ERC20.sol\":12180:12301  function _beforeTokenTransfer(... */\n    tag_263:\n      pop\n      pop\n      pop\n      jump\t// out\n        /* \"@openzeppelin/contracts/token/ERC20/ERC20.sol\":12889:13009  function _afterTokenTransfer(... */\n    tag_269:\n      pop\n      pop\n      pop\n      jump\t// out\n        /* \"#utility.yul\":7:106   */\n    tag_290:\n        /* \"#utility.yul\":59:65   */\n      0x00\n        /* \"#utility.yul\":93:98   */\n      dup2\n        /* \"#utility.yul\":87:99   */\n      mload\n        /* \"#utility.yul\":77:99   */\n      swap1\n      pop\n        /* \"#utility.yul\":7:106   */\n      swap2\n      swap1\n      pop\n      jump\t// out\n        /* \"#utility.yul\":112:281   */\n    tag_291:\n        /* \"#utility.yul\":196:207   */\n      0x00\n        /* \"#utility.yul\":230:236   */\n      dup3\n        /* \"#utility.yul\":225:228   */\n      dup3\n        /* \"#utility.yul\":218:237   */\n      mstore\n        /* \"#utility.yul\":270:274   */\n      0x20\n        /* \"#utility.yul\":265:268   */\n      dup3\n        /* \"#utility.yul\":261:275   */\n      add\n        /* \"#utility.yul\":246:275   */\n      swap1\n      pop\n        /* \"#utility.yul\":112:281   */\n      swap3\n      swap2\n      pop\n      pop\n      jump\t// out\n        /* \"#utility.yul\":287:426   */\n    tag_292:\n        /* \"#utility.yul\":376:382   */\n      dup3\n        /* \"#utility.yul\":371:374   */\n      dup2\n        /* \"#utility.yul\":366:369   */\n      dup4\n        /* \"#utility.yul\":360:383   */\n      mcopy\n        /* \"#utility.yul\":417:418   */\n      0x00\n        /* \"#utility.yul\":408:414   */\n      dup4\n        /* \"#utility.yul\":403:406   */\n      dup4\n        /* \"#utility.yul\":399:415   */\n      add\n        /* \"#utility.yul\":392:419   */\n      mstore\n        /* \"#utility.yul\":287:426   */\n      pop\n      pop\n      pop\n      jump\t// out\n        /* \"#utility.yul\":432:534   */\n    tag_293:\n        /* \"#utility.yul\":473:479   */\n      0x00\n        /* \"#utility.yul\":524:526   */\n      0x1f\n        /* \"#utility.yul\":520:527   */\n      not\n        /* \"#utility.yul\":515:517   */\n      0x1f\n        /* \"#utility.yul\":508:513   */\n      dup4\n        /* \"#utility.yul\":504:518   */\n      add\n        /* \"#utility.yul\":500:528   */\n      and\n        /* \"#utility.yul\":490:528   */\n      swap1\n      pop\n        /* \"#utility.yul\":432:534   */\n      swap2\n      swap1\n      pop\n      jump\t// out\n        /* \"#utility.yul\":540:917   */\n    tag_294:\n        /* \"#utility.yul\":628:631   */\n      0x00\n        /* \"#utility.yul\":656:695   */\n      tag_379\n        /* \"#utility.yul\":689:694   */\n      dup3\n        /* \"#utility.yul\":656:695   */\n      tag_290\n      jump\t// in\n    tag_379:\n        /* \"#utility.yul\":711:782   */\n      tag_380\n        /* \"#utility.yul\":775:781   */\n      dup2\n        /* \"#utility.yul\":770:773   */\n      dup6\n        /* \"#utility.yul\":711:782   */\n      tag_291\n      jump\t// in\n    tag_380:\n        /* \"#utility.yul\":704:782   */\n      swap4\n      pop\n        /* \"#utility.yul\":791:856   */\n      tag_381\n        /* \"#utility.yul\":849:855   */\n      dup2\n        /* \"#utility.yul\":844:847   */\n      dup6\n        /* \"#utility.yul\":837:841   */\n      0x20\n        /* \"#utility.yul\":830:835   */\n      dup7\n        /* \"#utility.yul\":826:842   */\n      add\n        /* \"#utility.yul\":791:856   */\n      tag_292\n      jump\t// in\n    tag_381:\n        /* \"#utility.yul\":881:910   */\n      tag_382\n        /* \"#utility.yul\":903:909   */\n      dup2\n        /* \"#utility.yul\":881:910   */\n      tag_293\n      jump\t// in\n    tag_382:\n        /* \"#utility.yul\":876:879   */\n      dup5\n        /* \"#utility.yul\":872:911   */\n      add\n        /* \"#utility.yul\":865:911   */\n      swap2\n      pop\n        /* \"#utility.yul\":632:917   */\n      pop\n        /* \"#utility.yul\":540:917   */\n      swap3\n      swap2\n      pop\n      pop\n      jump\t// out\n        /* \"#utility.yul\":923:1236   */\n    tag_30:\n        /* \"#utility.yul\":1036:1040   */\n      0x00\n        /* \"#utility.yul\":1074:1076   */\n      0x20\n        /* \"#utility.yul\":1063:1072   */\n      dup3\n        /* \"#utility.yul\":1059:1077   */\n      add\n        /* \"#utility.yul\":1051:1077   */\n      swap1\n      pop\n        /* \"#utility.yul\":1123:1132   */\n      dup2\n        /* \"#utility.yul\":1117:1121   */\n      dup2\n        /* \"#utility.yul\":1113:1133   */\n      sub\n        /* \"#utility.yul\":1109:1110   */\n      0x00\n        /* \"#utility.yul\":1098:1107   */\n      dup4\n        /* \"#utility.yul\":1094:1111   */\n      add\n        /* \"#utility.yul\":1087:1134   */\n      mstore\n        /* \"#utility.yul\":1151:1229   */\n      tag_384\n        /* \"#utility.yul\":1224:1228   */\n      dup2\n        /* \"#utility.yul\":1215:1221   */\n      dup5\n        /* \"#utility.yul\":1151:1229   */\n      tag_294\n      jump\t// in\n    tag_384:\n        /* \"#utility.yul\":1143:1229   */\n      swap1\n      pop\n        /* \"#utility.yul\":923:1236   */\n      swap3\n      swap2\n      pop\n      pop\n      jump\t// out\n        /* \"#utility.yul\":1323:1440   */\n    tag_296:\n        /* \"#utility.yul\":1432:1433   */\n      0x00\n        /* \"#utility.yul\":1429:1430   */\n      dup1\n        /* \"#utility.yul\":1422:1434   */\n      revert\n        /* \"#utility.yul\":1569:1695   */\n    tag_298:\n        /* \"#utility.yul\":1606:1613   */\n      0x00\n        /* \"#utility.yul\":1646:1688   */\n      0xffffffffffffffffffffffffffffffffffffffff\n        /* \"#utility.yul\":1639:1644   */\n      dup3\n        /* \"#utility.yul\":1635:1689   */\n      and\n        /* \"#utility.yul\":1624:1689   */\n      swap1\n      pop\n        /* \"#utility.yul\":1569:1695   */\n      swap2\n      swap1\n      pop\n      jump\t// out\n        /* \"#utility.yul\":1701:1797   */\n    tag_299:\n        /* \"#utility.yul\":1738:1745   */\n      0x00\n        /* \"#utility.yul\":1767:1791   */\n      tag_390\n        /* \"#utility.yul\":1785:1790   */\n      dup3\n        /* \"#utility.yul\":1767:1791   */\n      tag_298\n      jump\t// in\n    tag_390:\n        /* \"#utility.yul\":1756:1791   */\n      swap1\n      pop\n        /* \"#utility.yul\":1701:1797   */\n      swap2\n      swap1\n      pop\n      jump\t// out\n        /* \"#utility.yul\":1803:1925   */\n    tag_300:\n        /* \"#utility.yul\":1876:1900   */\n      tag_392\n        /* \"#utility.yul\":1894:1899   */\n      dup2\n        /* \"#utility.yul\":1876:1900   */\n      tag_299\n      jump\t// in\n    tag_392:\n        /* \"#utility.yul\":1869:1874   */\n      dup2\n        /* \"#utility.yul\":1866:1901   */\n      eq\n        /* \"#utility.yul\":1856:1919   */\n      tag_393\n      jumpi\n        /* \"#utility.yul\":1915:1916   */\n      0x00\n        /* \"#utility.yul\":1912:1913   */\n      dup1\n        /* \"#utility.yul\":1905:1917   */\n      revert\n        /* \"#utility.yul\":1856:1919   */\n    tag_393:\n        /* \"#utility.yul\":1803:1925   */\n      pop\n      jump\t// out\n        /* \"#utility.yul\":1931:2070   */\n    tag_301:\n        /* \"#utility.yul\":1977:1982   */\n      0x00\n        /* \"#utility.yul\":2015:2021   */\n      dup2\n        /* \"#utility.yul\":2002:2022   */\n      calldataload\n        /* \"#utility.yul\":1993:2022   */\n      swap1\n      pop\n        /* \"#utility.yul\":2031:2064   */\n      tag_395\n        /* \"#utility.yul\":2058:2063   */\n      dup2\n        /* \"#utility.yul\":2031:2064   */\n      tag_300\n      jump\t// in\n    tag_395:\n        /* \"#utility.yul\":1931:2070   */\n      swap3\n      swap2\n      pop\n      pop\n      jump\t// out\n        /* \"#utility.yul\":2076:2153   */\n    tag_302:\n        /* \"#utility.yul\":2113:2120   */\n      0x00\n        /* \"#utility.yul\":2142:2147   */\n      dup2\n        /* \"#utility.yul\":2131:2147   */\n      swap1\n      pop\n        /* \"#utility.yul\":2076:2153   */\n      swap2\n      swap1\n      pop\n      jump\t// out\n        /* \"#utility.yul\":2159:2281   */\n    tag_303:\n        /* \"#utility.yul\":2232:2256   */\n      tag_398\n        /* \"#utility.yul\":2250:2255   */\n      dup2\n        /* \"#utility.yul\":2232:2256   */\n      tag_302\n      jump\t// in\n    tag_398:\n        /* \"#utility.yul\":2225:2230   */\n      dup2\n        /* \"#utility.yul\":2222:2257   */\n      eq\n        /* \"#utility.yul\":2212:2275   */\n      tag_399\n      jumpi\n        /* \"#utility.yul\":2271:2272   */\n      0x00\n        /* \"#utility.yul\":2268:2269   */\n      dup1\n        /* \"#utility.yul\":2261:2273   */\n      revert\n        /* \"#utility.yul\":2212:2275   */\n    tag_399:\n        /* \"#utility.yul\":2159:2281   */\n      pop\n      jump\t// out\n        /* \"#utility.yul\":2287:2426   */\n    tag_304:\n        /* \"#utility.yul\":2333:2338   */\n      0x00\n        /* \"#utility.yul\":2371:2377   */\n      dup2\n        /* \"#utility.yul\":2358:2378   */\n      calldataload\n        /* \"#utility.yul\":2349:2378   */\n      swap1\n      pop\n        /* \"#utility.yul\":2387:2420   */\n      tag_401\n        /* \"#utility.yul\":2414:2419   */\n      dup2\n        /* \"#utility.yul\":2387:2420   */\n      tag_303\n      jump\t// in\n    tag_401:\n        /* \"#utility.yul\":2287:2426   */\n      swap3\n      swap2\n      pop\n      pop\n      jump\t// out\n        /* \"#utility.yul\":2432:2906   */\n    tag_36:\n        /* \"#utility.yul\":2500:2506   */\n      0x00\n        /* \"#utility.yul\":2508:2514   */\n      dup1\n        /* \"#utility.yul\":2557:2559   */\n      0x40\n        /* \"#utility.yul\":2545:2554   */\n      dup4\n        /* \"#utility.yul\":2536:2543   */\n      dup6\n        /* \"#utility.yul\":2532:2555   */\n      sub\n        /* \"#utility.yul\":2528:2560   */\n      slt\n        /* \"#utility.yul\":2525:2644   */\n      iszero\n      tag_403\n      jumpi\n        /* \"#utility.yul\":2563:2642   */\n      tag_404\n      tag_296\n      jump\t// in\n    tag_404:\n        /* \"#utility.yul\":2525:2644   */\n    tag_403:\n        /* \"#utility.yul\":2683:2684   */\n      0x00\n        /* \"#utility.yul\":2708:2761   */\n      tag_405\n        /* \"#utility.yul\":2753:2760   */\n      dup6\n        /* \"#utility.yul\":2744:2750   */\n      dup3\n        /* \"#utility.yul\":2733:2742   */\n      dup7\n        /* \"#utility.yul\":2729:2751   */\n      add\n        /* \"#utility.yul\":2708:2761   */\n      tag_301\n      jump\t// in\n    tag_405:\n        /* \"#utility.yul\":2698:2761   */\n      swap3\n      pop\n        /* \"#utility.yul\":2654:2771   */\n      pop\n        /* \"#utility.yul\":2810:2812   */\n      0x20\n        /* \"#utility.yul\":2836:2889   */\n      tag_406\n        /* \"#utility.yul\":2881:2888   */\n      dup6\n        /* \"#utility.yul\":2872:2878   */\n      dup3\n        /* \"#utility.yul\":2861:2870   */\n      dup7\n        /* \"#utility.yul\":2857:2879   */\n      add\n        /* \"#utility.yul\":2836:2889   */\n      tag_304\n      jump\t// in\n    tag_406:\n        /* \"#utility.yul\":2826:2889   */\n      swap2\n      pop\n        /* \"#utility.yul\":2781:2899   */\n      pop\n        /* \"#utility.yul\":2432:2906   */\n      swap3\n      pop\n      swap3\n      swap1\n      pop\n      jump\t// out\n        /* \"#utility.yul\":2912:3002   */\n    tag_305:\n        /* \"#utility.yul\":2946:2953   */\n      0x00\n        /* \"#utility.yul\":2989:2994   */\n      dup2\n        /* \"#utility.yul\":2982:2995   */\n      iszero\n        /* \"#utility.yul\":2975:2996   */\n      iszero\n        /* \"#utility.yul\":2964:2996   */\n      swap1\n      pop\n        /* \"#utility.yul\":2912:3002   */\n      swap2\n      swap1\n      pop\n      jump\t// out\n        /* \"#utility.yul\":3008:3117   */\n    tag_306:\n        /* \"#utility.yul\":3089:3110   */\n      tag_409\n        /* \"#utility.yul\":3104:3109   */\n      dup2\n        /* \"#utility.yul\":3089:3110   */\n      tag_305\n      jump\t// in\n    tag_409:\n        /* \"#utility.yul\":3084:3087   */\n      dup3\n        /* \"#utility.yul\":3077:3111   */\n      mstore\n        /* \"#utility.yul\":3008:3117   */\n      pop\n      pop\n      jump\t// out\n        /* \"#utility.yul\":3123:3333   */\n    tag_39:\n        /* \"#utility.yul\":3210:3214   */\n      0x00\n        /* \"#utility.yul\":3248:3250   */\n      0x20\n        /* \"#utility.yul\":3237:3246   */\n      dup3\n        /* \"#utility.yul\":3233:3251   */\n      add\n        /* \"#utility.yul\":3225:3251   */\n      swap1\n      pop\n        /* \"#utility.yul\":3261:3326   */\n      tag_411\n        /* \"#utility.yul\":3323:3324   */\n      0x00\n        /* \"#utility.yul\":3312:3321   */\n      dup4\n        /* \"#utility.yul\":3308:3325   */\n      add\n        /* \"#utility.yul\":3299:3305   */\n      dup5\n        /* \"#utility.yul\":3261:3326   */\n      tag_306\n      jump\t// in\n    tag_411:\n        /* \"#utility.yul\":3123:3333   */\n      swap3\n      swap2\n      pop\n      pop\n      jump\t// out\n        /* \"#utility.yul\":3339:3457   */\n    tag_307:\n        /* \"#utility.yul\":3426:3450   */\n      tag_413\n        /* \"#utility.yul\":3444:3449   */\n      dup2\n        /* \"#utility.yul\":3426:3450   */\n      tag_302\n      jump\t// in\n    tag_413:\n        /* \"#utility.yul\":3421:3424   */\n      dup3\n        /* \"#utility.yul\":3414:3451   */\n      mstore\n        /* \"#utility.yul\":3339:3457   */\n      pop\n      pop\n      jump\t// out\n        /* \"#utility.yul\":3463:3685   */\n    tag_43:\n        /* \"#utility.yul\":3556:3560   */\n      0x00\n        /* \"#utility.yul\":3594:3596   */\n      0x20\n        /* \"#utility.yul\":3583:3592   */\n      dup3\n        /* \"#utility.yul\":3579:3597   */\n      add\n        /* \"#utility.yul\":3571:3597   */\n      swap1\n      pop\n        /* \"#utility.yul\":3607:3678   */\n      tag_415\n        /* \"#utility.yul\":3675:3676   */\n      0x00\n        /* \"#utility.yul\":3664:3673   */\n      dup4\n        /* \"#utility.yul\":3660:3677   */\n      add\n        /* \"#utility.yul\":3651:3657   */\n      dup5\n        /* \"#utility.yul\":3607:3678   */\n      tag_307\n      jump\t// in\n    tag_415:\n        /* \"#utility.yul\":3463:3685   */\n      swap3\n      swap2\n      pop\n      pop\n      jump\t// out\n        /* \"#utility.yul\":3691:4310   */\n    tag_46:\n        /* \"#utility.yul\":3768:3774   */\n      0x00\n        /* \"#utility.yul\":3776:3782   */\n      dup1\n        /* \"#utility.yul\":3784:3790   */\n      0x00\n        /* \"#utility.yul\":3833:3835   */\n      0x60\n        /* \"#utility.yul\":3821:3830   */\n      dup5\n        /* \"#utility.yul\":3812:3819   */\n      dup7\n        /* \"#utility.yul\":3808:3831   */\n      sub\n        /* \"#utility.yul\":3804:3836   */\n      slt\n        /* \"#utility.yul\":3801:3920   */\n      iszero\n      tag_417\n      jumpi\n        /* \"#utility.yul\":3839:3918   */\n      tag_418\n      tag_296\n      jump\t// in\n    tag_418:\n        /* \"#utility.yul\":3801:3920   */\n    tag_417:\n        /* \"#utility.yul\":3959:3960   */\n      0x00\n        /* \"#utility.yul\":3984:4037   */\n      tag_419\n        /* \"#utility.yul\":4029:4036   */\n      dup7\n        /* \"#utility.yul\":4020:4026   */\n      dup3\n        /* \"#utility.yul\":4009:4018   */\n      dup8\n        /* \"#utility.yul\":4005:4027   */\n      add\n        /* \"#utility.yul\":3984:4037   */\n      tag_301\n      jump\t// in\n    tag_419:\n        /* \"#utility.yul\":3974:4037   */\n      swap4\n      pop\n        /* \"#utility.yul\":3930:4047   */\n      pop\n        /* \"#utility.yul\":4086:4088   */\n      0x20\n        /* \"#utility.yul\":4112:4165   */\n      tag_420\n        /* \"#utility.yul\":4157:4164   */\n      dup7\n        /* \"#utility.yul\":4148:4154   */\n      dup3\n        /* \"#utility.yul\":4137:4146   */\n      dup8\n        /* \"#utility.yul\":4133:4155   */\n      add\n        /* \"#utility.yul\":4112:4165   */\n      tag_301\n      jump\t// in\n    tag_420:\n        /* \"#utility.yul\":4102:4165   */\n      swap3\n      pop\n        /* \"#utility.yul\":4057:4175   */\n      pop\n        /* \"#utility.yul\":4214:4216   */\n      0x40\n        /* \"#utility.yul\":4240:4293   */\n      tag_421\n        /* \"#utility.yul\":4285:4292   */\n      dup7\n        /* \"#utility.yul\":4276:4282   */\n      dup3\n        /* \"#utility.yul\":4265:4274   */\n      dup8\n        /* \"#utility.yul\":4261:4283   */\n      add\n        /* \"#utility.yul\":4240:4293   */\n      tag_304\n      jump\t// in\n    tag_421:\n        /* \"#utility.yul\":4230:4293   */\n      swap2\n      pop\n        /* \"#utility.yul\":4185:4303   */\n      pop\n        /* \"#utility.yul\":3691:4310   */\n      swap3\n      pop\n      swap3\n      pop\n      swap3\n      jump\t// out\n        /* \"#utility.yul\":4316:4402   */\n    tag_308:\n        /* \"#utility.yul\":4351:4358   */\n      0x00\n        /* \"#utility.yul\":4391:4395   */\n      0xff\n        /* \"#utility.yul\":4384:4389   */\n      dup3\n        /* \"#utility.yul\":4380:4396   */\n      and\n        /* \"#utility.yul\":4369:4396   */\n      swap1\n      pop\n        /* \"#utility.yul\":4316:4402   */\n      swap2\n      swap1\n      pop\n      jump\t// out\n        /* \"#utility.yul\":4408:4520   */\n    tag_309:\n        /* \"#utility.yul\":4491:4513   */\n      tag_424\n        /* \"#utility.yul\":4507:4512   */\n      dup2\n        /* \"#utility.yul\":4491:4513   */\n      tag_308\n      jump\t// in\n    tag_424:\n        /* \"#utility.yul\":4486:4489   */\n      dup3\n        /* \"#utility.yul\":4479:4514   */\n      mstore\n        /* \"#utility.yul\":4408:4520   */\n      pop\n      pop\n      jump\t// out\n        /* \"#utility.yul\":4526:4740   */\n    tag_52:\n        /* \"#utility.yul\":4615:4619   */\n      0x00\n        /* \"#utility.yul\":4653:4655   */\n      0x20\n        /* \"#utility.yul\":4642:4651   */\n      dup3\n        /* \"#utility.yul\":4638:4656   */\n      add\n        /* \"#utility.yul\":4630:4656   */\n      swap1\n      pop\n        /* \"#utility.yul\":4666:4733   */\n      tag_426\n        /* \"#utility.yul\":4730:4731   */\n      0x00\n        /* \"#utility.yul\":4719:4728   */\n      dup4\n        /* \"#utility.yul\":4715:4732   */\n      add\n        /* \"#utility.yul\":4706:4712   */\n      dup5\n        /* \"#utility.yul\":4666:4733   */\n      tag_309\n      jump\t// in\n    tag_426:\n        /* \"#utility.yul\":4526:4740   */\n      swap3\n      swap2\n      pop\n      pop\n      jump\t// out\n        /* \"#utility.yul\":4746:5075   */\n    tag_65:\n        /* \"#utility.yul\":4805:4811   */\n      0x00\n        /* \"#utility.yul\":4854:4856   */\n      0x20\n        /* \"#utility.yul\":4842:4851   */\n      dup3\n        /* \"#utility.yul\":4833:4840   */\n      dup5\n        /* \"#utility.yul\":4829:4852   */\n      sub\n        /* \"#utility.yul\":4825:4857   */\n      slt\n        /* \"#utility.yul\":4822:4941   */\n      iszero\n      tag_428\n      jumpi\n        /* \"#utility.yul\":4860:4939   */\n      tag_429\n      tag_296\n      jump\t// in\n    tag_429:\n        /* \"#utility.yul\":4822:4941   */\n    tag_428:\n        /* \"#utility.yul\":4980:4981   */\n      0x00\n        /* \"#utility.yul\":5005:5058   */\n      tag_430\n        /* \"#utility.yul\":5050:5057   */\n      dup5\n        /* \"#utility.yul\":5041:5047   */\n      dup3\n        /* \"#utility.yul\":5030:5039   */\n      dup6\n        /* \"#utility.yul\":5026:5048   */\n      add\n        /* \"#utility.yul\":5005:5058   */\n      tag_304\n      jump\t// in\n    tag_430:\n        /* \"#utility.yul\":4995:5058   */\n      swap2\n      pop\n        /* \"#utility.yul\":4951:5068   */\n      pop\n        /* \"#utility.yul\":4746:5075   */\n      swap3\n      swap2\n      pop\n      pop\n      jump\t// out\n        /* \"#utility.yul\":5081:5410   */\n    tag_69:\n        /* \"#utility.yul\":5140:5146   */\n      0x00\n        /* \"#utility.yul\":5189:5191   */\n      0x20\n        /* \"#utility.yul\":5177:5186   */\n      dup3\n        /* \"#utility.yul\":5168:5175   */\n      dup5\n        /* \"#utility.yul\":5164:5187   */\n      sub\n        /* \"#utility.yul\":5160:5192   */\n      slt\n        /* \"#utility.yul\":5157:5276   */\n      iszero\n      tag_432\n      jumpi\n        /* \"#utility.yul\":5195:5274   */\n      tag_433\n      tag_296\n      jump\t// in\n    tag_433:\n        /* \"#utility.yul\":5157:5276   */\n    tag_432:\n        /* \"#utility.yul\":5315:5316   */\n      0x00\n        /* \"#utility.yul\":5340:5393   */\n      tag_434\n        /* \"#utility.yul\":5385:5392   */\n      dup5\n        /* \"#utility.yul\":5376:5382   */\n      dup3\n        /* \"#utility.yul\":5365:5374   */\n      dup6\n        /* \"#utility.yul\":5361:5383   */\n      add\n        /* \"#utility.yul\":5340:5393   */\n      tag_301\n      jump\t// in\n    tag_434:\n        /* \"#utility.yul\":5330:5393   */\n      swap2\n      pop\n        /* \"#utility.yul\":5286:5403   */\n      pop\n        /* \"#utility.yul\":5081:5410   */\n      swap3\n      swap2\n      pop\n      pop\n      jump\t// out\n        /* \"#utility.yul\":5416:5540   */\n    tag_310:\n        /* \"#utility.yul\":5493:5499   */\n      0x00\n        /* \"#utility.yul\":5527:5532   */\n      dup2\n        /* \"#utility.yul\":5521:5533   */\n      mload\n        /* \"#utility.yul\":5511:5533   */\n      swap1\n      pop\n        /* \"#utility.yul\":5416:5540   */\n      swap2\n      swap1\n      pop\n      jump\t// out\n        /* \"#utility.yul\":5546:5740   */\n    tag_311:\n        /* \"#utility.yul\":5655:5666   */\n      0x00\n        /* \"#utility.yul\":5689:5695   */\n      dup3\n        /* \"#utility.yul\":5684:5687   */\n      dup3\n        /* \"#utility.yul\":5677:5696   */\n      mstore\n        /* \"#utility.yul\":5729:5733   */\n      0x20\n        /* \"#utility.yul\":5724:5727   */\n      dup3\n        /* \"#utility.yul\":5720:5734   */\n      add\n        /* \"#utility.yul\":5705:5734   */\n      swap1\n      pop\n        /* \"#utility.yul\":5546:5740   */\n      swap3\n      swap2\n      pop\n      pop\n      jump\t// out\n        /* \"#utility.yul\":5746:5888   */\n    tag_312:\n        /* \"#utility.yul\":5823:5827   */\n      0x00\n        /* \"#utility.yul\":5846:5849   */\n      dup2\n        /* \"#utility.yul\":5838:5849   */\n      swap1\n      pop\n        /* \"#utility.yul\":5876:5880   */\n      0x20\n        /* \"#utility.yul\":5871:5874   */\n      dup3\n        /* \"#utility.yul\":5867:5881   */\n      add\n        /* \"#utility.yul\":5859:5881   */\n      swap1\n      pop\n        /* \"#utility.yul\":5746:5888   */\n      swap2\n      swap1\n      pop\n      jump\t// out\n        /* \"#utility.yul\":5894:6053   */\n    tag_313:\n        /* \"#utility.yul\":5968:5979   */\n      0x00\n        /* \"#utility.yul\":6002:6008   */\n      dup3\n        /* \"#utility.yul\":5997:6000   */\n      dup3\n        /* \"#utility.yul\":5990:6009   */\n      mstore\n        /* \"#utility.yul\":6042:6046   */\n      0x20\n        /* \"#utility.yul\":6037:6040   */\n      dup3\n        /* \"#utility.yul\":6033:6047   */\n      add\n        /* \"#utility.yul\":6018:6047   */\n      swap1\n      pop\n        /* \"#utility.yul\":5894:6053   */\n      swap3\n      swap2\n      pop\n      pop\n      jump\t// out\n        /* \"#utility.yul\":6059:6416   */\n    tag_314:\n        /* \"#utility.yul\":6137:6140   */\n      0x00\n        /* \"#utility.yul\":6165:6204   */\n      tag_440\n        /* \"#utility.yul\":6198:6203   */\n      dup3\n        /* \"#utility.yul\":6165:6204   */\n      tag_290\n      jump\t// in\n    tag_440:\n        /* \"#utility.yul\":6220:6281   */\n      tag_441\n        /* \"#utility.yul\":6274:6280   */\n      dup2\n        /* \"#utility.yul\":6269:6272   */\n      dup6\n        /* \"#utility.yul\":6220:6281   */\n      tag_313\n      jump\t// in\n    tag_441:\n        /* \"#utility.yul\":6213:6281   */\n      swap4\n      pop\n        /* \"#utility.yul\":6290:6355   */\n      tag_442\n        /* \"#utility.yul\":6348:6354   */\n      dup2\n        /* \"#utility.yul\":6343:6346   */\n      dup6\n        /* \"#utility.yul\":6336:6340   */\n      0x20\n        /* \"#utility.yul\":6329:6334   */\n      dup7\n        /* \"#utility.yul\":6325:6341   */\n      add\n        /* \"#utility.yul\":6290:6355   */\n      tag_292\n      jump\t// in\n    tag_442:\n        /* \"#utility.yul\":6380:6409   */\n      tag_443\n        /* \"#utility.yul\":6402:6408   */\n      dup2\n        /* \"#utility.yul\":6380:6409   */\n      tag_293\n      jump\t// in\n    tag_443:\n        /* \"#utility.yul\":6375:6378   */\n      dup5\n        /* \"#utility.yul\":6371:6410   */\n      add\n        /* \"#utility.yul\":6364:6410   */\n      swap2\n      pop\n        /* \"#utility.yul\":6141:6416   */\n      pop\n        /* \"#utility.yul\":6059:6416   */\n      swap3\n      swap2\n      pop\n      pop\n      jump\t// out\n        /* \"#utility.yul\":6422:6618   */\n    tag_315:\n        /* \"#utility.yul\":6511:6521   */\n      0x00\n        /* \"#utility.yul\":6546:6612   */\n      tag_445\n        /* \"#utility.yul\":6608:6611   */\n      dup4\n        /* \"#utility.yul\":6600:6606   */\n      dup4\n        /* \"#utility.yul\":6546:6612   */\n      tag_314\n      jump\t// in\n    tag_445:\n        /* \"#utility.yul\":6532:6612   */\n      swap1\n      pop\n        /* \"#utility.yul\":6422:6618   */\n      swap3\n      swap2\n      pop\n      pop\n      jump\t// out\n        /* \"#utility.yul\":6624:6747   */\n    tag_316:\n        /* \"#utility.yul\":6704:6708   */\n      0x00\n        /* \"#utility.yul\":6736:6740   */\n      0x20\n        /* \"#utility.yul\":6731:6734   */\n      dup3\n        /* \"#utility.yul\":6727:6741   */\n      add\n        /* \"#utility.yul\":6719:6741   */\n      swap1\n      pop\n        /* \"#utility.yul\":6624:6747   */\n      swap2\n      swap1\n      pop\n      jump\t// out\n        /* \"#utility.yul\":6781:7772   */\n    tag_317:\n        /* \"#utility.yul\":6920:6923   */\n      0x00\n        /* \"#utility.yul\":6949:7013   */\n      tag_448\n        /* \"#utility.yul\":7007:7012   */\n      dup3\n        /* \"#utility.yul\":6949:7013   */\n      tag_310\n      jump\t// in\n    tag_448:\n        /* \"#utility.yul\":7029:7125   */\n      tag_449\n        /* \"#utility.yul\":7118:7124   */\n      dup2\n        /* \"#utility.yul\":7113:7116   */\n      dup6\n        /* \"#utility.yul\":7029:7125   */\n      tag_311\n      jump\t// in\n    tag_449:\n        /* \"#utility.yul\":7022:7125   */\n      swap4\n      pop\n        /* \"#utility.yul\":7151:7154   */\n      dup4\n        /* \"#utility.yul\":7196:7200   */\n      0x20\n        /* \"#utility.yul\":7188:7194   */\n      dup3\n        /* \"#utility.yul\":7184:7201   */\n      mul\n        /* \"#utility.yul\":7179:7182   */\n      dup6\n        /* \"#utility.yul\":7175:7202   */\n      add\n        /* \"#utility.yul\":7226:7292   */\n      tag_450\n        /* \"#utility.yul\":7286:7291   */\n      dup6\n        /* \"#utility.yul\":7226:7292   */\n      tag_312\n      jump\t// in\n    tag_450:\n        /* \"#utility.yul\":7315:7322   */\n      dup1\n        /* \"#utility.yul\":7346:7347   */\n      0x00\n        /* \"#utility.yul\":7331:7727   */\n    tag_451:\n        /* \"#utility.yul\":7356:7362   */\n      dup6\n        /* \"#utility.yul\":7353:7354   */\n      dup2\n        /* \"#utility.yul\":7350:7363   */\n      lt\n        /* \"#utility.yul\":7331:7727   */\n      iszero\n      tag_453\n      jumpi\n        /* \"#utility.yul\":7427:7436   */\n      dup5\n        /* \"#utility.yul\":7421:7425   */\n      dup5\n        /* \"#utility.yul\":7417:7437   */\n      sub\n        /* \"#utility.yul\":7412:7415   */\n      dup10\n        /* \"#utility.yul\":7405:7438   */\n      mstore\n        /* \"#utility.yul\":7478:7484   */\n      dup2\n        /* \"#utility.yul\":7472:7485   */\n      mload\n        /* \"#utility.yul\":7506:7590   */\n      tag_454\n        /* \"#utility.yul\":7585:7589   */\n      dup6\n        /* \"#utility.yul\":7570:7583   */\n      dup3\n        /* \"#utility.yul\":7506:7590   */\n      tag_315\n      jump\t// in\n    tag_454:\n        /* \"#utility.yul\":7498:7590   */\n      swap5\n      pop\n        /* \"#utility.yul\":7613:7683   */\n      tag_455\n        /* \"#utility.yul\":7676:7682   */\n      dup4\n        /* \"#utility.yul\":7613:7683   */\n      tag_316\n      jump\t// in\n    tag_455:\n        /* \"#utility.yul\":7603:7683   */\n      swap3\n      pop\n        /* \"#utility.yul\":7712:7716   */\n      0x20\n        /* \"#utility.yul\":7707:7710   */\n      dup11\n        /* \"#utility.yul\":7703:7717   */\n      add\n        /* \"#utility.yul\":7696:7717   */\n      swap10\n      pop\n        /* \"#utility.yul\":7391:7727   */\n      pop\n        /* \"#utility.yul\":7378:7379   */\n      0x01\n        /* \"#utility.yul\":7375:7376   */\n      dup2\n        /* \"#utility.yul\":7371:7380   */\n      add\n        /* \"#utility.yul\":7366:7380   */\n      swap1\n      pop\n        /* \"#utility.yul\":7331:7727   */\n      jump(tag_451)\n    tag_453:\n        /* \"#utility.yul\":7335:7349   */\n      pop\n        /* \"#utility.yul\":7743:7747   */\n      dup3\n        /* \"#utility.yul\":7736:7747   */\n      swap8\n      pop\n        /* \"#utility.yul\":7763:7766   */\n      dup8\n        /* \"#utility.yul\":7756:7766   */\n      swap6\n      pop\n        /* \"#utility.yul\":6925:7772   */\n      pop\n      pop\n      pop\n      pop\n      pop\n        /* \"#utility.yul\":6781:7772   */\n      swap3\n      swap2\n      pop\n      pop\n      jump\t// out\n        /* \"#utility.yul\":7778:8301   */\n    tag_78:\n        /* \"#utility.yul\":7969:7973   */\n      0x00\n        /* \"#utility.yul\":8007:8009   */\n      0x40\n        /* \"#utility.yul\":7996:8005   */\n      dup3\n        /* \"#utility.yul\":7992:8010   */\n      add\n        /* \"#utility.yul\":7984:8010   */\n      swap1\n      pop\n        /* \"#utility.yul\":8056:8065   */\n      dup2\n        /* \"#utility.yul\":8050:8054   */\n      dup2\n        /* \"#utility.yul\":8046:8066   */\n      sub\n        /* \"#utility.yul\":8042:8043   */\n      0x00\n        /* \"#utility.yul\":8031:8040   */\n      dup4\n        /* \"#utility.yul\":8027:8044   */\n      add\n        /* \"#utility.yul\":8020:8067   */\n      mstore\n        /* \"#utility.yul\":8084:8212   */\n      tag_457\n        /* \"#utility.yul\":8207:8211   */\n      dup2\n        /* \"#utility.yul\":8198:8204   */\n      dup6\n        /* \"#utility.yul\":8084:8212   */\n      tag_317\n      jump\t// in\n    tag_457:\n        /* \"#utility.yul\":8076:8212   */\n      swap1\n      pop\n        /* \"#utility.yul\":8222:8294   */\n      tag_458\n        /* \"#utility.yul\":8290:8292   */\n      0x20\n        /* \"#utility.yul\":8279:8288   */\n      dup4\n        /* \"#utility.yul\":8275:8293   */\n      add\n        /* \"#utility.yul\":8266:8272   */\n      dup5\n        /* \"#utility.yul\":8222:8294   */\n      tag_307\n      jump\t// in\n    tag_458:\n        /* \"#utility.yul\":7778:8301   */\n      swap4\n      swap3\n      pop\n      pop\n      pop\n      jump\t// out\n        /* \"#utility.yul\":8307:8425   */\n    tag_318:\n        /* \"#utility.yul\":8394:8418   */\n      tag_460\n        /* \"#utility.yul\":8412:8417   */\n      dup2\n        /* \"#utility.yul\":8394:8418   */\n      tag_299\n      jump\t// in\n    tag_460:\n        /* \"#utility.yul\":8389:8392   */\n      dup3\n        /* \"#utility.yul\":8382:8419   */\n      mstore\n        /* \"#utility.yul\":8307:8425   */\n      pop\n      pop\n      jump\t// out\n        /* \"#utility.yul\":8431:8653   */\n    tag_82:\n        /* \"#utility.yul\":8524:8528   */\n      0x00\n        /* \"#utility.yul\":8562:8564   */\n      0x20\n        /* \"#utility.yul\":8551:8560   */\n      dup3\n        /* \"#utility.yul\":8547:8565   */\n      add\n        /* \"#utility.yul\":8539:8565   */\n      swap1\n      pop\n        /* \"#utility.yul\":8575:8646   */\n      tag_462\n        /* \"#utility.yul\":8643:8644   */\n      0x00\n        /* \"#utility.yul\":8632:8641   */\n      dup4\n        /* \"#utility.yul\":8628:8645   */\n      add\n        /* \"#utility.yul\":8619:8625   */\n      dup5\n        /* \"#utility.yul\":8575:8646   */\n      tag_318\n      jump\t// in\n    tag_462:\n        /* \"#utility.yul\":8431:8653   */\n      swap3\n      swap2\n      pop\n      pop\n      jump\t// out\n        /* \"#utility.yul\":8659:9133   */\n    tag_102:\n        /* \"#utility.yul\":8727:8733   */\n      0x00\n        /* \"#utility.yul\":8735:8741   */\n      dup1\n        /* \"#utility.yul\":8784:8786   */\n      0x40\n        /* \"#utility.yul\":8772:8781   */\n      dup4\n        /* \"#utility.yul\":8763:8770   */\n      dup6\n        /* \"#utility.yul\":8759:8782   */\n      sub\n        /* \"#utility.yul\":8755:8787   */\n      slt\n        /* \"#utility.yul\":8752:8871   */\n      iszero\n      tag_464\n      jumpi\n        /* \"#utility.yul\":8790:8869   */\n      tag_465\n      tag_296\n      jump\t// in\n    tag_465:\n        /* \"#utility.yul\":8752:8871   */\n    tag_464:\n        /* \"#utility.yul\":8910:8911   */\n      0x00\n        /* \"#utility.yul\":8935:8988   */\n      tag_466\n        /* \"#utility.yul\":8980:8987   */\n      dup6\n        /* \"#utility.yul\":8971:8977   */\n      dup3\n        /* \"#utility.yul\":8960:8969   */\n      dup7\n        /* \"#utility.yul\":8956:8978   */\n      add\n        /* \"#utility.yul\":8935:8988   */\n      tag_301\n      jump\t// in\n    tag_466:\n        /* \"#utility.yul\":8925:8988   */\n      swap3\n      pop\n        /* \"#utility.yul\":8881:8998   */\n      pop\n        /* \"#utility.yul\":9037:9039   */\n      0x20\n        /* \"#utility.yul\":9063:9116   */\n      tag_467\n        /* \"#utility.yul\":9108:9115   */\n      dup6\n        /* \"#utility.yul\":9099:9105   */\n      dup3\n        /* \"#utility.yul\":9088:9097   */\n      dup7\n        /* \"#utility.yul\":9084:9106   */\n      add\n        /* \"#utility.yul\":9063:9116   */\n      tag_301\n      jump\t// in\n    tag_467:\n        /* \"#utility.yul\":9053:9116   */\n      swap2\n      pop\n        /* \"#utility.yul\":9008:9126   */\n      pop\n        /* \"#utility.yul\":8659:9133   */\n      swap3\n      pop\n      swap3\n      swap1\n      pop\n      jump\t// out\n        /* \"#utility.yul\":9139:9319   */\n    tag_319:\n        /* \"#utility.yul\":9187:9264   */\n      0x4e487b7100000000000000000000000000000000000000000000000000000000\n        /* \"#utility.yul\":9184:9185   */\n      0x00\n        /* \"#utility.yul\":9177:9265   */\n      mstore\n        /* \"#utility.yul\":9284:9288   */\n      0x22\n        /* \"#utility.yul\":9281:9282   */\n      0x04\n        /* \"#utility.yul\":9274:9289   */\n      mstore\n        /* \"#utility.yul\":9308:9312   */\n      0x24\n        /* \"#utility.yul\":9305:9306   */\n      0x00\n        /* \"#utility.yul\":9298:9313   */\n      revert\n        /* \"#utility.yul\":9325:9645   */\n    tag_110:\n        /* \"#utility.yul\":9369:9375   */\n      0x00\n        /* \"#utility.yul\":9406:9407   */\n      0x02\n        /* \"#utility.yul\":9400:9404   */\n      dup3\n        /* \"#utility.yul\":9396:9408   */\n      div\n        /* \"#utility.yul\":9386:9408   */\n      swap1\n      pop\n        /* \"#utility.yul\":9453:9454   */\n      0x01\n        /* \"#utility.yul\":9447:9451   */\n      dup3\n        /* \"#utility.yul\":9443:9455   */\n      and\n        /* \"#utility.yul\":9474:9492   */\n      dup1\n        /* \"#utility.yul\":9464:9545   */\n      tag_470\n      jumpi\n        /* \"#utility.yul\":9530:9534   */\n      0x7f\n        /* \"#utility.yul\":9522:9528   */\n      dup3\n        /* \"#utility.yul\":9518:9535   */\n      and\n        /* \"#utility.yul\":9508:9535   */\n      swap2\n      pop\n        /* \"#utility.yul\":9464:9545   */\n    tag_470:\n        /* \"#utility.yul\":9592:9594   */\n      0x20\n        /* \"#utility.yul\":9584:9590   */\n      dup3\n        /* \"#utility.yul\":9581:9595   */\n      lt\n        /* \"#utility.yul\":9561:9579   */\n      dup2\n        /* \"#utility.yul\":9558:9596   */\n      sub\n        /* \"#utility.yul\":9555:9639   */\n      tag_471\n      jumpi\n        /* \"#utility.yul\":9611:9629   */\n      tag_472\n      tag_319\n      jump\t// in\n    tag_472:\n        /* \"#utility.yul\":9555:9639   */\n    tag_471:\n        /* \"#utility.yul\":9376:9645   */\n      pop\n        /* \"#utility.yul\":9325:9645   */\n      swap2\n      swap1\n      pop\n      jump\t// out\n        /* \"#utility.yul\":9651:9831   */\n    tag_320:\n        /* \"#utility.yul\":9699:9776   */\n      0x4e487b7100000000000000000000000000000000000000000000000000000000\n        /* \"#utility.yul\":9696:9697   */\n      0x00\n        /* \"#utility.yul\":9689:9777   */\n      mstore\n        /* \"#utility.yul\":9796:9800   */\n      0x11\n        /* \"#utility.yul\":9793:9794   */\n      0x04\n        /* \"#utility.yul\":9786:9801   */\n      mstore\n        /* \"#utility.yul\":9820:9824   */\n      0x24\n        /* \"#utility.yul\":9817:9818   */\n      0x00\n        /* \"#utility.yul\":9810:9825   */\n      revert\n        /* \"#utility.yul\":9837:10028   */\n    tag_134:\n        /* \"#utility.yul\":9877:9880   */\n      0x00\n        /* \"#utility.yul\":9896:9916   */\n      tag_475\n        /* \"#utility.yul\":9914:9915   */\n      dup3\n        /* \"#utility.yul\":9896:9916   */\n      tag_302\n      jump\t// in\n    tag_475:\n        /* \"#utility.yul\":9891:9916   */\n      swap2\n      pop\n        /* \"#utility.yul\":9930:9950   */\n      tag_476\n        /* \"#utility.yul\":9948:9949   */\n      dup4\n        /* \"#utility.yul\":9930:9950   */\n      tag_302\n      jump\t// in\n    tag_476:\n        /* \"#utility.yul\":9925:9950   */\n      swap3\n      pop\n        /* \"#utility.yul\":9973:9974   */\n      dup3\n        /* \"#utility.yul\":9970:9971   */\n      dup3\n        /* \"#utility.yul\":9966:9975   */\n      add\n        /* \"#utility.yul\":9959:9975   */\n      swap1\n      pop\n        /* \"#utility.yul\":9994:9997   */\n      dup1\n        /* \"#utility.yul\":9991:9992   */\n      dup3\n        /* \"#utility.yul\":9988:9998   */\n      gt\n        /* \"#utility.yul\":9985:10021   */\n      iszero\n      tag_477\n      jumpi\n        /* \"#utility.yul\":10001:10019   */\n      tag_478\n      tag_320\n      jump\t// in\n    tag_478:\n        /* \"#utility.yul\":9985:10021   */\n    tag_477:\n        /* \"#utility.yul\":9837:10028   */\n      swap3\n      swap2\n      pop\n      pop\n      jump\t// out\n        /* \"#utility.yul\":10034:10213   */\n    tag_321:\n        /* \"#utility.yul\":10174:10205   */\n      0x596f7520646f6e2774206861766520656e6f75676820746f6b656e7321000000\n        /* \"#utility.yul\":10170:10171   */\n      0x00\n        /* \"#utility.yul\":10162:10168   */\n      dup3\n        /* \"#utility.yul\":10158:10172   */\n      add\n        /* \"#utility.yul\":10151:10206   */\n      mstore\n        /* \"#utility.yul\":10034:10213   */\n      pop\n      jump\t// out\n        /* \"#utility.yul\":10219:10585   */\n    tag_322:\n        /* \"#utility.yul\":10361:10364   */\n      0x00\n        /* \"#utility.yul\":10382:10449   */\n      tag_481\n        /* \"#utility.yul\":10446:10448   */\n      0x1d\n        /* \"#utility.yul\":10441:10444   */\n      dup4\n        /* \"#utility.yul\":10382:10449   */\n      tag_291\n      jump\t// in\n    tag_481:\n        /* \"#utility.yul\":10375:10449   */\n      swap2\n      pop\n        /* \"#utility.yul\":10458:10551   */\n      tag_482\n        /* \"#utility.yul\":10547:10550   */\n      dup3\n        /* \"#utility.yul\":10458:10551   */\n      tag_321\n      jump\t// in\n    tag_482:\n        /* \"#utility.yul\":10576:10578   */\n      0x20\n        /* \"#utility.yul\":10571:10574   */\n      dup3\n        /* \"#utility.yul\":10567:10579   */\n      add\n        /* \"#utility.yul\":10560:10579   */\n      swap1\n      pop\n        /* \"#utility.yul\":10219:10585   */\n      swap2\n      swap1\n      pop\n      jump\t// out\n        /* \"#utility.yul\":10591:11010   */\n    tag_146:\n        /* \"#utility.yul\":10757:10761   */\n      0x00\n        /* \"#utility.yul\":10795:10797   */\n      0x20\n        /* \"#utility.yul\":10784:10793   */\n      dup3\n        /* \"#utility.yul\":10780:10798   */\n      add\n        /* \"#utility.yul\":10772:10798   */\n      swap1\n      pop\n        /* \"#utility.yul\":10844:10853   */\n      dup2\n        /* \"#utility.yul\":10838:10842   */\n      dup2\n        /* \"#utility.yul\":10834:10854   */\n      sub\n        /* \"#utility.yul\":10830:10831   */\n      0x00\n        /* \"#utility.yul\":10819:10828   */\n      dup4\n        /* \"#utility.yul\":10815:10832   */\n      add\n        /* \"#utility.yul\":10808:10855   */\n      mstore\n        /* \"#utility.yul\":10872:11003   */\n      tag_484\n        /* \"#utility.yul\":10998:11002   */\n      dup2\n        /* \"#utility.yul\":10872:11003   */\n      tag_322\n      jump\t// in\n    tag_484:\n        /* \"#utility.yul\":10864:11003   */\n      swap1\n      pop\n        /* \"#utility.yul\":10591:11010   */\n      swap2\n      swap1\n      pop\n      jump\t// out\n        /* \"#utility.yul\":11016:11238   */\n    tag_323:\n        /* \"#utility.yul\":11156:11190   */\n      0x4e6f2070757263686173657320666f756e6420666f7220746869732061646472\n        /* \"#utility.yul\":11152:11153   */\n      0x00\n        /* \"#utility.yul\":11144:11150   */\n      dup3\n        /* \"#utility.yul\":11140:11154   */\n      add\n        /* \"#utility.yul\":11133:11191   */\n      mstore\n        /* \"#utility.yul\":11225:11230   */\n      0x6573730000000000000000000000000000000000000000000000000000000000\n        /* \"#utility.yul\":11220:11222   */\n      0x20\n        /* \"#utility.yul\":11212:11218   */\n      dup3\n        /* \"#utility.yul\":11208:11223   */\n      add\n        /* \"#utility.yul\":11201:11231   */\n      mstore\n        /* \"#utility.yul\":11016:11238   */\n      pop\n      jump\t// out\n        /* \"#utility.yul\":11244:11610   */\n    tag_324:\n        /* \"#utility.yul\":11386:11389   */\n      0x00\n        /* \"#utility.yul\":11407:11474   */\n      tag_487\n        /* \"#utility.yul\":11471:11473   */\n      0x23\n        /* \"#utility.yul\":11466:11469   */\n      dup4\n        /* \"#utility.yul\":11407:11474   */\n      tag_291\n      jump\t// in\n    tag_487:\n        /* \"#utility.yul\":11400:11474   */\n      swap2\n      pop\n        /* \"#utility.yul\":11483:11576   */\n      tag_488\n        /* \"#utility.yul\":11572:11575   */\n      dup3\n        /* \"#utility.yul\":11483:11576   */\n      tag_323\n      jump\t// in\n    tag_488:\n        /* \"#utility.yul\":11601:11603   */\n      0x40\n        /* \"#utility.yul\":11596:11599   */\n      dup3\n        /* \"#utility.yul\":11592:11604   */\n      add\n        /* \"#utility.yul\":11585:11604   */\n      swap1\n      pop\n        /* \"#utility.yul\":11244:11610   */\n      swap2\n      swap1\n      pop\n      jump\t// out\n        /* \"#utility.yul\":11616:12035   */\n    tag_158:\n        /* \"#utility.yul\":11782:11786   */\n      0x00\n        /* \"#utility.yul\":11820:11822   */\n      0x20\n        /* \"#utility.yul\":11809:11818   */\n      dup3\n        /* \"#utility.yul\":11805:11823   */\n      add\n        /* \"#utility.yul\":11797:11823   */\n      swap1\n      pop\n        /* \"#utility.yul\":11869:11878   */\n      dup2\n        /* \"#utility.yul\":11863:11867   */\n      dup2\n        /* \"#utility.yul\":11859:11879   */\n      sub\n        /* \"#utility.yul\":11855:11856   */\n      0x00\n        /* \"#utility.yul\":11844:11853   */\n      dup4\n        /* \"#utility.yul\":11840:11857   */\n      add\n        /* \"#utility.yul\":11833:11880   */\n      mstore\n        /* \"#utility.yul\":11897:12028   */\n      tag_490\n        /* \"#utility.yul\":12023:12027   */\n      dup2\n        /* \"#utility.yul\":11897:12028   */\n      tag_324\n      jump\t// in\n    tag_490:\n        /* \"#utility.yul\":11889:12028   */\n      swap1\n      pop\n        /* \"#utility.yul\":11616:12035   */\n      swap2\n      swap1\n      pop\n      jump\t// out\n        /* \"#utility.yul\":12041:12265   */\n    tag_325:\n        /* \"#utility.yul\":12181:12215   */\n      0x45524332303a2064656372656173656420616c6c6f77616e63652062656c6f77\n        /* \"#utility.yul\":12177:12178   */\n      0x00\n        /* \"#utility.yul\":12169:12175   */\n      dup3\n        /* \"#utility.yul\":12165:12179   */\n      add\n        /* \"#utility.yul\":12158:12216   */\n      mstore\n        /* \"#utility.yul\":12250:12257   */\n      0x207a65726f000000000000000000000000000000000000000000000000000000\n        /* \"#utility.yul\":12245:12247   */\n      0x20\n        /* \"#utility.yul\":12237:12243   */\n      dup3\n        /* \"#utility.yul\":12233:12248   */\n      add\n        /* \"#utility.yul\":12226:12258   */\n      mstore\n        /* \"#utility.yul\":12041:12265   */\n      pop\n      jump\t// out\n        /* \"#utility.yul\":12271:12637   */\n    tag_326:\n        /* \"#utility.yul\":12413:12416   */\n      0x00\n        /* \"#utility.yul\":12434:12501   */\n      tag_493\n        /* \"#utility.yul\":12498:12500   */\n      0x25\n        /* \"#utility.yul\":12493:12496   */\n      dup4\n        /* \"#utility.yul\":12434:12501   */\n      tag_291\n      jump\t// in\n    tag_493:\n        /* \"#utility.yul\":12427:12501   */\n      swap2\n      pop\n        /* \"#utility.yul\":12510:12603   */\n      tag_494\n        /* \"#utility.yul\":12599:12602   */\n      dup3\n        /* \"#utility.yul\":12510:12603   */\n      tag_325\n      jump\t// in\n    tag_494:\n        /* \"#utility.yul\":12628:12630   */\n      0x40\n        /* \"#utility.yul\":12623:12626   */\n      dup3\n        /* \"#utility.yul\":12619:12631   */\n      add\n        /* \"#utility.yul\":12612:12631   */\n      swap1\n      pop\n        /* \"#utility.yul\":12271:12637   */\n      swap2\n      swap1\n      pop\n      jump\t// out\n        /* \"#utility.yul\":12643:13062   */\n    tag_178:\n        /* \"#utility.yul\":12809:12813   */\n      0x00\n        /* \"#utility.yul\":12847:12849   */\n      0x20\n        /* \"#utility.yul\":12836:12845   */\n      dup3\n        /* \"#utility.yul\":12832:12850   */\n      add\n        /* \"#utility.yul\":12824:12850   */\n      swap1\n      pop\n        /* \"#utility.yul\":12896:12905   */\n      dup2\n        /* \"#utility.yul\":12890:12894   */\n      dup2\n        /* \"#utility.yul\":12886:12906   */\n      sub\n        /* \"#utility.yul\":12882:12883   */\n      0x00\n        /* \"#utility.yul\":12871:12880   */\n      dup4\n        /* \"#utility.yul\":12867:12884   */\n      add\n        /* \"#utility.yul\":12860:12907   */\n      mstore\n        /* \"#utility.yul\":12924:13055   */\n      tag_496\n        /* \"#utility.yul\":13050:13054   */\n      dup2\n        /* \"#utility.yul\":12924:13055   */\n      tag_326\n      jump\t// in\n    tag_496:\n        /* \"#utility.yul\":12916:13055   */\n      swap1\n      pop\n        /* \"#utility.yul\":12643:13062   */\n      swap2\n      swap1\n      pop\n      jump\t// out\n        /* \"#utility.yul\":13068:13240   */\n    tag_327:\n        /* \"#utility.yul\":13208:13232   */\n      0x57726f6e67206f7074696f6e2073656c65637465642100000000000000000000\n        /* \"#utility.yul\":13204:13205   */\n      0x00\n        /* \"#utility.yul\":13196:13202   */\n      dup3\n        /* \"#utility.yul\":13192:13206   */\n      add\n        /* \"#utility.yul\":13185:13233   */\n      mstore\n        /* \"#utility.yul\":13068:13240   */\n      pop\n      jump\t// out\n        /* \"#utility.yul\":13246:13612   */\n    tag_328:\n        /* \"#utility.yul\":13388:13391   */\n      0x00\n        /* \"#utility.yul\":13409:13476   */\n      tag_499\n        /* \"#utility.yul\":13473:13475   */\n      0x16\n        /* \"#utility.yul\":13468:13471   */\n      dup4\n        /* \"#utility.yul\":13409:13476   */\n      tag_291\n      jump\t// in\n    tag_499:\n        /* \"#utility.yul\":13402:13476   */\n      swap2\n      pop\n        /* \"#utility.yul\":13485:13578   */\n      tag_500\n        /* \"#utility.yul\":13574:13577   */\n      dup3\n        /* \"#utility.yul\":13485:13578   */\n      tag_327\n      jump\t// in\n    tag_500:\n        /* \"#utility.yul\":13603:13605   */\n      0x20\n        /* \"#utility.yul\":13598:13601   */\n      dup3\n        /* \"#utility.yul\":13594:13606   */\n      add\n        /* \"#utility.yul\":13587:13606   */\n      swap1\n      pop\n        /* \"#utility.yul\":13246:13612   */\n      swap2\n      swap1\n      pop\n      jump\t// out\n        /* \"#utility.yul\":13618:14037   */\n    tag_183:\n        /* \"#utility.yul\":13784:13788   */\n      0x00\n        /* \"#utility.yul\":13822:13824   */\n      0x20\n        /* \"#utility.yul\":13811:13820   */\n      dup3\n        /* \"#utility.yul\":13807:13825   */\n      add\n        /* \"#utility.yul\":13799:13825   */\n      swap1\n      pop\n        /* \"#utility.yul\":13871:13880   */\n      dup2\n        /* \"#utility.yul\":13865:13869   */\n      dup2\n        /* \"#utility.yul\":13861:13881   */\n      sub\n        /* \"#utility.yul\":13857:13858   */\n      0x00\n        /* \"#utility.yul\":13846:13855   */\n      dup4\n        /* \"#utility.yul\":13842:13859   */\n      add\n        /* \"#utility.yul\":13835:13882   */\n      mstore\n        /* \"#utility.yul\":13899:14030   */\n      tag_502\n        /* \"#utility.yul\":14025:14029   */\n      dup2\n        /* \"#utility.yul\":13899:14030   */\n      tag_328\n      jump\t// in\n    tag_502:\n        /* \"#utility.yul\":13891:14030   */\n      swap1\n      pop\n        /* \"#utility.yul\":13618:14037   */\n      swap2\n      swap1\n      pop\n      jump\t// out\n        /* \"#utility.yul\":14043:14218   */\n    tag_329:\n        /* \"#utility.yul\":14183:14210   */\n      0x4f6f70732120496e73756666696369656e7420546f6b656e7300000000000000\n        /* \"#utility.yul\":14179:14180   */\n      0x00\n        /* \"#utility.yul\":14171:14177   */\n      dup3\n        /* \"#utility.yul\":14167:14181   */\n      add\n        /* \"#utility.yul\":14160:14211   */\n      mstore\n        /* \"#utility.yul\":14043:14218   */\n      pop\n      jump\t// out\n        /* \"#utility.yul\":14224:14590   */\n    tag_330:\n        /* \"#utility.yul\":14366:14369   */\n      0x00\n        /* \"#utility.yul\":14387:14454   */\n      tag_505\n        /* \"#utility.yul\":14451:14453   */\n      0x19\n        /* \"#utility.yul\":14446:14449   */\n      dup4\n        /* \"#utility.yul\":14387:14454   */\n      tag_291\n      jump\t// in\n    tag_505:\n        /* \"#utility.yul\":14380:14454   */\n      swap2\n      pop\n        /* \"#utility.yul\":14463:14556   */\n      tag_506\n        /* \"#utility.yul\":14552:14555   */\n      dup3\n        /* \"#utility.yul\":14463:14556   */\n      tag_329\n      jump\t// in\n    tag_506:\n        /* \"#utility.yul\":14581:14583   */\n      0x20\n        /* \"#utility.yul\":14576:14579   */\n      dup3\n        /* \"#utility.yul\":14572:14584   */\n      add\n        /* \"#utility.yul\":14565:14584   */\n      swap1\n      pop\n        /* \"#utility.yul\":14224:14590   */\n      swap2\n      swap1\n      pop\n      jump\t// out\n        /* \"#utility.yul\":14596:15015   */\n    tag_188:\n        /* \"#utility.yul\":14762:14766   */\n      0x00\n        /* \"#utility.yul\":14800:14802   */\n      0x20\n        /* \"#utility.yul\":14789:14798   */\n      dup3\n        /* \"#utility.yul\":14785:14803   */\n      add\n        /* \"#utility.yul\":14777:14803   */\n      swap1\n      pop\n        /* \"#utility.yul\":14849:14858   */\n      dup2\n        /* \"#utility.yul\":14843:14847   */\n      dup2\n        /* \"#utility.yul\":14839:14859   */\n      sub\n        /* \"#utility.yul\":14835:14836   */\n      0x00\n        /* \"#utility.yul\":14824:14833   */\n      dup4\n        /* \"#utility.yul\":14820:14837   */\n      add\n        /* \"#utility.yul\":14813:14860   */\n      mstore\n        /* \"#utility.yul\":14877:15008   */\n      tag_508\n        /* \"#utility.yul\":15003:15007   */\n      dup2\n        /* \"#utility.yul\":14877:15008   */\n      tag_330\n      jump\t// in\n    tag_508:\n        /* \"#utility.yul\":14869:15008   */\n      swap1\n      pop\n        /* \"#utility.yul\":14596:15015   */\n      swap2\n      swap1\n      pop\n      jump\t// out\n        /* \"#utility.yul\":15021:15201   */\n    tag_331:\n        /* \"#utility.yul\":15069:15146   */\n      0x4e487b7100000000000000000000000000000000000000000000000000000000\n        /* \"#utility.yul\":15066:15067   */\n      0x00\n        /* \"#utility.yul\":15059:15147   */\n      mstore\n        /* \"#utility.yul\":15166:15170   */\n      0x41\n        /* \"#utility.yul\":15163:15164   */\n      0x04\n        /* \"#utility.yul\":15156:15171   */\n      mstore\n        /* \"#utility.yul\":15190:15194   */\n      0x24\n        /* \"#utility.yul\":15187:15188   */\n      0x00\n        /* \"#utility.yul\":15180:15195   */\n      revert\n        /* \"#utility.yul\":15207:15348   */\n    tag_332:\n        /* \"#utility.yul\":15256:15260   */\n      0x00\n        /* \"#utility.yul\":15279:15282   */\n      dup2\n        /* \"#utility.yul\":15271:15282   */\n      swap1\n      pop\n        /* \"#utility.yul\":15302:15305   */\n      dup2\n        /* \"#utility.yul\":15299:15300   */\n      0x00\n        /* \"#utility.yul\":15292:15306   */\n      mstore\n        /* \"#utility.yul\":15336:15340   */\n      0x20\n        /* \"#utility.yul\":15333:15334   */\n      0x00\n        /* \"#utility.yul\":15323:15341   */\n      keccak256\n        /* \"#utility.yul\":15315:15341   */\n      swap1\n      pop\n        /* \"#utility.yul\":15207:15348   */\n      swap2\n      swap1\n      pop\n      jump\t// out\n        /* \"#utility.yul\":15354:15447   */\n    tag_333:\n        /* \"#utility.yul\":15391:15397   */\n      0x00\n        /* \"#utility.yul\":15438:15440   */\n      0x20\n        /* \"#utility.yul\":15433:15435   */\n      0x1f\n        /* \"#utility.yul\":15426:15431   */\n      dup4\n        /* \"#utility.yul\":15422:15436   */\n      add\n        /* \"#utility.yul\":15418:15441   */\n      div\n        /* \"#utility.yul\":15408:15441   */\n      swap1\n      pop\n        /* \"#utility.yul\":15354:15447   */\n      swap2\n      swap1\n      pop\n      jump\t// out\n        /* \"#utility.yul\":15453:15560   */\n    tag_334:\n        /* \"#utility.yul\":15497:15505   */\n      0x00\n        /* \"#utility.yul\":15547:15552   */\n      dup3\n        /* \"#utility.yul\":15541:15545   */\n      dup3\n        /* \"#utility.yul\":15537:15553   */\n      shl\n        /* \"#utility.yul\":15516:15553   */\n      swap1\n      pop\n        /* \"#utility.yul\":15453:15560   */\n      swap3\n      swap2\n      pop\n      pop\n      jump\t// out\n        /* \"#utility.yul\":15566:15959   */\n    tag_335:\n        /* \"#utility.yul\":15635:15641   */\n      0x00\n        /* \"#utility.yul\":15685:15686   */\n      0x08\n        /* \"#utility.yul\":15673:15683   */\n      dup4\n        /* \"#utility.yul\":15669:15687   */\n      mul\n        /* \"#utility.yul\":15708:15805   */\n      tag_514\n        /* \"#utility.yul\":15738:15804   */\n      0xffffffffffffffffffffffffffffffffffffffffffffffffffffffffffffffff\n        /* \"#utility.yul\":15727:15736   */\n      dup3\n        /* \"#utility.yul\":15708:15805   */\n      tag_334\n      jump\t// in\n    tag_514:\n        /* \"#utility.yul\":15826:15865   */\n      tag_515\n        /* \"#utility.yul\":15856:15864   */\n      dup7\n        /* \"#utility.yul\":15845:15854   */\n      dup4\n        /* \"#utility.yul\":15826:15865   */\n      tag_334\n      jump\t// in\n    tag_515:\n        /* \"#utility.yul\":15814:15865   */\n      swap6\n      pop\n        /* \"#utility.yul\":15898:15902   */\n      dup1\n        /* \"#utility.yul\":15894:15903   */\n      not\n        /* \"#utility.yul\":15887:15892   */\n      dup5\n        /* \"#utility.yul\":15883:15904   */\n      and\n        /* \"#utility.yul\":15874:15904   */\n      swap4\n      pop\n        /* \"#utility.yul\":15947:15951   */\n      dup1\n        /* \"#utility.yul\":15937:15945   */\n      dup7\n        /* \"#utility.yul\":15933:15952   */\n      and\n        /* \"#utility.yul\":15926:15931   */\n      dup5\n        /* \"#utility.yul\":15923:15953   */\n      or\n        /* \"#utility.yul\":15913:15953   */\n      swap3\n      pop\n        /* \"#utility.yul\":15642:15959   */\n      pop\n      pop\n        /* \"#utility.yul\":15566:15959   */\n      swap4\n      swap3\n      pop\n      pop\n      pop\n      jump\t// out\n        /* \"#utility.yul\":15965:16025   */\n    tag_336:\n        /* \"#utility.yul\":15993:15996   */\n      0x00\n        /* \"#utility.yul\":16014:16019   */\n      dup2\n        /* \"#utility.yul\":16007:16019   */\n      swap1\n      pop\n        /* \"#utility.yul\":15965:16025   */\n      swap2\n      swap1\n      pop\n      jump\t// out\n        /* \"#utility.yul\":16031:16173   */\n    tag_337:\n        /* \"#utility.yul\":16081:16090   */\n      0x00\n        /* \"#utility.yul\":16114:16167   */\n      tag_518\n        /* \"#utility.yul\":16132:16166   */\n      tag_519\n        /* \"#utility.yul\":16141:16165   */\n      tag_520\n        /* \"#utility.yul\":16159:16164   */\n      dup5\n        /* \"#utility.yul\":16141:16165   */\n      tag_302\n      jump\t// in\n    tag_520:\n        /* \"#utility.yul\":16132:16166   */\n      tag_336\n      jump\t// in\n    tag_519:\n        /* \"#utility.yul\":16114:16167   */\n      tag_302\n      jump\t// in\n    tag_518:\n        /* \"#utility.yul\":16101:16167   */\n      swap1\n      pop\n        /* \"#utility.yul\":16031:16173   */\n      swap2\n      swap1\n      pop\n      jump\t// out\n        /* \"#utility.yul\":16179:16254   */\n    tag_338:\n        /* \"#utility.yul\":16222:16225   */\n      0x00\n        /* \"#utility.yul\":16243:16248   */\n      dup2\n        /* \"#utility.yul\":16236:16248   */\n      swap1\n      pop\n        /* \"#utility.yul\":16179:16254   */\n      swap2\n      swap1\n      pop\n      jump\t// out\n        /* \"#utility.yul\":16260:16529   */\n    tag_339:\n        /* \"#utility.yul\":16370:16409   */\n      tag_523\n        /* \"#utility.yul\":16401:16408   */\n      dup4\n        /* \"#utility.yul\":16370:16409   */\n      tag_337\n      jump\t// in\n    tag_523:\n        /* \"#utility.yul\":16431:16522   */\n      tag_524\n        /* \"#utility.yul\":16480:16521   */\n      tag_525\n        /* \"#utility.yul\":16504:16520   */\n      dup3\n        /* \"#utility.yul\":16480:16521   */\n      tag_338\n      jump\t// in\n    tag_525:\n        /* \"#utility.yul\":16472:16478   */\n      dup5\n        /* \"#utility.yul\":16465:16469   */\n      dup5\n        /* \"#utility.yul\":16459:16470   */\n      sload\n        /* \"#utility.yul\":16431:16522   */\n      tag_335\n      jump\t// in\n    tag_524:\n        /* \"#utility.yul\":16425:16429   */\n      dup3\n        /* \"#utility.yul\":16418:16523   */\n      sstore\n        /* \"#utility.yul\":16336:16529   */\n      pop\n        /* \"#utility.yul\":16260:16529   */\n      pop\n      pop\n      pop\n      jump\t// out\n        /* \"#utility.yul\":16535:16608   */\n    tag_340:\n        /* \"#utility.yul\":16580:16583   */\n      0x00\n        /* \"#utility.yul\":16535:16608   */\n      swap1\n      jump\t// out\n        /* \"#utility.yul\":16614:16803   */\n    tag_341:\n        /* \"#utility.yul\":16691:16723   */\n      tag_528\n      tag_340\n      jump\t// in\n    tag_528:\n        /* \"#utility.yul\":16732:16797   */\n      tag_529\n        /* \"#utility.yul\":16790:16796   */\n      dup2\n        /* \"#utility.yul\":16782:16788   */\n      dup5\n        /* \"#utility.yul\":16776:16780   */\n      dup5\n        /* \"#utility.yul\":16732:16797   */\n      tag_339\n      jump\t// in\n    tag_529:\n        /* \"#utility.yul\":16667:16803   */\n      pop\n        /* \"#utility.yul\":16614:16803   */\n      pop\n      pop\n      jump\t// out\n        /* \"#utility.yul\":16809:16995   */\n    tag_342:\n        /* \"#utility.yul\":16869:16989   */\n    tag_531:\n        /* \"#utility.yul\":16886:16889   */\n      dup2\n        /* \"#utility.yul\":16879:16884   */\n      dup2\n        /* \"#utility.yul\":16876:16890   */\n      lt\n        /* \"#utility.yul\":16869:16989   */\n      iszero\n      tag_533\n      jumpi\n        /* \"#utility.yul\":16940:16979   */\n      tag_534\n        /* \"#utility.yul\":16977:16978   */\n      0x00\n        /* \"#utility.yul\":16970:16975   */\n      dup3\n        /* \"#utility.yul\":16940:16979   */\n      tag_341\n      jump\t// in\n    tag_534:\n        /* \"#utility.yul\":16913:16914   */\n      0x01\n        /* \"#utility.yul\":16906:16911   */\n      dup2\n        /* \"#utility.yul\":16902:16915   */\n      add\n        /* \"#utility.yul\":16893:16915   */\n      swap1\n      pop\n        /* \"#utility.yul\":16869:16989   */\n      jump(tag_531)\n    tag_533:\n        /* \"#utility.yul\":16809:16995   */\n      pop\n      pop\n      jump\t// out\n        /* \"#utility.yul\":17001:17544   */\n    tag_343:\n        /* \"#utility.yul\":17102:17104   */\n      0x1f\n        /* \"#utility.yul\":17097:17100   */\n      dup3\n        /* \"#utility.yul\":17094:17105   */\n      gt\n        /* \"#utility.yul\":17091:17537   */\n      iszero\n      tag_536\n      jumpi\n        /* \"#utility.yul\":17136:17174   */\n      tag_537\n        /* \"#utility.yul\":17168:17173   */\n      dup2\n        /* \"#utility.yul\":17136:17174   */\n      tag_332\n      jump\t// in\n    tag_537:\n        /* \"#utility.yul\":17220:17249   */\n      tag_538\n        /* \"#utility.yul\":17238:17248   */\n      dup5\n        /* \"#utility.yul\":17220:17249   */\n      tag_333\n      jump\t// in\n    tag_538:\n        /* \"#utility.yul\":17210:17218   */\n      dup2\n        /* \"#utility.yul\":17206:17250   */\n      add\n        /* \"#utility.yul\":17403:17405   */\n      0x20\n        /* \"#utility.yul\":17391:17401   */\n      dup6\n        /* \"#utility.yul\":17388:17406   */\n      lt\n        /* \"#utility.yul\":17385:17434   */\n      iszero\n      tag_539\n      jumpi\n        /* \"#utility.yul\":17424:17432   */\n      dup2\n        /* \"#utility.yul\":17409:17432   */\n      swap1\n      pop\n        /* \"#utility.yul\":17385:17434   */\n    tag_539:\n        /* \"#utility.yul\":17447:17527   */\n      tag_540\n        /* \"#utility.yul\":17503:17525   */\n      tag_541\n        /* \"#utility.yul\":17521:17524   */\n      dup6\n        /* \"#utility.yul\":17503:17525   */\n      tag_333\n      jump\t// in\n    tag_541:\n        /* \"#utility.yul\":17493:17501   */\n      dup4\n        /* \"#utility.yul\":17489:17526   */\n      add\n        /* \"#utility.yul\":17476:17487   */\n      dup3\n        /* \"#utility.yul\":17447:17527   */\n      tag_342\n      jump\t// in\n    tag_540:\n        /* \"#utility.yul\":17106:17537   */\n      pop\n      pop\n        /* \"#utility.yul\":17091:17537   */\n    tag_536:\n        /* \"#utility.yul\":17001:17544   */\n      pop\n      pop\n      pop\n      jump\t// out\n        /* \"#utility.yul\":17550:17667   */\n    tag_344:\n        /* \"#utility.yul\":17604:17612   */\n      0x00\n        /* \"#utility.yul\":17654:17659   */\n      dup3\n        /* \"#utility.yul\":17648:17652   */\n      dup3\n        /* \"#utility.yul\":17644:17660   */\n      shr\n        /* \"#utility.yul\":17623:17660   */\n      swap1\n      pop\n        /* \"#utility.yul\":17550:17667   */\n      swap3\n      swap2\n      pop\n      pop\n      jump\t// out\n        /* \"#utility.yul\":17673:17842   */\n    tag_345:\n        /* \"#utility.yul\":17717:17723   */\n      0x00\n        /* \"#utility.yul\":17750:17801   */\n      tag_544\n        /* \"#utility.yul\":17798:17799   */\n      0x00\n        /* \"#utility.yul\":17794:17800   */\n      not\n        /* \"#utility.yul\":17786:17791   */\n      dup5\n        /* \"#utility.yul\":17783:17784   */\n      0x08\n        /* \"#utility.yul\":17779:17792   */\n      mul\n        /* \"#utility.yul\":17750:17801   */\n      tag_344\n      jump\t// in\n    tag_544:\n        /* \"#utility.yul\":17746:17802   */\n      not\n        /* \"#utility.yul\":17831:17835   */\n      dup1\n        /* \"#utility.yul\":17825:17829   */\n      dup4\n        /* \"#utility.yul\":17821:17836   */\n      and\n        /* \"#utility.yul\":17811:17836   */\n      swap2\n      pop\n        /* \"#utility.yul\":17724:17842   */\n      pop\n        /* \"#utility.yul\":17673:17842   */\n      swap3\n      swap2\n      pop\n      pop\n      jump\t// out\n        /* \"#utility.yul\":17847:18142   */\n    tag_346:\n        /* \"#utility.yul\":17923:17927   */\n      0x00\n        /* \"#utility.yul\":18069:18098   */\n      tag_546\n        /* \"#utility.yul\":18094:18097   */\n      dup4\n        /* \"#utility.yul\":18088:18092   */\n      dup4\n        /* \"#utility.yul\":18069:18098   */\n      tag_345\n      jump\t// in\n    tag_546:\n        /* \"#utility.yul\":18061:18098   */\n      swap2\n      pop\n        /* \"#utility.yul\":18131:18134   */\n      dup3\n        /* \"#utility.yul\":18128:18129   */\n      0x02\n        /* \"#utility.yul\":18124:18135   */\n      mul\n        /* \"#utility.yul\":18118:18122   */\n      dup3\n        /* \"#utility.yul\":18115:18136   */\n      or\n        /* \"#utility.yul\":18107:18136   */\n      swap1\n      pop\n        /* \"#utility.yul\":17847:18142   */\n      swap3\n      swap2\n      pop\n      pop\n      jump\t// out\n        /* \"#utility.yul\":18147:19542   */\n    tag_192:\n        /* \"#utility.yul\":18264:18301   */\n      tag_548\n        /* \"#utility.yul\":18297:18300   */\n      dup3\n        /* \"#utility.yul\":18264:18301   */\n      tag_290\n      jump\t// in\n    tag_548:\n        /* \"#utility.yul\":18366:18384   */\n      0xffffffffffffffff\n        /* \"#utility.yul\":18358:18364   */\n      dup2\n        /* \"#utility.yul\":18355:18385   */\n      gt\n        /* \"#utility.yul\":18352:18408   */\n      iszero\n      tag_549\n      jumpi\n        /* \"#utility.yul\":18388:18406   */\n      tag_550\n      tag_331\n      jump\t// in\n    tag_550:\n        /* \"#utility.yul\":18352:18408   */\n    tag_549:\n        /* \"#utility.yul\":18432:18470   */\n      tag_551\n        /* \"#utility.yul\":18464:18468   */\n      dup3\n        /* \"#utility.yul\":18458:18469   */\n      sload\n        /* \"#utility.yul\":18432:18470   */\n      tag_110\n      jump\t// in\n    tag_551:\n        /* \"#utility.yul\":18517:18584   */\n      tag_552\n        /* \"#utility.yul\":18577:18583   */\n      dup3\n        /* \"#utility.yul\":18569:18575   */\n      dup3\n        /* \"#utility.yul\":18563:18567   */\n      dup6\n        /* \"#utility.yul\":18517:18584   */\n      tag_343\n      jump\t// in\n    tag_552:\n        /* \"#utility.yul\":18611:18612   */\n      0x00\n        /* \"#utility.yul\":18635:18639   */\n      0x20\n        /* \"#utility.yul\":18622:18639   */\n      swap1\n      pop\n        /* \"#utility.yul\":18667:18669   */\n      0x1f\n        /* \"#utility.yul\":18659:18665   */\n      dup4\n        /* \"#utility.yul\":18656:18670   */\n      gt\n        /* \"#utility.yul\":18684:18685   */\n      0x01\n        /* \"#utility.yul\":18679:19297   */\n      dup2\n      eq\n      tag_554\n      jumpi\n        /* \"#utility.yul\":19341:19342   */\n      0x00\n        /* \"#utility.yul\":19358:19364   */\n      dup5\n        /* \"#utility.yul\":19355:19432   */\n      iszero\n      tag_555\n      jumpi\n        /* \"#utility.yul\":19407:19416   */\n      dup3\n        /* \"#utility.yul\":19402:19405   */\n      dup8\n        /* \"#utility.yul\":19398:19417   */\n      add\n        /* \"#utility.yul\":19392:19418   */\n      mload\n        /* \"#utility.yul\":19383:19418   */\n      swap1\n      pop\n        /* \"#utility.yul\":19355:19432   */\n    tag_555:\n        /* \"#utility.yul\":19458:19525   */\n      tag_556\n        /* \"#utility.yul\":19518:19524   */\n      dup6\n        /* \"#utility.yul\":19511:19516   */\n      dup3\n        /* \"#utility.yul\":19458:19525   */\n      tag_346\n      jump\t// in\n    tag_556:\n        /* \"#utility.yul\":19452:19456   */\n      dup7\n        /* \"#utility.yul\":19445:19526   */\n      sstore\n        /* \"#utility.yul\":19314:19536   */\n      pop\n        /* \"#utility.yul\":18649:19536   */\n      jump(tag_553)\n        /* \"#utility.yul\":18679:19297   */\n    tag_554:\n        /* \"#utility.yul\":18731:18735   */\n      0x1f\n        /* \"#utility.yul\":18727:18736   */\n      not\n        /* \"#utility.yul\":18719:18725   */\n      dup5\n        /* \"#utility.yul\":18715:18737   */\n      and\n        /* \"#utility.yul\":18765:18802   */\n      tag_557\n        /* \"#utility.yul\":18797:18801   */\n      dup7\n        /* \"#utility.yul\":18765:18802   */\n      tag_332\n      jump\t// in\n    tag_557:\n        /* \"#utility.yul\":18824:18825   */\n      0x00\n        /* \"#utility.yul\":18838:19046   */\n    tag_558:\n        /* \"#utility.yul\":18852:18859   */\n      dup3\n        /* \"#utility.yul\":18849:18850   */\n      dup2\n        /* \"#utility.yul\":18846:18860   */\n      lt\n        /* \"#utility.yul\":18838:19046   */\n      iszero\n      tag_560\n      jumpi\n        /* \"#utility.yul\":18931:18940   */\n      dup5\n        /* \"#utility.yul\":18926:18929   */\n      dup10\n        /* \"#utility.yul\":18922:18941   */\n      add\n        /* \"#utility.yul\":18916:18942   */\n      mload\n        /* \"#utility.yul\":18908:18914   */\n      dup3\n        /* \"#utility.yul\":18901:18943   */\n      sstore\n        /* \"#utility.yul\":18982:18983   */\n      0x01\n        /* \"#utility.yul\":18974:18980   */\n      dup3\n        /* \"#utility.yul\":18970:18984   */\n      add\n        /* \"#utility.yul\":18960:18984   */\n      swap2\n      pop\n        /* \"#utility.yul\":19029:19031   */\n      0x20\n        /* \"#utility.yul\":19018:19027   */\n      dup6\n        /* \"#utility.yul\":19014:19032   */\n      add\n        /* \"#utility.yul\":19001:19032   */\n      swap5\n      pop\n        /* \"#utility.yul\":18875:18879   */\n      0x20\n        /* \"#utility.yul\":18872:18873   */\n      dup2\n        /* \"#utility.yul\":18868:18880   */\n      add\n        /* \"#utility.yul\":18863:18880   */\n      swap1\n      pop\n        /* \"#utility.yul\":18838:19046   */\n      jump(tag_558)\n    tag_560:\n        /* \"#utility.yul\":19074:19080   */\n      dup7\n        /* \"#utility.yul\":19065:19072   */\n      dup4\n        /* \"#utility.yul\":19062:19081   */\n      lt\n        /* \"#utility.yul\":19059:19238   */\n      iszero\n      tag_561\n      jumpi\n        /* \"#utility.yul\":19132:19141   */\n      dup5\n        /* \"#utility.yul\":19127:19130   */\n      dup10\n        /* \"#utility.yul\":19123:19142   */\n      add\n        /* \"#utility.yul\":19117:19143   */\n      mload\n        /* \"#utility.yul\":19175:19223   */\n      tag_562\n        /* \"#utility.yul\":19217:19221   */\n      0x1f\n        /* \"#utility.yul\":19209:19215   */\n      dup10\n        /* \"#utility.yul\":19205:19222   */\n      and\n        /* \"#utility.yul\":19194:19203   */\n      dup3\n        /* \"#utility.yul\":19175:19223   */\n      tag_345\n      jump\t// in\n    tag_562:\n        /* \"#utility.yul\":19167:19173   */\n      dup4\n        /* \"#utility.yul\":19160:19224   */\n      sstore\n        /* \"#utility.yul\":19082:19238   */\n      pop\n        /* \"#utility.yul\":19059:19238   */\n    tag_561:\n        /* \"#utility.yul\":19284:19285   */\n      0x01\n        /* \"#utility.yul\":19280:19281   */\n      0x02\n        /* \"#utility.yul\":19272:19278   */\n      dup9\n        /* \"#utility.yul\":19268:19282   */\n      mul\n        /* \"#utility.yul\":19264:19286   */\n      add\n        /* \"#utility.yul\":19258:19262   */\n      dup9\n        /* \"#utility.yul\":19251:19287   */\n      sstore\n        /* \"#utility.yul\":18686:19297   */\n      pop\n      pop\n      pop\n        /* \"#utility.yul\":18649:19536   */\n    tag_553:\n      pop\n        /* \"#utility.yul\":18239:19542   */\n      pop\n      pop\n      pop\n        /* \"#utility.yul\":18147:19542   */\n      pop\n      pop\n      jump\t// out\n        /* \"#utility.yul\":19548:19771   */\n    tag_347:\n        /* \"#utility.yul\":19688:19722   */\n      0x536f7272792c206e6f7420656e6f7567682062616c616e636520696e2077616c\n        /* \"#utility.yul\":19684:19685   */\n      0x00\n        /* \"#utility.yul\":19676:19682   */\n      dup3\n        /* \"#utility.yul\":19672:19686   */\n      add\n        /* \"#utility.yul\":19665:19723   */\n      mstore\n        /* \"#utility.yul\":19757:19763   */\n      0x6c65742e00000000000000000000000000000000000000000000000000000000\n        /* \"#utility.yul\":19752:19754   */\n      0x20\n        /* \"#utility.yul\":19744:19750   */\n      dup3\n        /* \"#utility.yul\":19740:19755   */\n      add\n        /* \"#utility.yul\":19733:19764   */\n      mstore\n        /* \"#utility.yul\":19548:19771   */\n      pop\n      jump\t// out\n        /* \"#utility.yul\":19777:20143   */\n    tag_348:\n        /* \"#utility.yul\":19919:19922   */\n      0x00\n        /* \"#utility.yul\":19940:20007   */\n      tag_565\n        /* \"#utility.yul\":20004:20006   */\n      0x24\n        /* \"#utility.yul\":19999:20002   */\n      dup4\n        /* \"#utility.yul\":19940:20007   */\n      tag_291\n      jump\t// in\n    tag_565:\n        /* \"#utility.yul\":19933:20007   */\n      swap2\n      pop\n        /* \"#utility.yul\":20016:20109   */\n      tag_566\n        /* \"#utility.yul\":20105:20108   */\n      dup3\n        /* \"#utility.yul\":20016:20109   */\n      tag_347\n      jump\t// in\n    tag_566:\n        /* \"#utility.yul\":20134:20136   */\n      0x40\n        /* \"#utility.yul\":20129:20132   */\n      dup3\n        /* \"#utility.yul\":20125:20137   */\n      add\n        /* \"#utility.yul\":20118:20137   */\n      swap1\n      pop\n        /* \"#utility.yul\":19777:20143   */\n      swap2\n      swap1\n      pop\n      jump\t// out\n        /* \"#utility.yul\":20149:20568   */\n    tag_223:\n        /* \"#utility.yul\":20315:20319   */\n      0x00\n        /* \"#utility.yul\":20353:20355   */\n      0x20\n        /* \"#utility.yul\":20342:20351   */\n      dup3\n        /* \"#utility.yul\":20338:20356   */\n      add\n        /* \"#utility.yul\":20330:20356   */\n      swap1\n      pop\n        /* \"#utility.yul\":20402:20411   */\n      dup2\n        /* \"#utility.yul\":20396:20400   */\n      dup2\n        /* \"#utility.yul\":20392:20412   */\n      sub\n        /* \"#utility.yul\":20388:20389   */\n      0x00\n        /* \"#utility.yul\":20377:20386   */\n      dup4\n        /* \"#utility.yul\":20373:20390   */\n      add\n        /* \"#utility.yul\":20366:20413   */\n      mstore\n        /* \"#utility.yul\":20430:20561   */\n      tag_568\n        /* \"#utility.yul\":20556:20560   */\n      dup2\n        /* \"#utility.yul\":20430:20561   */\n      tag_348\n      jump\t// in\n    tag_568:\n        /* \"#utility.yul\":20422:20561   */\n      swap1\n      pop\n        /* \"#utility.yul\":20149:20568   */\n      swap2\n      swap1\n      pop\n      jump\t// out\n        /* \"#utility.yul\":20574:20795   */\n    tag_349:\n        /* \"#utility.yul\":20714:20748   */\n      0x536f72727921206f6e6c79206f776e65722063616e206d696e7420746f6b656e\n        /* \"#utility.yul\":20710:20711   */\n      0x00\n        /* \"#utility.yul\":20702:20708   */\n      dup3\n        /* \"#utility.yul\":20698:20712   */\n      add\n        /* \"#utility.yul\":20691:20749   */\n      mstore\n        /* \"#utility.yul\":20783:20787   */\n      0x7321000000000000000000000000000000000000000000000000000000000000\n        /* \"#utility.yul\":20778:20780   */\n      0x20\n        /* \"#utility.yul\":20770:20776   */\n      dup3\n        /* \"#utility.yul\":20766:20781   */\n      add\n        /* \"#utility.yul\":20759:20788   */\n      mstore\n        /* \"#utility.yul\":20574:20795   */\n      pop\n      jump\t// out\n        /* \"#utility.yul\":20801:21167   */\n    tag_350:\n        /* \"#utility.yul\":20943:20946   */\n      0x00\n        /* \"#utility.yul\":20964:21031   */\n      tag_571\n        /* \"#utility.yul\":21028:21030   */\n      0x22\n        /* \"#utility.yul\":21023:21026   */\n      dup4\n        /* \"#utility.yul\":20964:21031   */\n      tag_291\n      jump\t// in\n    tag_571:\n        /* \"#utility.yul\":20957:21031   */\n      swap2\n      pop\n        /* \"#utility.yul\":21040:21133   */\n      tag_572\n        /* \"#utility.yul\":21129:21132   */\n      dup3\n        /* \"#utility.yul\":21040:21133   */\n      tag_349\n      jump\t// in\n    tag_572:\n        /* \"#utility.yul\":21158:21160   */\n      0x40\n        /* \"#utility.yul\":21153:21156   */\n      dup3\n        /* \"#utility.yul\":21149:21161   */\n      add\n        /* \"#utility.yul\":21142:21161   */\n      swap1\n      pop\n        /* \"#utility.yul\":20801:21167   */\n      swap2\n      swap1\n      pop\n      jump\t// out\n        /* \"#utility.yul\":21173:21592   */\n    tag_229:\n        /* \"#utility.yul\":21339:21343   */\n      0x00\n        /* \"#utility.yul\":21377:21379   */\n      0x20\n        /* \"#utility.yul\":21366:21375   */\n      dup3\n        /* \"#utility.yul\":21362:21380   */\n      add\n        /* \"#utility.yul\":21354:21380   */\n      swap1\n      pop\n        /* \"#utility.yul\":21426:21435   */\n      dup2\n        /* \"#utility.yul\":21420:21424   */\n      dup2\n        /* \"#utility.yul\":21416:21436   */\n      sub\n        /* \"#utility.yul\":21412:21413   */\n      0x00\n        /* \"#utility.yul\":21401:21410   */\n      dup4\n        /* \"#utility.yul\":21397:21414   */\n      add\n        /* \"#utility.yul\":21390:21437   */\n      mstore\n        /* \"#utility.yul\":21454:21585   */\n      tag_574\n        /* \"#utility.yul\":21580:21584   */\n      dup2\n        /* \"#utility.yul\":21454:21585   */\n      tag_350\n      jump\t// in\n    tag_574:\n        /* \"#utility.yul\":21446:21585   */\n      swap1\n      pop\n        /* \"#utility.yul\":21173:21592   */\n      swap2\n      swap1\n      pop\n      jump\t// out\n        /* \"#utility.yul\":21598:21774   */\n    tag_351:\n        /* \"#utility.yul\":21738:21766   */\n      0x54686973206164647265737320646f65736e2774206578697374000000000000\n        /* \"#utility.yul\":21734:21735   */\n      0x00\n        /* \"#utility.yul\":21726:21732   */\n      dup3\n        /* \"#utility.yul\":21722:21736   */\n      add\n        /* \"#utility.yul\":21715:21767   */\n      mstore\n        /* \"#utility.yul\":21598:21774   */\n      pop\n      jump\t// out\n        /* \"#utility.yul\":21780:22146   */\n    tag_352:\n        /* \"#utility.yul\":21922:21925   */\n      0x00\n        /* \"#utility.yul\":21943:22010   */\n      tag_577\n        /* \"#utility.yul\":22007:22009   */\n      0x1a\n        /* \"#utility.yul\":22002:22005   */\n      dup4\n        /* \"#utility.yul\":21943:22010   */\n      tag_291\n      jump\t// in\n    tag_577:\n        /* \"#utility.yul\":21936:22010   */\n      swap2\n      pop\n        /* \"#utility.yul\":22019:22112   */\n      tag_578\n        /* \"#utility.yul\":22108:22111   */\n      dup3\n        /* \"#utility.yul\":22019:22112   */\n      tag_351\n      jump\t// in\n    tag_578:\n        /* \"#utility.yul\":22137:22139   */\n      0x20\n        /* \"#utility.yul\":22132:22135   */\n      dup3\n        /* \"#utility.yul\":22128:22140   */\n      add\n        /* \"#utility.yul\":22121:22140   */\n      swap1\n      pop\n        /* \"#utility.yul\":21780:22146   */\n      swap2\n      swap1\n      pop\n      jump\t// out\n        /* \"#utility.yul\":22152:22571   */\n    tag_233:\n        /* \"#utility.yul\":22318:22322   */\n      0x00\n        /* \"#utility.yul\":22356:22358   */\n      0x20\n        /* \"#utility.yul\":22345:22354   */\n      dup3\n        /* \"#utility.yul\":22341:22359   */\n      add\n        /* \"#utility.yul\":22333:22359   */\n      swap1\n      pop\n        /* \"#utility.yul\":22405:22414   */\n      dup2\n        /* \"#utility.yul\":22399:22403   */\n      dup2\n        /* \"#utility.yul\":22395:22415   */\n      sub\n        /* \"#utility.yul\":22391:22392   */\n      0x00\n        /* \"#utility.yul\":22380:22389   */\n      dup4\n        /* \"#utility.yul\":22376:22393   */\n      add\n        /* \"#utility.yul\":22369:22416   */\n      mstore\n        /* \"#utility.yul\":22433:22564   */\n      tag_580\n        /* \"#utility.yul\":22559:22563   */\n      dup2\n        /* \"#utility.yul\":22433:22564   */\n      tag_352\n      jump\t// in\n    tag_580:\n        /* \"#utility.yul\":22425:22564   */\n      swap1\n      pop\n        /* \"#utility.yul\":22152:22571   */\n      swap2\n      swap1\n      pop\n      jump\t// out\n        /* \"#utility.yul\":22577:22804   */\n    tag_353:\n        /* \"#utility.yul\":22717:22751   */\n      0x596f752063616e2774206d696e74206e65676174697665206e756d626572206f\n        /* \"#utility.yul\":22713:22714   */\n      0x00\n        /* \"#utility.yul\":22705:22711   */\n      dup3\n        /* \"#utility.yul\":22701:22715   */\n      add\n        /* \"#utility.yul\":22694:22752   */\n      mstore\n        /* \"#utility.yul\":22786:22796   */\n      0x6620746f6b656e73000000000000000000000000000000000000000000000000\n        /* \"#utility.yul\":22781:22783   */\n      0x20\n        /* \"#utility.yul\":22773:22779   */\n      dup3\n        /* \"#utility.yul\":22769:22784   */\n      add\n        /* \"#utility.yul\":22762:22797   */\n      mstore\n        /* \"#utility.yul\":22577:22804   */\n      pop\n      jump\t// out\n        /* \"#utility.yul\":22810:23176   */\n    tag_354:\n        /* \"#utility.yul\":22952:22955   */\n      0x00\n        /* \"#utility.yul\":22973:23040   */\n      tag_583\n        /* \"#utility.yul\":23037:23039   */\n      0x28\n        /* \"#utility.yul\":23032:23035   */\n      dup4\n        /* \"#utility.yul\":22973:23040   */\n      tag_291\n      jump\t// in\n    tag_583:\n        /* \"#utility.yul\":22966:23040   */\n      swap2\n      pop\n        /* \"#utility.yul\":23049:23142   */\n      tag_584\n        /* \"#utility.yul\":23138:23141   */\n      dup3\n        /* \"#utility.yul\":23049:23142   */\n      tag_353\n      jump\t// in\n    tag_584:\n        /* \"#utility.yul\":23167:23169   */\n      0x40\n        /* \"#utility.yul\":23162:23165   */\n      dup3\n        /* \"#utility.yul\":23158:23170   */\n      add\n        /* \"#utility.yul\":23151:23170   */\n      swap1\n      pop\n        /* \"#utility.yul\":22810:23176   */\n      swap2\n      swap1\n      pop\n      jump\t// out\n        /* \"#utility.yul\":23182:23601   */\n    tag_236:\n        /* \"#utility.yul\":23348:23352   */\n      0x00\n        /* \"#utility.yul\":23386:23388   */\n      0x20\n        /* \"#utility.yul\":23375:23384   */\n      dup3\n        /* \"#utility.yul\":23371:23389   */\n      add\n        /* \"#utility.yul\":23363:23389   */\n      swap1\n      pop\n        /* \"#utility.yul\":23435:23444   */\n      dup2\n        /* \"#utility.yul\":23429:23433   */\n      dup2\n        /* \"#utility.yul\":23425:23445   */\n      sub\n        /* \"#utility.yul\":23421:23422   */\n      0x00\n        /* \"#utility.yul\":23410:23419   */\n      dup4\n        /* \"#utility.yul\":23406:23423   */\n      add\n        /* \"#utility.yul\":23399:23446   */\n      mstore\n        /* \"#utility.yul\":23463:23594   */\n      tag_586\n        /* \"#utility.yul\":23589:23593   */\n      dup2\n        /* \"#utility.yul\":23463:23594   */\n      tag_354\n      jump\t// in\n    tag_586:\n        /* \"#utility.yul\":23455:23594   */\n      swap1\n      pop\n        /* \"#utility.yul\":23182:23601   */\n      swap2\n      swap1\n      pop\n      jump\t// out\n        /* \"#utility.yul\":23607:23830   */\n    tag_355:\n        /* \"#utility.yul\":23747:23781   */\n      0x45524332303a20617070726f76652066726f6d20746865207a65726f20616464\n        /* \"#utility.yul\":23743:23744   */\n      0x00\n        /* \"#utility.yul\":23735:23741   */\n      dup3\n        /* \"#utility.yul\":23731:23745   */\n      add\n        /* \"#utility.yul\":23724:23782   */\n      mstore\n        /* \"#utility.yul\":23816:23822   */\n      0x7265737300000000000000000000000000000000000000000000000000000000\n        /* \"#utility.yul\":23811:23813   */\n      0x20\n        /* \"#utility.yul\":23803:23809   */\n      dup3\n        /* \"#utility.yul\":23799:23814   */\n      add\n        /* \"#utility.yul\":23792:23823   */\n      mstore\n        /* \"#utility.yul\":23607:23830   */\n      pop\n      jump\t// out\n        /* \"#utility.yul\":23836:24202   */\n    tag_356:\n        /* \"#utility.yul\":23978:23981   */\n      0x00\n        /* \"#utility.yul\":23999:24066   */\n      tag_589\n        /* \"#utility.yul\":24063:24065   */\n      0x24\n        /* \"#utility.yul\":24058:24061   */\n      dup4\n        /* \"#utility.yul\":23999:24066   */\n      tag_291\n      jump\t// in\n    tag_589:\n        /* \"#utility.yul\":23992:24066   */\n      swap2\n      pop\n        /* \"#utility.yul\":24075:24168   */\n      tag_590\n        /* \"#utility.yul\":24164:24167   */\n      dup3\n        /* \"#utility.yul\":24075:24168   */\n      tag_355\n      jump\t// in\n    tag_590:\n        /* \"#utility.yul\":24193:24195   */\n      0x40\n        /* \"#utility.yul\":24188:24191   */\n      dup3\n        /* \"#utility.yul\":24184:24196   */\n      add\n        /* \"#utility.yul\":24177:24196   */\n      swap1\n      pop\n        /* \"#utility.yul\":23836:24202   */\n      swap2\n      swap1\n      pop\n      jump\t// out\n        /* \"#utility.yul\":24208:24627   */\n    tag_243:\n        /* \"#utility.yul\":24374:24378   */\n      0x00\n        /* \"#utility.yul\":24412:24414   */\n      0x20\n        /* \"#utility.yul\":24401:24410   */\n      dup3\n        /* \"#utility.yul\":24397:24415   */\n      add\n        /* \"#utility.yul\":24389:24415   */\n      swap1\n      pop\n        /* \"#utility.yul\":24461:24470   */\n      dup2\n        /* \"#utility.yul\":24455:24459   */\n      dup2\n        /* \"#utility.yul\":24451:24471   */\n      sub\n        /* \"#utility.yul\":24447:24448   */\n      0x00\n        /* \"#utility.yul\":24436:24445   */\n      dup4\n        /* \"#utility.yul\":24432:24449   */\n      add\n        /* \"#utility.yul\":24425:24472   */\n      mstore\n        /* \"#utility.yul\":24489:24620   */\n      tag_592\n        /* \"#utility.yul\":24615:24619   */\n      dup2\n        /* \"#utility.yul\":24489:24620   */\n      tag_356\n      jump\t// in\n    tag_592:\n        /* \"#utility.yul\":24481:24620   */\n      swap1\n      pop\n        /* \"#utility.yul\":24208:24627   */\n      swap2\n      swap1\n      pop\n      jump\t// out\n        /* \"#utility.yul\":24633:24854   */\n    tag_357:\n        /* \"#utility.yul\":24773:24807   */\n      0x45524332303a20617070726f766520746f20746865207a65726f206164647265\n        /* \"#utility.yul\":24769:24770   */\n      0x00\n        /* \"#utility.yul\":24761:24767   */\n      dup3\n        /* \"#utility.yul\":24757:24771   */\n      add\n        /* \"#utility.yul\":24750:24808   */\n      mstore\n        /* \"#utility.yul\":24842:24846   */\n      0x7373000000000000000000000000000000000000000000000000000000000000\n        /* \"#utility.yul\":24837:24839   */\n      0x20\n        /* \"#utility.yul\":24829:24835   */\n      dup3\n        /* \"#utility.yul\":24825:24840   */\n      add\n        /* \"#utility.yul\":24818:24847   */\n      mstore\n        /* \"#utility.yul\":24633:24854   */\n      pop\n      jump\t// out\n        /* \"#utility.yul\":24860:25226   */\n    tag_358:\n        /* \"#utility.yul\":25002:25005   */\n      0x00\n        /* \"#utility.yul\":25023:25090   */\n      tag_595\n        /* \"#utility.yul\":25087:25089   */\n      0x22\n        /* \"#utility.yul\":25082:25085   */\n      dup4\n        /* \"#utility.yul\":25023:25090   */\n      tag_291\n      jump\t// in\n    tag_595:\n        /* \"#utility.yul\":25016:25090   */\n      swap2\n      pop\n        /* \"#utility.yul\":25099:25192   */\n      tag_596\n        /* \"#utility.yul\":25188:25191   */\n      dup3\n        /* \"#utility.yul\":25099:25192   */\n      tag_357\n      jump\t// in\n    tag_596:\n        /* \"#utility.yul\":25217:25219   */\n      0x40\n        /* \"#utility.yul\":25212:25215   */\n      dup3\n        /* \"#utility.yul\":25208:25220   */\n      add\n        /* \"#utility.yul\":25201:25220   */\n      swap1\n      pop\n        /* \"#utility.yul\":24860:25226   */\n      swap2\n      swap1\n      pop\n      jump\t// out\n        /* \"#utility.yul\":25232:25651   */\n    tag_246:\n        /* \"#utility.yul\":25398:25402   */\n      0x00\n        /* \"#utility.yul\":25436:25438   */\n      0x20\n        /* \"#utility.yul\":25425:25434   */\n      dup3\n        /* \"#utility.yul\":25421:25439   */\n      add\n        /* \"#utility.yul\":25413:25439   */\n      swap1\n      pop\n        /* \"#utility.yul\":25485:25494   */\n      dup2\n        /* \"#utility.yul\":25479:25483   */\n      dup2\n        /* \"#utility.yul\":25475:25495   */\n      sub\n        /* \"#utility.yul\":25471:25472   */\n      0x00\n        /* \"#utility.yul\":25460:25469   */\n      dup4\n        /* \"#utility.yul\":25456:25473   */\n      add\n        /* \"#utility.yul\":25449:25496   */\n      mstore\n        /* \"#utility.yul\":25513:25644   */\n      tag_598\n        /* \"#utility.yul\":25639:25643   */\n      dup2\n        /* \"#utility.yul\":25513:25644   */\n      tag_358\n      jump\t// in\n    tag_598:\n        /* \"#utility.yul\":25505:25644   */\n      swap1\n      pop\n        /* \"#utility.yul\":25232:25651   */\n      swap2\n      swap1\n      pop\n      jump\t// out\n        /* \"#utility.yul\":25657:25836   */\n    tag_359:\n        /* \"#utility.yul\":25797:25828   */\n      0x45524332303a20696e73756666696369656e7420616c6c6f77616e6365000000\n        /* \"#utility.yul\":25793:25794   */\n      0x00\n        /* \"#utility.yul\":25785:25791   */\n      dup3\n        /* \"#utility.yul\":25781:25795   */\n      add\n        /* \"#utility.yul\":25774:25829   */\n      mstore\n        /* \"#utility.yul\":25657:25836   */\n      pop\n      jump\t// out\n        /* \"#utility.yul\":25842:26208   */\n    tag_360:\n        /* \"#utility.yul\":25984:25987   */\n      0x00\n        /* \"#utility.yul\":26005:26072   */\n      tag_601\n        /* \"#utility.yul\":26069:26071   */\n      0x1d\n        /* \"#utility.yul\":26064:26067   */\n      dup4\n        /* \"#utility.yul\":26005:26072   */\n      tag_291\n      jump\t// in\n    tag_601:\n        /* \"#utility.yul\":25998:26072   */\n      swap2\n      pop\n        /* \"#utility.yul\":26081:26174   */\n      tag_602\n        /* \"#utility.yul\":26170:26173   */\n      dup3\n        /* \"#utility.yul\":26081:26174   */\n      tag_359\n      jump\t// in\n    tag_602:\n        /* \"#utility.yul\":26199:26201   */\n      0x20\n        /* \"#utility.yul\":26194:26197   */\n      dup3\n        /* \"#utility.yul\":26190:26202   */\n      add\n        /* \"#utility.yul\":26183:26202   */\n      swap1\n      pop\n        /* \"#utility.yul\":25842:26208   */\n      swap2\n      swap1\n      pop\n      jump\t// out\n        /* \"#utility.yul\":26214:26633   */\n    tag_253:\n        /* \"#utility.yul\":26380:26384   */\n      0x00\n        /* \"#utility.yul\":26418:26420   */\n      0x20\n        /* \"#utility.yul\":26407:26416   */\n      dup3\n        /* \"#utility.yul\":26403:26421   */\n      add\n        /* \"#utility.yul\":26395:26421   */\n      swap1\n      pop\n        /* \"#utility.yul\":26467:26476   */\n      dup2\n        /* \"#utility.yul\":26461:26465   */\n      dup2\n        /* \"#utility.yul\":26457:26477   */\n      sub\n        /* \"#utility.yul\":26453:26454   */\n      0x00\n        /* \"#utility.yul\":26442:26451   */\n      dup4\n        /* \"#utility.yul\":26438:26455   */\n      add\n        /* \"#utility.yul\":26431:26478   */\n      mstore\n        /* \"#utility.yul\":26495:26626   */\n      tag_604\n        /* \"#utility.yul\":26621:26625   */\n      dup2\n        /* \"#utility.yul\":26495:26626   */\n      tag_360\n      jump\t// in\n    tag_604:\n        /* \"#utility.yul\":26487:26626   */\n      swap1\n      pop\n        /* \"#utility.yul\":26214:26633   */\n      swap2\n      swap1\n      pop\n      jump\t// out\n        /* \"#utility.yul\":26639:26863   */\n    tag_361:\n        /* \"#utility.yul\":26779:26813   */\n      0x45524332303a207472616e736665722066726f6d20746865207a65726f206164\n        /* \"#utility.yul\":26775:26776   */\n      0x00\n        /* \"#utility.yul\":26767:26773   */\n      dup3\n        /* \"#utility.yul\":26763:26777   */\n      add\n        /* \"#utility.yul\":26756:26814   */\n      mstore\n        /* \"#utility.yul\":26848:26855   */\n      0x6472657373000000000000000000000000000000000000000000000000000000\n        /* \"#utility.yul\":26843:26845   */\n      0x20\n        /* \"#utility.yul\":26835:26841   */\n      dup3\n        /* \"#utility.yul\":26831:26846   */\n      add\n        /* \"#utility.yul\":26824:26856   */\n      mstore\n        /* \"#utility.yul\":26639:26863   */\n      pop\n      jump\t// out\n        /* \"#utility.yul\":26869:27235   */\n    tag_362:\n        /* \"#utility.yul\":27011:27014   */\n      0x00\n        /* \"#utility.yul\":27032:27099   */\n      tag_607\n        /* \"#utility.yul\":27096:27098   */\n      0x25\n        /* \"#utility.yul\":27091:27094   */\n      dup4\n        /* \"#utility.yul\":27032:27099   */\n      tag_291\n      jump\t// in\n    tag_607:\n        /* \"#utility.yul\":27025:27099   */\n      swap2\n      pop\n        /* \"#utility.yul\":27108:27201   */\n      tag_608\n        /* \"#utility.yul\":27197:27200   */\n      dup3\n        /* \"#utility.yul\":27108:27201   */\n      tag_361\n      jump\t// in\n    tag_608:\n        /* \"#utility.yul\":27226:27228   */\n      0x40\n        /* \"#utility.yul\":27221:27224   */\n      dup3\n        /* \"#utility.yul\":27217:27229   */\n      add\n        /* \"#utility.yul\":27210:27229   */\n      swap1\n      pop\n        /* \"#utility.yul\":26869:27235   */\n      swap2\n      swap1\n      pop\n      jump\t// out\n        /* \"#utility.yul\":27241:27660   */\n    tag_258:\n        /* \"#utility.yul\":27407:27411   */\n      0x00\n        /* \"#utility.yul\":27445:27447   */\n      0x20\n        /* \"#utility.yul\":27434:27443   */\n      dup3\n        /* \"#utility.yul\":27430:27448   */\n      add\n        /* \"#utility.yul\":27422:27448   */\n      swap1\n      pop\n        /* \"#utility.yul\":27494:27503   */\n      dup2\n        /* \"#utility.yul\":27488:27492   */\n      dup2\n        /* \"#utility.yul\":27484:27504   */\n      sub\n        /* \"#utility.yul\":27480:27481   */\n      0x00\n        /* \"#utility.yul\":27469:27478   */\n      dup4\n        /* \"#utility.yul\":27465:27482   */\n      add\n        /* \"#utility.yul\":27458:27505   */\n      mstore\n        /* \"#utility.yul\":27522:27653   */\n      tag_610\n        /* \"#utility.yul\":27648:27652   */\n      dup2\n        /* \"#utility.yul\":27522:27653   */\n      tag_362\n      jump\t// in\n    tag_610:\n        /* \"#utility.yul\":27514:27653   */\n      swap1\n      pop\n        /* \"#utility.yul\":27241:27660   */\n      swap2\n      swap1\n      pop\n      jump\t// out\n        /* \"#utility.yul\":27666:27888   */\n    tag_363:\n        /* \"#utility.yul\":27806:27840   */\n      0x45524332303a207472616e7366657220746f20746865207a65726f2061646472\n        /* \"#utility.yul\":27802:27803   */\n      0x00\n        /* \"#utility.yul\":27794:27800   */\n      dup3\n        /* \"#utility.yul\":27790:27804   */\n      add\n        /* \"#utility.yul\":27783:27841   */\n      mstore\n        /* \"#utility.yul\":27875:27880   */\n      0x6573730000000000000000000000000000000000000000000000000000000000\n        /* \"#utility.yul\":27870:27872   */\n      0x20\n        /* \"#utility.yul\":27862:27868   */\n      dup3\n        /* \"#utility.yul\":27858:27873   */\n      add\n        /* \"#utility.yul\":27851:27881   */\n      mstore\n        /* \"#utility.yul\":27666:27888   */\n      pop\n      jump\t// out\n        /* \"#utility.yul\":27894:28260   */\n    tag_364:\n        /* \"#utility.yul\":28036:28039   */\n      0x00\n        /* \"#utility.yul\":28057:28124   */\n      tag_613\n        /* \"#utility.yul\":28121:28123   */\n      0x23\n        /* \"#utility.yul\":28116:28119   */\n      dup4\n        /* \"#utility.yul\":28057:28124   */\n      tag_291\n      jump\t// in\n    tag_613:\n        /* \"#utility.yul\":28050:28124   */\n      swap2\n      pop\n        /* \"#utility.yul\":28133:28226   */\n      tag_614\n        /* \"#utility.yul\":28222:28225   */\n      dup3\n        /* \"#utility.yul\":28133:28226   */\n      tag_363\n      jump\t// in\n    tag_614:\n        /* \"#utility.yul\":28251:28253   */\n      0x40\n        /* \"#utility.yul\":28246:28249   */\n      dup3\n        /* \"#utility.yul\":28242:28254   */\n      add\n        /* \"#utility.yul\":28235:28254   */\n      swap1\n      pop\n        /* \"#utility.yul\":27894:28260   */\n      swap2\n      swap1\n      pop\n      jump\t// out\n        /* \"#utility.yul\":28266:28685   */\n    tag_261:\n        /* \"#utility.yul\":28432:28436   */\n      0x00\n        /* \"#utility.yul\":28470:28472   */\n      0x20\n        /* \"#utility.yul\":28459:28468   */\n      dup3\n        /* \"#utility.yul\":28455:28473   */\n      add\n        /* \"#utility.yul\":28447:28473   */\n      swap1\n      pop\n        /* \"#utility.yul\":28519:28528   */\n      dup2\n        /* \"#utility.yul\":28513:28517   */\n      dup2\n        /* \"#utility.yul\":28509:28529   */\n      sub\n        /* \"#utility.yul\":28505:28506   */\n      0x00\n        /* \"#utility.yul\":28494:28503   */\n      dup4\n        /* \"#utility.yul\":28490:28507   */\n      add\n        /* \"#utility.yul\":28483:28530   */\n      mstore\n        /* \"#utility.yul\":28547:28678   */\n      tag_616\n        /* \"#utility.yul\":28673:28677   */\n      dup2\n        /* \"#utility.yul\":28547:28678   */\n      tag_364\n      jump\t// in\n    tag_616:\n        /* \"#utility.yul\":28539:28678   */\n      swap1\n      pop\n        /* \"#utility.yul\":28266:28685   */\n      swap2\n      swap1\n      pop\n      jump\t// out\n        /* \"#utility.yul\":28691:28916   */\n    tag_365:\n        /* \"#utility.yul\":28831:28865   */\n      0x45524332303a207472616e7366657220616d6f756e7420657863656564732062\n        /* \"#utility.yul\":28827:28828   */\n      0x00\n        /* \"#utility.yul\":28819:28825   */\n      dup3\n        /* \"#utility.yul\":28815:28829   */\n      add\n        /* \"#utility.yul\":28808:28866   */\n      mstore\n        /* \"#utility.yul\":28900:28908   */\n      0x616c616e63650000000000000000000000000000000000000000000000000000\n        /* \"#utility.yul\":28895:28897   */\n      0x20\n        /* \"#utility.yul\":28887:28893   */\n      dup3\n        /* \"#utility.yul\":28883:28898   */\n      add\n        /* \"#utility.yul\":28876:28909   */\n      mstore\n        /* \"#utility.yul\":28691:28916   */\n      pop\n      jump\t// out\n        /* \"#utility.yul\":28922:29288   */\n    tag_366:\n        /* \"#utility.yul\":29064:29067   */\n      0x00\n        /* \"#utility.yul\":29085:29152   */\n      tag_619\n        /* \"#utility.yul\":29149:29151   */\n      0x26\n        /* \"#utility.yul\":29144:29147   */\n      dup4\n        /* \"#utility.yul\":29085:29152   */\n      tag_291\n      jump\t// in\n    tag_619:\n        /* \"#utility.yul\":29078:29152   */\n      swap2\n      pop\n        /* \"#utility.yul\":29161:29254   */\n      tag_620\n        /* \"#utility.yul\":29250:29253   */\n      dup3\n        /* \"#utility.yul\":29161:29254   */\n      tag_365\n      jump\t// in\n    tag_620:\n        /* \"#utility.yul\":29279:29281   */\n      0x40\n        /* \"#utility.yul\":29274:29277   */\n      dup3\n        /* \"#utility.yul\":29270:29282   */\n      add\n        /* \"#utility.yul\":29263:29282   */\n      swap1\n      pop\n        /* \"#utility.yul\":28922:29288   */\n      swap2\n      swap1\n      pop\n      jump\t// out\n        /* \"#utility.yul\":29294:29713   */\n    tag_266:\n        /* \"#utility.yul\":29460:29464   */\n      0x00\n        /* \"#utility.yul\":29498:29500   */\n      0x20\n        /* \"#utility.yul\":29487:29496   */\n      dup3\n        /* \"#utility.yul\":29483:29501   */\n      add\n        /* \"#utility.yul\":29475:29501   */\n      swap1\n      pop\n        /* \"#utility.yul\":29547:29556   */\n      dup2\n        /* \"#utility.yul\":29541:29545   */\n      dup2\n        /* \"#utility.yul\":29537:29557   */\n      sub\n        /* \"#utility.yul\":29533:29534   */\n      0x00\n        /* \"#utility.yul\":29522:29531   */\n      dup4\n        /* \"#utility.yul\":29518:29535   */\n      add\n        /* \"#utility.yul\":29511:29558   */\n      mstore\n        /* \"#utility.yul\":29575:29706   */\n      tag_622\n        /* \"#utility.yul\":29701:29705   */\n      dup2\n        /* \"#utility.yul\":29575:29706   */\n      tag_366\n      jump\t// in\n    tag_622:\n        /* \"#utility.yul\":29567:29706   */\n      swap1\n      pop\n        /* \"#utility.yul\":29294:29713   */\n      swap2\n      swap1\n      pop\n      jump\t// out\n        /* \"#utility.yul\":29719:29939   */\n    tag_367:\n        /* \"#utility.yul\":29859:29893   */\n      0x45524332303a206275726e2066726f6d20746865207a65726f20616464726573\n        /* \"#utility.yul\":29855:29856   */\n      0x00\n        /* \"#utility.yul\":29847:29853   */\n      dup3\n        /* \"#utility.yul\":29843:29857   */\n      add\n        /* \"#utility.yul\":29836:29894   */\n      mstore\n        /* \"#utility.yul\":29928:29931   */\n      0x7300000000000000000000000000000000000000000000000000000000000000\n        /* \"#utility.yul\":29923:29925   */\n      0x20\n        /* \"#utility.yul\":29915:29921   */\n      dup3\n        /* \"#utility.yul\":29911:29926   */\n      add\n        /* \"#utility.yul\":29904:29932   */\n      mstore\n        /* \"#utility.yul\":29719:29939   */\n      pop\n      jump\t// out\n        /* \"#utility.yul\":29945:30311   */\n    tag_368:\n        /* \"#utility.yul\":30087:30090   */\n      0x00\n        /* \"#utility.yul\":30108:30175   */\n      tag_625\n        /* \"#utility.yul\":30172:30174   */\n      0x21\n        /* \"#utility.yul\":30167:30170   */\n      dup4\n        /* \"#utility.yul\":30108:30175   */\n      tag_291\n      jump\t// in\n    tag_625:\n        /* \"#utility.yul\":30101:30175   */\n      swap2\n      pop\n        /* \"#utility.yul\":30184:30277   */\n      tag_626\n        /* \"#utility.yul\":30273:30276   */\n      dup3\n        /* \"#utility.yul\":30184:30277   */\n      tag_367\n      jump\t// in\n    tag_626:\n        /* \"#utility.yul\":30302:30304   */\n      0x40\n        /* \"#utility.yul\":30297:30300   */\n      dup3\n        /* \"#utility.yul\":30293:30305   */\n      add\n        /* \"#utility.yul\":30286:30305   */\n      swap1\n      pop\n        /* \"#utility.yul\":29945:30311   */\n      swap2\n      swap1\n      pop\n      jump\t// out\n        /* \"#utility.yul\":30317:30736   */\n    tag_273:\n        /* \"#utility.yul\":30483:30487   */\n      0x00\n        /* \"#utility.yul\":30521:30523   */\n      0x20\n        /* \"#utility.yul\":30510:30519   */\n      dup3\n        /* \"#utility.yul\":30506:30524   */\n      add\n        /* \"#utility.yul\":30498:30524   */\n      swap1\n      pop\n        /* \"#utility.yul\":30570:30579   */\n      dup2\n        /* \"#utility.yul\":30564:30568   */\n      dup2\n        /* \"#utility.yul\":30560:30580   */\n      sub\n        /* \"#utility.yul\":30556:30557   */\n      0x00\n        /* \"#utility.yul\":30545:30554   */\n      dup4\n        /* \"#utility.yul\":30541:30558   */\n      add\n        /* \"#utility.yul\":30534:30581   */\n      mstore\n        /* \"#utility.yul\":30598:30729   */\n      tag_628\n        /* \"#utility.yul\":30724:30728   */\n      dup2\n        /* \"#utility.yul\":30598:30729   */\n      tag_368\n      jump\t// in\n    tag_628:\n        /* \"#utility.yul\":30590:30729   */\n      swap1\n      pop\n        /* \"#utility.yul\":30317:30736   */\n      swap2\n      swap1\n      pop\n      jump\t// out\n        /* \"#utility.yul\":30742:30963   */\n    tag_369:\n        /* \"#utility.yul\":30882:30916   */\n      0x45524332303a206275726e20616d6f756e7420657863656564732062616c616e\n        /* \"#utility.yul\":30878:30879   */\n      0x00\n        /* \"#utility.yul\":30870:30876   */\n      dup3\n        /* \"#utility.yul\":30866:30880   */\n      add\n        /* \"#utility.yul\":30859:30917   */\n      mstore\n        /* \"#utility.yul\":30951:30955   */\n      0x6365000000000000000000000000000000000000000000000000000000000000\n        /* \"#utility.yul\":30946:30948   */\n      0x20\n        /* \"#utility.yul\":30938:30944   */\n      dup3\n        /* \"#utility.yul\":30934:30949   */\n      add\n        /* \"#utility.yul\":30927:30956   */\n      mstore\n        /* \"#utility.yul\":30742:30963   */\n      pop\n      jump\t// out\n        /* \"#utility.yul\":30969:31335   */\n    tag_370:\n        /* \"#utility.yul\":31111:31114   */\n      0x00\n        /* \"#utility.yul\":31132:31199   */\n      tag_631\n        /* \"#utility.yul\":31196:31198   */\n      0x22\n        /* \"#utility.yul\":31191:31194   */\n      dup4\n        /* \"#utility.yul\":31132:31199   */\n      tag_291\n      jump\t// in\n    tag_631:\n        /* \"#utility.yul\":31125:31199   */\n      swap2\n      pop\n        /* \"#utility.yul\":31208:31301   */\n      tag_632\n        /* \"#utility.yul\":31297:31300   */\n      dup3\n        /* \"#utility.yul\":31208:31301   */\n      tag_369\n      jump\t// in\n    tag_632:\n        /* \"#utility.yul\":31326:31328   */\n      0x40\n        /* \"#utility.yul\":31321:31324   */\n      dup3\n        /* \"#utility.yul\":31317:31329   */\n      add\n        /* \"#utility.yul\":31310:31329   */\n      swap1\n      pop\n        /* \"#utility.yul\":30969:31335   */\n      swap2\n      swap1\n      pop\n      jump\t// out\n        /* \"#utility.yul\":31341:31760   */\n    tag_277:\n        /* \"#utility.yul\":31507:31511   */\n      0x00\n        /* \"#utility.yul\":31545:31547   */\n      0x20\n        /* \"#utility.yul\":31534:31543   */\n      dup3\n        /* \"#utility.yul\":31530:31548   */\n      add\n        /* \"#utility.yul\":31522:31548   */\n      swap1\n      pop\n        /* \"#utility.yul\":31594:31603   */\n      dup2\n        /* \"#utility.yul\":31588:31592   */\n      dup2\n        /* \"#utility.yul\":31584:31604   */\n      sub\n        /* \"#utility.yul\":31580:31581   */\n      0x00\n        /* \"#utility.yul\":31569:31578   */\n      dup4\n        /* \"#utility.yul\":31565:31582   */\n      add\n        /* \"#utility.yul\":31558:31605   */\n      mstore\n        /* \"#utility.yul\":31622:31753   */\n      tag_634\n        /* \"#utility.yul\":31748:31752   */\n      dup2\n        /* \"#utility.yul\":31622:31753   */\n      tag_370\n      jump\t// in\n    tag_634:\n        /* \"#utility.yul\":31614:31753   */\n      swap1\n      pop\n        /* \"#utility.yul\":31341:31760   */\n      swap2\n      swap1\n      pop\n      jump\t// out\n        /* \"#utility.yul\":31766:31947   */\n    tag_371:\n        /* \"#utility.yul\":31906:31939   */\n      0x45524332303a206d696e7420746f20746865207a65726f206164647265737300\n        /* \"#utility.yul\":31902:31903   */\n      0x00\n        /* \"#utility.yul\":31894:31900   */\n      dup3\n        /* \"#utility.yul\":31890:31904   */\n      add\n        /* \"#utility.yul\":31883:31940   */\n      mstore\n        /* \"#utility.yul\":31766:31947   */\n      pop\n      jump\t// out\n        /* \"#utility.yul\":31953:32319   */\n    tag_372:\n        /* \"#utility.yul\":32095:32098   */\n      0x00\n        /* \"#utility.yul\":32116:32183   */\n      tag_637\n        /* \"#utility.yul\":32180:32182   */\n      0x1f\n        /* \"#utility.yul\":32175:32178   */\n      dup4\n        /* \"#utility.yul\":32116:32183   */\n      tag_291\n      jump\t// in\n    tag_637:\n        /* \"#utility.yul\":32109:32183   */\n      swap2\n      pop\n        /* \"#utility.yul\":32192:32285   */\n      tag_638\n        /* \"#utility.yul\":32281:32284   */\n      dup3\n        /* \"#utility.yul\":32192:32285   */\n      tag_371\n      jump\t// in\n    tag_638:\n        /* \"#utility.yul\":32310:32312   */\n      0x20\n        /* \"#utility.yul\":32305:32308   */\n      dup3\n        /* \"#utility.yul\":32301:32313   */\n      add\n        /* \"#utility.yul\":32294:32313   */\n      swap1\n      pop\n        /* \"#utility.yul\":31953:32319   */\n      swap2\n      swap1\n      pop\n      jump\t// out\n        /* \"#utility.yul\":32325:32744   */\n    tag_283:\n        /* \"#utility.yul\":32491:32495   */\n      0x00\n        /* \"#utility.yul\":32529:32531   */\n      0x20\n        /* \"#utility.yul\":32518:32527   */\n      dup3\n        /* \"#utility.yul\":32514:32532   */\n      add\n        /* \"#utility.yul\":32506:32532   */\n      swap1\n      pop\n        /* \"#utility.yul\":32578:32587   */\n      dup2\n        /* \"#utility.yul\":32572:32576   */\n      dup2\n        /* \"#utility.yul\":32568:32588   */\n      sub\n        /* \"#utility.yul\":32564:32565   */\n      0x00\n        /* \"#utility.yul\":32553:32562   */\n      dup4\n        /* \"#utility.yul\":32549:32566   */\n      add\n        /* \"#utility.yul\":32542:32589   */\n      mstore\n        /* \"#utility.yul\":32606:32737   */\n      tag_640\n        /* \"#utility.yul\":32732:32736   */\n      dup2\n        /* \"#utility.yul\":32606:32737   */\n      tag_372\n      jump\t// in\n    tag_640:\n        /* \"#utility.yul\":32598:32737   */\n      swap1\n      pop\n        /* \"#utility.yul\":32325:32744   */\n      swap2\n      swap1\n      pop\n      jump\t// out\n    stop\n    data_4fd0f4c97c5218dcc7f6f631580ddefe5aafb5215de24b3b1e04e49d62d85075 312e204d34313620534b494e205b3830302044474e5d20322e20414b4d20534b494e205b3630302044474e5d20332e20554d50343520534b494e205b3235302044474e5d20342e204d5954484943204f5554464954205b3137352044474e5d\n\n    auxdata: 0xa2646970667358221220aed027920bf83805089e61eb2f0f6fb906709d15ac9b44eec3b20d0518fe8f8964736f6c634300081a0033\n}\n",
				"bytecode": {
					"linkReferences": {},
					"object": "60806040526040518060400160405280600b81526020017f444547454e20544f4b454e0000000000000000000000000000000000000000008152506005908161004891906105c3565b506040518060400160405280600381526020017f44474e00000000000000000000000000000000000000000000000000000000008152506006908161008d91906105c3565b50348015610099575f80fd5b50600580546100a7906103ed565b80601f01602080910402602001604051908101604052809291908181526020018280546100d3906103ed565b801561011e5780601f106100f55761010080835404028352916020019161011e565b820191905f5260205f20905b81548152906001019060200180831161010157829003601f168201915b505050505060068054610130906103ed565b80601f016020809104026020016040519081016040528092919081815260200182805461015c906103ed565b80156101a75780601f1061017e576101008083540402835291602001916101a7565b820191905f5260205f20905b81548152906001019060200180831161018a57829003601f168201915b505050505081600390816101bb91906105c3565b5080600490816101cb91906105c3565b5050506101e03361271061022560201b60201c565b3360085f6101000a81548173ffffffffffffffffffffffffffffffffffffffff021916908373ffffffffffffffffffffffffffffffffffffffff160217905550610792565b5f73ffffffffffffffffffffffffffffffffffffffff168273ffffffffffffffffffffffffffffffffffffffff1603610293576040517f08c379a000000000000000000000000000000000000000000000000000000000815260040161028a906106ec565b60405180910390fd5b6102a45f838361037f60201b60201c565b8060025f8282546102b59190610737565b92505081905550805f808473ffffffffffffffffffffffffffffffffffffffff1673ffffffffffffffffffffffffffffffffffffffff1681526020019081526020015f205f82825401925050819055508173ffffffffffffffffffffffffffffffffffffffff165f73ffffffffffffffffffffffffffffffffffffffff167fddf252ad1be2c89b69c2b068fc378daa952ba7f163c4a11628f55a4df523b3ef836040516103629190610779565b60405180910390a361037b5f838361038460201b60201c565b5050565b505050565b505050565b5f81519050919050565b7f4e487b71000000000000000000000000000000000000000000000000000000005f52604160045260245ffd5b7f4e487b71000000000000000000000000000000000000000000000000000000005f52602260045260245ffd5b5f600282049050600182168061040457607f821691505b602082108103610417576104166103c0565b5b50919050565b5f819050815f5260205f209050919050565b5f6020601f8301049050919050565b5f82821b905092915050565b5f600883026104797fffffffffffffffffffffffffffffffffffffffffffffffffffffffffffffffff8261043e565b610483868361043e565b95508019841693508086168417925050509392505050565b5f819050919050565b5f819050919050565b5f6104c76104c26104bd8461049b565b6104a4565b61049b565b9050919050565b5f819050919050565b6104e0836104ad565b6104f46104ec826104ce565b84845461044a565b825550505050565b5f90565b6105086104fc565b6105138184846104d7565b505050565b5b818110156105365761052b5f82610500565b600181019050610519565b5050565b601f82111561057b5761054c8161041d565b6105558461042f565b81016020851015610564578190505b6105786105708561042f565b830182610518565b50505b505050565b5f82821c905092915050565b5f61059b5f1984600802610580565b1980831691505092915050565b5f6105b3838361058c565b9150826002028217905092915050565b6105cc82610389565b67ffffffffffffffff8111156105e5576105e4610393565b5b6105ef82546103ed565b6105fa82828561053a565b5f60209050601f83116001811461062b575f8415610619578287015190505b61062385826105a8565b86555061068a565b601f1984166106398661041d565b5f5b828110156106605784890151825560018201915060208501945060208101905061063b565b8683101561067d5784890151610679601f89168261058c565b8355505b6001600288020188555050505b505050505050565b5f82825260208201905092915050565b7f45524332303a206d696e7420746f20746865207a65726f2061646472657373005f82015250565b5f6106d6601f83610692565b91506106e1826106a2565b602082019050919050565b5f6020820190508181035f830152610703816106ca565b9050919050565b7f4e487b71000000000000000000000000000000000000000000000000000000005f52601160045260245ffd5b5f6107418261049b565b915061074c8361049b565b92508282019050808211156107645761076361070a565b5b92915050565b6107738161049b565b82525050565b5f60208201905061078c5f83018461076a565b92915050565b61299b8061079f5f395ff3fe608060405234801561000f575f80fd5b5060043610610135575f3560e01c806370a08231116100b6578063a457c2d71161007a578063a457c2d714610342578063a6e158f814610372578063a9059cbb1461038e578063bec3fa17146103be578063dd62ed3e146103da578063f0dda65c1461040a57610135565b806370a08231146102995780637b61c320146102c95780638af8a986146102e75780638da5cb5b1461030657806395d89b411461032457610135565b8063313ce567116100fd578063313ce567146101f357806339509351146102115780634f731087146102415780636c02a9311461025f5780636d1b229d1461027d57610135565b806306fdde031461013957806308514a4114610157578063095ea7b31461017557806318160ddd146101a557806323b872dd146101c3575b5f80fd5b610141610426565b60405161014e91906118dd565b60405180910390f35b61015f6104b6565b60405161016c91906118dd565b60405180910390f35b61018f600480360381019061018a919061198e565b6104d6565b60405161019c91906119e6565b60405180910390f35b6101ad6104f8565b6040516101ba9190611a0e565b60405180910390f35b6101dd60048036038101906101d89190611a27565b610501565b6040516101ea91906119e6565b60405180910390f35b6101fb61052f565b6040516102089190611a92565b60405180910390f35b61022b6004803603810190610226919061198e565b610537565b60405161023891906119e6565b60405180910390f35b61024961056d565b6040516102569190611a0e565b60405180910390f35b61026761057c565b60405161027491906118dd565b60405180910390f35b61029760048036038101906102929190611aab565b610608565b005b6102b360048036038101906102ae9190611ad6565b610660565b6040516102c09190611a0e565b60405180910390f35b6102d16106a5565b6040516102de91906118dd565b60405180910390f35b6102ef610731565b6040516102fd929190611c04565b60405180910390f35b61030e6108cf565b60405161031b9190611c41565b60405180910390f35b61032c6108f4565b60405161033991906118dd565b60405180910390f35b61035c6004803603810190610357919061198e565b610984565b60405161036991906119e6565b60405180910390f35b61038c60048036038101906103879190611aab565b6109f9565b005b6103a860048036038101906103a3919061198e565b610e46565b6040516103b591906119e6565b60405180910390f35b6103d860048036038101906103d3919061198e565b610e68565b005b6103f460048036038101906103ef9190611c5a565b610ec2565b6040516104019190611a0e565b60405180910390f35b610424600480360381019061041f919061198e565b610f44565b005b60606003805461043590611cc5565b80601f016020809104026020016040519081016040528092919081815260200182805461046190611cc5565b80156104ac5780601f10610483576101008083540402835291602001916104ac565b820191905f5260205f20905b81548152906001019060200180831161048f57829003601f168201915b5050505050905090565b60606040518060800160405280605f8152602001612907605f9139905090565b5f806104e0611091565b90506104ed818585611098565b600191505092915050565b5f600254905090565b5f8061050b611091565b905061051885828561125b565b6105238585856112e6565b60019150509392505050565b5f6012905090565b5f80610541611091565b90506105628185856105538589610ec2565b61055d9190611d22565b611098565b600191505092915050565b5f61057733610660565b905090565b6005805461058990611cc5565b80601f01602080910402602001604051908101604052809291908181526020018280546105b590611cc5565b80156106005780601f106105d757610100808354040283529160200191610600565b820191905f5260205f20905b8154815290600101906020018083116105e357829003601f168201915b505050505081565b8061061233610660565b1015610653576040517f08c379a000000000000000000000000000000000000000000000000000000000815260040161064a90611d9f565b60405180910390fd5b61065d3382611552565b50565b5f805f8373ffffffffffffffffffffffffffffffffffffffff1673ffffffffffffffffffffffffffffffffffffffff1681526020019081526020015f20549050919050565b600680546106b290611cc5565b80601f01602080910402602001604051908101604052809291908181526020018280546106de90611cc5565b80156107295780601f1061070057610100808354040283529160200191610729565b820191905f5260205f20905b81548152906001019060200180831161070c57829003601f168201915b505050505081565b60605f8060075f3373ffffffffffffffffffffffffffffffffffffffff1673ffffffffffffffffffffffffffffffffffffffff1681526020019081526020015f208054905090505f81116107ba576040517f08c379a00000000000000000000000000000000000000000000000000000000081526004016107b190611e2d565b60405180910390fd5b60075f3373ffffffffffffffffffffffffffffffffffffffff1673ffffffffffffffffffffffffffffffffffffffff1681526020019081526020015f208181805480602002602001604051908101604052809291908181526020015f905b828210156108c0578382905f5260205f2001805461083590611cc5565b80601f016020809104026020016040519081016040528092919081815260200182805461086190611cc5565b80156108ac5780601f10610883576101008083540402835291602001916108ac565b820191905f5260205f20905b81548152906001019060200180831161088f57829003601f168201915b505050505081526020019060010190610818565b50505050915092509250509091565b60085f9054906101000a900473ffffffffffffffffffffffffffffffffffffffff1681565b60606004805461090390611cc5565b80601f016020809104026020016040519081016040528092919081815260200182805461092f90611cc5565b801561097a5780601f106109515761010080835404028352916020019161097a565b820191905f5260205f20905b81548152906001019060200180831161095d57829003601f168201915b5050505050905090565b5f8061098e611091565b90505f61099b8286610ec2565b9050838110156109e0576040517f08c379a00000000000000000000000000000000000000000000000000000000081526004016109d790611ebb565b60405180910390fd5b6109ed8286868403611098565b60019250505092915050565b6004811115610a3d576040517f08c379a0000000000000000000000000000000000000000000000000000000008152600401610a3490611f23565b60405180910390fd5b60018103610b4257610320610a5133610660565b1015610a92576040517f08c379a0000000000000000000000000000000000000000000000000000000008152600401610a8990611f8b565b60405180910390fd5b610a9e33610320611552565b60075f3373ffffffffffffffffffffffffffffffffffffffff1673ffffffffffffffffffffffffffffffffffffffff1681526020019081526020015f208060018154018082558091505060019003905f5260205f20015f6040518060400160405280600981526020017f4d34313620534b494e000000000000000000000000000000000000000000000081525090919091509081610b3c9190612173565b50610e43565b60028103610c4757610258610b5633610660565b1015610b97576040517f08c379a0000000000000000000000000000000000000000000000000000000008152600401610b8e90611f8b565b60405180910390fd5b610ba333610258611552565b60075f3373ffffffffffffffffffffffffffffffffffffffff1673ffffffffffffffffffffffffffffffffffffffff1681526020019081526020015f208060018154018082558091505060019003905f5260205f20015f6040518060400160405280600881526020017f414b4d20534b494e00000000000000000000000000000000000000000000000081525090919091509081610c419190612173565b50610e42565b60038103610d4a5760fa610c5a33610660565b1015610c9b576040517f08c379a0000000000000000000000000000000000000000000000000000000008152600401610c9290611f8b565b60405180910390fd5b610ca63360fa611552565b60075f3373ffffffffffffffffffffffffffffffffffffffff1673ffffffffffffffffffffffffffffffffffffffff1681526020019081526020015f208060018154018082558091505060019003905f5260205f20015f6040518060400160405280600a81526020017f554d50343520534b494e0000000000000000000000000000000000000000000081525090919091509081610d449190612173565b50610e41565b60af610d5533610660565b1015610d96576040517f08c379a0000000000000000000000000000000000000000000000000000000008152600401610d8d90611f8b565b60405180910390fd5b610da13360af611552565b60075f3373ffffffffffffffffffffffffffffffffffffffff1673ffffffffffffffffffffffffffffffffffffffff1681526020019081526020015f208060018154018082558091505060019003905f5260205f20015f6040518060400160405280600d81526020017f4d5954484943204f55544649540000000000000000000000000000000000000081525090919091509081610e3f9190612173565b505b5b5b50565b5f80610e50611091565b9050610e5d8185856112e6565b600191505092915050565b80610e7233610660565b1015610eb3576040517f08c379a0000000000000000000000000000000000000000000000000000000008152600401610eaa906122b2565b60405180910390fd5b610ebd8282610e46565b505050565b5f60015f8473ffffffffffffffffffffffffffffffffffffffff1673ffffffffffffffffffffffffffffffffffffffff1681526020019081526020015f205f8373ffffffffffffffffffffffffffffffffffffffff1673ffffffffffffffffffffffffffffffffffffffff1681526020019081526020015f2054905092915050565b60085f9054906101000a900473ffffffffffffffffffffffffffffffffffffffff1673ffffffffffffffffffffffffffffffffffffffff163373ffffffffffffffffffffffffffffffffffffffff1614610fd3576040517f08c379a0000000000000000000000000000000000000000000000000000000008152600401610fca90612340565b60405180910390fd5b5f73ffffffffffffffffffffffffffffffffffffffff168273ffffffffffffffffffffffffffffffffffffffff1603611041576040517f08c379a0000000000000000000000000000000000000000000000000000000008152600401611038906123a8565b60405180910390fd5b5f8111611083576040517f08c379a000000000000000000000000000000000000000000000000000000000815260040161107a90612436565b60405180910390fd5b61108d8282611715565b5050565b5f33905090565b5f73ffffffffffffffffffffffffffffffffffffffff168373ffffffffffffffffffffffffffffffffffffffff1603611106576040517f08c379a00000000000000000000000000000000000000000000000000000000081526004016110fd906124c4565b60405180910390fd5b5f73ffffffffffffffffffffffffffffffffffffffff168273ffffffffffffffffffffffffffffffffffffffff1603611174576040517f08c379a000000000000000000000000000000000000000000000000000000000815260040161116b90612552565b60405180910390fd5b8060015f8573ffffffffffffffffffffffffffffffffffffffff1673ffffffffffffffffffffffffffffffffffffffff1681526020019081526020015f205f8473ffffffffffffffffffffffffffffffffffffffff1673ffffffffffffffffffffffffffffffffffffffff1681526020019081526020015f20819055508173ffffffffffffffffffffffffffffffffffffffff168373ffffffffffffffffffffffffffffffffffffffff167f8c5be1e5ebec7d5bd14f71427d1e84f3dd0314c0f7b2291e5b200ac8c7c3b9258360405161124e9190611a0e565b60405180910390a3505050565b5f6112668484610ec2565b90507fffffffffffffffffffffffffffffffffffffffffffffffffffffffffffffffff81146112e057818110156112d2576040517f08c379a00000000000000000000000000000000000000000000000000000000081526004016112c9906125ba565b60405180910390fd5b6112df8484848403611098565b5b50505050565b5f73ffffffffffffffffffffffffffffffffffffffff168373ffffffffffffffffffffffffffffffffffffffff1603611354576040517f08c379a000000000000000000000000000000000000000000000000000000000815260040161134b90612648565b60405180910390fd5b5f73ffffffffffffffffffffffffffffffffffffffff168273ffffffffffffffffffffffffffffffffffffffff16036113c2576040517f08c379a00000000000000000000000000000000000000000000000000000000081526004016113b9906126d6565b60405180910390fd5b6113cd838383611863565b5f805f8573ffffffffffffffffffffffffffffffffffffffff1673ffffffffffffffffffffffffffffffffffffffff1681526020019081526020015f2054905081811015611450576040517f08c379a000000000000000000000000000000000000000000000000000000000815260040161144790612764565b60405180910390fd5b8181035f808673ffffffffffffffffffffffffffffffffffffffff1673ffffffffffffffffffffffffffffffffffffffff1681526020019081526020015f2081905550815f808573ffffffffffffffffffffffffffffffffffffffff1673ffffffffffffffffffffffffffffffffffffffff1681526020019081526020015f205f82825401925050819055508273ffffffffffffffffffffffffffffffffffffffff168473ffffffffffffffffffffffffffffffffffffffff167fddf252ad1be2c89b69c2b068fc378daa952ba7f163c4a11628f55a4df523b3ef846040516115399190611a0e565b60405180910390a361154c848484611868565b50505050565b5f73ffffffffffffffffffffffffffffffffffffffff168273ffffffffffffffffffffffffffffffffffffffff16036115c0576040517f08c379a00000000000000000000000000000000000000000000000000000000081526004016115b7906127f2565b60405180910390fd5b6115cb825f83611863565b5f805f8473ffffffffffffffffffffffffffffffffffffffff1673ffffffffffffffffffffffffffffffffffffffff1681526020019081526020015f205490508181101561164e576040517f08c379a000000000000000000000000000000000000000000000000000000000815260040161164590612880565b60405180910390fd5b8181035f808573ffffffffffffffffffffffffffffffffffffffff1673ffffffffffffffffffffffffffffffffffffffff1681526020019081526020015f20819055508160025f82825403925050819055505f73ffffffffffffffffffffffffffffffffffffffff168373ffffffffffffffffffffffffffffffffffffffff167fddf252ad1be2c89b69c2b068fc378daa952ba7f163c4a11628f55a4df523b3ef846040516116fd9190611a0e565b60405180910390a3611710835f84611868565b505050565b5f73ffffffffffffffffffffffffffffffffffffffff168273ffffffffffffffffffffffffffffffffffffffff1603611783576040517f08c379a000000000000000000000000000000000000000000000000000000000815260040161177a906128e8565b60405180910390fd5b61178e5f8383611863565b8060025f82825461179f9190611d22565b92505081905550805f808473ffffffffffffffffffffffffffffffffffffffff1673ffffffffffffffffffffffffffffffffffffffff1681526020019081526020015f205f82825401925050819055508173ffffffffffffffffffffffffffffffffffffffff165f73ffffffffffffffffffffffffffffffffffffffff167fddf252ad1be2c89b69c2b068fc378daa952ba7f163c4a11628f55a4df523b3ef8360405161184c9190611a0e565b60405180910390a361185f5f8383611868565b5050565b505050565b505050565b5f81519050919050565b5f82825260208201905092915050565b8281835e5f83830152505050565b5f601f19601f8301169050919050565b5f6118af8261186d565b6118b98185611877565b93506118c9818560208601611887565b6118d281611895565b840191505092915050565b5f6020820190508181035f8301526118f581846118a5565b905092915050565b5f80fd5b5f73ffffffffffffffffffffffffffffffffffffffff82169050919050565b5f61192a82611901565b9050919050565b61193a81611920565b8114611944575f80fd5b50565b5f8135905061195581611931565b92915050565b5f819050919050565b61196d8161195b565b8114611977575f80fd5b50565b5f8135905061198881611964565b92915050565b5f80604083850312156119a4576119a36118fd565b5b5f6119b185828601611947565b92505060206119c28582860161197a565b9150509250929050565b5f8115159050919050565b6119e0816119cc565b82525050565b5f6020820190506119f95f8301846119d7565b92915050565b611a088161195b565b82525050565b5f602082019050611a215f8301846119ff565b92915050565b5f805f60608486031215611a3e57611a3d6118fd565b5b5f611a4b86828701611947565b9350506020611a5c86828701611947565b9250506040611a6d8682870161197a565b9150509250925092565b5f60ff82169050919050565b611a8c81611a77565b82525050565b5f602082019050611aa55f830184611a83565b92915050565b5f60208284031215611ac057611abf6118fd565b5b5f611acd8482850161197a565b91505092915050565b5f60208284031215611aeb57611aea6118fd565b5b5f611af884828501611947565b91505092915050565b5f81519050919050565b5f82825260208201905092915050565b5f819050602082019050919050565b5f82825260208201905092915050565b5f611b448261186d565b611b4e8185611b2a565b9350611b5e818560208601611887565b611b6781611895565b840191505092915050565b5f611b7d8383611b3a565b905092915050565b5f602082019050919050565b5f611b9b82611b01565b611ba58185611b0b565b935083602082028501611bb785611b1b565b805f5b85811015611bf25784840389528151611bd38582611b72565b9450611bde83611b85565b925060208a01995050600181019050611bba565b50829750879550505050505092915050565b5f6040820190508181035f830152611c1c8185611b91565b9050611c2b60208301846119ff565b9392505050565b611c3b81611920565b82525050565b5f602082019050611c545f830184611c32565b92915050565b5f8060408385031215611c7057611c6f6118fd565b5b5f611c7d85828601611947565b9250506020611c8e85828601611947565b9150509250929050565b7f4e487b71000000000000000000000000000000000000000000000000000000005f52602260045260245ffd5b5f6002820490506001821680611cdc57607f821691505b602082108103611cef57611cee611c98565b5b50919050565b7f4e487b71000000000000000000000000000000000000000000000000000000005f52601160045260245ffd5b5f611d2c8261195b565b9150611d378361195b565b9250828201905080821115611d4f57611d4e611cf5565b5b92915050565b7f596f7520646f6e2774206861766520656e6f75676820746f6b656e73210000005f82015250565b5f611d89601d83611877565b9150611d9482611d55565b602082019050919050565b5f6020820190508181035f830152611db681611d7d565b9050919050565b7f4e6f2070757263686173657320666f756e6420666f72207468697320616464725f8201527f6573730000000000000000000000000000000000000000000000000000000000602082015250565b5f611e17602383611877565b9150611e2282611dbd565b604082019050919050565b5f6020820190508181035f830152611e4481611e0b565b9050919050565b7f45524332303a2064656372656173656420616c6c6f77616e63652062656c6f775f8201527f207a65726f000000000000000000000000000000000000000000000000000000602082015250565b5f611ea5602583611877565b9150611eb082611e4b565b604082019050919050565b5f6020820190508181035f830152611ed281611e99565b9050919050565b7f57726f6e67206f7074696f6e2073656c656374656421000000000000000000005f82015250565b5f611f0d601683611877565b9150611f1882611ed9565b602082019050919050565b5f6020820190508181035f830152611f3a81611f01565b9050919050565b7f4f6f70732120496e73756666696369656e7420546f6b656e73000000000000005f82015250565b5f611f75601983611877565b9150611f8082611f41565b602082019050919050565b5f6020820190508181035f830152611fa281611f69565b9050919050565b7f4e487b71000000000000000000000000000000000000000000000000000000005f52604160045260245ffd5b5f819050815f5260205f209050919050565b5f6020601f8301049050919050565b5f82821b905092915050565b5f600883026120327fffffffffffffffffffffffffffffffffffffffffffffffffffffffffffffffff82611ff7565b61203c8683611ff7565b95508019841693508086168417925050509392505050565b5f819050919050565b5f61207761207261206d8461195b565b612054565b61195b565b9050919050565b5f819050919050565b6120908361205d565b6120a461209c8261207e565b848454612003565b825550505050565b5f90565b6120b86120ac565b6120c3818484612087565b505050565b5b818110156120e6576120db5f826120b0565b6001810190506120c9565b5050565b601f82111561212b576120fc81611fd6565b61210584611fe8565b81016020851015612114578190505b61212861212085611fe8565b8301826120c8565b50505b505050565b5f82821c905092915050565b5f61214b5f1984600802612130565b1980831691505092915050565b5f612163838361213c565b9150826002028217905092915050565b61217c8261186d565b67ffffffffffffffff81111561219557612194611fa9565b5b61219f8254611cc5565b6121aa8282856120ea565b5f60209050601f8311600181146121db575f84156121c9578287015190505b6121d38582612158565b86555061223a565b601f1984166121e986611fd6565b5f5b82811015612210578489015182556001820191506020850194506020810190506121eb565b8683101561222d5784890151612229601f89168261213c565b8355505b6001600288020188555050505b505050505050565b7f536f7272792c206e6f7420656e6f7567682062616c616e636520696e2077616c5f8201527f6c65742e00000000000000000000000000000000000000000000000000000000602082015250565b5f61229c602483611877565b91506122a782612242565b604082019050919050565b5f6020820190508181035f8301526122c981612290565b9050919050565b7f536f72727921206f6e6c79206f776e65722063616e206d696e7420746f6b656e5f8201527f7321000000000000000000000000000000000000000000000000000000000000602082015250565b5f61232a602283611877565b9150612335826122d0565b604082019050919050565b5f6020820190508181035f8301526123578161231e565b9050919050565b7f54686973206164647265737320646f65736e27742065786973740000000000005f82015250565b5f612392601a83611877565b915061239d8261235e565b602082019050919050565b5f6020820190508181035f8301526123bf81612386565b9050919050565b7f596f752063616e2774206d696e74206e65676174697665206e756d626572206f5f8201527f6620746f6b656e73000000000000000000000000000000000000000000000000602082015250565b5f612420602883611877565b915061242b826123c6565b604082019050919050565b5f6020820190508181035f83015261244d81612414565b9050919050565b7f45524332303a20617070726f76652066726f6d20746865207a65726f206164645f8201527f7265737300000000000000000000000000000000000000000000000000000000602082015250565b5f6124ae602483611877565b91506124b982612454565b604082019050919050565b5f6020820190508181035f8301526124db816124a2565b9050919050565b7f45524332303a20617070726f766520746f20746865207a65726f2061646472655f8201527f7373000000000000000000000000000000000000000000000000000000000000602082015250565b5f61253c602283611877565b9150612547826124e2565b604082019050919050565b5f6020820190508181035f83015261256981612530565b9050919050565b7f45524332303a20696e73756666696369656e7420616c6c6f77616e63650000005f82015250565b5f6125a4601d83611877565b91506125af82612570565b602082019050919050565b5f6020820190508181035f8301526125d181612598565b9050919050565b7f45524332303a207472616e736665722066726f6d20746865207a65726f2061645f8201527f6472657373000000000000000000000000000000000000000000000000000000602082015250565b5f612632602583611877565b915061263d826125d8565b604082019050919050565b5f6020820190508181035f83015261265f81612626565b9050919050565b7f45524332303a207472616e7366657220746f20746865207a65726f20616464725f8201527f6573730000000000000000000000000000000000000000000000000000000000602082015250565b5f6126c0602383611877565b91506126cb82612666565b604082019050919050565b5f6020820190508181035f8301526126ed816126b4565b9050919050565b7f45524332303a207472616e7366657220616d6f756e74206578636565647320625f8201527f616c616e63650000000000000000000000000000000000000000000000000000602082015250565b5f61274e602683611877565b9150612759826126f4565b604082019050919050565b5f6020820190508181035f83015261277b81612742565b9050919050565b7f45524332303a206275726e2066726f6d20746865207a65726f206164647265735f8201527f7300000000000000000000000000000000000000000000000000000000000000602082015250565b5f6127dc602183611877565b91506127e782612782565b604082019050919050565b5f6020820190508181035f830152612809816127d0565b9050919050565b7f45524332303a206275726e20616d6f756e7420657863656564732062616c616e5f8201527f6365000000000000000000000000000000000000000000000000000000000000602082015250565b5f61286a602283611877565b915061287582612810565b604082019050919050565b5f6020820190508181035f8301526128978161285e565b9050919050565b7f45524332303a206d696e7420746f20746865207a65726f2061646472657373005f82015250565b5f6128d2601f83611877565b91506128dd8261289e565b602082019050919050565b5f6020820190508181035f8301526128ff816128c6565b905091905056fe312e204d34313620534b494e205b3830302044474e5d20322e20414b4d20534b494e205b3630302044474e5d20332e20554d50343520534b494e205b3235302044474e5d20342e204d5954484943204f5554464954205b3137352044474e5da2646970667358221220aed027920bf83805089e61eb2f0f6fb906709d15ac9b44eec3b20d0518fe8f8964736f6c634300081a0033",
					"opcodes": "PUSH1 0x80 PUSH1 0x40 MSTORE PUSH1 0x40 MLOAD DUP1 PUSH1 0x40 ADD PUSH1 0x40 MSTORE DUP1 PUSH1 0xB DUP2 MSTORE PUSH1 0x20 ADD PUSH32 0x444547454E20544F4B454E000000000000000000000000000000000000000000 DUP2 MSTORE POP PUSH1 0x5 SWAP1 DUP2 PUSH2 0x48 SWAP2 SWAP1 PUSH2 0x5C3 JUMP JUMPDEST POP PUSH1 0x40 MLOAD DUP1 PUSH1 0x40 ADD PUSH1 0x40 MSTORE DUP1 PUSH1 0x3 DUP2 MSTORE PUSH1 0x20 ADD PUSH32 0x44474E0000000000000000000000000000000000000000000000000000000000 DUP2 MSTORE POP PUSH1 0x6 SWAP1 DUP2 PUSH2 0x8D SWAP2 SWAP1 PUSH2 0x5C3 JUMP JUMPDEST POP CALLVALUE DUP1 ISZERO PUSH2 0x99 JUMPI PUSH0 DUP1 REVERT JUMPDEST POP PUSH1 0x5 DUP1 SLOAD PUSH2 0xA7 SWAP1 PUSH2 0x3ED JUMP JUMPDEST DUP1 PUSH1 0x1F ADD PUSH1 0x20 DUP1 SWAP2 DIV MUL PUSH1 0x20 ADD PUSH1 0x40 MLOAD SWAP1 DUP2 ADD PUSH1 0x40 MSTORE DUP1 SWAP3 SWAP2 SWAP1 DUP2 DUP2 MSTORE PUSH1 0x20 ADD DUP3 DUP1 SLOAD PUSH2 0xD3 SWAP1 PUSH2 0x3ED JUMP JUMPDEST DUP1 ISZERO PUSH2 0x11E JUMPI DUP1 PUSH1 0x1F LT PUSH2 0xF5 JUMPI PUSH2 0x100 DUP1 DUP4 SLOAD DIV MUL DUP4 MSTORE SWAP2 PUSH1 0x20 ADD SWAP2 PUSH2 0x11E JUMP JUMPDEST DUP3 ADD SWAP2 SWAP1 PUSH0 MSTORE PUSH1 0x20 PUSH0 KECCAK256 SWAP1 JUMPDEST DUP2 SLOAD DUP2 MSTORE SWAP1 PUSH1 0x1 ADD SWAP1 PUSH1 0x20 ADD DUP1 DUP4 GT PUSH2 0x101 JUMPI DUP3 SWAP1 SUB PUSH1 0x1F AND DUP3 ADD SWAP2 JUMPDEST POP POP POP POP POP PUSH1 0x6 DUP1 SLOAD PUSH2 0x130 SWAP1 PUSH2 0x3ED JUMP JUMPDEST DUP1 PUSH1 0x1F ADD PUSH1 0x20 DUP1 SWAP2 DIV MUL PUSH1 0x20 ADD PUSH1 0x40 MLOAD SWAP1 DUP2 ADD PUSH1 0x40 MSTORE DUP1 SWAP3 SWAP2 SWAP1 DUP2 DUP2 MSTORE PUSH1 0x20 ADD DUP3 DUP1 SLOAD PUSH2 0x15C SWAP1 PUSH2 0x3ED JUMP JUMPDEST DUP1 ISZERO PUSH2 0x1A7 JUMPI DUP1 PUSH1 0x1F LT PUSH2 0x17E JUMPI PUSH2 0x100 DUP1 DUP4 SLOAD DIV MUL DUP4 MSTORE SWAP2 PUSH1 0x20 ADD SWAP2 PUSH2 0x1A7 JUMP JUMPDEST DUP3 ADD SWAP2 SWAP1 PUSH0 MSTORE PUSH1 0x20 PUSH0 KECCAK256 SWAP1 JUMPDEST DUP2 SLOAD DUP2 MSTORE SWAP1 PUSH1 0x1 ADD SWAP1 PUSH1 0x20 ADD DUP1 DUP4 GT PUSH2 0x18A JUMPI DUP3 SWAP1 SUB PUSH1 0x1F AND DUP3 ADD SWAP2 JUMPDEST POP POP POP POP POP DUP2 PUSH1 0x3 SWAP1 DUP2 PUSH2 0x1BB SWAP2 SWAP1 PUSH2 0x5C3 JUMP JUMPDEST POP DUP1 PUSH1 0x4 SWAP1 DUP2 PUSH2 0x1CB SWAP2 SWAP1 PUSH2 0x5C3 JUMP JUMPDEST POP POP POP PUSH2 0x1E0 CALLER PUSH2 0x2710 PUSH2 0x225 PUSH1 0x20 SHL PUSH1 0x20 SHR JUMP JUMPDEST CALLER PUSH1 0x8 PUSH0 PUSH2 0x100 EXP DUP2 SLOAD DUP2 PUSH20 0xFFFFFFFFFFFFFFFFFFFFFFFFFFFFFFFFFFFFFFFF MUL NOT AND SWAP1 DUP4 PUSH20 0xFFFFFFFFFFFFFFFFFFFFFFFFFFFFFFFFFFFFFFFF AND MUL OR SWAP1 SSTORE POP PUSH2 0x792 JUMP JUMPDEST PUSH0 PUSH20 0xFFFFFFFFFFFFFFFFFFFFFFFFFFFFFFFFFFFFFFFF AND DUP3 PUSH20 0xFFFFFFFFFFFFFFFFFFFFFFFFFFFFFFFFFFFFFFFF AND SUB PUSH2 0x293 JUMPI PUSH1 0x40 MLOAD PUSH32 0x8C379A000000000000000000000000000000000000000000000000000000000 DUP2 MSTORE PUSH1 0x4 ADD PUSH2 0x28A SWAP1 PUSH2 0x6EC JUMP JUMPDEST PUSH1 0x40 MLOAD DUP1 SWAP2 SUB SWAP1 REVERT JUMPDEST PUSH2 0x2A4 PUSH0 DUP4 DUP4 PUSH2 0x37F PUSH1 0x20 SHL PUSH1 0x20 SHR JUMP JUMPDEST DUP1 PUSH1 0x2 PUSH0 DUP3 DUP3 SLOAD PUSH2 0x2B5 SWAP2 SWAP1 PUSH2 0x737 JUMP JUMPDEST SWAP3 POP POP DUP2 SWAP1 SSTORE POP DUP1 PUSH0 DUP1 DUP5 PUSH20 0xFFFFFFFFFFFFFFFFFFFFFFFFFFFFFFFFFFFFFFFF AND PUSH20 0xFFFFFFFFFFFFFFFFFFFFFFFFFFFFFFFFFFFFFFFF AND DUP2 MSTORE PUSH1 0x20 ADD SWAP1 DUP2 MSTORE PUSH1 0x20 ADD PUSH0 KECCAK256 PUSH0 DUP3 DUP3 SLOAD ADD SWAP3 POP POP DUP2 SWAP1 SSTORE POP DUP2 PUSH20 0xFFFFFFFFFFFFFFFFFFFFFFFFFFFFFFFFFFFFFFFF AND PUSH0 PUSH20 0xFFFFFFFFFFFFFFFFFFFFFFFFFFFFFFFFFFFFFFFF AND PUSH32 0xDDF252AD1BE2C89B69C2B068FC378DAA952BA7F163C4A11628F55A4DF523B3EF DUP4 PUSH1 0x40 MLOAD PUSH2 0x362 SWAP2 SWAP1 PUSH2 0x779 JUMP JUMPDEST PUSH1 0x40 MLOAD DUP1 SWAP2 SUB SWAP1 LOG3 PUSH2 0x37B PUSH0 DUP4 DUP4 PUSH2 0x384 PUSH1 0x20 SHL PUSH1 0x20 SHR JUMP JUMPDEST POP POP JUMP JUMPDEST POP POP POP JUMP JUMPDEST POP POP POP JUMP JUMPDEST PUSH0 DUP2 MLOAD SWAP1 POP SWAP2 SWAP1 POP JUMP JUMPDEST PUSH32 0x4E487B7100000000000000000000000000000000000000000000000000000000 PUSH0 MSTORE PUSH1 0x41 PUSH1 0x4 MSTORE PUSH1 0x24 PUSH0 REVERT JUMPDEST PUSH32 0x4E487B7100000000000000000000000000000000000000000000000000000000 PUSH0 MSTORE PUSH1 0x22 PUSH1 0x4 MSTORE PUSH1 0x24 PUSH0 REVERT JUMPDEST PUSH0 PUSH1 0x2 DUP3 DIV SWAP1 POP PUSH1 0x1 DUP3 AND DUP1 PUSH2 0x404 JUMPI PUSH1 0x7F DUP3 AND SWAP2 POP JUMPDEST PUSH1 0x20 DUP3 LT DUP2 SUB PUSH2 0x417 JUMPI PUSH2 0x416 PUSH2 0x3C0 JUMP JUMPDEST JUMPDEST POP SWAP2 SWAP1 POP JUMP JUMPDEST PUSH0 DUP2 SWAP1 POP DUP2 PUSH0 MSTORE PUSH1 0x20 PUSH0 KECCAK256 SWAP1 POP SWAP2 SWAP1 POP JUMP JUMPDEST PUSH0 PUSH1 0x20 PUSH1 0x1F DUP4 ADD DIV SWAP1 POP SWAP2 SWAP1 POP JUMP JUMPDEST PUSH0 DUP3 DUP3 SHL SWAP1 POP SWAP3 SWAP2 POP POP JUMP JUMPDEST PUSH0 PUSH1 0x8 DUP4 MUL PUSH2 0x479 PUSH32 0xFFFFFFFFFFFFFFFFFFFFFFFFFFFFFFFFFFFFFFFFFFFFFFFFFFFFFFFFFFFFFFFF DUP3 PUSH2 0x43E JUMP JUMPDEST PUSH2 0x483 DUP7 DUP4 PUSH2 0x43E JUMP JUMPDEST SWAP6 POP DUP1 NOT DUP5 AND SWAP4 POP DUP1 DUP7 AND DUP5 OR SWAP3 POP POP POP SWAP4 SWAP3 POP POP POP JUMP JUMPDEST PUSH0 DUP2 SWAP1 POP SWAP2 SWAP1 POP JUMP JUMPDEST PUSH0 DUP2 SWAP1 POP SWAP2 SWAP1 POP JUMP JUMPDEST PUSH0 PUSH2 0x4C7 PUSH2 0x4C2 PUSH2 0x4BD DUP5 PUSH2 0x49B JUMP JUMPDEST PUSH2 0x4A4 JUMP JUMPDEST PUSH2 0x49B JUMP JUMPDEST SWAP1 POP SWAP2 SWAP1 POP JUMP JUMPDEST PUSH0 DUP2 SWAP1 POP SWAP2 SWAP1 POP JUMP JUMPDEST PUSH2 0x4E0 DUP4 PUSH2 0x4AD JUMP JUMPDEST PUSH2 0x4F4 PUSH2 0x4EC DUP3 PUSH2 0x4CE JUMP JUMPDEST DUP5 DUP5 SLOAD PUSH2 0x44A JUMP JUMPDEST DUP3 SSTORE POP POP POP POP JUMP JUMPDEST PUSH0 SWAP1 JUMP JUMPDEST PUSH2 0x508 PUSH2 0x4FC JUMP JUMPDEST PUSH2 0x513 DUP2 DUP5 DUP5 PUSH2 0x4D7 JUMP JUMPDEST POP POP POP JUMP JUMPDEST JUMPDEST DUP2 DUP2 LT ISZERO PUSH2 0x536 JUMPI PUSH2 0x52B PUSH0 DUP3 PUSH2 0x500 JUMP JUMPDEST PUSH1 0x1 DUP2 ADD SWAP1 POP PUSH2 0x519 JUMP JUMPDEST POP POP JUMP JUMPDEST PUSH1 0x1F DUP3 GT ISZERO PUSH2 0x57B JUMPI PUSH2 0x54C DUP2 PUSH2 0x41D JUMP JUMPDEST PUSH2 0x555 DUP5 PUSH2 0x42F JUMP JUMPDEST DUP2 ADD PUSH1 0x20 DUP6 LT ISZERO PUSH2 0x564 JUMPI DUP2 SWAP1 POP JUMPDEST PUSH2 0x578 PUSH2 0x570 DUP6 PUSH2 0x42F JUMP JUMPDEST DUP4 ADD DUP3 PUSH2 0x518 JUMP JUMPDEST POP POP JUMPDEST POP POP POP JUMP JUMPDEST PUSH0 DUP3 DUP3 SHR SWAP1 POP SWAP3 SWAP2 POP POP JUMP JUMPDEST PUSH0 PUSH2 0x59B PUSH0 NOT DUP5 PUSH1 0x8 MUL PUSH2 0x580 JUMP JUMPDEST NOT DUP1 DUP4 AND SWAP2 POP POP SWAP3 SWAP2 POP POP JUMP JUMPDEST PUSH0 PUSH2 0x5B3 DUP4 DUP4 PUSH2 0x58C JUMP JUMPDEST SWAP2 POP DUP3 PUSH1 0x2 MUL DUP3 OR SWAP1 POP SWAP3 SWAP2 POP POP JUMP JUMPDEST PUSH2 0x5CC DUP3 PUSH2 0x389 JUMP JUMPDEST PUSH8 0xFFFFFFFFFFFFFFFF DUP2 GT ISZERO PUSH2 0x5E5 JUMPI PUSH2 0x5E4 PUSH2 0x393 JUMP JUMPDEST JUMPDEST PUSH2 0x5EF DUP3 SLOAD PUSH2 0x3ED JUMP JUMPDEST PUSH2 0x5FA DUP3 DUP3 DUP6 PUSH2 0x53A JUMP JUMPDEST PUSH0 PUSH1 0x20 SWAP1 POP PUSH1 0x1F DUP4 GT PUSH1 0x1 DUP2 EQ PUSH2 0x62B JUMPI PUSH0 DUP5 ISZERO PUSH2 0x619 JUMPI DUP3 DUP8 ADD MLOAD SWAP1 POP JUMPDEST PUSH2 0x623 DUP6 DUP3 PUSH2 0x5A8 JUMP JUMPDEST DUP7 SSTORE POP PUSH2 0x68A JUMP JUMPDEST PUSH1 0x1F NOT DUP5 AND PUSH2 0x639 DUP7 PUSH2 0x41D JUMP JUMPDEST PUSH0 JUMPDEST DUP3 DUP2 LT ISZERO PUSH2 0x660 JUMPI DUP5 DUP10 ADD MLOAD DUP3 SSTORE PUSH1 0x1 DUP3 ADD SWAP2 POP PUSH1 0x20 DUP6 ADD SWAP5 POP PUSH1 0x20 DUP2 ADD SWAP1 POP PUSH2 0x63B JUMP JUMPDEST DUP7 DUP4 LT ISZERO PUSH2 0x67D JUMPI DUP5 DUP10 ADD MLOAD PUSH2 0x679 PUSH1 0x1F DUP10 AND DUP3 PUSH2 0x58C JUMP JUMPDEST DUP4 SSTORE POP JUMPDEST PUSH1 0x1 PUSH1 0x2 DUP9 MUL ADD DUP9 SSTORE POP POP POP JUMPDEST POP POP POP POP POP POP JUMP JUMPDEST PUSH0 DUP3 DUP3 MSTORE PUSH1 0x20 DUP3 ADD SWAP1 POP SWAP3 SWAP2 POP POP JUMP JUMPDEST PUSH32 0x45524332303A206D696E7420746F20746865207A65726F206164647265737300 PUSH0 DUP3 ADD MSTORE POP JUMP JUMPDEST PUSH0 PUSH2 0x6D6 PUSH1 0x1F DUP4 PUSH2 0x692 JUMP JUMPDEST SWAP2 POP PUSH2 0x6E1 DUP3 PUSH2 0x6A2 JUMP JUMPDEST PUSH1 0x20 DUP3 ADD SWAP1 POP SWAP2 SWAP1 POP JUMP JUMPDEST PUSH0 PUSH1 0x20 DUP3 ADD SWAP1 POP DUP2 DUP2 SUB PUSH0 DUP4 ADD MSTORE PUSH2 0x703 DUP2 PUSH2 0x6CA JUMP JUMPDEST SWAP1 POP SWAP2 SWAP1 POP JUMP JUMPDEST PUSH32 0x4E487B7100000000000000000000000000000000000000000000000000000000 PUSH0 MSTORE PUSH1 0x11 PUSH1 0x4 MSTORE PUSH1 0x24 PUSH0 REVERT JUMPDEST PUSH0 PUSH2 0x741 DUP3 PUSH2 0x49B JUMP JUMPDEST SWAP2 POP PUSH2 0x74C DUP4 PUSH2 0x49B JUMP JUMPDEST SWAP3 POP DUP3 DUP3 ADD SWAP1 POP DUP1 DUP3 GT ISZERO PUSH2 0x764 JUMPI PUSH2 0x763 PUSH2 0x70A JUMP JUMPDEST JUMPDEST SWAP3 SWAP2 POP POP JUMP JUMPDEST PUSH2 0x773 DUP2 PUSH2 0x49B JUMP JUMPDEST DUP3 MSTORE POP POP JUMP JUMPDEST PUSH0 PUSH1 0x20 DUP3 ADD SWAP1 POP PUSH2 0x78C PUSH0 DUP4 ADD DUP5 PUSH2 0x76A JUMP JUMPDEST SWAP3 SWAP2 POP POP JUMP JUMPDEST PUSH2 0x299B DUP1 PUSH2 0x79F PUSH0 CODECOPY PUSH0 RETURN INVALID PUSH1 0x80 PUSH1 0x40 MSTORE CALLVALUE DUP1 ISZERO PUSH2 0xF JUMPI PUSH0 DUP1 REVERT JUMPDEST POP PUSH1 0x4 CALLDATASIZE LT PUSH2 0x135 JUMPI PUSH0 CALLDATALOAD PUSH1 0xE0 SHR DUP1 PUSH4 0x70A08231 GT PUSH2 0xB6 JUMPI DUP1 PUSH4 0xA457C2D7 GT PUSH2 0x7A JUMPI DUP1 PUSH4 0xA457C2D7 EQ PUSH2 0x342 JUMPI DUP1 PUSH4 0xA6E158F8 EQ PUSH2 0x372 JUMPI DUP1 PUSH4 0xA9059CBB EQ PUSH2 0x38E JUMPI DUP1 PUSH4 0xBEC3FA17 EQ PUSH2 0x3BE JUMPI DUP1 PUSH4 0xDD62ED3E EQ PUSH2 0x3DA JUMPI DUP1 PUSH4 0xF0DDA65C EQ PUSH2 0x40A JUMPI PUSH2 0x135 JUMP JUMPDEST DUP1 PUSH4 0x70A08231 EQ PUSH2 0x299 JUMPI DUP1 PUSH4 0x7B61C320 EQ PUSH2 0x2C9 JUMPI DUP1 PUSH4 0x8AF8A986 EQ PUSH2 0x2E7 JUMPI DUP1 PUSH4 0x8DA5CB5B EQ PUSH2 0x306 JUMPI DUP1 PUSH4 0x95D89B41 EQ PUSH2 0x324 JUMPI PUSH2 0x135 JUMP JUMPDEST DUP1 PUSH4 0x313CE567 GT PUSH2 0xFD JUMPI DUP1 PUSH4 0x313CE567 EQ PUSH2 0x1F3 JUMPI DUP1 PUSH4 0x39509351 EQ PUSH2 0x211 JUMPI DUP1 PUSH4 0x4F731087 EQ PUSH2 0x241 JUMPI DUP1 PUSH4 0x6C02A931 EQ PUSH2 0x25F JUMPI DUP1 PUSH4 0x6D1B229D EQ PUSH2 0x27D JUMPI PUSH2 0x135 JUMP JUMPDEST DUP1 PUSH4 0x6FDDE03 EQ PUSH2 0x139 JUMPI DUP1 PUSH4 0x8514A41 EQ PUSH2 0x157 JUMPI DUP1 PUSH4 0x95EA7B3 EQ PUSH2 0x175 JUMPI DUP1 PUSH4 0x18160DDD EQ PUSH2 0x1A5 JUMPI DUP1 PUSH4 0x23B872DD EQ PUSH2 0x1C3 JUMPI JUMPDEST PUSH0 DUP1 REVERT JUMPDEST PUSH2 0x141 PUSH2 0x426 JUMP JUMPDEST PUSH1 0x40 MLOAD PUSH2 0x14E SWAP2 SWAP1 PUSH2 0x18DD JUMP JUMPDEST PUSH1 0x40 MLOAD DUP1 SWAP2 SUB SWAP1 RETURN JUMPDEST PUSH2 0x15F PUSH2 0x4B6 JUMP JUMPDEST PUSH1 0x40 MLOAD PUSH2 0x16C SWAP2 SWAP1 PUSH2 0x18DD JUMP JUMPDEST PUSH1 0x40 MLOAD DUP1 SWAP2 SUB SWAP1 RETURN JUMPDEST PUSH2 0x18F PUSH1 0x4 DUP1 CALLDATASIZE SUB DUP2 ADD SWAP1 PUSH2 0x18A SWAP2 SWAP1 PUSH2 0x198E JUMP JUMPDEST PUSH2 0x4D6 JUMP JUMPDEST PUSH1 0x40 MLOAD PUSH2 0x19C SWAP2 SWAP1 PUSH2 0x19E6 JUMP JUMPDEST PUSH1 0x40 MLOAD DUP1 SWAP2 SUB SWAP1 RETURN JUMPDEST PUSH2 0x1AD PUSH2 0x4F8 JUMP JUMPDEST PUSH1 0x40 MLOAD PUSH2 0x1BA SWAP2 SWAP1 PUSH2 0x1A0E JUMP JUMPDEST PUSH1 0x40 MLOAD DUP1 SWAP2 SUB SWAP1 RETURN JUMPDEST PUSH2 0x1DD PUSH1 0x4 DUP1 CALLDATASIZE SUB DUP2 ADD SWAP1 PUSH2 0x1D8 SWAP2 SWAP1 PUSH2 0x1A27 JUMP JUMPDEST PUSH2 0x501 JUMP JUMPDEST PUSH1 0x40 MLOAD PUSH2 0x1EA SWAP2 SWAP1 PUSH2 0x19E6 JUMP JUMPDEST PUSH1 0x40 MLOAD DUP1 SWAP2 SUB SWAP1 RETURN JUMPDEST PUSH2 0x1FB PUSH2 0x52F JUMP JUMPDEST PUSH1 0x40 MLOAD PUSH2 0x208 SWAP2 SWAP1 PUSH2 0x1A92 JUMP JUMPDEST PUSH1 0x40 MLOAD DUP1 SWAP2 SUB SWAP1 RETURN JUMPDEST PUSH2 0x22B PUSH1 0x4 DUP1 CALLDATASIZE SUB DUP2 ADD SWAP1 PUSH2 0x226 SWAP2 SWAP1 PUSH2 0x198E JUMP JUMPDEST PUSH2 0x537 JUMP JUMPDEST PUSH1 0x40 MLOAD PUSH2 0x238 SWAP2 SWAP1 PUSH2 0x19E6 JUMP JUMPDEST PUSH1 0x40 MLOAD DUP1 SWAP2 SUB SWAP1 RETURN JUMPDEST PUSH2 0x249 PUSH2 0x56D JUMP JUMPDEST PUSH1 0x40 MLOAD PUSH2 0x256 SWAP2 SWAP1 PUSH2 0x1A0E JUMP JUMPDEST PUSH1 0x40 MLOAD DUP1 SWAP2 SUB SWAP1 RETURN JUMPDEST PUSH2 0x267 PUSH2 0x57C JUMP JUMPDEST PUSH1 0x40 MLOAD PUSH2 0x274 SWAP2 SWAP1 PUSH2 0x18DD JUMP JUMPDEST PUSH1 0x40 MLOAD DUP1 SWAP2 SUB SWAP1 RETURN JUMPDEST PUSH2 0x297 PUSH1 0x4 DUP1 CALLDATASIZE SUB DUP2 ADD SWAP1 PUSH2 0x292 SWAP2 SWAP1 PUSH2 0x1AAB JUMP JUMPDEST PUSH2 0x608 JUMP JUMPDEST STOP JUMPDEST PUSH2 0x2B3 PUSH1 0x4 DUP1 CALLDATASIZE SUB DUP2 ADD SWAP1 PUSH2 0x2AE SWAP2 SWAP1 PUSH2 0x1AD6 JUMP JUMPDEST PUSH2 0x660 JUMP JUMPDEST PUSH1 0x40 MLOAD PUSH2 0x2C0 SWAP2 SWAP1 PUSH2 0x1A0E JUMP JUMPDEST PUSH1 0x40 MLOAD DUP1 SWAP2 SUB SWAP1 RETURN JUMPDEST PUSH2 0x2D1 PUSH2 0x6A5 JUMP JUMPDEST PUSH1 0x40 MLOAD PUSH2 0x2DE SWAP2 SWAP1 PUSH2 0x18DD JUMP JUMPDEST PUSH1 0x40 MLOAD DUP1 SWAP2 SUB SWAP1 RETURN JUMPDEST PUSH2 0x2EF PUSH2 0x731 JUMP JUMPDEST PUSH1 0x40 MLOAD PUSH2 0x2FD SWAP3 SWAP2 SWAP1 PUSH2 0x1C04 JUMP JUMPDEST PUSH1 0x40 MLOAD DUP1 SWAP2 SUB SWAP1 RETURN JUMPDEST PUSH2 0x30E PUSH2 0x8CF JUMP JUMPDEST PUSH1 0x40 MLOAD PUSH2 0x31B SWAP2 SWAP1 PUSH2 0x1C41 JUMP JUMPDEST PUSH1 0x40 MLOAD DUP1 SWAP2 SUB SWAP1 RETURN JUMPDEST PUSH2 0x32C PUSH2 0x8F4 JUMP JUMPDEST PUSH1 0x40 MLOAD PUSH2 0x339 SWAP2 SWAP1 PUSH2 0x18DD JUMP JUMPDEST PUSH1 0x40 MLOAD DUP1 SWAP2 SUB SWAP1 RETURN JUMPDEST PUSH2 0x35C PUSH1 0x4 DUP1 CALLDATASIZE SUB DUP2 ADD SWAP1 PUSH2 0x357 SWAP2 SWAP1 PUSH2 0x198E JUMP JUMPDEST PUSH2 0x984 JUMP JUMPDEST PUSH1 0x40 MLOAD PUSH2 0x369 SWAP2 SWAP1 PUSH2 0x19E6 JUMP JUMPDEST PUSH1 0x40 MLOAD DUP1 SWAP2 SUB SWAP1 RETURN JUMPDEST PUSH2 0x38C PUSH1 0x4 DUP1 CALLDATASIZE SUB DUP2 ADD SWAP1 PUSH2 0x387 SWAP2 SWAP1 PUSH2 0x1AAB JUMP JUMPDEST PUSH2 0x9F9 JUMP JUMPDEST STOP JUMPDEST PUSH2 0x3A8 PUSH1 0x4 DUP1 CALLDATASIZE SUB DUP2 ADD SWAP1 PUSH2 0x3A3 SWAP2 SWAP1 PUSH2 0x198E JUMP JUMPDEST PUSH2 0xE46 JUMP JUMPDEST PUSH1 0x40 MLOAD PUSH2 0x3B5 SWAP2 SWAP1 PUSH2 0x19E6 JUMP JUMPDEST PUSH1 0x40 MLOAD DUP1 SWAP2 SUB SWAP1 RETURN JUMPDEST PUSH2 0x3D8 PUSH1 0x4 DUP1 CALLDATASIZE SUB DUP2 ADD SWAP1 PUSH2 0x3D3 SWAP2 SWAP1 PUSH2 0x198E JUMP JUMPDEST PUSH2 0xE68 JUMP JUMPDEST STOP JUMPDEST PUSH2 0x3F4 PUSH1 0x4 DUP1 CALLDATASIZE SUB DUP2 ADD SWAP1 PUSH2 0x3EF SWAP2 SWAP1 PUSH2 0x1C5A JUMP JUMPDEST PUSH2 0xEC2 JUMP JUMPDEST PUSH1 0x40 MLOAD PUSH2 0x401 SWAP2 SWAP1 PUSH2 0x1A0E JUMP JUMPDEST PUSH1 0x40 MLOAD DUP1 SWAP2 SUB SWAP1 RETURN JUMPDEST PUSH2 0x424 PUSH1 0x4 DUP1 CALLDATASIZE SUB DUP2 ADD SWAP1 PUSH2 0x41F SWAP2 SWAP1 PUSH2 0x198E JUMP JUMPDEST PUSH2 0xF44 JUMP JUMPDEST STOP JUMPDEST PUSH1 0x60 PUSH1 0x3 DUP1 SLOAD PUSH2 0x435 SWAP1 PUSH2 0x1CC5 JUMP JUMPDEST DUP1 PUSH1 0x1F ADD PUSH1 0x20 DUP1 SWAP2 DIV MUL PUSH1 0x20 ADD PUSH1 0x40 MLOAD SWAP1 DUP2 ADD PUSH1 0x40 MSTORE DUP1 SWAP3 SWAP2 SWAP1 DUP2 DUP2 MSTORE PUSH1 0x20 ADD DUP3 DUP1 SLOAD PUSH2 0x461 SWAP1 PUSH2 0x1CC5 JUMP JUMPDEST DUP1 ISZERO PUSH2 0x4AC JUMPI DUP1 PUSH1 0x1F LT PUSH2 0x483 JUMPI PUSH2 0x100 DUP1 DUP4 SLOAD DIV MUL DUP4 MSTORE SWAP2 PUSH1 0x20 ADD SWAP2 PUSH2 0x4AC JUMP JUMPDEST DUP3 ADD SWAP2 SWAP1 PUSH0 MSTORE PUSH1 0x20 PUSH0 KECCAK256 SWAP1 JUMPDEST DUP2 SLOAD DUP2 MSTORE SWAP1 PUSH1 0x1 ADD SWAP1 PUSH1 0x20 ADD DUP1 DUP4 GT PUSH2 0x48F JUMPI DUP3 SWAP1 SUB PUSH1 0x1F AND DUP3 ADD SWAP2 JUMPDEST POP POP POP POP POP SWAP1 POP SWAP1 JUMP JUMPDEST PUSH1 0x60 PUSH1 0x40 MLOAD DUP1 PUSH1 0x80 ADD PUSH1 0x40 MSTORE DUP1 PUSH1 0x5F DUP2 MSTORE PUSH1 0x20 ADD PUSH2 0x2907 PUSH1 0x5F SWAP2 CODECOPY SWAP1 POP SWAP1 JUMP JUMPDEST PUSH0 DUP1 PUSH2 0x4E0 PUSH2 0x1091 JUMP JUMPDEST SWAP1 POP PUSH2 0x4ED DUP2 DUP6 DUP6 PUSH2 0x1098 JUMP JUMPDEST PUSH1 0x1 SWAP2 POP POP SWAP3 SWAP2 POP POP JUMP JUMPDEST PUSH0 PUSH1 0x2 SLOAD SWAP1 POP SWAP1 JUMP JUMPDEST PUSH0 DUP1 PUSH2 0x50B PUSH2 0x1091 JUMP JUMPDEST SWAP1 POP PUSH2 0x518 DUP6 DUP3 DUP6 PUSH2 0x125B JUMP JUMPDEST PUSH2 0x523 DUP6 DUP6 DUP6 PUSH2 0x12E6 JUMP JUMPDEST PUSH1 0x1 SWAP2 POP POP SWAP4 SWAP3 POP POP POP JUMP JUMPDEST PUSH0 PUSH1 0x12 SWAP1 POP SWAP1 JUMP JUMPDEST PUSH0 DUP1 PUSH2 0x541 PUSH2 0x1091 JUMP JUMPDEST SWAP1 POP PUSH2 0x562 DUP2 DUP6 DUP6 PUSH2 0x553 DUP6 DUP10 PUSH2 0xEC2 JUMP JUMPDEST PUSH2 0x55D SWAP2 SWAP1 PUSH2 0x1D22 JUMP JUMPDEST PUSH2 0x1098 JUMP JUMPDEST PUSH1 0x1 SWAP2 POP POP SWAP3 SWAP2 POP POP JUMP JUMPDEST PUSH0 PUSH2 0x577 CALLER PUSH2 0x660 JUMP JUMPDEST SWAP1 POP SWAP1 JUMP JUMPDEST PUSH1 0x5 DUP1 SLOAD PUSH2 0x589 SWAP1 PUSH2 0x1CC5 JUMP JUMPDEST DUP1 PUSH1 0x1F ADD PUSH1 0x20 DUP1 SWAP2 DIV MUL PUSH1 0x20 ADD PUSH1 0x40 MLOAD SWAP1 DUP2 ADD PUSH1 0x40 MSTORE DUP1 SWAP3 SWAP2 SWAP1 DUP2 DUP2 MSTORE PUSH1 0x20 ADD DUP3 DUP1 SLOAD PUSH2 0x5B5 SWAP1 PUSH2 0x1CC5 JUMP JUMPDEST DUP1 ISZERO PUSH2 0x600 JUMPI DUP1 PUSH1 0x1F LT PUSH2 0x5D7 JUMPI PUSH2 0x100 DUP1 DUP4 SLOAD DIV MUL DUP4 MSTORE SWAP2 PUSH1 0x20 ADD SWAP2 PUSH2 0x600 JUMP JUMPDEST DUP3 ADD SWAP2 SWAP1 PUSH0 MSTORE PUSH1 0x20 PUSH0 KECCAK256 SWAP1 JUMPDEST DUP2 SLOAD DUP2 MSTORE SWAP1 PUSH1 0x1 ADD SWAP1 PUSH1 0x20 ADD DUP1 DUP4 GT PUSH2 0x5E3 JUMPI DUP3 SWAP1 SUB PUSH1 0x1F AND DUP3 ADD SWAP2 JUMPDEST POP POP POP POP POP DUP2 JUMP JUMPDEST DUP1 PUSH2 0x612 CALLER PUSH2 0x660 JUMP JUMPDEST LT ISZERO PUSH2 0x653 JUMPI PUSH1 0x40 MLOAD PUSH32 0x8C379A000000000000000000000000000000000000000000000000000000000 DUP2 MSTORE PUSH1 0x4 ADD PUSH2 0x64A SWAP1 PUSH2 0x1D9F JUMP JUMPDEST PUSH1 0x40 MLOAD DUP1 SWAP2 SUB SWAP1 REVERT JUMPDEST PUSH2 0x65D CALLER DUP3 PUSH2 0x1552 JUMP JUMPDEST POP JUMP JUMPDEST PUSH0 DUP1 PUSH0 DUP4 PUSH20 0xFFFFFFFFFFFFFFFFFFFFFFFFFFFFFFFFFFFFFFFF AND PUSH20 0xFFFFFFFFFFFFFFFFFFFFFFFFFFFFFFFFFFFFFFFF AND DUP2 MSTORE PUSH1 0x20 ADD SWAP1 DUP2 MSTORE PUSH1 0x20 ADD PUSH0 KECCAK256 SLOAD SWAP1 POP SWAP2 SWAP1 POP JUMP JUMPDEST PUSH1 0x6 DUP1 SLOAD PUSH2 0x6B2 SWAP1 PUSH2 0x1CC5 JUMP JUMPDEST DUP1 PUSH1 0x1F ADD PUSH1 0x20 DUP1 SWAP2 DIV MUL PUSH1 0x20 ADD PUSH1 0x40 MLOAD SWAP1 DUP2 ADD PUSH1 0x40 MSTORE DUP1 SWAP3 SWAP2 SWAP1 DUP2 DUP2 MSTORE PUSH1 0x20 ADD DUP3 DUP1 SLOAD PUSH2 0x6DE SWAP1 PUSH2 0x1CC5 JUMP JUMPDEST DUP1 ISZERO PUSH2 0x729 JUMPI DUP1 PUSH1 0x1F LT PUSH2 0x700 JUMPI PUSH2 0x100 DUP1 DUP4 SLOAD DIV MUL DUP4 MSTORE SWAP2 PUSH1 0x20 ADD SWAP2 PUSH2 0x729 JUMP JUMPDEST DUP3 ADD SWAP2 SWAP1 PUSH0 MSTORE PUSH1 0x20 PUSH0 KECCAK256 SWAP1 JUMPDEST DUP2 SLOAD DUP2 MSTORE SWAP1 PUSH1 0x1 ADD SWAP1 PUSH1 0x20 ADD DUP1 DUP4 GT PUSH2 0x70C JUMPI DUP3 SWAP1 SUB PUSH1 0x1F AND DUP3 ADD SWAP2 JUMPDEST POP POP POP POP POP DUP2 JUMP JUMPDEST PUSH1 0x60 PUSH0 DUP1 PUSH1 0x7 PUSH0 CALLER PUSH20 0xFFFFFFFFFFFFFFFFFFFFFFFFFFFFFFFFFFFFFFFF AND PUSH20 0xFFFFFFFFFFFFFFFFFFFFFFFFFFFFFFFFFFFFFFFF AND DUP2 MSTORE PUSH1 0x20 ADD SWAP1 DUP2 MSTORE PUSH1 0x20 ADD PUSH0 KECCAK256 DUP1 SLOAD SWAP1 POP SWAP1 POP PUSH0 DUP2 GT PUSH2 0x7BA JUMPI PUSH1 0x40 MLOAD PUSH32 0x8C379A000000000000000000000000000000000000000000000000000000000 DUP2 MSTORE PUSH1 0x4 ADD PUSH2 0x7B1 SWAP1 PUSH2 0x1E2D JUMP JUMPDEST PUSH1 0x40 MLOAD DUP1 SWAP2 SUB SWAP1 REVERT JUMPDEST PUSH1 0x7 PUSH0 CALLER PUSH20 0xFFFFFFFFFFFFFFFFFFFFFFFFFFFFFFFFFFFFFFFF AND PUSH20 0xFFFFFFFFFFFFFFFFFFFFFFFFFFFFFFFFFFFFFFFF AND DUP2 MSTORE PUSH1 0x20 ADD SWAP1 DUP2 MSTORE PUSH1 0x20 ADD PUSH0 KECCAK256 DUP2 DUP2 DUP1 SLOAD DUP1 PUSH1 0x20 MUL PUSH1 0x20 ADD PUSH1 0x40 MLOAD SWAP1 DUP2 ADD PUSH1 0x40 MSTORE DUP1 SWAP3 SWAP2 SWAP1 DUP2 DUP2 MSTORE PUSH1 0x20 ADD PUSH0 SWAP1 JUMPDEST DUP3 DUP3 LT ISZERO PUSH2 0x8C0 JUMPI DUP4 DUP3 SWAP1 PUSH0 MSTORE PUSH1 0x20 PUSH0 KECCAK256 ADD DUP1 SLOAD PUSH2 0x835 SWAP1 PUSH2 0x1CC5 JUMP JUMPDEST DUP1 PUSH1 0x1F ADD PUSH1 0x20 DUP1 SWAP2 DIV MUL PUSH1 0x20 ADD PUSH1 0x40 MLOAD SWAP1 DUP2 ADD PUSH1 0x40 MSTORE DUP1 SWAP3 SWAP2 SWAP1 DUP2 DUP2 MSTORE PUSH1 0x20 ADD DUP3 DUP1 SLOAD PUSH2 0x861 SWAP1 PUSH2 0x1CC5 JUMP JUMPDEST DUP1 ISZERO PUSH2 0x8AC JUMPI DUP1 PUSH1 0x1F LT PUSH2 0x883 JUMPI PUSH2 0x100 DUP1 DUP4 SLOAD DIV MUL DUP4 MSTORE SWAP2 PUSH1 0x20 ADD SWAP2 PUSH2 0x8AC JUMP JUMPDEST DUP3 ADD SWAP2 SWAP1 PUSH0 MSTORE PUSH1 0x20 PUSH0 KECCAK256 SWAP1 JUMPDEST DUP2 SLOAD DUP2 MSTORE SWAP1 PUSH1 0x1 ADD SWAP1 PUSH1 0x20 ADD DUP1 DUP4 GT PUSH2 0x88F JUMPI DUP3 SWAP1 SUB PUSH1 0x1F AND DUP3 ADD SWAP2 JUMPDEST POP POP POP POP POP DUP2 MSTORE PUSH1 0x20 ADD SWAP1 PUSH1 0x1 ADD SWAP1 PUSH2 0x818 JUMP JUMPDEST POP POP POP POP SWAP2 POP SWAP3 POP SWAP3 POP POP SWAP1 SWAP2 JUMP JUMPDEST PUSH1 0x8 PUSH0 SWAP1 SLOAD SWAP1 PUSH2 0x100 EXP SWAP1 DIV PUSH20 0xFFFFFFFFFFFFFFFFFFFFFFFFFFFFFFFFFFFFFFFF AND DUP2 JUMP JUMPDEST PUSH1 0x60 PUSH1 0x4 DUP1 SLOAD PUSH2 0x903 SWAP1 PUSH2 0x1CC5 JUMP JUMPDEST DUP1 PUSH1 0x1F ADD PUSH1 0x20 DUP1 SWAP2 DIV MUL PUSH1 0x20 ADD PUSH1 0x40 MLOAD SWAP1 DUP2 ADD PUSH1 0x40 MSTORE DUP1 SWAP3 SWAP2 SWAP1 DUP2 DUP2 MSTORE PUSH1 0x20 ADD DUP3 DUP1 SLOAD PUSH2 0x92F SWAP1 PUSH2 0x1CC5 JUMP JUMPDEST DUP1 ISZERO PUSH2 0x97A JUMPI DUP1 PUSH1 0x1F LT PUSH2 0x951 JUMPI PUSH2 0x100 DUP1 DUP4 SLOAD DIV MUL DUP4 MSTORE SWAP2 PUSH1 0x20 ADD SWAP2 PUSH2 0x97A JUMP JUMPDEST DUP3 ADD SWAP2 SWAP1 PUSH0 MSTORE PUSH1 0x20 PUSH0 KECCAK256 SWAP1 JUMPDEST DUP2 SLOAD DUP2 MSTORE SWAP1 PUSH1 0x1 ADD SWAP1 PUSH1 0x20 ADD DUP1 DUP4 GT PUSH2 0x95D JUMPI DUP3 SWAP1 SUB PUSH1 0x1F AND DUP3 ADD SWAP2 JUMPDEST POP POP POP POP POP SWAP1 POP SWAP1 JUMP JUMPDEST PUSH0 DUP1 PUSH2 0x98E PUSH2 0x1091 JUMP JUMPDEST SWAP1 POP PUSH0 PUSH2 0x99B DUP3 DUP7 PUSH2 0xEC2 JUMP JUMPDEST SWAP1 POP DUP4 DUP2 LT ISZERO PUSH2 0x9E0 JUMPI PUSH1 0x40 MLOAD PUSH32 0x8C379A000000000000000000000000000000000000000000000000000000000 DUP2 MSTORE PUSH1 0x4 ADD PUSH2 0x9D7 SWAP1 PUSH2 0x1EBB JUMP JUMPDEST PUSH1 0x40 MLOAD DUP1 SWAP2 SUB SWAP1 REVERT JUMPDEST PUSH2 0x9ED DUP3 DUP7 DUP7 DUP5 SUB PUSH2 0x1098 JUMP JUMPDEST PUSH1 0x1 SWAP3 POP POP POP SWAP3 SWAP2 POP POP JUMP JUMPDEST PUSH1 0x4 DUP2 GT ISZERO PUSH2 0xA3D JUMPI PUSH1 0x40 MLOAD PUSH32 0x8C379A000000000000000000000000000000000000000000000000000000000 DUP2 MSTORE PUSH1 0x4 ADD PUSH2 0xA34 SWAP1 PUSH2 0x1F23 JUMP JUMPDEST PUSH1 0x40 MLOAD DUP1 SWAP2 SUB SWAP1 REVERT JUMPDEST PUSH1 0x1 DUP2 SUB PUSH2 0xB42 JUMPI PUSH2 0x320 PUSH2 0xA51 CALLER PUSH2 0x660 JUMP JUMPDEST LT ISZERO PUSH2 0xA92 JUMPI PUSH1 0x40 MLOAD PUSH32 0x8C379A000000000000000000000000000000000000000000000000000000000 DUP2 MSTORE PUSH1 0x4 ADD PUSH2 0xA89 SWAP1 PUSH2 0x1F8B JUMP JUMPDEST PUSH1 0x40 MLOAD DUP1 SWAP2 SUB SWAP1 REVERT JUMPDEST PUSH2 0xA9E CALLER PUSH2 0x320 PUSH2 0x1552 JUMP JUMPDEST PUSH1 0x7 PUSH0 CALLER PUSH20 0xFFFFFFFFFFFFFFFFFFFFFFFFFFFFFFFFFFFFFFFF AND PUSH20 0xFFFFFFFFFFFFFFFFFFFFFFFFFFFFFFFFFFFFFFFF AND DUP2 MSTORE PUSH1 0x20 ADD SWAP1 DUP2 MSTORE PUSH1 0x20 ADD PUSH0 KECCAK256 DUP1 PUSH1 0x1 DUP2 SLOAD ADD DUP1 DUP3 SSTORE DUP1 SWAP2 POP POP PUSH1 0x1 SWAP1 SUB SWAP1 PUSH0 MSTORE PUSH1 0x20 PUSH0 KECCAK256 ADD PUSH0 PUSH1 0x40 MLOAD DUP1 PUSH1 0x40 ADD PUSH1 0x40 MSTORE DUP1 PUSH1 0x9 DUP2 MSTORE PUSH1 0x20 ADD PUSH32 0x4D34313620534B494E0000000000000000000000000000000000000000000000 DUP2 MSTORE POP SWAP1 SWAP2 SWAP1 SWAP2 POP SWAP1 DUP2 PUSH2 0xB3C SWAP2 SWAP1 PUSH2 0x2173 JUMP JUMPDEST POP PUSH2 0xE43 JUMP JUMPDEST PUSH1 0x2 DUP2 SUB PUSH2 0xC47 JUMPI PUSH2 0x258 PUSH2 0xB56 CALLER PUSH2 0x660 JUMP JUMPDEST LT ISZERO PUSH2 0xB97 JUMPI PUSH1 0x40 MLOAD PUSH32 0x8C379A000000000000000000000000000000000000000000000000000000000 DUP2 MSTORE PUSH1 0x4 ADD PUSH2 0xB8E SWAP1 PUSH2 0x1F8B JUMP JUMPDEST PUSH1 0x40 MLOAD DUP1 SWAP2 SUB SWAP1 REVERT JUMPDEST PUSH2 0xBA3 CALLER PUSH2 0x258 PUSH2 0x1552 JUMP JUMPDEST PUSH1 0x7 PUSH0 CALLER PUSH20 0xFFFFFFFFFFFFFFFFFFFFFFFFFFFFFFFFFFFFFFFF AND PUSH20 0xFFFFFFFFFFFFFFFFFFFFFFFFFFFFFFFFFFFFFFFF AND DUP2 MSTORE PUSH1 0x20 ADD SWAP1 DUP2 MSTORE PUSH1 0x20 ADD PUSH0 KECCAK256 DUP1 PUSH1 0x1 DUP2 SLOAD ADD DUP1 DUP3 SSTORE DUP1 SWAP2 POP POP PUSH1 0x1 SWAP1 SUB SWAP1 PUSH0 MSTORE PUSH1 0x20 PUSH0 KECCAK256 ADD PUSH0 PUSH1 0x40 MLOAD DUP1 PUSH1 0x40 ADD PUSH1 0x40 MSTORE DUP1 PUSH1 0x8 DUP2 MSTORE PUSH1 0x20 ADD PUSH32 0x414B4D20534B494E000000000000000000000000000000000000000000000000 DUP2 MSTORE POP SWAP1 SWAP2 SWAP1 SWAP2 POP SWAP1 DUP2 PUSH2 0xC41 SWAP2 SWAP1 PUSH2 0x2173 JUMP JUMPDEST POP PUSH2 0xE42 JUMP JUMPDEST PUSH1 0x3 DUP2 SUB PUSH2 0xD4A JUMPI PUSH1 0xFA PUSH2 0xC5A CALLER PUSH2 0x660 JUMP JUMPDEST LT ISZERO PUSH2 0xC9B JUMPI PUSH1 0x40 MLOAD PUSH32 0x8C379A000000000000000000000000000000000000000000000000000000000 DUP2 MSTORE PUSH1 0x4 ADD PUSH2 0xC92 SWAP1 PUSH2 0x1F8B JUMP JUMPDEST PUSH1 0x40 MLOAD DUP1 SWAP2 SUB SWAP1 REVERT JUMPDEST PUSH2 0xCA6 CALLER PUSH1 0xFA PUSH2 0x1552 JUMP JUMPDEST PUSH1 0x7 PUSH0 CALLER PUSH20 0xFFFFFFFFFFFFFFFFFFFFFFFFFFFFFFFFFFFFFFFF AND PUSH20 0xFFFFFFFFFFFFFFFFFFFFFFFFFFFFFFFFFFFFFFFF AND DUP2 MSTORE PUSH1 0x20 ADD SWAP1 DUP2 MSTORE PUSH1 0x20 ADD PUSH0 KECCAK256 DUP1 PUSH1 0x1 DUP2 SLOAD ADD DUP1 DUP3 SSTORE DUP1 SWAP2 POP POP PUSH1 0x1 SWAP1 SUB SWAP1 PUSH0 MSTORE PUSH1 0x20 PUSH0 KECCAK256 ADD PUSH0 PUSH1 0x40 MLOAD DUP1 PUSH1 0x40 ADD PUSH1 0x40 MSTORE DUP1 PUSH1 0xA DUP2 MSTORE PUSH1 0x20 ADD PUSH32 0x554D50343520534B494E00000000000000000000000000000000000000000000 DUP2 MSTORE POP SWAP1 SWAP2 SWAP1 SWAP2 POP SWAP1 DUP2 PUSH2 0xD44 SWAP2 SWAP1 PUSH2 0x2173 JUMP JUMPDEST POP PUSH2 0xE41 JUMP JUMPDEST PUSH1 0xAF PUSH2 0xD55 CALLER PUSH2 0x660 JUMP JUMPDEST LT ISZERO PUSH2 0xD96 JUMPI PUSH1 0x40 MLOAD PUSH32 0x8C379A000000000000000000000000000000000000000000000000000000000 DUP2 MSTORE PUSH1 0x4 ADD PUSH2 0xD8D SWAP1 PUSH2 0x1F8B JUMP JUMPDEST PUSH1 0x40 MLOAD DUP1 SWAP2 SUB SWAP1 REVERT JUMPDEST PUSH2 0xDA1 CALLER PUSH1 0xAF PUSH2 0x1552 JUMP JUMPDEST PUSH1 0x7 PUSH0 CALLER PUSH20 0xFFFFFFFFFFFFFFFFFFFFFFFFFFFFFFFFFFFFFFFF AND PUSH20 0xFFFFFFFFFFFFFFFFFFFFFFFFFFFFFFFFFFFFFFFF AND DUP2 MSTORE PUSH1 0x20 ADD SWAP1 DUP2 MSTORE PUSH1 0x20 ADD PUSH0 KECCAK256 DUP1 PUSH1 0x1 DUP2 SLOAD ADD DUP1 DUP3 SSTORE DUP1 SWAP2 POP POP PUSH1 0x1 SWAP1 SUB SWAP1 PUSH0 MSTORE PUSH1 0x20 PUSH0 KECCAK256 ADD PUSH0 PUSH1 0x40 MLOAD DUP1 PUSH1 0x40 ADD PUSH1 0x40 MSTORE DUP1 PUSH1 0xD DUP2 MSTORE PUSH1 0x20 ADD PUSH32 0x4D5954484943204F555446495400000000000000000000000000000000000000 DUP2 MSTORE POP SWAP1 SWAP2 SWAP1 SWAP2 POP SWAP1 DUP2 PUSH2 0xE3F SWAP2 SWAP1 PUSH2 0x2173 JUMP JUMPDEST POP JUMPDEST JUMPDEST JUMPDEST POP JUMP JUMPDEST PUSH0 DUP1 PUSH2 0xE50 PUSH2 0x1091 JUMP JUMPDEST SWAP1 POP PUSH2 0xE5D DUP2 DUP6 DUP6 PUSH2 0x12E6 JUMP JUMPDEST PUSH1 0x1 SWAP2 POP POP SWAP3 SWAP2 POP POP JUMP JUMPDEST DUP1 PUSH2 0xE72 CALLER PUSH2 0x660 JUMP JUMPDEST LT ISZERO PUSH2 0xEB3 JUMPI PUSH1 0x40 MLOAD PUSH32 0x8C379A000000000000000000000000000000000000000000000000000000000 DUP2 MSTORE PUSH1 0x4 ADD PUSH2 0xEAA SWAP1 PUSH2 0x22B2 JUMP JUMPDEST PUSH1 0x40 MLOAD DUP1 SWAP2 SUB SWAP1 REVERT JUMPDEST PUSH2 0xEBD DUP3 DUP3 PUSH2 0xE46 JUMP JUMPDEST POP POP POP JUMP JUMPDEST PUSH0 PUSH1 0x1 PUSH0 DUP5 PUSH20 0xFFFFFFFFFFFFFFFFFFFFFFFFFFFFFFFFFFFFFFFF AND PUSH20 0xFFFFFFFFFFFFFFFFFFFFFFFFFFFFFFFFFFFFFFFF AND DUP2 MSTORE PUSH1 0x20 ADD SWAP1 DUP2 MSTORE PUSH1 0x20 ADD PUSH0 KECCAK256 PUSH0 DUP4 PUSH20 0xFFFFFFFFFFFFFFFFFFFFFFFFFFFFFFFFFFFFFFFF AND PUSH20 0xFFFFFFFFFFFFFFFFFFFFFFFFFFFFFFFFFFFFFFFF AND DUP2 MSTORE PUSH1 0x20 ADD SWAP1 DUP2 MSTORE PUSH1 0x20 ADD PUSH0 KECCAK256 SLOAD SWAP1 POP SWAP3 SWAP2 POP POP JUMP JUMPDEST PUSH1 0x8 PUSH0 SWAP1 SLOAD SWAP1 PUSH2 0x100 EXP SWAP1 DIV PUSH20 0xFFFFFFFFFFFFFFFFFFFFFFFFFFFFFFFFFFFFFFFF AND PUSH20 0xFFFFFFFFFFFFFFFFFFFFFFFFFFFFFFFFFFFFFFFF AND CALLER PUSH20 0xFFFFFFFFFFFFFFFFFFFFFFFFFFFFFFFFFFFFFFFF AND EQ PUSH2 0xFD3 JUMPI PUSH1 0x40 MLOAD PUSH32 0x8C379A000000000000000000000000000000000000000000000000000000000 DUP2 MSTORE PUSH1 0x4 ADD PUSH2 0xFCA SWAP1 PUSH2 0x2340 JUMP JUMPDEST PUSH1 0x40 MLOAD DUP1 SWAP2 SUB SWAP1 REVERT JUMPDEST PUSH0 PUSH20 0xFFFFFFFFFFFFFFFFFFFFFFFFFFFFFFFFFFFFFFFF AND DUP3 PUSH20 0xFFFFFFFFFFFFFFFFFFFFFFFFFFFFFFFFFFFFFFFF AND SUB PUSH2 0x1041 JUMPI PUSH1 0x40 MLOAD PUSH32 0x8C379A000000000000000000000000000000000000000000000000000000000 DUP2 MSTORE PUSH1 0x4 ADD PUSH2 0x1038 SWAP1 PUSH2 0x23A8 JUMP JUMPDEST PUSH1 0x40 MLOAD DUP1 SWAP2 SUB SWAP1 REVERT JUMPDEST PUSH0 DUP2 GT PUSH2 0x1083 JUMPI PUSH1 0x40 MLOAD PUSH32 0x8C379A000000000000000000000000000000000000000000000000000000000 DUP2 MSTORE PUSH1 0x4 ADD PUSH2 0x107A SWAP1 PUSH2 0x2436 JUMP JUMPDEST PUSH1 0x40 MLOAD DUP1 SWAP2 SUB SWAP1 REVERT JUMPDEST PUSH2 0x108D DUP3 DUP3 PUSH2 0x1715 JUMP JUMPDEST POP POP JUMP JUMPDEST PUSH0 CALLER SWAP1 POP SWAP1 JUMP JUMPDEST PUSH0 PUSH20 0xFFFFFFFFFFFFFFFFFFFFFFFFFFFFFFFFFFFFFFFF AND DUP4 PUSH20 0xFFFFFFFFFFFFFFFFFFFFFFFFFFFFFFFFFFFFFFFF AND SUB PUSH2 0x1106 JUMPI PUSH1 0x40 MLOAD PUSH32 0x8C379A000000000000000000000000000000000000000000000000000000000 DUP2 MSTORE PUSH1 0x4 ADD PUSH2 0x10FD SWAP1 PUSH2 0x24C4 JUMP JUMPDEST PUSH1 0x40 MLOAD DUP1 SWAP2 SUB SWAP1 REVERT JUMPDEST PUSH0 PUSH20 0xFFFFFFFFFFFFFFFFFFFFFFFFFFFFFFFFFFFFFFFF AND DUP3 PUSH20 0xFFFFFFFFFFFFFFFFFFFFFFFFFFFFFFFFFFFFFFFF AND SUB PUSH2 0x1174 JUMPI PUSH1 0x40 MLOAD PUSH32 0x8C379A000000000000000000000000000000000000000000000000000000000 DUP2 MSTORE PUSH1 0x4 ADD PUSH2 0x116B SWAP1 PUSH2 0x2552 JUMP JUMPDEST PUSH1 0x40 MLOAD DUP1 SWAP2 SUB SWAP1 REVERT JUMPDEST DUP1 PUSH1 0x1 PUSH0 DUP6 PUSH20 0xFFFFFFFFFFFFFFFFFFFFFFFFFFFFFFFFFFFFFFFF AND PUSH20 0xFFFFFFFFFFFFFFFFFFFFFFFFFFFFFFFFFFFFFFFF AND DUP2 MSTORE PUSH1 0x20 ADD SWAP1 DUP2 MSTORE PUSH1 0x20 ADD PUSH0 KECCAK256 PUSH0 DUP5 PUSH20 0xFFFFFFFFFFFFFFFFFFFFFFFFFFFFFFFFFFFFFFFF AND PUSH20 0xFFFFFFFFFFFFFFFFFFFFFFFFFFFFFFFFFFFFFFFF AND DUP2 MSTORE PUSH1 0x20 ADD SWAP1 DUP2 MSTORE PUSH1 0x20 ADD PUSH0 KECCAK256 DUP2 SWAP1 SSTORE POP DUP2 PUSH20 0xFFFFFFFFFFFFFFFFFFFFFFFFFFFFFFFFFFFFFFFF AND DUP4 PUSH20 0xFFFFFFFFFFFFFFFFFFFFFFFFFFFFFFFFFFFFFFFF AND PUSH32 0x8C5BE1E5EBEC7D5BD14F71427D1E84F3DD0314C0F7B2291E5B200AC8C7C3B925 DUP4 PUSH1 0x40 MLOAD PUSH2 0x124E SWAP2 SWAP1 PUSH2 0x1A0E JUMP JUMPDEST PUSH1 0x40 MLOAD DUP1 SWAP2 SUB SWAP1 LOG3 POP POP POP JUMP JUMPDEST PUSH0 PUSH2 0x1266 DUP5 DUP5 PUSH2 0xEC2 JUMP JUMPDEST SWAP1 POP PUSH32 0xFFFFFFFFFFFFFFFFFFFFFFFFFFFFFFFFFFFFFFFFFFFFFFFFFFFFFFFFFFFFFFFF DUP2 EQ PUSH2 0x12E0 JUMPI DUP2 DUP2 LT ISZERO PUSH2 0x12D2 JUMPI PUSH1 0x40 MLOAD PUSH32 0x8C379A000000000000000000000000000000000000000000000000000000000 DUP2 MSTORE PUSH1 0x4 ADD PUSH2 0x12C9 SWAP1 PUSH2 0x25BA JUMP JUMPDEST PUSH1 0x40 MLOAD DUP1 SWAP2 SUB SWAP1 REVERT JUMPDEST PUSH2 0x12DF DUP5 DUP5 DUP5 DUP5 SUB PUSH2 0x1098 JUMP JUMPDEST JUMPDEST POP POP POP POP JUMP JUMPDEST PUSH0 PUSH20 0xFFFFFFFFFFFFFFFFFFFFFFFFFFFFFFFFFFFFFFFF AND DUP4 PUSH20 0xFFFFFFFFFFFFFFFFFFFFFFFFFFFFFFFFFFFFFFFF AND SUB PUSH2 0x1354 JUMPI PUSH1 0x40 MLOAD PUSH32 0x8C379A000000000000000000000000000000000000000000000000000000000 DUP2 MSTORE PUSH1 0x4 ADD PUSH2 0x134B SWAP1 PUSH2 0x2648 JUMP JUMPDEST PUSH1 0x40 MLOAD DUP1 SWAP2 SUB SWAP1 REVERT JUMPDEST PUSH0 PUSH20 0xFFFFFFFFFFFFFFFFFFFFFFFFFFFFFFFFFFFFFFFF AND DUP3 PUSH20 0xFFFFFFFFFFFFFFFFFFFFFFFFFFFFFFFFFFFFFFFF AND SUB PUSH2 0x13C2 JUMPI PUSH1 0x40 MLOAD PUSH32 0x8C379A000000000000000000000000000000000000000000000000000000000 DUP2 MSTORE PUSH1 0x4 ADD PUSH2 0x13B9 SWAP1 PUSH2 0x26D6 JUMP JUMPDEST PUSH1 0x40 MLOAD DUP1 SWAP2 SUB SWAP1 REVERT JUMPDEST PUSH2 0x13CD DUP4 DUP4 DUP4 PUSH2 0x1863 JUMP JUMPDEST PUSH0 DUP1 PUSH0 DUP6 PUSH20 0xFFFFFFFFFFFFFFFFFFFFFFFFFFFFFFFFFFFFFFFF AND PUSH20 0xFFFFFFFFFFFFFFFFFFFFFFFFFFFFFFFFFFFFFFFF AND DUP2 MSTORE PUSH1 0x20 ADD SWAP1 DUP2 MSTORE PUSH1 0x20 ADD PUSH0 KECCAK256 SLOAD SWAP1 POP DUP2 DUP2 LT ISZERO PUSH2 0x1450 JUMPI PUSH1 0x40 MLOAD PUSH32 0x8C379A000000000000000000000000000000000000000000000000000000000 DUP2 MSTORE PUSH1 0x4 ADD PUSH2 0x1447 SWAP1 PUSH2 0x2764 JUMP JUMPDEST PUSH1 0x40 MLOAD DUP1 SWAP2 SUB SWAP1 REVERT JUMPDEST DUP2 DUP2 SUB PUSH0 DUP1 DUP7 PUSH20 0xFFFFFFFFFFFFFFFFFFFFFFFFFFFFFFFFFFFFFFFF AND PUSH20 0xFFFFFFFFFFFFFFFFFFFFFFFFFFFFFFFFFFFFFFFF AND DUP2 MSTORE PUSH1 0x20 ADD SWAP1 DUP2 MSTORE PUSH1 0x20 ADD PUSH0 KECCAK256 DUP2 SWAP1 SSTORE POP DUP2 PUSH0 DUP1 DUP6 PUSH20 0xFFFFFFFFFFFFFFFFFFFFFFFFFFFFFFFFFFFFFFFF AND PUSH20 0xFFFFFFFFFFFFFFFFFFFFFFFFFFFFFFFFFFFFFFFF AND DUP2 MSTORE PUSH1 0x20 ADD SWAP1 DUP2 MSTORE PUSH1 0x20 ADD PUSH0 KECCAK256 PUSH0 DUP3 DUP3 SLOAD ADD SWAP3 POP POP DUP2 SWAP1 SSTORE POP DUP3 PUSH20 0xFFFFFFFFFFFFFFFFFFFFFFFFFFFFFFFFFFFFFFFF AND DUP5 PUSH20 0xFFFFFFFFFFFFFFFFFFFFFFFFFFFFFFFFFFFFFFFF AND PUSH32 0xDDF252AD1BE2C89B69C2B068FC378DAA952BA7F163C4A11628F55A4DF523B3EF DUP5 PUSH1 0x40 MLOAD PUSH2 0x1539 SWAP2 SWAP1 PUSH2 0x1A0E JUMP JUMPDEST PUSH1 0x40 MLOAD DUP1 SWAP2 SUB SWAP1 LOG3 PUSH2 0x154C DUP5 DUP5 DUP5 PUSH2 0x1868 JUMP JUMPDEST POP POP POP POP JUMP JUMPDEST PUSH0 PUSH20 0xFFFFFFFFFFFFFFFFFFFFFFFFFFFFFFFFFFFFFFFF AND DUP3 PUSH20 0xFFFFFFFFFFFFFFFFFFFFFFFFFFFFFFFFFFFFFFFF AND SUB PUSH2 0x15C0 JUMPI PUSH1 0x40 MLOAD PUSH32 0x8C379A000000000000000000000000000000000000000000000000000000000 DUP2 MSTORE PUSH1 0x4 ADD PUSH2 0x15B7 SWAP1 PUSH2 0x27F2 JUMP JUMPDEST PUSH1 0x40 MLOAD DUP1 SWAP2 SUB SWAP1 REVERT JUMPDEST PUSH2 0x15CB DUP3 PUSH0 DUP4 PUSH2 0x1863 JUMP JUMPDEST PUSH0 DUP1 PUSH0 DUP5 PUSH20 0xFFFFFFFFFFFFFFFFFFFFFFFFFFFFFFFFFFFFFFFF AND PUSH20 0xFFFFFFFFFFFFFFFFFFFFFFFFFFFFFFFFFFFFFFFF AND DUP2 MSTORE PUSH1 0x20 ADD SWAP1 DUP2 MSTORE PUSH1 0x20 ADD PUSH0 KECCAK256 SLOAD SWAP1 POP DUP2 DUP2 LT ISZERO PUSH2 0x164E JUMPI PUSH1 0x40 MLOAD PUSH32 0x8C379A000000000000000000000000000000000000000000000000000000000 DUP2 MSTORE PUSH1 0x4 ADD PUSH2 0x1645 SWAP1 PUSH2 0x2880 JUMP JUMPDEST PUSH1 0x40 MLOAD DUP1 SWAP2 SUB SWAP1 REVERT JUMPDEST DUP2 DUP2 SUB PUSH0 DUP1 DUP6 PUSH20 0xFFFFFFFFFFFFFFFFFFFFFFFFFFFFFFFFFFFFFFFF AND PUSH20 0xFFFFFFFFFFFFFFFFFFFFFFFFFFFFFFFFFFFFFFFF AND DUP2 MSTORE PUSH1 0x20 ADD SWAP1 DUP2 MSTORE PUSH1 0x20 ADD PUSH0 KECCAK256 DUP2 SWAP1 SSTORE POP DUP2 PUSH1 0x2 PUSH0 DUP3 DUP3 SLOAD SUB SWAP3 POP POP DUP2 SWAP1 SSTORE POP PUSH0 PUSH20 0xFFFFFFFFFFFFFFFFFFFFFFFFFFFFFFFFFFFFFFFF AND DUP4 PUSH20 0xFFFFFFFFFFFFFFFFFFFFFFFFFFFFFFFFFFFFFFFF AND PUSH32 0xDDF252AD1BE2C89B69C2B068FC378DAA952BA7F163C4A11628F55A4DF523B3EF DUP5 PUSH1 0x40 MLOAD PUSH2 0x16FD SWAP2 SWAP1 PUSH2 0x1A0E JUMP JUMPDEST PUSH1 0x40 MLOAD DUP1 SWAP2 SUB SWAP1 LOG3 PUSH2 0x1710 DUP4 PUSH0 DUP5 PUSH2 0x1868 JUMP JUMPDEST POP POP POP JUMP JUMPDEST PUSH0 PUSH20 0xFFFFFFFFFFFFFFFFFFFFFFFFFFFFFFFFFFFFFFFF AND DUP3 PUSH20 0xFFFFFFFFFFFFFFFFFFFFFFFFFFFFFFFFFFFFFFFF AND SUB PUSH2 0x1783 JUMPI PUSH1 0x40 MLOAD PUSH32 0x8C379A000000000000000000000000000000000000000000000000000000000 DUP2 MSTORE PUSH1 0x4 ADD PUSH2 0x177A SWAP1 PUSH2 0x28E8 JUMP JUMPDEST PUSH1 0x40 MLOAD DUP1 SWAP2 SUB SWAP1 REVERT JUMPDEST PUSH2 0x178E PUSH0 DUP4 DUP4 PUSH2 0x1863 JUMP JUMPDEST DUP1 PUSH1 0x2 PUSH0 DUP3 DUP3 SLOAD PUSH2 0x179F SWAP2 SWAP1 PUSH2 0x1D22 JUMP JUMPDEST SWAP3 POP POP DUP2 SWAP1 SSTORE POP DUP1 PUSH0 DUP1 DUP5 PUSH20 0xFFFFFFFFFFFFFFFFFFFFFFFFFFFFFFFFFFFFFFFF AND PUSH20 0xFFFFFFFFFFFFFFFFFFFFFFFFFFFFFFFFFFFFFFFF AND DUP2 MSTORE PUSH1 0x20 ADD SWAP1 DUP2 MSTORE PUSH1 0x20 ADD PUSH0 KECCAK256 PUSH0 DUP3 DUP3 SLOAD ADD SWAP3 POP POP DUP2 SWAP1 SSTORE POP DUP2 PUSH20 0xFFFFFFFFFFFFFFFFFFFFFFFFFFFFFFFFFFFFFFFF AND PUSH0 PUSH20 0xFFFFFFFFFFFFFFFFFFFFFFFFFFFFFFFFFFFFFFFF AND PUSH32 0xDDF252AD1BE2C89B69C2B068FC378DAA952BA7F163C4A11628F55A4DF523B3EF DUP4 PUSH1 0x40 MLOAD PUSH2 0x184C SWAP2 SWAP1 PUSH2 0x1A0E JUMP JUMPDEST PUSH1 0x40 MLOAD DUP1 SWAP2 SUB SWAP1 LOG3 PUSH2 0x185F PUSH0 DUP4 DUP4 PUSH2 0x1868 JUMP JUMPDEST POP POP JUMP JUMPDEST POP POP POP JUMP JUMPDEST POP POP POP JUMP JUMPDEST PUSH0 DUP2 MLOAD SWAP1 POP SWAP2 SWAP1 POP JUMP JUMPDEST PUSH0 DUP3 DUP3 MSTORE PUSH1 0x20 DUP3 ADD SWAP1 POP SWAP3 SWAP2 POP POP JUMP JUMPDEST DUP3 DUP2 DUP4 MCOPY PUSH0 DUP4 DUP4 ADD MSTORE POP POP POP JUMP JUMPDEST PUSH0 PUSH1 0x1F NOT PUSH1 0x1F DUP4 ADD AND SWAP1 POP SWAP2 SWAP1 POP JUMP JUMPDEST PUSH0 PUSH2 0x18AF DUP3 PUSH2 0x186D JUMP JUMPDEST PUSH2 0x18B9 DUP2 DUP6 PUSH2 0x1877 JUMP JUMPDEST SWAP4 POP PUSH2 0x18C9 DUP2 DUP6 PUSH1 0x20 DUP7 ADD PUSH2 0x1887 JUMP JUMPDEST PUSH2 0x18D2 DUP2 PUSH2 0x1895 JUMP JUMPDEST DUP5 ADD SWAP2 POP POP SWAP3 SWAP2 POP POP JUMP JUMPDEST PUSH0 PUSH1 0x20 DUP3 ADD SWAP1 POP DUP2 DUP2 SUB PUSH0 DUP4 ADD MSTORE PUSH2 0x18F5 DUP2 DUP5 PUSH2 0x18A5 JUMP JUMPDEST SWAP1 POP SWAP3 SWAP2 POP POP JUMP JUMPDEST PUSH0 DUP1 REVERT JUMPDEST PUSH0 PUSH20 0xFFFFFFFFFFFFFFFFFFFFFFFFFFFFFFFFFFFFFFFF DUP3 AND SWAP1 POP SWAP2 SWAP1 POP JUMP JUMPDEST PUSH0 PUSH2 0x192A DUP3 PUSH2 0x1901 JUMP JUMPDEST SWAP1 POP SWAP2 SWAP1 POP JUMP JUMPDEST PUSH2 0x193A DUP2 PUSH2 0x1920 JUMP JUMPDEST DUP2 EQ PUSH2 0x1944 JUMPI PUSH0 DUP1 REVERT JUMPDEST POP JUMP JUMPDEST PUSH0 DUP2 CALLDATALOAD SWAP1 POP PUSH2 0x1955 DUP2 PUSH2 0x1931 JUMP JUMPDEST SWAP3 SWAP2 POP POP JUMP JUMPDEST PUSH0 DUP2 SWAP1 POP SWAP2 SWAP1 POP JUMP JUMPDEST PUSH2 0x196D DUP2 PUSH2 0x195B JUMP JUMPDEST DUP2 EQ PUSH2 0x1977 JUMPI PUSH0 DUP1 REVERT JUMPDEST POP JUMP JUMPDEST PUSH0 DUP2 CALLDATALOAD SWAP1 POP PUSH2 0x1988 DUP2 PUSH2 0x1964 JUMP JUMPDEST SWAP3 SWAP2 POP POP JUMP JUMPDEST PUSH0 DUP1 PUSH1 0x40 DUP4 DUP6 SUB SLT ISZERO PUSH2 0x19A4 JUMPI PUSH2 0x19A3 PUSH2 0x18FD JUMP JUMPDEST JUMPDEST PUSH0 PUSH2 0x19B1 DUP6 DUP3 DUP7 ADD PUSH2 0x1947 JUMP JUMPDEST SWAP3 POP POP PUSH1 0x20 PUSH2 0x19C2 DUP6 DUP3 DUP7 ADD PUSH2 0x197A JUMP JUMPDEST SWAP2 POP POP SWAP3 POP SWAP3 SWAP1 POP JUMP JUMPDEST PUSH0 DUP2 ISZERO ISZERO SWAP1 POP SWAP2 SWAP1 POP JUMP JUMPDEST PUSH2 0x19E0 DUP2 PUSH2 0x19CC JUMP JUMPDEST DUP3 MSTORE POP POP JUMP JUMPDEST PUSH0 PUSH1 0x20 DUP3 ADD SWAP1 POP PUSH2 0x19F9 PUSH0 DUP4 ADD DUP5 PUSH2 0x19D7 JUMP JUMPDEST SWAP3 SWAP2 POP POP JUMP JUMPDEST PUSH2 0x1A08 DUP2 PUSH2 0x195B JUMP JUMPDEST DUP3 MSTORE POP POP JUMP JUMPDEST PUSH0 PUSH1 0x20 DUP3 ADD SWAP1 POP PUSH2 0x1A21 PUSH0 DUP4 ADD DUP5 PUSH2 0x19FF JUMP JUMPDEST SWAP3 SWAP2 POP POP JUMP JUMPDEST PUSH0 DUP1 PUSH0 PUSH1 0x60 DUP5 DUP7 SUB SLT ISZERO PUSH2 0x1A3E JUMPI PUSH2 0x1A3D PUSH2 0x18FD JUMP JUMPDEST JUMPDEST PUSH0 PUSH2 0x1A4B DUP7 DUP3 DUP8 ADD PUSH2 0x1947 JUMP JUMPDEST SWAP4 POP POP PUSH1 0x20 PUSH2 0x1A5C DUP7 DUP3 DUP8 ADD PUSH2 0x1947 JUMP JUMPDEST SWAP3 POP POP PUSH1 0x40 PUSH2 0x1A6D DUP7 DUP3 DUP8 ADD PUSH2 0x197A JUMP JUMPDEST SWAP2 POP POP SWAP3 POP SWAP3 POP SWAP3 JUMP JUMPDEST PUSH0 PUSH1 0xFF DUP3 AND SWAP1 POP SWAP2 SWAP1 POP JUMP JUMPDEST PUSH2 0x1A8C DUP2 PUSH2 0x1A77 JUMP JUMPDEST DUP3 MSTORE POP POP JUMP JUMPDEST PUSH0 PUSH1 0x20 DUP3 ADD SWAP1 POP PUSH2 0x1AA5 PUSH0 DUP4 ADD DUP5 PUSH2 0x1A83 JUMP JUMPDEST SWAP3 SWAP2 POP POP JUMP JUMPDEST PUSH0 PUSH1 0x20 DUP3 DUP5 SUB SLT ISZERO PUSH2 0x1AC0 JUMPI PUSH2 0x1ABF PUSH2 0x18FD JUMP JUMPDEST JUMPDEST PUSH0 PUSH2 0x1ACD DUP5 DUP3 DUP6 ADD PUSH2 0x197A JUMP JUMPDEST SWAP2 POP POP SWAP3 SWAP2 POP POP JUMP JUMPDEST PUSH0 PUSH1 0x20 DUP3 DUP5 SUB SLT ISZERO PUSH2 0x1AEB JUMPI PUSH2 0x1AEA PUSH2 0x18FD JUMP JUMPDEST JUMPDEST PUSH0 PUSH2 0x1AF8 DUP5 DUP3 DUP6 ADD PUSH2 0x1947 JUMP JUMPDEST SWAP2 POP POP SWAP3 SWAP2 POP POP JUMP JUMPDEST PUSH0 DUP2 MLOAD SWAP1 POP SWAP2 SWAP1 POP JUMP JUMPDEST PUSH0 DUP3 DUP3 MSTORE PUSH1 0x20 DUP3 ADD SWAP1 POP SWAP3 SWAP2 POP POP JUMP JUMPDEST PUSH0 DUP2 SWAP1 POP PUSH1 0x20 DUP3 ADD SWAP1 POP SWAP2 SWAP1 POP JUMP JUMPDEST PUSH0 DUP3 DUP3 MSTORE PUSH1 0x20 DUP3 ADD SWAP1 POP SWAP3 SWAP2 POP POP JUMP JUMPDEST PUSH0 PUSH2 0x1B44 DUP3 PUSH2 0x186D JUMP JUMPDEST PUSH2 0x1B4E DUP2 DUP6 PUSH2 0x1B2A JUMP JUMPDEST SWAP4 POP PUSH2 0x1B5E DUP2 DUP6 PUSH1 0x20 DUP7 ADD PUSH2 0x1887 JUMP JUMPDEST PUSH2 0x1B67 DUP2 PUSH2 0x1895 JUMP JUMPDEST DUP5 ADD SWAP2 POP POP SWAP3 SWAP2 POP POP JUMP JUMPDEST PUSH0 PUSH2 0x1B7D DUP4 DUP4 PUSH2 0x1B3A JUMP JUMPDEST SWAP1 POP SWAP3 SWAP2 POP POP JUMP JUMPDEST PUSH0 PUSH1 0x20 DUP3 ADD SWAP1 POP SWAP2 SWAP1 POP JUMP JUMPDEST PUSH0 PUSH2 0x1B9B DUP3 PUSH2 0x1B01 JUMP JUMPDEST PUSH2 0x1BA5 DUP2 DUP6 PUSH2 0x1B0B JUMP JUMPDEST SWAP4 POP DUP4 PUSH1 0x20 DUP3 MUL DUP6 ADD PUSH2 0x1BB7 DUP6 PUSH2 0x1B1B JUMP JUMPDEST DUP1 PUSH0 JUMPDEST DUP6 DUP2 LT ISZERO PUSH2 0x1BF2 JUMPI DUP5 DUP5 SUB DUP10 MSTORE DUP2 MLOAD PUSH2 0x1BD3 DUP6 DUP3 PUSH2 0x1B72 JUMP JUMPDEST SWAP5 POP PUSH2 0x1BDE DUP4 PUSH2 0x1B85 JUMP JUMPDEST SWAP3 POP PUSH1 0x20 DUP11 ADD SWAP10 POP POP PUSH1 0x1 DUP2 ADD SWAP1 POP PUSH2 0x1BBA JUMP JUMPDEST POP DUP3 SWAP8 POP DUP8 SWAP6 POP POP POP POP POP POP SWAP3 SWAP2 POP POP JUMP JUMPDEST PUSH0 PUSH1 0x40 DUP3 ADD SWAP1 POP DUP2 DUP2 SUB PUSH0 DUP4 ADD MSTORE PUSH2 0x1C1C DUP2 DUP6 PUSH2 0x1B91 JUMP JUMPDEST SWAP1 POP PUSH2 0x1C2B PUSH1 0x20 DUP4 ADD DUP5 PUSH2 0x19FF JUMP JUMPDEST SWAP4 SWAP3 POP POP POP JUMP JUMPDEST PUSH2 0x1C3B DUP2 PUSH2 0x1920 JUMP JUMPDEST DUP3 MSTORE POP POP JUMP JUMPDEST PUSH0 PUSH1 0x20 DUP3 ADD SWAP1 POP PUSH2 0x1C54 PUSH0 DUP4 ADD DUP5 PUSH2 0x1C32 JUMP JUMPDEST SWAP3 SWAP2 POP POP JUMP JUMPDEST PUSH0 DUP1 PUSH1 0x40 DUP4 DUP6 SUB SLT ISZERO PUSH2 0x1C70 JUMPI PUSH2 0x1C6F PUSH2 0x18FD JUMP JUMPDEST JUMPDEST PUSH0 PUSH2 0x1C7D DUP6 DUP3 DUP7 ADD PUSH2 0x1947 JUMP JUMPDEST SWAP3 POP POP PUSH1 0x20 PUSH2 0x1C8E DUP6 DUP3 DUP7 ADD PUSH2 0x1947 JUMP JUMPDEST SWAP2 POP POP SWAP3 POP SWAP3 SWAP1 POP JUMP JUMPDEST PUSH32 0x4E487B7100000000000000000000000000000000000000000000000000000000 PUSH0 MSTORE PUSH1 0x22 PUSH1 0x4 MSTORE PUSH1 0x24 PUSH0 REVERT JUMPDEST PUSH0 PUSH1 0x2 DUP3 DIV SWAP1 POP PUSH1 0x1 DUP3 AND DUP1 PUSH2 0x1CDC JUMPI PUSH1 0x7F DUP3 AND SWAP2 POP JUMPDEST PUSH1 0x20 DUP3 LT DUP2 SUB PUSH2 0x1CEF JUMPI PUSH2 0x1CEE PUSH2 0x1C98 JUMP JUMPDEST JUMPDEST POP SWAP2 SWAP1 POP JUMP JUMPDEST PUSH32 0x4E487B7100000000000000000000000000000000000000000000000000000000 PUSH0 MSTORE PUSH1 0x11 PUSH1 0x4 MSTORE PUSH1 0x24 PUSH0 REVERT JUMPDEST PUSH0 PUSH2 0x1D2C DUP3 PUSH2 0x195B JUMP JUMPDEST SWAP2 POP PUSH2 0x1D37 DUP4 PUSH2 0x195B JUMP JUMPDEST SWAP3 POP DUP3 DUP3 ADD SWAP1 POP DUP1 DUP3 GT ISZERO PUSH2 0x1D4F JUMPI PUSH2 0x1D4E PUSH2 0x1CF5 JUMP JUMPDEST JUMPDEST SWAP3 SWAP2 POP POP JUMP JUMPDEST PUSH32 0x596F7520646F6E2774206861766520656E6F75676820746F6B656E7321000000 PUSH0 DUP3 ADD MSTORE POP JUMP JUMPDEST PUSH0 PUSH2 0x1D89 PUSH1 0x1D DUP4 PUSH2 0x1877 JUMP JUMPDEST SWAP2 POP PUSH2 0x1D94 DUP3 PUSH2 0x1D55 JUMP JUMPDEST PUSH1 0x20 DUP3 ADD SWAP1 POP SWAP2 SWAP1 POP JUMP JUMPDEST PUSH0 PUSH1 0x20 DUP3 ADD SWAP1 POP DUP2 DUP2 SUB PUSH0 DUP4 ADD MSTORE PUSH2 0x1DB6 DUP2 PUSH2 0x1D7D JUMP JUMPDEST SWAP1 POP SWAP2 SWAP1 POP JUMP JUMPDEST PUSH32 0x4E6F2070757263686173657320666F756E6420666F7220746869732061646472 PUSH0 DUP3 ADD MSTORE PUSH32 0x6573730000000000000000000000000000000000000000000000000000000000 PUSH1 0x20 DUP3 ADD MSTORE POP JUMP JUMPDEST PUSH0 PUSH2 0x1E17 PUSH1 0x23 DUP4 PUSH2 0x1877 JUMP JUMPDEST SWAP2 POP PUSH2 0x1E22 DUP3 PUSH2 0x1DBD JUMP JUMPDEST PUSH1 0x40 DUP3 ADD SWAP1 POP SWAP2 SWAP1 POP JUMP JUMPDEST PUSH0 PUSH1 0x20 DUP3 ADD SWAP1 POP DUP2 DUP2 SUB PUSH0 DUP4 ADD MSTORE PUSH2 0x1E44 DUP2 PUSH2 0x1E0B JUMP JUMPDEST SWAP1 POP SWAP2 SWAP1 POP JUMP JUMPDEST PUSH32 0x45524332303A2064656372656173656420616C6C6F77616E63652062656C6F77 PUSH0 DUP3 ADD MSTORE PUSH32 0x207A65726F000000000000000000000000000000000000000000000000000000 PUSH1 0x20 DUP3 ADD MSTORE POP JUMP JUMPDEST PUSH0 PUSH2 0x1EA5 PUSH1 0x25 DUP4 PUSH2 0x1877 JUMP JUMPDEST SWAP2 POP PUSH2 0x1EB0 DUP3 PUSH2 0x1E4B JUMP JUMPDEST PUSH1 0x40 DUP3 ADD SWAP1 POP SWAP2 SWAP1 POP JUMP JUMPDEST PUSH0 PUSH1 0x20 DUP3 ADD SWAP1 POP DUP2 DUP2 SUB PUSH0 DUP4 ADD MSTORE PUSH2 0x1ED2 DUP2 PUSH2 0x1E99 JUMP JUMPDEST SWAP1 POP SWAP2 SWAP1 POP JUMP JUMPDEST PUSH32 0x57726F6E67206F7074696F6E2073656C65637465642100000000000000000000 PUSH0 DUP3 ADD MSTORE POP JUMP JUMPDEST PUSH0 PUSH2 0x1F0D PUSH1 0x16 DUP4 PUSH2 0x1877 JUMP JUMPDEST SWAP2 POP PUSH2 0x1F18 DUP3 PUSH2 0x1ED9 JUMP JUMPDEST PUSH1 0x20 DUP3 ADD SWAP1 POP SWAP2 SWAP1 POP JUMP JUMPDEST PUSH0 PUSH1 0x20 DUP3 ADD SWAP1 POP DUP2 DUP2 SUB PUSH0 DUP4 ADD MSTORE PUSH2 0x1F3A DUP2 PUSH2 0x1F01 JUMP JUMPDEST SWAP1 POP SWAP2 SWAP1 POP JUMP JUMPDEST PUSH32 0x4F6F70732120496E73756666696369656E7420546F6B656E7300000000000000 PUSH0 DUP3 ADD MSTORE POP JUMP JUMPDEST PUSH0 PUSH2 0x1F75 PUSH1 0x19 DUP4 PUSH2 0x1877 JUMP JUMPDEST SWAP2 POP PUSH2 0x1F80 DUP3 PUSH2 0x1F41 JUMP JUMPDEST PUSH1 0x20 DUP3 ADD SWAP1 POP SWAP2 SWAP1 POP JUMP JUMPDEST PUSH0 PUSH1 0x20 DUP3 ADD SWAP1 POP DUP2 DUP2 SUB PUSH0 DUP4 ADD MSTORE PUSH2 0x1FA2 DUP2 PUSH2 0x1F69 JUMP JUMPDEST SWAP1 POP SWAP2 SWAP1 POP JUMP JUMPDEST PUSH32 0x4E487B7100000000000000000000000000000000000000000000000000000000 PUSH0 MSTORE PUSH1 0x41 PUSH1 0x4 MSTORE PUSH1 0x24 PUSH0 REVERT JUMPDEST PUSH0 DUP2 SWAP1 POP DUP2 PUSH0 MSTORE PUSH1 0x20 PUSH0 KECCAK256 SWAP1 POP SWAP2 SWAP1 POP JUMP JUMPDEST PUSH0 PUSH1 0x20 PUSH1 0x1F DUP4 ADD DIV SWAP1 POP SWAP2 SWAP1 POP JUMP JUMPDEST PUSH0 DUP3 DUP3 SHL SWAP1 POP SWAP3 SWAP2 POP POP JUMP JUMPDEST PUSH0 PUSH1 0x8 DUP4 MUL PUSH2 0x2032 PUSH32 0xFFFFFFFFFFFFFFFFFFFFFFFFFFFFFFFFFFFFFFFFFFFFFFFFFFFFFFFFFFFFFFFF DUP3 PUSH2 0x1FF7 JUMP JUMPDEST PUSH2 0x203C DUP7 DUP4 PUSH2 0x1FF7 JUMP JUMPDEST SWAP6 POP DUP1 NOT DUP5 AND SWAP4 POP DUP1 DUP7 AND DUP5 OR SWAP3 POP POP POP SWAP4 SWAP3 POP POP POP JUMP JUMPDEST PUSH0 DUP2 SWAP1 POP SWAP2 SWAP1 POP JUMP JUMPDEST PUSH0 PUSH2 0x2077 PUSH2 0x2072 PUSH2 0x206D DUP5 PUSH2 0x195B JUMP JUMPDEST PUSH2 0x2054 JUMP JUMPDEST PUSH2 0x195B JUMP JUMPDEST SWAP1 POP SWAP2 SWAP1 POP JUMP JUMPDEST PUSH0 DUP2 SWAP1 POP SWAP2 SWAP1 POP JUMP JUMPDEST PUSH2 0x2090 DUP4 PUSH2 0x205D JUMP JUMPDEST PUSH2 0x20A4 PUSH2 0x209C DUP3 PUSH2 0x207E JUMP JUMPDEST DUP5 DUP5 SLOAD PUSH2 0x2003 JUMP JUMPDEST DUP3 SSTORE POP POP POP POP JUMP JUMPDEST PUSH0 SWAP1 JUMP JUMPDEST PUSH2 0x20B8 PUSH2 0x20AC JUMP JUMPDEST PUSH2 0x20C3 DUP2 DUP5 DUP5 PUSH2 0x2087 JUMP JUMPDEST POP POP POP JUMP JUMPDEST JUMPDEST DUP2 DUP2 LT ISZERO PUSH2 0x20E6 JUMPI PUSH2 0x20DB PUSH0 DUP3 PUSH2 0x20B0 JUMP JUMPDEST PUSH1 0x1 DUP2 ADD SWAP1 POP PUSH2 0x20C9 JUMP JUMPDEST POP POP JUMP JUMPDEST PUSH1 0x1F DUP3 GT ISZERO PUSH2 0x212B JUMPI PUSH2 0x20FC DUP2 PUSH2 0x1FD6 JUMP JUMPDEST PUSH2 0x2105 DUP5 PUSH2 0x1FE8 JUMP JUMPDEST DUP2 ADD PUSH1 0x20 DUP6 LT ISZERO PUSH2 0x2114 JUMPI DUP2 SWAP1 POP JUMPDEST PUSH2 0x2128 PUSH2 0x2120 DUP6 PUSH2 0x1FE8 JUMP JUMPDEST DUP4 ADD DUP3 PUSH2 0x20C8 JUMP JUMPDEST POP POP JUMPDEST POP POP POP JUMP JUMPDEST PUSH0 DUP3 DUP3 SHR SWAP1 POP SWAP3 SWAP2 POP POP JUMP JUMPDEST PUSH0 PUSH2 0x214B PUSH0 NOT DUP5 PUSH1 0x8 MUL PUSH2 0x2130 JUMP JUMPDEST NOT DUP1 DUP4 AND SWAP2 POP POP SWAP3 SWAP2 POP POP JUMP JUMPDEST PUSH0 PUSH2 0x2163 DUP4 DUP4 PUSH2 0x213C JUMP JUMPDEST SWAP2 POP DUP3 PUSH1 0x2 MUL DUP3 OR SWAP1 POP SWAP3 SWAP2 POP POP JUMP JUMPDEST PUSH2 0x217C DUP3 PUSH2 0x186D JUMP JUMPDEST PUSH8 0xFFFFFFFFFFFFFFFF DUP2 GT ISZERO PUSH2 0x2195 JUMPI PUSH2 0x2194 PUSH2 0x1FA9 JUMP JUMPDEST JUMPDEST PUSH2 0x219F DUP3 SLOAD PUSH2 0x1CC5 JUMP JUMPDEST PUSH2 0x21AA DUP3 DUP3 DUP6 PUSH2 0x20EA JUMP JUMPDEST PUSH0 PUSH1 0x20 SWAP1 POP PUSH1 0x1F DUP4 GT PUSH1 0x1 DUP2 EQ PUSH2 0x21DB JUMPI PUSH0 DUP5 ISZERO PUSH2 0x21C9 JUMPI DUP3 DUP8 ADD MLOAD SWAP1 POP JUMPDEST PUSH2 0x21D3 DUP6 DUP3 PUSH2 0x2158 JUMP JUMPDEST DUP7 SSTORE POP PUSH2 0x223A JUMP JUMPDEST PUSH1 0x1F NOT DUP5 AND PUSH2 0x21E9 DUP7 PUSH2 0x1FD6 JUMP JUMPDEST PUSH0 JUMPDEST DUP3 DUP2 LT ISZERO PUSH2 0x2210 JUMPI DUP5 DUP10 ADD MLOAD DUP3 SSTORE PUSH1 0x1 DUP3 ADD SWAP2 POP PUSH1 0x20 DUP6 ADD SWAP5 POP PUSH1 0x20 DUP2 ADD SWAP1 POP PUSH2 0x21EB JUMP JUMPDEST DUP7 DUP4 LT ISZERO PUSH2 0x222D JUMPI DUP5 DUP10 ADD MLOAD PUSH2 0x2229 PUSH1 0x1F DUP10 AND DUP3 PUSH2 0x213C JUMP JUMPDEST DUP4 SSTORE POP JUMPDEST PUSH1 0x1 PUSH1 0x2 DUP9 MUL ADD DUP9 SSTORE POP POP POP JUMPDEST POP POP POP POP POP POP JUMP JUMPDEST PUSH32 0x536F7272792C206E6F7420656E6F7567682062616C616E636520696E2077616C PUSH0 DUP3 ADD MSTORE PUSH32 0x6C65742E00000000000000000000000000000000000000000000000000000000 PUSH1 0x20 DUP3 ADD MSTORE POP JUMP JUMPDEST PUSH0 PUSH2 0x229C PUSH1 0x24 DUP4 PUSH2 0x1877 JUMP JUMPDEST SWAP2 POP PUSH2 0x22A7 DUP3 PUSH2 0x2242 JUMP JUMPDEST PUSH1 0x40 DUP3 ADD SWAP1 POP SWAP2 SWAP1 POP JUMP JUMPDEST PUSH0 PUSH1 0x20 DUP3 ADD SWAP1 POP DUP2 DUP2 SUB PUSH0 DUP4 ADD MSTORE PUSH2 0x22C9 DUP2 PUSH2 0x2290 JUMP JUMPDEST SWAP1 POP SWAP2 SWAP1 POP JUMP JUMPDEST PUSH32 0x536F72727921206F6E6C79206F776E65722063616E206D696E7420746F6B656E PUSH0 DUP3 ADD MSTORE PUSH32 0x7321000000000000000000000000000000000000000000000000000000000000 PUSH1 0x20 DUP3 ADD MSTORE POP JUMP JUMPDEST PUSH0 PUSH2 0x232A PUSH1 0x22 DUP4 PUSH2 0x1877 JUMP JUMPDEST SWAP2 POP PUSH2 0x2335 DUP3 PUSH2 0x22D0 JUMP JUMPDEST PUSH1 0x40 DUP3 ADD SWAP1 POP SWAP2 SWAP1 POP JUMP JUMPDEST PUSH0 PUSH1 0x20 DUP3 ADD SWAP1 POP DUP2 DUP2 SUB PUSH0 DUP4 ADD MSTORE PUSH2 0x2357 DUP2 PUSH2 0x231E JUMP JUMPDEST SWAP1 POP SWAP2 SWAP1 POP JUMP JUMPDEST PUSH32 0x54686973206164647265737320646F65736E2774206578697374000000000000 PUSH0 DUP3 ADD MSTORE POP JUMP JUMPDEST PUSH0 PUSH2 0x2392 PUSH1 0x1A DUP4 PUSH2 0x1877 JUMP JUMPDEST SWAP2 POP PUSH2 0x239D DUP3 PUSH2 0x235E JUMP JUMPDEST PUSH1 0x20 DUP3 ADD SWAP1 POP SWAP2 SWAP1 POP JUMP JUMPDEST PUSH0 PUSH1 0x20 DUP3 ADD SWAP1 POP DUP2 DUP2 SUB PUSH0 DUP4 ADD MSTORE PUSH2 0x23BF DUP2 PUSH2 0x2386 JUMP JUMPDEST SWAP1 POP SWAP2 SWAP1 POP JUMP JUMPDEST PUSH32 0x596F752063616E2774206D696E74206E65676174697665206E756D626572206F PUSH0 DUP3 ADD MSTORE PUSH32 0x6620746F6B656E73000000000000000000000000000000000000000000000000 PUSH1 0x20 DUP3 ADD MSTORE POP JUMP JUMPDEST PUSH0 PUSH2 0x2420 PUSH1 0x28 DUP4 PUSH2 0x1877 JUMP JUMPDEST SWAP2 POP PUSH2 0x242B DUP3 PUSH2 0x23C6 JUMP JUMPDEST PUSH1 0x40 DUP3 ADD SWAP1 POP SWAP2 SWAP1 POP JUMP JUMPDEST PUSH0 PUSH1 0x20 DUP3 ADD SWAP1 POP DUP2 DUP2 SUB PUSH0 DUP4 ADD MSTORE PUSH2 0x244D DUP2 PUSH2 0x2414 JUMP JUMPDEST SWAP1 POP SWAP2 SWAP1 POP JUMP JUMPDEST PUSH32 0x45524332303A20617070726F76652066726F6D20746865207A65726F20616464 PUSH0 DUP3 ADD MSTORE PUSH32 0x7265737300000000000000000000000000000000000000000000000000000000 PUSH1 0x20 DUP3 ADD MSTORE POP JUMP JUMPDEST PUSH0 PUSH2 0x24AE PUSH1 0x24 DUP4 PUSH2 0x1877 JUMP JUMPDEST SWAP2 POP PUSH2 0x24B9 DUP3 PUSH2 0x2454 JUMP JUMPDEST PUSH1 0x40 DUP3 ADD SWAP1 POP SWAP2 SWAP1 POP JUMP JUMPDEST PUSH0 PUSH1 0x20 DUP3 ADD SWAP1 POP DUP2 DUP2 SUB PUSH0 DUP4 ADD MSTORE PUSH2 0x24DB DUP2 PUSH2 0x24A2 JUMP JUMPDEST SWAP1 POP SWAP2 SWAP1 POP JUMP JUMPDEST PUSH32 0x45524332303A20617070726F766520746F20746865207A65726F206164647265 PUSH0 DUP3 ADD MSTORE PUSH32 0x7373000000000000000000000000000000000000000000000000000000000000 PUSH1 0x20 DUP3 ADD MSTORE POP JUMP JUMPDEST PUSH0 PUSH2 0x253C PUSH1 0x22 DUP4 PUSH2 0x1877 JUMP JUMPDEST SWAP2 POP PUSH2 0x2547 DUP3 PUSH2 0x24E2 JUMP JUMPDEST PUSH1 0x40 DUP3 ADD SWAP1 POP SWAP2 SWAP1 POP JUMP JUMPDEST PUSH0 PUSH1 0x20 DUP3 ADD SWAP1 POP DUP2 DUP2 SUB PUSH0 DUP4 ADD MSTORE PUSH2 0x2569 DUP2 PUSH2 0x2530 JUMP JUMPDEST SWAP1 POP SWAP2 SWAP1 POP JUMP JUMPDEST PUSH32 0x45524332303A20696E73756666696369656E7420616C6C6F77616E6365000000 PUSH0 DUP3 ADD MSTORE POP JUMP JUMPDEST PUSH0 PUSH2 0x25A4 PUSH1 0x1D DUP4 PUSH2 0x1877 JUMP JUMPDEST SWAP2 POP PUSH2 0x25AF DUP3 PUSH2 0x2570 JUMP JUMPDEST PUSH1 0x20 DUP3 ADD SWAP1 POP SWAP2 SWAP1 POP JUMP JUMPDEST PUSH0 PUSH1 0x20 DUP3 ADD SWAP1 POP DUP2 DUP2 SUB PUSH0 DUP4 ADD MSTORE PUSH2 0x25D1 DUP2 PUSH2 0x2598 JUMP JUMPDEST SWAP1 POP SWAP2 SWAP1 POP JUMP JUMPDEST PUSH32 0x45524332303A207472616E736665722066726F6D20746865207A65726F206164 PUSH0 DUP3 ADD MSTORE PUSH32 0x6472657373000000000000000000000000000000000000000000000000000000 PUSH1 0x20 DUP3 ADD MSTORE POP JUMP JUMPDEST PUSH0 PUSH2 0x2632 PUSH1 0x25 DUP4 PUSH2 0x1877 JUMP JUMPDEST SWAP2 POP PUSH2 0x263D DUP3 PUSH2 0x25D8 JUMP JUMPDEST PUSH1 0x40 DUP3 ADD SWAP1 POP SWAP2 SWAP1 POP JUMP JUMPDEST PUSH0 PUSH1 0x20 DUP3 ADD SWAP1 POP DUP2 DUP2 SUB PUSH0 DUP4 ADD MSTORE PUSH2 0x265F DUP2 PUSH2 0x2626 JUMP JUMPDEST SWAP1 POP SWAP2 SWAP1 POP JUMP JUMPDEST PUSH32 0x45524332303A207472616E7366657220746F20746865207A65726F2061646472 PUSH0 DUP3 ADD MSTORE PUSH32 0x6573730000000000000000000000000000000000000000000000000000000000 PUSH1 0x20 DUP3 ADD MSTORE POP JUMP JUMPDEST PUSH0 PUSH2 0x26C0 PUSH1 0x23 DUP4 PUSH2 0x1877 JUMP JUMPDEST SWAP2 POP PUSH2 0x26CB DUP3 PUSH2 0x2666 JUMP JUMPDEST PUSH1 0x40 DUP3 ADD SWAP1 POP SWAP2 SWAP1 POP JUMP JUMPDEST PUSH0 PUSH1 0x20 DUP3 ADD SWAP1 POP DUP2 DUP2 SUB PUSH0 DUP4 ADD MSTORE PUSH2 0x26ED DUP2 PUSH2 0x26B4 JUMP JUMPDEST SWAP1 POP SWAP2 SWAP1 POP JUMP JUMPDEST PUSH32 0x45524332303A207472616E7366657220616D6F756E7420657863656564732062 PUSH0 DUP3 ADD MSTORE PUSH32 0x616C616E63650000000000000000000000000000000000000000000000000000 PUSH1 0x20 DUP3 ADD MSTORE POP JUMP JUMPDEST PUSH0 PUSH2 0x274E PUSH1 0x26 DUP4 PUSH2 0x1877 JUMP JUMPDEST SWAP2 POP PUSH2 0x2759 DUP3 PUSH2 0x26F4 JUMP JUMPDEST PUSH1 0x40 DUP3 ADD SWAP1 POP SWAP2 SWAP1 POP JUMP JUMPDEST PUSH0 PUSH1 0x20 DUP3 ADD SWAP1 POP DUP2 DUP2 SUB PUSH0 DUP4 ADD MSTORE PUSH2 0x277B DUP2 PUSH2 0x2742 JUMP JUMPDEST SWAP1 POP SWAP2 SWAP1 POP JUMP JUMPDEST PUSH32 0x45524332303A206275726E2066726F6D20746865207A65726F20616464726573 PUSH0 DUP3 ADD MSTORE PUSH32 0x7300000000000000000000000000000000000000000000000000000000000000 PUSH1 0x20 DUP3 ADD MSTORE POP JUMP JUMPDEST PUSH0 PUSH2 0x27DC PUSH1 0x21 DUP4 PUSH2 0x1877 JUMP JUMPDEST SWAP2 POP PUSH2 0x27E7 DUP3 PUSH2 0x2782 JUMP JUMPDEST PUSH1 0x40 DUP3 ADD SWAP1 POP SWAP2 SWAP1 POP JUMP JUMPDEST PUSH0 PUSH1 0x20 DUP3 ADD SWAP1 POP DUP2 DUP2 SUB PUSH0 DUP4 ADD MSTORE PUSH2 0x2809 DUP2 PUSH2 0x27D0 JUMP JUMPDEST SWAP1 POP SWAP2 SWAP1 POP JUMP JUMPDEST PUSH32 0x45524332303A206275726E20616D6F756E7420657863656564732062616C616E PUSH0 DUP3 ADD MSTORE PUSH32 0x6365000000000000000000000000000000000000000000000000000000000000 PUSH1 0x20 DUP3 ADD MSTORE POP JUMP JUMPDEST PUSH0 PUSH2 0x286A PUSH1 0x22 DUP4 PUSH2 0x1877 JUMP JUMPDEST SWAP2 POP PUSH2 0x2875 DUP3 PUSH2 0x2810 JUMP JUMPDEST PUSH1 0x40 DUP3 ADD SWAP1 POP SWAP2 SWAP1 POP JUMP JUMPDEST PUSH0 PUSH1 0x20 DUP3 ADD SWAP1 POP DUP2 DUP2 SUB PUSH0 DUP4 ADD MSTORE PUSH2 0x2897 DUP2 PUSH2 0x285E JUMP JUMPDEST SWAP1 POP SWAP2 SWAP1 POP JUMP JUMPDEST PUSH32 0x45524332303A206D696E7420746F20746865207A65726F206164647265737300 PUSH0 DUP3 ADD MSTORE POP JUMP JUMPDEST PUSH0 PUSH2 0x28D2 PUSH1 0x1F DUP4 PUSH2 0x1877 JUMP JUMPDEST SWAP2 POP PUSH2 0x28DD DUP3 PUSH2 0x289E JUMP JUMPDEST PUSH1 0x20 DUP3 ADD SWAP1 POP SWAP2 SWAP1 POP JUMP JUMPDEST PUSH0 PUSH1 0x20 DUP3 ADD SWAP1 POP DUP2 DUP2 SUB PUSH0 DUP4 ADD MSTORE PUSH2 0x28FF DUP2 PUSH2 0x28C6 JUMP JUMPDEST SWAP1 POP SWAP2 SWAP1 POP JUMP INVALID BALANCE 0x2E KECCAK256 0x4D CALLVALUE BALANCE CALLDATASIZE KECCAK256 MSTORE8 0x4B BLOBHASH 0x4E KECCAK256 JUMPDEST CODESIZE ADDRESS ADDRESS KECCAK256 PREVRANDAO SELFBALANCE 0x4E TSTORE KECCAK256 ORIGIN 0x2E KECCAK256 COINBASE 0x4B 0x4D KECCAK256 MSTORE8 0x4B BLOBHASH 0x4E KECCAK256 JUMPDEST CALLDATASIZE ADDRESS ADDRESS KECCAK256 PREVRANDAO SELFBALANCE 0x4E TSTORE KECCAK256 CALLER 0x2E KECCAK256 SSTORE 0x4D POP CALLVALUE CALLDATALOAD KECCAK256 MSTORE8 0x4B BLOBHASH 0x4E KECCAK256 JUMPDEST ORIGIN CALLDATALOAD ADDRESS KECCAK256 PREVRANDAO SELFBALANCE 0x4E TSTORE KECCAK256 CALLVALUE 0x2E KECCAK256 0x4D MSIZE SLOAD BASEFEE BLOBHASH NUMBER KECCAK256 0x4F SSTORE SLOAD CHAINID BLOBHASH SLOAD KECCAK256 JUMPDEST BALANCE CALLDATACOPY CALLDATALOAD KECCAK256 PREVRANDAO SELFBALANCE 0x4E TSTORE LOG2 PUSH5 0x6970667358 0x22 SLT KECCAK256 0xAE 0xD0 0x27 SWAP3 SIGNEXTEND 0xF8 CODESIZE SDIV ADDMOD SWAP15 PUSH2 0xEB2F 0xF PUSH16 0xB906709D15AC9B44EEC3B20D0518FE8F DUP10 PUSH5 0x736F6C6343 STOP ADDMOD BYTE STOP CALLER "
				},
				"gasEstimates": {
					"creation": {
						"codeDepositCost": "2130200",
						"executionCost": "infinite",
						"totalCost": "infinite"
					},
					"external": {
						"allowance(address,address)": "infinite",
						"approve(address,uint256)": "infinite",
						"balanceOf(address)": "2852",
						"burnTokens(uint256)": "infinite",
						"checkTokenBalance()": "2628",
						"decimals()": "361",
						"decreaseAllowance(address,uint256)": "infinite",
						"increaseAllowance(address,uint256)": "infinite",
						"mintTokens(address,uint256)": "infinite",
						"myPurchases()": "infinite",
						"name()": "infinite",
						"owner()": "2597",
						"redeemTokens(uint256)": "infinite",
						"shopItems()": "infinite",
						"symbol()": "infinite",
						"tokenName()": "infinite",
						"tokenSymbol()": "infinite",
						"totalSupply()": "2522",
						"transfer(address,uint256)": "infinite",
						"transferFrom(address,address,uint256)": "infinite",
						"transferTokens(address,uint256)": "infinite"
					}
				},
				"methodIdentifiers": {
					"allowance(address,address)": "dd62ed3e",
					"approve(address,uint256)": "095ea7b3",
					"balanceOf(address)": "70a08231",
					"burnTokens(uint256)": "6d1b229d",
					"checkTokenBalance()": "4f731087",
					"decimals()": "313ce567",
					"decreaseAllowance(address,uint256)": "a457c2d7",
					"increaseAllowance(address,uint256)": "39509351",
					"mintTokens(address,uint256)": "f0dda65c",
					"myPurchases()": "8af8a986",
					"name()": "06fdde03",
					"owner()": "8da5cb5b",
					"redeemTokens(uint256)": "a6e158f8",
					"shopItems()": "08514a41",
					"symbol()": "95d89b41",
					"tokenName()": "6c02a931",
					"tokenSymbol()": "7b61c320",
					"totalSupply()": "18160ddd",
					"transfer(address,uint256)": "a9059cbb",
					"transferFrom(address,address,uint256)": "23b872dd",
					"transferTokens(address,uint256)": "bec3fa17"
				}
			},
			"storageLayout": {
				"storage": [
					{
						"astId": 15,
						"contract": "contracts/DegenToken.sol:DegenToken",
						"label": "_balances",
						"offset": 0,
						"slot": "0",
						"type": "t_mapping(t_address,t_uint256)"
					},
					{
						"astId": 21,
						"contract": "contracts/DegenToken.sol:DegenToken",
						"label": "_allowances",
						"offset": 0,
						"slot": "1",
						"type": "t_mapping(t_address,t_mapping(t_address,t_uint256))"
					},
					{
						"astId": 23,
						"contract": "contracts/DegenToken.sol:DegenToken",
						"label": "_totalSupply",
						"offset": 0,
						"slot": "2",
						"type": "t_uint256"
					},
					{
						"astId": 25,
						"contract": "contracts/DegenToken.sol:DegenToken",
						"label": "_name",
						"offset": 0,
						"slot": "3",
						"type": "t_string_storage"
					},
					{
						"astId": 27,
						"contract": "contracts/DegenToken.sol:DegenToken",
						"label": "_symbol",
						"offset": 0,
						"slot": "4",
						"type": "t_string_storage"
					},
					{
						"astId": 719,
						"contract": "contracts/DegenToken.sol:DegenToken",
						"label": "tokenName",
						"offset": 0,
						"slot": "5",
						"type": "t_string_storage"
					},
					{
						"astId": 722,
						"contract": "contracts/DegenToken.sol:DegenToken",
						"label": "tokenSymbol",
						"offset": 0,
						"slot": "6",
						"type": "t_string_storage"
					},
					{
						"astId": 727,
						"contract": "contracts/DegenToken.sol:DegenToken",
						"label": "purchases",
						"offset": 0,
						"slot": "7",
						"type": "t_mapping(t_address,t_array(t_string_storage)dyn_storage)"
					},
					{
						"astId": 729,
						"contract": "contracts/DegenToken.sol:DegenToken",
						"label": "owner",
						"offset": 0,
						"slot": "8",
						"type": "t_address"
					}
				],
				"types": {
					"t_address": {
						"encoding": "inplace",
						"label": "address",
						"numberOfBytes": "20"
					},
					"t_array(t_string_storage)dyn_storage": {
						"base": "t_string_storage",
						"encoding": "dynamic_array",
						"label": "string[]",
						"numberOfBytes": "32"
					},
					"t_mapping(t_address,t_array(t_string_storage)dyn_storage)": {
						"encoding": "mapping",
						"key": "t_address",
						"label": "mapping(address => string[])",
						"numberOfBytes": "32",
						"value": "t_array(t_string_storage)dyn_storage"
					},
					"t_mapping(t_address,t_mapping(t_address,t_uint256))": {
						"encoding": "mapping",
						"key": "t_address",
						"label": "mapping(address => mapping(address => uint256))",
						"numberOfBytes": "32",
						"value": "t_mapping(t_address,t_uint256)"
					},
					"t_mapping(t_address,t_uint256)": {
						"encoding": "mapping",
						"key": "t_address",
						"label": "mapping(address => uint256)",
						"numberOfBytes": "32",
						"value": "t_uint256"
					},
					"t_string_storage": {
						"encoding": "bytes",
						"label": "string",
						"numberOfBytes": "32"
					},
					"t_uint256": {
						"encoding": "inplace",
						"label": "uint256",
						"numberOfBytes": "32"
					}
				}
			},
			"userdoc": {
				"kind": "user",
				"methods": {},
				"version": 1
			}
		}
	}
}